:020000040000FA
:0600000004009AEF00F07D
:020006000000F8
:0600080004006CEF03F0A0
:06001800040057EF03F0A5
:02001E000400DC
:10002000400ED36E9F0ED06E000EF26EB40EF16EC7
:10003000000EF06E000E9D6E000EA06E000EA36E00
:10004000020E9F6E000EA26E000EA56E9E6AA16A41
:10005000A46A3C0EC26E0F0EC16EC06AB56A1F0E56
:10006000806EBE0E816E3F6E826E8368846AE00E83
:10007000926E400E936EC00E946E956A070E966E49
:10008000100ED56ED76AD66A800ECD6ECF6ACE6A54
:10009000080ECA6ECC6ACB6A800EB16EB36AB26AC1
:1000A000D26A200E6E6EBD6ABA6AB46A010ED16E53
:0200B00012003C
:100100008D8480D98D807ED98D947CD98D907AD93B
:1001100012008D8473D98D8071D98D826FD9898AAF
:100120006DD98D946BD98D9069D98D9267D9899A43
:1001300065D912000400FC6A0FEC00F089EC00F0B5
:100140000EEC02F08D840400AA6AA96AA69EA69C01
:10015000A694A680FF0EA86216D10F0EA96EA680E7
:10016000420EA86210D10400A1988D948D82A694AD
:10017000A69EA69CAA6A010EA96EA680A8504AEC6B
:1001800002F0A92AA680A8CF03F0A92AA680A8CFAA
:1001900004F0A92AA680A8CF05F0A92AA680A8CF96
:1001A00008F0A92AA680A8CF09F0089CA92AA68051
:1001B000A8A69694A8A49690A8A2929AA8A096926F
:1001C000A96A8D809F989F9A0400066A076A0A6A46
:1001D000800E176E186A1B681C680401006B1C6B8C
:1001E000386B546B706B016B1D6B396B556B716B9E
:1001F000026B1E6B3A6B566B726B036B1F6B3B6B28
:10020000576B736B046B206B3C6B586B746B056B9B
:10021000216B3D6B596B756B066B226B3E6B5A6B9A
:10022000766B076B236B3F6B5B6B776B086B246B99
:10023000406B5C6B786B096B256B416B5D6B796B0D
:100240000A6B266B426B5E6B7A6B0B6B276B436B97
:100250005F6B7B6B0C6B286B446B606B7C6B0D6B0B
:10026000296B456B616B7D6B0E6B2A6B466B626B0A
:100270007E6B0F6B2B6B476B636B7F6B106B2C6B09
:10028000486B646B806B116B2D6B496B656B816B7D
:10029000126B2E6B4A6B666B826B136B2F6B4B6B07
:1002A000676B836B146B306B4C6B686B846B156B7B
:1002B000316B4D6B696B856B166B326B4E6B6A6B7A
:1002C000866B176B336B4F6B6B6B876B186B346B79
:1002D000506B6C6B886B196B356B516B6D6B896BED
:1002E0001A6B366B526B6E6B8A6B1B6B376B536B77
:1002F0006F6B8B6B8D84D76AD66AF184F28AD58E48
:100300008D929F0ECB6ECC6A9F829E929D82CA84F4
:100310009D8A9E6AA16AA46AF294F292F28EF28C8D
:1003200004008A9E6BD881BC18D004008A8E66D8DF
:1003300081AC13D08A9E62D881BC0FD08A8E5ED8E1
:1003400081AC0BD08A9E04008D728D708D74897A79
:1003500055D881ACF8D7C3EF01F08D940401186B28
:100360000401000E186F010E506F010E6C6F886F44
:10037000A00E346F08AE00EF04F00A0E4AEC02F053
:10038000088C00EF04F00400F29EF29C000EAA6EAE
:10039000000EA96EA69EA69CA684010EF86E400EC5
:1003A000F76E000EF66E100E1E6E0900F5CFA8FF58
:1003B0008D82A198550EA76EAA0EA76EA682A1A83F
:1003C000FED70400A198A92A8D921E2EEED7A694DE
:1003D000F28EF28CAA6AA96A100E1E6E0400F29EBA
:1003E000F29C898A8D808D828D8408D8899A8D901F
:1003F0008D928D9407D81E2EF4D7FF000400040EB2
:10040000216E03D00400080E216E1F682068202E84
:0C041000FED71F2EFBD7212EF8D71200BC
:04041C0004000301D4
:10042000948E949C060E4AEC02F00101040001EE49
:1004300000F0EE6AE966FDD70201040002EE00F06A
:10044000EE6AE966FDD70301006B036B046B056B75
:10045000066B900EAB6E240EAC6E080EB86E1200DA
:100460000301086B9DAA02D09D9A0881056B066B5B
:100470000097009308B19D8A12000301086B9DA8A4
:1004800002D09D980881036B046B0095009108B120
:100490009D88120003010400086F15ECA8F0B06EEF
:1004A00008512AECA8F0AF6E12000301026F04009D
:1004B000030102AF05D04D0E1AD82D0E18D8029F99
:1004C0007F0E026304D05E0E12D83F0E026F1B0E29
:1004D000026302D0240E026F02AD02BB03D05E0E97
:1004E00006D8028D025103D8120003010251040004
:1004F0000301076F00A110D0035104630DD0FAD798
:100500000301025104000301076F00A105D003514C
:10051000046302D00085120004C3E1FF010EE26E05
:1005200007C3E7FF0081042B9D88120004000D0E15
:10053000DEDF0A0EDCDF120002D8015112000400D7
:10054000030100B302D0016B120005C3E1FF020EEC
:10055000E26EE7CF01F3052B0551066301D000934E
:10056000120002D8015112000301040000A3FDD7BC
:10057000E6D70301026F0400030102C308F3083940
:1005800000ECA8F077EC02F0085100ECA8F077EC52
:1005900002F0120003010400200E0C6F126B136BAB
:1005A000146B156B166BEACF0EF3E9CF0FF303EE66
:1005B00012F0050E0D6F0400330EEF26EFB6F00BB0
:1005C000EFBE0F0BEE5E0D2FF6D71A37193718371F
:1005D0001737163715371437133712370C2FE7D75D
:1005E0000EC3EAFF0FC3E9FF120004000301EACFC4
:1005F0000EF3E9CF0FF3E2CF10F3E1CF11F303EEE7
:1006000016F013EE1BF0050E0D6FEF500F0B300FB1
:10061000E56EED380F0B300FE56E0D2FF6D70EC3DC
:10062000EAFF0FC3E9FF10C3E2FF11C3E1FF1200AD
:100630000400030100B102D09D981200E2CF0AF33A
:10064000E1CF0BF303C3E1FF010EE26EE7CFADFF95
:10065000032B0351046301D000910AC3E2FF0BC3D3
:10066000E1FF120004000301ABB41BD8ABB21BD8EE
:1006700000A306D00551066303D00087AE501200D8
:10068000E2CF0AF3E1CF0BF306C3E1FF020EE26E05
:10069000AECFE7FF0083062B0AC3E2FF0BC3E1FFE7
:0E06A0001200008B12000089AB98AB8812008C
:0206AE00026EDA
:1006B000D8CF00F0E0CF01F09EA803D018EC03F0F3
:1006C0009E989EAA03D032EC03F09E9A01C0E0FFF0
:1006D000025000C0D8FF1000F2A414D05D0ED76EF7
:1006E0003D0ED66EF294068C078C04C013F005C044
:1006F00014F0171C05E0176605D01866180602D01E
:10070000184A18689EA213D081BC03D0174A1768F4
:1007100002D01766170606AC07D0142E07D0136652
:1007200007D0069C068E156806BE068A9E921100AA
:0607300013061468FBD75C
:10080000040006BAECEC0CF0030100BB09D90301AB
:1008100000B91ED9030100B732D9030100A306D0E5
:1008200006B002D06ED902D09FEC02F006B485D893
:1008300006B0AED806A82CD006A226D017667CD06B
:1008400006920680780E196E1A68186A0401000E66
:100850001B6F536B6F6B8B6B376B0401000E186F44
:10086000506B6C6B886B346B0401000E196F516B0D
:100870006D6B896B356B0401000E1A6F526B6E6BDA
:100880008A6B366B64D958D0181C56E1068254D056
:1008900006A227D0186650D0069207B64DD006881B
:1008A0000401FF0E1B6F020E536F010E6F6F8B6FF3
:1008B000400E376F0401FF0E196F020E516F010ECB
:1008C0006D6F896F400E356F0401FF0E1A6F020EB7
:1008D000526F010E6E6F8A6F400E366F5BEC11F037
:1008E0002BD0181C29E106820401FF0E1B6FFF0E9E
:1008F000536F1E0E6F6F8B6F600E376F0401FF0E0C
:10090000186FFF0E506F1E0E6C6F886F600E346F85
:100910000401FF0E196FFF0E516F1E0E6D6F896F70
:10092000600E356F0401FF0E1A6FFF0E526F1E0E20
:100930006E6F8A6F600E366F63D7030100B11200CD
:100940009EA81200ACA212000694E4EC11F08A906A
:100950001200120E126E0401FF0E1B6FFF0E536F7A
:100960001E0E6F6F8B6F600E376F0401FF0E196FD5
:10097000FF0E516F1E0E6D6F896F600E356F040193
:10098000000E1A6F526B6E6B8A6B366B0A6A12001E
:100990000400171C02E1078A1BD0176619D007AAAA
:1009A00017D0079A077E196807AE08D00401FF0E1A
:1009B0001A6F526B6E6B8A6B366B0AD00401000E95
:1009C0001A6F010E526F010E6E6F8A6FA00E366F96
:1009D00007AE07AC1200079C192E1200780E196E94
:1009E000B6D81A2A180E1A601A6A3F0E1A140C6E1C
:1009F0000C8C83D904011A6B196B186B1B6B1AB022
:100A000019691AB218691AB41B690401000E1A6F29
:100A1000010E526F010E6E6F8A6FA00E366F1200BC
:100A20000301009B08BE12D00401FF0E1A6FFF0ED7
:100A3000526F1E0E6E6F8A6F600E366F0401FF0ECE
:100A4000196F516B6D6B896B356B1200088A120040
:100A5000030100990401FF0E1A6FFF0E526F1E0E64
:100A60006E6F8A6F600E366F0401FF0E196FFF0EF6
:100A7000516F1E0E6D6F896F600E356F120004018D
:100A8000FF0E1A6FFF0E526F1E0E6E6F8A6F600E92
:100A9000366F0401000E196F010E516F010E6D6F5C
:100AA000896FA00E356F0A6A30EC02F01200230E37
:100AB000126E0401FF0E1A6FFF0E526F1E0E6E6F44
:100AC0008A6F700E366F7FEF05F0220E126E0401F2
:100AD000FF0E1A6FFF0E526F1E0E6E6F8A6F600E42
:100AE000366F7FEF05F0200E126E0401FF0E1A6FB5
:100AF000010E526F200E6E6F8A6F400E366F0A6ABB
:100B0000120004000784B1EC02F008BC7BEF11F086
:100B10000400030101AFD6D0079207900A5001E00C
:100B2000C6DF0301040001510F0B03621200040130
:100B3000FF0E1B6F020E536F010E6F6F8B6F400E17
:100B4000376F03010139070B02E021EF06F00401C2
:100B5000006B1C6B386B546B706B016B1D6B396BCE
:100B6000556B716B026B1E6B3A6B566B726B036B42
:100B70001F6B3B6B576B736B046B206B3C6B586B41
:100B8000746B056B216B3D6B596B756B066B226B40
:100B90003E6B5A6B766B076B236B3F6B5B6B776BB4
:100BA000086B246B406B5C6B786B096B256B416B3E
:100BB0005D6B796B0A6B266B426B5E6B7A6B0B6BB2
:100BC000276B436B5F6B7B6B0C6B286B446B606BB1
:100BD0007C6B0D6B296B456B616B7D6B0E6B2A6BB0
:100BE000466B626B7E6B0F6B2B6B476B636B7F6B24
:100BF000106B2C6B486B646B806B116B2D6B496BAE
:100C0000656B816B126B2E6B4A6B666B826B136B21
:100C10002F6B4B6B676B836B146B306B4C6B686B20
:100C2000846B156B316B4D6B696B856B166B326B1F
:100C30004E6B6A6B866B176B336B4F6B6B6B876B93
:100C400012000B6EE82C03D0010E0A6E1200E82C85
:100C500003D0020E0A6E1200E82C03D0040E0A6EB6
:100C60001200E82C03D0050E0A6E1200E82C02D008
:100C700065EF05F0E82C02D065EF05F0E82C03D015
:100C8000090E0A6E1200010E126E0401FF0E1B6F98
:100C9000FF0E536F1E0E6F6F8B6F600E376F040168
:100CA000FF0E196FFF0E516F1E0E6D6F896F600E74
:100CB000356F0401000E1A6F526B6E6B8A6B366BC8
:100CC0000A6A1200040007A203D0018F07920ED017
:100CD00007A002D007900AD07E0E016302D00782DF
:100CE00012007F0E016302D0078012000A5001E15A
:100CF000120001C30CF0E82C12D0E2EC0CF00A6AEE
:100D000016BC73EF05F016BE08D00CBC03D0E86A21
:100D1000CEEF0CF0E868CEEF0CF073EF05F0E82CA6
:100D200009D0E2EC0CF016BC73EF05F00CBC168C8D
:100D30000A2A1200E82C28D016BE07D0D89016BC7C
:100D4000D8800C340A6ACEEF0CF0020E126E040149
:100D5000FF0E1B6FFF0E536F1E0E6F6F8B6F600EBB
:100D6000376F0401FF0E196FFF0E516F1E0E6D6F6E
:100D7000896F600E356F0401000E1A6F526B6E6B37
:100D80008A6B366B0A6A1200E82C11D0E2EC0CF088
:100D900016BC73EF05F00CBC168C390E0D6E550E9B
:100DA0000E6E060E0A6E0F6A000E106E1200E82C10
:100DB0000AD0E2EC0CF016BC73EF05F00CBC168CFC
:100DC000070E0A6E1200E82C06EF0BF004000C5020
:100DD0000E62FAEF0AF0105002E035EF07F00A6AEF
:100DE00005EE00F016503F0BEF24E828180802E249
:100DF00073EF05F0EF280F64FAEF0AF016AE1FD07C
:100E0000030E126E0401FF0E1B6FFF0E536F1E0EBA
:100E10006F6F8B6F600E376F0401FF0E196FFF0E3F
:100E2000516F1E0E6D6F896F600E356F0401000EDD
:100E30001A6F526B6E6B8A6B366B0A6A1200040073
:100E400005EE00F014EE00F024EE1CF016503F0BFF
:100E5000E126D926EECF1EF01E2ADE6AEECFE7FF8E
:100E6000012A1E2EFAD712001200E82E6BD0030EB4
:100E70000F5C02E2FAEF0AF002E073EF05F005EE14
:100E800002F0ED503A0802E073EF05F0EDCF09F003
:100E9000086AEFB0098EEFB20880EFB4088EF29EB8
:100EA000F29C000EAA6E050EA96EA69EA69CA684B4
:100EB00008C0A8FFA198550EA76EAA0EA76EA6821D
:100EC000A1A8FED70400A198A92A09C0A8FFA1984B
:100ED000550EA76EAA0EA76EA682A1A8FED7040083
:100EE000A198A694F28EF28CAA6AA96A968496803A
:100EF000928A9682EFAC9694EFAA9690EFA8929A77
:100F0000EFA69692EF40E840E8400F0BF29EF29C6D
:100F1000000EAA6E070EA96EA69EA69CA684E8CF18
:100F2000A8FFA198550EA76EAA0EA76EA682A1A82B
:100F3000FED70400A198A694F28EF28CAA6AA96A40
:100F40000A6A1200E82E30D0010E0F5C02E2FAEFBE
:100F50000AF002E073EF05F005EE00F00B0EEF5C17
:100F600002E373EF05F00F0EEF16F29EF29C000EF7
:100F7000AA6E010EA96EA69EA69CA684EFCFA8FF1E
:100F8000A198550EA76EAA0EA76EA682A1A8FED79D
:100F90000400A198A694F28EF28CAA6AA96AEF5076
:100FA0004AEC02F00A6A1200E82E3AD0010E0F5CF9
:100FB00002E2FAEF0AF002E073EF05F005EE00F04E
:100FC000240EEF6273EF05F0C3EF01F0700E126EA6
:100FD0000401FF0E1B6FFF0E536F1E0E6F6F8B6FA2
:100FE000600E376F0401FF0E196FFF0E516F1E0E5A
:100FF0006D6F896F600E356F0401FF0E1A6FFF0E63
:10100000526F1E0E6E6F8A6F600E366F0401000EF7
:10101000186F506B6C6B886B346B0A6A1200FFD7C9
:10102000E82E41D0020E0F5C02E2FAEF0AF002E075
:1010300073EF05F005EE01F0500EED6273EF05F071
:10104000EFCF05F011B0058E046A11B20480F29E54
:10105000F29C000EAA6E030EA96EA69EA69CA68404
:1010600004C0A8FFA198550EA76EAA0EA76EA6826F
:10107000A1A8FED70400A198000EAA6E040EA96EC6
:1010800005C0A8FFA198550EA76EAA0EA76EA6824E
:10109000A1A8FED70400A198A694F28EF28CAA6AA9
:1010A000A96A0A6A1200E82E31D0020E0F5C02E231
:1010B000FAEF0AF002E073EF05F005EE01F0410EE1
:1010C000ED6273EF05F0490EEF6273EF05F011501A
:1010D0000F0B036EF29EF29C000EAA6E020EA96E1A
:1010E000A69EA69CA68403C0A8FFA198550EA76E35
:1010F000AA0EA76EA682A1A8FED70400A198A69466
:10110000F28EF28CAA6AA96A0A6A1200E82E32D01C
:10111000010E0F5C02E2FAEF0AF002E073EF05F055
:1011200005EE00F05A0EEF6273EF05F00A6A06B89A
:1011300012008A8E0401FF0E186FFF0E506F1E0EF4
:101140006C6F886F700E346F0401FF0E196FFF0E05
:10115000516F1E0E6D6F896F700E356F0401FF0E9B
:101160001A6FFF0E526F1E0E6E6F8A6F700E366F03
:1011700006861200E82E2CD0010E0F5C02E2FAEF78
:101180000AF002E073EF05F005EE00F05A0EEF6290
:1011900073EF05F00A6A8A9E0401000E186F010EB3
:1011A000506F010E6C6F886FA00E346F0401000E3B
:1011B000196F516B6D6B896B356B0401000E1A6FE3
:1011C000526B6E6B8A6B366B06961B681C6812003E
:1011D000E82E10D0010E0F5C02E2FAEF0AF002E0F6
:1011E00073EF05F005EE00F0580EEF6273EF05F0B7
:1011F000CDEF11F0E82E91D1010E0F5C02E2FAEF73
:101200000AF002E073EF05F005EE00F0240EEF6245
:1012100073EF05F0DFEC11F0818007940350F009C3
:1012200082EC02F01F0E1D6E7F0E1D6206D082EC56
:1012300002F07F0E82EC02F013D07E0E1D6207D00A
:101240007F0E82EC02F07E0E82EC02F009D01DAE21
:1012500004D07E0E82EC02F01D9E1D5082EC02F046
:10126000300E1D6E7F0E1D6206D082EC02F07F0EE6
:1012700082EC02F013D07E0E1D6207D07F0E82EC4E
:1012800002F07E0E82EC02F009D01DAE04D07E0E7C
:1012900082EC02F01D9E1D5082EC02F0E86A780E8E
:1012A00096B484B4E89C96B084B0E89A92BA80BAB6
:1012B000E89896B284B2E89608BEE88408B0E8825E
:1012C00009BEE8801D6E7F0E1D6206D082EC02F022
:1012D0007F0E82EC02F013D07E0E1D6207D07F0ECF
:1012E00082EC02F07E0E82EC02F009D01DAE04D03A
:1012F0007E0E82EC02F01D9E1D5082EC02F0095021
:101300007F0B1D6E7F0E1D6206D082EC02F07F0EF9
:1013100082EC02F013D07E0E1D6207D07F0E82ECAD
:1013200002F07E0E82EC02F009D01DAE04D07E0EDB
:1013300082EC02F01D9E1D5082EC02F006B8E8849B
:1013400006B6E8821D6E7F0E1D6206D082EC02F0AA
:101350007F0E82EC02F013D07E0E1D6207D07F0E4E
:1013600082EC02F07E0E82EC02F009D01DAE04D0B9
:101370007E0E82EC02F01D9E1D5082EC02F0E86AA7
:1013800007B6E88404B0E88205BEE8801D6E7F0ED3
:101390001D6206D082EC02F07F0E82EC02F013D0C8
:1013A0007E0E1D6207D07F0E82EC02F07E0E82EC74
:1013B00002F009D01DAE04D07E0E82EC02F01D9E1C
:1013C0001D5082EC02F00550E89E1D6E7F0E1D62DE
:1013D00006D082EC02F07F0E82EC02F013D07E0E7B
:1013E0001D6207D07F0E82EC02F07E0E82EC02F0CE
:1013F00009D01DAE04D07E0E82EC02F01D9E1D5061
:1014000082EC02F0E86A82EC02F0E86A82EC02F018
:10141000E86A82EC02F0E86A82EC02F0010E1D6ECE
:101420007F0E1D6206D082EC02F07F0E82EC02F08D
:1014300013D07E0E1D6207D07F0E82EC02F07E0E6E
:1014400082EC02F009D01DAE04D07E0E82EC02F0D8
:101450001D9E1D5082EC02F0E86A82EC02F0000E44
:1014600082EC02F0000E82EC02F0000E82EC02F040
:10147000000E82EC02F0010E82EC02F0000E82EC13
:1014800002F0000E82EC02F0000E82EC02F0020E7E
:1014900082EC02F0000E82EC02F0000E82EC02F010
:1014A000000E82EC02F0030E82EC02F0000E82ECE1
:1014B00002F0000E82EC02F0000E82EC02F01250FC
:1014C000126A1D6E7F0E1D6206D082EC02F07F0E46
:1014D00082EC02F013D07E0E1D6207D07F0E82ECEC
:1014E00002F07E0E82EC02F009D01DAE04D07E0E1A
:1014F00082EC02F01D9E1D5082EC02F0E86A82EC44
:1015000002F0E86A82EC02F0E86A82EC02F0330E44
:1015100082EC02F006840A6A1200E82E0CD0040E57
:101520000F5C02E2FAEF0AF002E073EF05F005EE5D
:1015300000F065EF05F0E82E10D0010E0F5C02E21E
:10154000FAEF0AF002E073EF05F005EE00F0430E4B
:10155000EF6273EF05F065EF05F0E82E18D00F503D
:1015600002E1FAEF0AF005EE00F0EF28E828E8289B
:101570000F5C02E2FAEF0AF002E073EF05F00F04ED
:10158000E926440EEF6273EF05F065EF05F0E82EF3
:1015900011D0020E0F5C02E073EF05F005EE00F0D3
:1015A000330EEE6273EF05F04C0EEF6273EF05F051
:1015B0001AEFB9F0050E126E0401FF0E1B6FFF0E3D
:1015C000536F1E0E6F6F8B6F600E376F0401FF0E2F
:1015D000196FFF0E516F1E0E6D6F896F600E356FA4
:1015E0000401000E1A6F526B6E6B8A6B366B0A6ABF
:1015F000120012000F500D6473EF05F005EE00F0BD
:101600000F50E9260CC0EFFF0F2A1200E82C04D07F
:101610000C28116E0A2A1200E82C38D00C2A16BEAB
:1016200016D004EE1CF016503F0BE926EF6A16BCEC
:10163000EF8E16ACEF8C1C0EE92611C0EFFFE926E9
:101640000CC0EFFFE9260CC0EFFF0A6A1200060E7D
:10165000126E0401FF0E1B6FFF0E536F1E0E6F6F95
:101660008B6F600E376F0401FF0E196FFF0E516F05
:101670001E0E6D6F896F600E356F0401000E1A6FBC
:10168000526B6E6B8A6B366B0A6A1200E82CCDD0F7
:101690000CBC60D00CBA5CD00C500AE1020E0D6E8E
:1016A0005A0E0E6E060E0A6E0F6A060E106E1200AD
:1016B000E82C0AD0020E0D6E5A0E0E6E060E0A6E41
:1016C0000F6A070E106E1200E82C0AD0020E0D6E83
:1016D000590E0E6E060E0A6E0F6A080E106E12007C
:1016E000E82C0AD0020E0D6E540E0E6E060E0A6E17
:1016F0000F6A090E106E1200E82C03D00E0E0A6E4F
:101700001200E82C03D00F0E0A6E1200E82C0AD04B
:10171000050E0D6E3C0E0E6E060E0A6E0F6A0A0E58
:10172000106E1200E82C03D0100E0A6E1200E82C86
:101730000AD0020E0D6E410E0E6E060E0A6E0F6A74
:101740000B0E106E1200E82C73EF05F0ECEF0BF0AF
:1017500073EF05F006B804D0210E126E7FEF05F08E
:101760000CAA4BD00CA855D00F0E0C140FE1069804
:101770000401000E186F010E506F010E6C6F886F20
:10178000A00E346F0A6A72EC11F01200E82C0AD035
:10179000040E0D6E3D0E0E6E060E0A6E0F6A010EE1
:1017A000106E1200E82C0AD0020E0D6E260E0E6E80
:1017B000060E0A6E0F6A020E106E1200E82C0AD096
:1017C000020E0D6E720E0E6E060E0A6E0F6A030E7C
:1017D000106E1200E82C03D00786B7EF0BF0E82C50
:1017E0000AD0030E0D6E1C0E0E6E060E0A6E0F6AE8
:1017F0000D0E106E120073EF05F00CC011F0030E09
:101800000D6E4F0E0E6E060E0A6E0F6A040E106EEF
:1018100012000CC011F0030E0D6E440E0E6E060E7B
:101820000A6E0F6A050E106E1200E82C1FD0080E0B
:10183000126E0401FF0E1B6FFF0E536F1E0E6F6FB3
:101840008B6F600E376F0401FF0E196FFF0E516F23
:101850001E0E6D6F896F600E356F0401000E1A6FDA
:10186000526B6E6B8A6B366B0A6A1200E82C1FD0C3
:101870000B0E126E0401FF0E1B6FFF0E536F1E0E38
:101880006F6F8B6F600E376F0401FF0E196FFF0EC5
:10189000516F1E0E6D6F896F600E356F0401000E63
:1018A0001A6F526B6E6B8A6B366B0A6A1200E82CE9
:1018B0001FD00C0E126E0401FF0E1B6FFF0E536F34
:1018C0001E0E6F6F8B6F600E376F0401FF0E196F66
:1018D000FF0E516F1E0E6D6F896F600E356F040124
:1018E000000E1A6F526B6E6B8A6B366B0A6A1200AF
:1018F000E82C1FD00D0E126E0401FF0E1B6FFF0EA1
:10190000536F1E0E6F6F8B6F600E376F0401FF0EEB
:10191000196FFF0E516F1E0E6D6F896F600E356F60
:101920000401000E1A6F526B6E6B8A6B366B0A6A7B
:101930001200E82C0CD00CC011F0830E0D6E730E4B
:101940000E6E060E0A6E0F6A0C0E106E1200E82C58
:1019500002D065EF05F0E82C02D065EF05F00E0E21
:10196000126E0401FF0E1B6FFF0E536F1E0E6F6F82
:101970008B6F600E376F0401FF0E196FFF0E516FF2
:101980001E0E6D6F896F600E356F0401000E1A6FA9
:10199000526B6E6B8A6B366B0A6A12000400169EDD
:1019A000169C216E04EE00F01650E92621C0EFFFD0
:1019B0001C0EE926EF6AE926EF6AE926EF6AE926B6
:1019C000EF6A120004003F0E0C14166E170E166418
:1019D0001200168C168E120004000401069A15508F
:1019E00056E0006301D08A9A016301D08A980263AD
:1019F00001D08A96036301D08A94046301D08A924D
:101A0000056301D08C9E066301D08C9C076301D0D6
:101A10008C9A086301D08C98096301D08B9A0A6371
:101A200001D08B980B6301D08C960C6301D08C9401
:101A30000D6301D08C920E6301D08C900F6301D0A6
:101A40008B96106301D08B94116301D08B9212633B
:101A500001D08B90136301D08998146301D08996CB
:101A6000156301D08994166301D08992176301D060
:101A70008990186301D08D80196301D08D821A631B
:101A800001D08D841B6301D0898A150612000401E0
:101A90000788001D02E1079803D08A8A006707982B
:101AA0001CAF0DD0702F1AD054C470F438510027D9
:101AB00015E300691C9F1CAB11D01C8D0FD01CAD11
:101AC0000DD0702F0BD054C470F43851005F06E273
:101AD000006B1C9D1CBB1C8F1CB97069011D02E1B1
:101AE000079803D08A88016707981DAF0DD0712F22
:101AF0001AD055C471F43951012715E301691D9FAE
:101B00001DAB11D01D8D0FD01DAD0DD0712F0BD081
:101B100055C471F43951015F06E2016B1D9D1DBB77
:101B20001D8F1DB97169021D02E1079803D08A86D5
:101B3000026707981EAF0DD0722F1AD056C472F4E8
:101B40003A51022715E302691E9F1EAB11D01E8D6C
:101B50000FD01EAD0DD0722F0BD056C472F43A5177
:101B6000025F06E2026B1E9D1EBB1E8F1EB97269CC
:101B7000031D02E1079803D08A84036707981FAF0B
:101B80000DD0732F1AD057C473F43B51032715E3BC
:101B900003691F9F1FAB11D01F8D0FD01FAD0DD03C
:101BA000732F0BD057C473F43B51035F06E2036BF2
:101BB0001F9D1FBB1F8F1FB97369041D02E107988A
:101BC00003D08A820467079820AF0DD0742F1AD0F3
:101BD00058C474F43C51042715E30469209F20ABDA
:101BE00011D0208D0FD020AD0DD0742F0BD058C444
:101BF00074F43C51045F06E2046B209D20BB208FEF
:101C000020B97469051D02E1079803D08C8E056721
:101C1000079821AF0DD0752F1AD059C475F43D51D6
:101C2000052715E30569219F21AB11D0218D0FD028
:101C300021AD0DD0752F0BD059C475F43D51055F02
:101C400006E2056B219D21BB218F21B97569061D17
:101C500002E1079803D08C8C0667079822AF0DD05D
:101C6000762F1AD05AC476F43E51062715E306693A
:101C7000229F22AB11D0228D0FD022AD0DD0762F16
:101C80000BD05AC476F43E51065F06E2066B229DE5
:101C900022BB228F22B97669071D02E1079803D083
:101CA0008C8A0767079823AF0DD0772F1AD05BC4B3
:101CB00077F43F51072715E30769239F23AB11D022
:101CC000238D0FD023AD0DD0772F0BD05BC477F4CD
:101CD0003F51075F06E2076B239D23BB238F23B988
:101CE0007769081D02E1079803D08C880867079878
:101CF00024AF0DD0782F1AD05CC478F44051082757
:101D000015E30869249F24AB11D0248D0FD024AD96
:101D10000DD0782F0BD05CC478F44051085F06E2F8
:101D2000086B249D24BB248F24B97869091D02E126
:101D3000079803D08B8A0967079825AF0DD0792FB4
:101D40001AD05DC479F44151092715E30969259F2B
:101D500025AB11D0258D0FD025AD0DD0792F0BD00F
:101D60005DC479F44151095F06E2096B259D25BBED
:101D7000258F25B979690A1D02E1079803D08B8860
:101D80000A67079826AF0DD07A2F1AD05EC47AF46E
:101D900042510A2715E30A69269F26AB11D0268DEA
:101DA0000FD026AD0DD07A2F0BD05EC47AF44251FD
:101DB0000A5F06E20A6B269D26BB268F26B97A6942
:101DC0000B1D02E1079803D08C860B67079827AF9D
:101DD0000DD07B2F1AD05FC47BF443510B2715E342
:101DE0000B69279F27AB11D0278D0FD027AD0DD0C2
:101DF0007B2F0BD05FC47BF443510B5F06E20B6B70
:101E0000279D27BB278F27B97B690C1D02E1079807
:101E100003D08C840C67079828AF0DD07C2F1AD084
:101E200060C47CF444510C2715E30C69289F28AB4F
:101E300011D0288D0FD028AD0DD07C2F0BD060C4D1
:101E40007CF444510C5F06E20C6B289D28BB288F64
:101E500028B97C690D1D02E1079803D08C820D67BB
:101E6000079829AF0DD07D2F1AD061C47DF445515C
:101E70000D2715E30D69299F29AB11D0298D0FD0AE
:101E800029AD0DD07D2F0BD061C47DF445510D5F80
:101E900006E20D6B299D29BB298F29B97D690E1D8D
:101EA00002E1079803D08C800E6707982AAF0DD007
:101EB0007E2F1AD062C47EF446510E2715E30E69B8
:101EC0002A9F2AAB11D02A8D0FD02AAD0DD07E2F9C
:101ED0000BD062C47EF446510E5F06E20E6B2A9D63
:101EE0002ABB2A8F2AB97E690F1D02E1079803D009
:101EF0008B860F6707982BAF0DD07F2F1AD063C446
:101F00007FF447510F2715E30F692B9F2BAB11D09F
:101F10002B8D0FD02BAD0DD07F2F0BD063C47FF452
:101F200047510F5F06E20F6B2B9D2BBB2B8F2BB9FD
:101F30007F69101D02E1079803D08B841067079812
:101F40002CAF0DD0802F1AD064C480F448511027D4
:101F500015E310692C9F2CAB11D02C8D0FD02CAD1C
:101F60000DD0802F0BD064C480F44851105F06E27E
:101F7000106B2C9D2CBB2C8F2CB98069111D02E19C
:101F8000079803D08B82116707982DAF0DD0812F52
:101F90001AD065C481F44951112715E311692D9FA9
:101FA0002DAB11D02D8D0FD02DAD0DD0812F0BD09D
:101FB00065C481F44951115F06E2116B2D9D2DBB63
:101FC0002D8F2DB98169121D02E1079803D08B80F6
:101FD000126707982EAF0DD0822F1AD066C482F4F4
:101FE0004A51122715E312692E9F2EAB11D02E8D68
:101FF0000FD02EAD0DD0822F0BD066C482F44A5183
:10200000125F06E2126B2E9D2EBB2E8F2EB98269B7
:10201000131D02E1079803D08988136707982FAF33
:102020000DD0832F1AD067C483F44B51132715E3C7
:1020300013692F9F2FAB11D02F8D0FD02FAD0DD047
:10204000832F0BD067C483F44B51135F06E2136BED
:102050002F9D2FBB2F8F2FB98369141D02E1079885
:1020600003D089861467079830AF0DD0842F1AD01B
:1020700068C484F44C51142715E31469309F30ABC5
:1020800011D0308D0FD030AD0DD0842F0BD068C45F
:1020900084F44C51145F06E2146B309D30BB308FDA
:1020A00030B98469151D02E1079803D0898415674A
:1020B000079831AF0DD0852F1AD069C485F44D51E2
:1020C000152715E31569319F31AB11D0318D0FD034
:1020D00031AD0DD0852F0BD069C485F44D51155FFE
:1020E00006E2156B319D31BB318F31B98569161D03
:1020F00002E1079803D089821667079832AF0DD0A6
:10210000862F1AD06AC486F44E51162715E3166935
:10211000329F32AB11D0328D0FD032AD0DD0862F21
:102120000BD06AC486F44E51165F06E2166B329DE0
:1021300032BB328F32B98669171D02E1079803D08E
:1021400089801767079833AF0DD0872F1AD06BC4DB
:1021500087F44F51172715E31769339F33AB11D01D
:10216000338D0FD033AD0DD0872F0BD06BC487F4D8
:102170004F51175F06E2176B339D33BB338F33B973
:102180008769181D01E101D08D9034AF0DD0882FE3
:102190001AD06CC488F45051182715E31869349F7D
:1021A00034AB11D0348D0FD034AD0DD0882F0BD07F
:1021B0006CC488F45051185F06E2186B349D34BB30
:1021C000348F34B98869191D01E101D08D9235AF82
:1021D0000DD0892F1AD06DC489F45151192715E3F8
:1021E0001969359F35AB11D0358D0FD035AD0DD078
:1021F000892F0BD06DC489F45151195F06E2196B18
:10220000359D35BB358F35B989691A1D01E101D07E
:102210008D9436AF0DD08A2F1AD06EC48AF45251E5
:102220001A2715E31A69369F36AB11D0368D0FD0B9
:1022300036AD0DD08A2F0BD06EC48AF452511A5F7E
:1022400006E21A6B369D36BB368F36B98A691B1D7E
:1022500001E101D0899A37AF0DD08B2F1AD06FC40E
:102260008BF453511B2715E31B69379F37AB11D0F4
:10227000378D0FD037AD0DD08B2F0BD06FC48BF4B3
:1022800053511B5F06E21B6B379D37BB378F37B946
:102290008B69069E07A809D01C2E12001C681B2EF5
:1022A000120006A697EC08F0120006B6CBEC08F078
:1022B0001B681C681200040008AC1200F29EF29C1D
:1022C000000EAA6E010EA96EA69EA69CA694A680DC
:1022D000A8CFE8FFF28EF28CAA6AA96A4AEC02F053
:1022E000089C1200040008BE08BC12000A0E4AEC4A
:1022F00002F0088C1200040008AA0DD0089AE866C3
:1023000008D0170E0A6E09C011F00B6A08B00B80D6
:1023100012000A6A12000C6E170E0A6208D01166CB
:1023200003D00BA003D00B90110612000A2A040060
:10233000180E0A6230D00CC00BF011C00CF0112A3C
:10234000E2EC0CF016BC25D00BC00CF016BE02D08F
:10235000CEEF0CF0020E126E0401FF0E1B6FFF0E8B
:10236000536F1E0E6F6F8B6F600E376F0401FF0E81
:10237000196FFF0E516F1E0E6D6F896F600E356FF6
:102380000401000E1A6F526B6E6B8A6B366B0A6A11
:1023900012000A6A12000A6A1200A7EC05F0F29E07
:1023A000F29C8D848D908D92899A730ED36ED1801C
:1023B000040003008D8402EC02F08D94F9D72268AA
:0A23C0000400222EFDD71200FAD708
:108000000102030405060708090A0B0C0D0E0F0000
:108010000000000000000000000000000000000000
:108020001100000000000000000DEADBEEF0000000
:108030000011000000000000000000000000000000
:108040000000110000000000000000000000000000
:108050000011223344556677889900112233445500
:108060000123456789876543210123456789876500
:1080700066554433221100FFEEDDCCBBAAC052FD00
:10808000AAAAAAAAAAAAAAAAAAAAAAAAAAAAAAAA00
:10809000A5A5A5A555555555555555555555555500
:1080A000AAAAAAAAAAAAAAAAAAAAAAAAAAAAAAAA00
:020000040001F9
:10400000FF06000002000000000000000000004267
:105000000F0BE846F9CF09F3F926300C310C320CBE
:10501000330C340C350C360C370C380C390C410C75
:10502000420C430C440C450C460C0F0BE846F9CFE0
:1050300009F3F926820C420C200C100C080C040C0D
:10504000020C010C000C000C000C020C020C020CF7
:10505000020C020C0F0BE846F9CF09F3F926340CC9
:10506000190C8C0C450C220C100C070C030CAC0C0E
:0E507000550C270C070C070C070C070C070C3F
:107000000400FC6AD56A200E6E6EF26A0F0EC16E25
:10701000070EB46E92689368946895689668948E2B
:10702000948C9390969496909692929A8D948D903B
:107030008D82899A040EB06E100EAF6E900EAB6EFC
:10704000240EAC6E080EB86E476848684A6A4B6AF0
:107050000400416AD2D8456A510E466205D02A0E14
:107060004A6A4B6A8ED8F4D73E0E466281D000EE53
:1070700000F0020E426E55D845B274D0BED87C0ED8
:10708000466270D04594005203E1015201E145840B
:1070900000C047F001C048F000380F0BF86E003810
:1070A000F00BF76E01380F0BF7120138C00BF66EBC
:1070B0000150030B5BE1010EF86207D06F0EF7621F
:1070C00007D0C00EF66207D009D0F86407D04ED0C2
:1070D000F76404D04BD0F66401D048D0040000EE31
:1070E00000F0410E426E1DD845B23CD086D82E0E1F
:1070F0004A6A4B6A466236D04B6A41C04AF04166E2
:1071000031D0C3D845B239D0E7D845B238D04A6A71
:107110004B6A6B0E36D845A49BD70400FF0000EFE6
:1071200000F0426602D0459212004580040065D806
:1071300046C04AF0F00E4614446E400E4B6E446258
:1071400011D00F0E461645A004D04638EF6E45907C
:10715000EDD704004650EF12EE504126422EE5D7FF
:10716000459212006E0E0DD85CD875D7210EFBD754
:107170004A684B686E0E05D86BD7620EFCD7760E48
:10718000FAD7040049D88A8047D8496E47380F0B90
:10719000400928D847500F0B400924D848380F0B16
:1071A000400920D848500F0B40091CD84A380F0B13
:1071B000400918D84A500F0B400914D84B380F0B10
:1071C000400910D84B500F0B40090CD849500AD831
:1071D00023D88A9021D88D948D8045A212008D8469
:1071E0008D90120004009EA8FDD7AD6E04009EA8ED
:1071F000FDD70400ACA2FDD712000400ABA400D060
:10720000ABA205D0AB98AB886E0EBBDF0AD09EAAAE
:10721000F4D7AECF46F0120043680400432EFDD7EA
:107220001200EBDF510E466201D012003E0E4662A4
:10723000F8D712000400F29EF29CF86AF76AF66A28
:107240008D8413D845B2FDD7000E006EEF0E016E8F
:10725000B80E026EF00E036E8D8417D845B2FDD7BE
:107260003BD845B2FAD78D82FF00040000EE00F053
:10727000400E426E04000900F5CFEEFF422EFAD711
:107280000A00C00EF616459212000400898AA68EE6
:10729000A69CA684A688550EA76EAA0EA76EA682E7
:1072A0000400400E426E00EE00F00400EECFF5FF49
:1072B0000D00422EFAD7E4DFA68EA69CA684A698DF
:1072C000550EA76EAA0EA76EA682A694A198459207
:1072D000A6B64582899A1200040000EE00F0400E26
:1072E000426E04000900EE50F56204D0422EF9D738
:1072F0004592C6D7C5DF458242C04AF0F5CF4BF074
:02730000120079
:020000040030CA
:0100010006F8
:0100020019E4
:010003001DDF
:01000500807A
:010006008178
:010008003FB8
:01000900C036
:01000A003FB6
:01000B00E014
:01000C003FB4
:01000D0040B2
:0200000400F00A
:10000000FF060000020000000000000000000042A7
:00000001FF
