:020000040000FA
:06000000040082EF00F095
:020006000000F8
:060008000400FEEF02F00F
:02000E000400EC
:06001000000ECD6E12008F
:060018000400E9EF02F014
:02001E000400DC
:10002000400ED36E9F0ED06E000EF26EB40EF16EC7
:10003000000EF06E000E9D6E000EA06E000EA36E00
:10004000020E9F6E000EA26E000EA56E9E6AA16A41
:10005000A46A3C0EC26E0F0EC16EC06AB56A806A99
:10006000896A816A8A6A826A8B6A836A8C6A846A0C
:100070008D6A9268936AF00E946E110E956E966A70
:10008000100ED56ED76AD66A800ECD6ECF6ACE6A54
:10009000080ECA6ECC6ACB6A800EB16EB36AB26AC1
:1000A000D26A200E6E6EBA6AB46ABD6A010ED16E53
:0600B00007EC00F0120055
:10010000120012000400FC6A0FEC00F081EC00F019
:10011000A0EC01F00400AA6AA96AA69EA69CA69477
:10012000A680FF0EA862CFD00F0EA96EA680420E49
:10013000A862C9D00400A198A694A69EA69CAA6A0B
:10014000010EA96EA680A850DCEC01F0A92AA680B9
:10015000A8CF03F0A92AA680A8CF04F0A92AA680D8
:10016000A8CF05F0A92AA680A8CF08F0A92AA92A15
:10017000A96A9F989F9A0400066A076A0A6A800E15
:10018000186E196A1C681D680401006B146B286BDB
:100190003C6B506B016B156B296B3D6B516B026BAC
:1001A000166B2A6B3E6B526B036B176B2B6B3F6BA3
:1001B000536B046B186B2C6B406B546B056B196B9A
:1001C0002D6B416B556B066B1A6B2E6B426B566B2E
:1001D000076B1B6B2F6B436B576B086B1C6B306B88
:1001E000446B586B096B1D6B316B456B596B0A6B1C
:1001F0001E6B326B466B5A6B0B6B1F6B336B476B13
:100200005B6B0C6B206B346B486B5C6B0D6B216B09
:10021000356B496B5D6B0E6B226B366B4A6B5E6B9D
:100220000F6B236B376B4B6B5F6B106B246B386BF7
:100230004C6B606B116B256B396B4D6B616B126B8B
:10024000266B3A6B4E6B626B136B276B3B6B4F6B82
:10025000636BD76AD66AF184F28AD58E9F0ECB6E15
:10026000CC6A9F829E929D82CA849D8A9E6AA16A60
:10027000A46AF294F292F28EF28C04008A9E50D814
:1002800083B81CD004008A8E4BD883A817D00400F2
:100290008A9E46D883B812D004008A8E41D883A89B
:1002A0000DD08A8E8C848B948B80040039D88C740A
:1002B0008B748B7083A8F9D763EF01F05FECA8F023
:1002C000040100EF04F00400F29EF29C000EAA6EFE
:1002D000000EA96EA69EA69CA684010EF86E400E86
:1002E000F76E000EF66E100E1F6E0900F5CFA8FF18
:1002F000A198550EA76EAA0EA76EA682A1A8FED73A
:100300000400A198A92A1F2EF0D7A694F28EF28C91
:10031000AA6AA96A100E1F6E0400F29EF29CFF00EA
:100320000400040E226E03D00400080E226E206822
:100330002168212EFED7202EFBD7222EF8D71200BF
:1003400004000301948E949C060EDCEC01F0010184
:10035000040001EE00F0EE6AE966FDD70201040038
:1003600002EE00F0EE6AE966FDD70301006B036B55
:10037000046B056B066B900EAB6E240EAC6E080E14
:10038000B86E12000301086B9DAA02D09D9A0881E5
:10039000056B066B0097009308B19D8A120003015C
:1003A000086B9DA802D09D980881036B046B009593
:1003B000009108B19D88120003010400086F15EC3C
:1003C000A8F0B06E08513AECA8F0AF6E120003012D
:1003D000026F0400030102AF05D04D0E1AD82D0E96
:1003E00018D8029F7F0E026304D05E0E12D83F0E13
:1003F000026F1B0E026302D0240E026F02AD02BB1D
:1004000003D05E0E06D8028D025103D812000301FC
:10041000025104000301076F00A110D003510463CF
:100420000DD0FAD70301025104000301076F00A1A8
:1004300005D00351046302D00085120004C3E1FF1C
:10044000010EE26E07C3E7FF0081042B9D881200B6
:1004500004000D0EDEDF0A0EDCDF120002D80151AF
:1004600012000400030100B302D0016B120005C3A7
:10047000E1FF020EE26EE7CF01F3052B05510663A3
:1004800001D00093120002D80151120003010400B0
:1004900000A3FDD7E6D70301026F0400030102C3E6
:1004A00008F3083900ECA8F009EC02F0085100EC60
:1004B000A8F009EC02F0120003010400200E0C6FFA
:1004C000126B136B146B156B166BEACF0EF3E9CF3F
:1004D0000FF303EE12F0050E0D6F0400330EEF263E
:1004E000EFB6F00BEFBE0F0BEE5E0D2FF6D71A37FF
:1004F0001937183717371637153714371337123798
:100500000C2FE7D70EC3EAFF0FC3E9FF1200040068
:100510000301EACF0EF3E9CF0FF3E2CF10F3E1CFFF
:1005200011F303EE16F013EE1BF0050E0D6FEF50F6
:100530000F0B300FE56EED380F0B300FE56E0D2F02
:10054000F6D70EC3EAFF0FC3E9FF10C3E2FF11C3E2
:10055000E1FF12000400030100B102D09D981200D7
:10056000E2CF0AF3E1CF0BF303C3E1FF010EE26E2A
:10057000E7CFADFF032B0351046301D000910AC301
:10058000E2FF0BC3E1FF120004000301ABB41BD870
:10059000ABB21BD800A306D00551066303D0008779
:1005A000AE501200E2CF0AF3E1CF0BF306C3E1FF36
:1005B000020EE26EAECFE7FF0083062B0AC3E2FF16
:1005C0000BC3E1FF1200008B12000089AB98AB88CF
:0205D000120017
:0E05D200026ED8CF00F0E0CF01F09EA803D05B
:1005E000AAEC02F09E989EAA03D0C4EC02F09E9A58
:1005F00001C0E0FF025000C0D8FF1000F2A40CD0F0
:100600005D0ED76E3D0ED66EF294068C078C04C03C
:1006100014F005C015F026829EA20CD006AC07D0BF
:10062000152E07D014660CD0069C068E166806BEE2
:10063000068A9E929EA003D09E90254A242A1100ED
:0606400014061568F6D750
:100800000400C5ECA8F0040006BA19EC10F00301CE
:1008100000BB47D8030100B947D8030100B747D848
:10082000030100A306D006B002D051D802D031ECAB
:1008300002F006B403D806B011D8E2D7030100B124
:1008400012009EA81200ACA2120006943BEC13F01A
:100850008B961200120E136E0A6A12000400181C06
:1008600002E1078A0AD0186608D007AA06D0079ABC
:10087000077E1A6807AE01D000D007AE07AC1200A1
:10088000079C1A2E1200780E1A6E3FD81B2A140EDF
:100890001B601B6A3F0E1B140D6E0D8CDDD804010E
:1008A00012000301009B12000301009912000A6A62
:1008B000C2EC01F01200230E136E65EF04F0220E5D
:1008C000136E65EF04F0200E136E0A6A1200040026
:1008D000078443EC02F00400030101AFA2D00792A9
:1008E00007900A5001E0E7DF03010400DF0E016317
:1008F00002D087EFB2F001510F0B03621200030127
:100900000139070B02E0EBEF04F00401006B146BFC
:10091000286B3C6B506B016B156B296B3D6B516BFE
:10092000026B166B2A6B3E6B526B036B176B2B6B58
:100930003F6B536B046B186B2C6B406B546B056BEC
:10094000196B2D6B416B556B066B1A6B2E6B426BE3
:10095000566B076B1B6B2F6B436B576B086B1C6BDA
:10096000306B446B586B096B1D6B316B456B596B6E
:100970000A6B1E6B326B466B5A6B0B6B1F6B336BC8
:10098000476B5B6B0C6B206B346B486B5C6B0D6B5C
:10099000216B356B496B5D6B0E6B226B366B4A6B53
:1009A0005E6B0F6B236B376B4B6B5F6B106B246B4A
:1009B000386B4C6B606B116B256B396B4D6B616BDE
:1009C000126B266B3A6B4E6B626B136B276B3B6B38
:1009D0004F6B636B12000B6EE82C03D0010E0A6E96
:1009E0001200E82C03D0020E0A6E1200E82C03D08D
:1009F000040E0A6E1200E82C03D0050E0A6E1200D7
:100A0000E82C02D05FEF04F0E82C02D05FEF04F096
:100A1000E82C03D0090E0A6E1200010E136E0A6A4A
:100A20001200040007A203D0018F07920ED007A086
:100A300002D007900AD07E0E016302D00782120016
:100A40007F0E016302D0078012000A5001E11200FC
:100A500001C30DF0E82C12D00FEC10F00A6A17BC9D
:100A600063EF04F017BE08D00DBC03D0E86AFBEFBB
:100A70000FF0E868FBEF0FF063EF04F0E82C09D00B
:100A80000FEC10F017BC63EF04F00DBC178C0A2AB2
:100A90001200E82C0DD017BE07D0D89017BCD88014
:100AA0000D340A6AFBEF0FF0020E136E0A6A120091
:100AB000E82C0FD00FEC10F017BC63EF04F0390EE8
:100AC0000E6E550E0F6E060E0A6E106A000E116E37
:100AD0001200E82C0DD00FEC10F017BC63EF04F0FF
:100AE0000DBC178C0C6A0DBE0C8E070E0A6E120020
:100AF000E82C31EF09F004000D500F6225EF09F0EA
:100B0000115002E0AFEF05F00A6A05EE00F0175051
:100B10003F0BEF24E828140802E263EF04F0EF280B
:100B2000106425EF09F017AE04D0030E136E0A6AA5
:100B30001200040005EE00F014EE00F024EE14F0B4
:100B400017503F0BE126D926EECF1FF01F2ADE6A91
:100B5000EECFE7FFE12A1F2EFAD712001200E82E8F
:100B600039D0030E105C02E225EF09F002E063EFDA
:100B700004F005EE02F0ED503A0802E063EF04F0F5
:100B8000EDCF09F0086AF29EF29C000EAA6E050EE7
:100B9000A96EA69EA69CA684A86AA198550EA76ECB
:100BA000AA0EA76EA682A1A8FED70400A198A92A22
:100BB000A86AA198550EA76EAA0EA76EA682A1A834
:100BC000FED70400A198A694F28EF28CAA6AA96AB4
:100BD0000A6A1200E82E30D0010E105C02E225EF06
:100BE00009F002E063EF04F005EE00F0110EEF5C97
:100BF00002E363EF04F00F0EEF16F29EF29C000E7C
:100C0000AA6E010EA96EA69EA69CA684EFCFA8FF91
:100C1000A198550EA76EAA0EA76EA682A1A8FED710
:100C20000400A198A694F28EF28CAA6AA96AEF50E9
:100C3000DCEC01F00A6A1200E82E15D0010E105CFF
:100C400002E225EF09F002E063EF04F005EE00F0A8
:100C5000240EEF6263EF04F063EF01F0700E136E89
:100C60000A6A1200FFD7E82E41D0020E105C02E2A1
:100C700025EF09F002E063EF04F005EE01F0500EFD
:100C8000ED6263EF04F0EFCF05F012B0058E046A59
:100C900012B20480F29EF29C000EAA6E030EA96EA0
:100CA000A69EA69CA68404C0A8FFA198550EA76E78
:100CB000AA0EA76EA682A1A8FED70400A198000ED6
:100CC000AA6E040EA96E05C0A8FFA198550EA76EC6
:100CD000AA0EA76EA682A1A8FED70400A198A6948A
:100CE000F28EF28CAA6AA96A0A6A1200E82E31D042
:100CF000020E105C02E225EF09F002E063EF04F05F
:100D000005EE01F0410EED6263EF04F0490EEF6273
:100D100063EF04F012500F0B036EF29EF29C000E74
:100D2000AA6E020EA96EA69EA69CA68403C0A8FF6A
:100D3000A198550EA76EAA0EA76EA682A1A8FED7EF
:100D40000400A198A694F28EF28CAA6AA96A0A6A93
:100D50001200E82E13D0010E105C02E225EF09F01C
:100D600002E063EF04F005EE00F05A0EEF6263EF6D
:100D700004F00A6A06B8120006861200E82E13D0A4
:100D8000010E105C02E225EF09F002E063EF04F0CF
:100D900005EE00F05A0EEF6263EF04F00A6A069661
:100DA0001C681D681200E82E10D0010E105C02E2D3
:100DB00025EF09F002E063EF04F005EE00F0580EB5
:100DC000EF6263EF04F02CEF13F0E82EC2D1010EB6
:100DD000105C02E225EF09F002E063EF04F005EE9B
:100DE00000F0240EEF6263EF04F036EC13F08B8614
:100DF00007940350F00914EC02F01F0E1E6E7F0ED4
:100E00001E6206D014EC02F07F0E14EC02F013D038
:100E10007E0E1E6207D07F0E14EC02F07E0E14ECE4
:100E200002F009D01EAE04D07E0E14EC02F01E9E1D
:100E30001E5014EC02F0310E1E6E7F0E1E6206D0A4
:100E400014EC02F07F0E14EC02F013D07E0E1E6242
:100E500007D07F0E14EC02F07E0E14EC02F009D0E5
:100E60001EAE04D07E0E14EC02F01E9E1E5014EC3A
:100E700002F0E86A1E6E7F0E1E6206D014EC02F0CD
:100E80007F0E14EC02F013D07E0E1E6207D07F0E90
:100E900014EC02F07E0E14EC02F009D01EAE04D069
:100EA0007E0E14EC02F01E9E1E5014EC02F0E86A56
:100EB0001E6E7F0E1E6206D014EC02F07F0E14EC44
:100EC00002F013D07E0E1E6207D07F0E14EC02F0EB
:100ED0007E0E14EC02F009D01EAE04D07E0E14EC8F
:100EE00002F01E9E1E5014EC02F0E86A06B8E88478
:100EF00006B6E8821E6E7F0E1E6206D014EC02F06B
:100F00007F0E14EC02F013D07E0E1E6207D07F0E0F
:100F100014EC02F07E0E14EC02F009D01EAE04D0E8
:100F20007E0E14EC02F01E9E1E5014EC02F0E86AD5
:100F300007B6E88404B0E88205BEE8801E6E7F0E26
:100F40001E6206D014EC02F07F0E14EC02F013D0F7
:100F50007E0E1E6207D07F0E14EC02F07E0E14ECA3
:100F600002F009D01EAE04D07E0E14EC02F01E9EDC
:100F70001E5014EC02F00550E89E1E6E7F0E1E629D
:100F800006D014EC02F07F0E14EC02F013D07E0EAB
:100F90001E6207D07F0E14EC02F07E0E14EC02F0FD
:100FA00009D01EAE04D07E0E14EC02F01E9E1E5020
:100FB00014EC02F0E86A14EC02F0E86A14EC02F0B7
:100FC000E86A14EC02F0E86A14EC02F0040E1E6EFB
:100FD0007F0E1E6206D014EC02F07F0E14EC02F0BD
:100FE00013D07E0E1E6207D07F0E14EC02F07E0E30
:100FF00014EC02F009D01EAE04D07E0E14EC02F008
:101000001E9E1E5014EC02F0E86A14EC02F0000E72
:1010100014EC02F0000E14EC02F0000E14EC02F0DE
:10102000000E14EC02F0010E14EC02F0000E14ECB1
:1010300002F0000E14EC02F0000E14EC02F0020EAE
:1010400014EC02F0000E14EC02F0000E14EC02F0AE
:10105000000E14EC02F0030E14EC02F0000E14EC7F
:1010600002F0000E14EC02F0000E14EC02F013502B
:10107000136A1E6E7F0E1E6206D014EC02F07F0E05
:1010800014EC02F013D07E0E1E6207D07F0E14EC1B
:1010900002F07E0E14EC02F009D01EAE04D07E0EDB
:1010A00014EC02F01E9E1E5014EC02F0E86A14ECE0
:1010B00002F0E86A14EC02F0E86A14EC02F0010EA7
:1010C000F86E6F0EF76EF00EF66E0900F5501E6E9C
:1010D0007F0E1E6206D014EC02F07F0E14EC02F0BC
:1010E00013D07E0E1E6207D07F0E14EC02F07E0E2F
:1010F00014EC02F009D01EAE04D07E0E14EC02F007
:101100001E9E1E5014EC02F00900F5501E6E7F0E5C
:101110001E6206D014EC02F07F0E14EC02F013D025
:101120007E0E1E6207D07F0E14EC02F07E0E14ECD1
:1011300002F009D01EAE04D07E0E14EC02F01E9E0A
:101140001E5014EC02F0330E14EC02F006840A6A0E
:101150001200E82E0CD0040E105C02E225EF09F01C
:1011600002E063EF04F005EE00F05FEF04F0E82E1C
:1011700010D0010E105C02E225EF09F002E063EFEF
:1011800004F005EE00F0430EEF6263EF04F05FEF52
:1011900004F0E82E18D0105002E125EF09F005EE1A
:1011A00000F0EF28E828E828105C02E225EF09F0BB
:1011B00002E063EF04F01004E926440EEF6263EFEF
:1011C00004F05FEF04F0E82E11D0020E105C02E094
:1011D00063EF04F005EE00F0330EEE6263EF04F00F
:1011E0004C0EEF6263EF04F063EF04F0E82C0AD0DA
:1011F0000028105C02E225EF09F002E063EF04F042
:101200000A6A1200E82C0AD0380E105C02E225EFC0
:1012100009F002E063EF04F00A6A1200E82C10D033
:10122000020E105C02E225EF09F002E063EF04F029
:10123000320E016263EF04F000C546FC0A6A120038
:10124000050E136E0A6A1200120010500E6463EF4E
:1012500004F005EE00F01050E9260DC0EFFF102A53
:101260001200E82C04D00D28126E0A2A1200E82C75
:101270001FD00D2A17BE18D004EE14F017503F0BE4
:10128000E926EF6A17BCEF8E17ACEF8C0CBEEF8A25
:10129000140EE92612C0EFFFE9260DC0EFFFE92684
:1012A0000DC0EFFF0A6A1200060E136E0A6A1200E2
:1012B000E82CF0D00DBC83D00DBA7FD00D500AE1E0
:1012C000020E0E6E5A0E0F6E060E0A6E106A060E93
:1012D000116E1200E82C0AD0020E0E6E5A0E0F6E1E
:1012E000060E0A6E106A070E116E1200E82C0AD064
:1012F000020E0E6E590E0F6E060E0A6E106A080E62
:10130000116E1200E82C0AD0020E0E6E540E0F6EF3
:10131000060E0A6E106A090E116E1200E82C03D038
:101320000E0E0A6E1200E82C03D00F0E0A6E120089
:10133000E82C0AD0050E0E6E3C0E0F6E060E0A6EDD
:10134000106A0A0E116E1200E82C03D0100E0A6EFD
:101350001200E82C0AD0020E0E6E410E0F6E060E21
:101360000A6E106A0B0E116E1200E82C02D015EFF7
:101370000AF0E82C03D0130E0A6E1200E82C03D0FA
:10138000140E0A6E1200E82C0AD0430E0E6E550E93
:101390000F6E060E0A6E106A0E0E116E1200E82C09
:1013A0000AD03B0E0E6E660E0F6E060E0A6E106AA7
:1013B0000F0E116E120063EF04F063EF04F006B835
:1013C00004D0210E136E65EF04F00DAA4BD00DA8CA
:1013D00055D00F0E0D1403E106980A6A1200E82C8E
:1013E0000AD0040E0E6E3D0E0F6E060E0A6E106AC7
:1013F000010E116E1200E82C0AD0020E0E6E260E9F
:101400000F6E060E0A6E106A020E116E1200E82CA4
:101410000AD0020E0E6E720E0F6E060E0A6E106A63
:10142000030E116E1200E82C03D00786ECEF09F0D2
:10143000E82C0AD0030E0E6E1C0E0F6E060E0A6EFE
:10144000106A0D0E116E1200E82C0AD0050E0E6EF9
:101450005A0E0F6E060E0A6E106A100E116E1200F2
:1014600063EF04F00DC012F0030E0E6E4F0E0F6E00
:10147000060E0A6E106A040E116E12000DC012F0F4
:10148000030E0E6E440E0F6E060E0A6E106A050EE7
:10149000116E1200E82C04D0080E136E0A6A1200B6
:1014A000E82C04D00B0E136E0A6A1200E82C04D04C
:1014B0000C0E136E0A6A1200E82C04D00D0E136E87
:1014C0000A6A1200E82C0CD00DC012F0830E0E6ECA
:1014D000730E0F6E060E0A6E106A0C0E116E12005D
:1014E000E82C02D05FEF04F0E82C02D05FEF04F0AC
:1014F000E82C02D063EF04F0E82C02D063EF04F094
:10150000E82CC2EF0FF00400F80E0D14126E600EFE
:10151000126263EF04F00DB066ECB5F036EC13F038
:101520008B860794F00E031014EC02F01D0E14ECE1
:1015300002F00DB2B3EF0FF0030E0DA4280F26B08A
:10154000E88C126E14EC02F00C01E86A28B1E88015
:1015500028B3E88229B1E88429B3E8862EB1E88867
:101560002EB3E88A2FB1E88C14EC02F0E86A2AB1B5
:10157000E8802AB3E8822BB1E8842BB3E88630B147
:10158000E88830B3E88A31B1E88C14EC02F0E86AFC
:101590002CB1E8802CB3E8822DB1E8842DB3E88625
:1015A0002FB3E88831B3E88A14EC02F00DB4B9EF38
:1015B0000FF000CCE8FF1E6E7F0E1E6206D014EC0A
:1015C00002F07F0E14EC02F013D07E0E1E6207D0E4
:1015D0007F0E14EC02F07E0E14EC02F009D01EAE69
:1015E00004D07E0E14EC02F01E9E1E5014EC02F08D
:1015F0000ACCE8FF1E6E7F0E1E6206D014EC02F0CD
:101600007F0E14EC02F013D07E0E1E6207D07F0E08
:1016100014EC02F07E0E14EC02F009D01EAE04D0E1
:101620007E0E14EC02F01E9E1E5014EC02F014CC40
:10163000E8FF1E6E7F0E1E6206D014EC02F07F0ED5
:1016400014EC02F013D07E0E1E6207D07F0E14EC55
:1016500002F07E0E14EC02F009D01EAE04D07E0E15
:1016600014EC02F01E9E1E5014EC02F01ECCE8FF9B
:101670001E6E7F0E1E6206D014EC02F07F0E14EC7C
:1016800002F013D07E0E1E6207D07F0E14EC02F023
:101690007E0E14EC02F009D01EAE04D07E0E14ECC7
:1016A00002F01E9E1E5014EC02F001CCE8FF1E6EEC
:1016B0007F0E1E6206D014EC02F07F0E14EC02F0D6
:1016C00013D07E0E1E6207D07F0E14EC02F07E0E49
:1016D00014EC02F009D01EAE04D07E0E14EC02F021
:1016E0001E9E1E5014EC02F00BCCE8FF1E6E7F0E07
:1016F0001E6206D014EC02F07F0E14EC02F013D040
:101700007E0E1E6207D07F0E14EC02F07E0E14ECEB
:1017100002F009D01EAE04D07E0E14EC02F01E9E24
:101720001E5014EC02F015CCE8FF1E6E7F0E1E62F8
:1017300006D014EC02F07F0E14EC02F013D07E0EF3
:101740001E6207D07F0E14EC02F07E0E14EC02F045
:1017500009D01EAE04D07E0E14EC02F01E9E1E5068
:1017600014EC02F01FCCE8FF1E6E7F0E1E6206D046
:1017700014EC02F07F0E14EC02F013D07E0E1E6209
:1017800007D07F0E14EC02F07E0E14EC02F009D0AC
:101790001EAE04D07E0E14EC02F01E9E1E5014EC01
:1017A00002F002CCE8FF1E6E7F0E1E6206D014EC23
:1017B00002F07F0E14EC02F013D07E0E1E6207D0F2
:1017C0007F0E14EC02F07E0E14EC02F009D01EAE77
:1017D00004D07E0E14EC02F01E9E1E5014EC02F09B
:1017E0000CCCE8FF1E6E7F0E1E6206D014EC02F0D9
:1017F0007F0E14EC02F013D07E0E1E6207D07F0E17
:1018000014EC02F07E0E14EC02F009D01EAE04D0EF
:101810007E0E14EC02F01E9E1E5014EC02F016CC4C
:10182000E8FF1E6E7F0E1E6206D014EC02F07F0EE3
:1018300014EC02F013D07E0E1E6207D07F0E14EC63
:1018400002F07E0E14EC02F009D01EAE04D07E0E23
:1018500014EC02F01E9E1E5014EC02F020CCE8FFA7
:101860001E6E7F0E1E6206D014EC02F07F0E14EC8A
:1018700002F013D07E0E1E6207D07F0E14EC02F031
:101880007E0E14EC02F009D01EAE04D07E0E14ECD5
:1018900002F01E9E1E5014EC02F003CCE8FF1E6EF8
:1018A0007F0E1E6206D014EC02F07F0E14EC02F0E4
:1018B00013D07E0E1E6207D07F0E14EC02F07E0E57
:1018C00014EC02F009D01EAE04D07E0E14EC02F02F
:1018D0001E9E1E5014EC02F00DCCE8FF1E6E7F0E13
:1018E0001E6206D014EC02F07F0E14EC02F013D04E
:1018F0007E0E1E6207D07F0E14EC02F07E0E14ECFA
:1019000002F009D01EAE04D07E0E14EC02F01E9E32
:101910001E5014EC02F017CCE8FF1E6E7F0E1E6204
:1019200006D014EC02F07F0E14EC02F013D07E0E01
:101930001E6207D07F0E14EC02F07E0E14EC02F053
:1019400009D01EAE04D07E0E14EC02F01E9E1E5076
:1019500014EC02F021CCE8FF1E6E7F0E1E6206D052
:1019600014EC02F07F0E14EC02F013D07E0E1E6217
:1019700007D07F0E14EC02F07E0E14EC02F009D0BA
:101980001EAE04D07E0E14EC02F01E9E1E5014EC0F
:1019900002F004CCE8FF1E6E7F0E1E6206D014EC2F
:1019A00002F07F0E14EC02F013D07E0E1E6207D000
:1019B0007F0E14EC02F07E0E14EC02F009D01EAE85
:1019C00004D07E0E14EC02F01E9E1E5014EC02F0A9
:1019D0000ECCE8FF1E6E7F0E1E6206D014EC02F0E5
:1019E0007F0E14EC02F013D07E0E1E6207D07F0E25
:1019F00014EC02F07E0E14EC02F009D01EAE04D0FE
:101A00007E0E14EC02F01E9E1E5014EC02F018CC58
:101A1000E8FF1E6E7F0E1E6206D014EC02F07F0EF1
:101A200014EC02F013D07E0E1E6207D07F0E14EC71
:101A300002F07E0E14EC02F009D01EAE04D07E0E31
:101A400014EC02F01E9E1E5014EC02F022CCE8FFB3
:101A50001E6E7F0E1E6206D014EC02F07F0E14EC98
:101A600002F013D07E0E1E6207D07F0E14EC02F03F
:101A70007E0E14EC02F009D01EAE04D07E0E14ECE3
:101A800002F01E9E1E5014EC02F005CCE8FF1E6E04
:101A90007F0E1E6206D014EC02F07F0E14EC02F0F2
:101AA00013D07E0E1E6207D07F0E14EC02F07E0E65
:101AB00014EC02F009D01EAE04D07E0E14EC02F03D
:101AC0001E9E1E5014EC02F00FCCE8FF1E6E7F0E1F
:101AD0001E6206D014EC02F07F0E14EC02F013D05C
:101AE0007E0E1E6207D07F0E14EC02F07E0E14EC08
:101AF00002F009D01EAE04D07E0E14EC02F01E9E41
:101B00001E5014EC02F019CCE8FF1E6E7F0E1E6210
:101B100006D014EC02F07F0E14EC02F013D07E0E0F
:101B20001E6207D07F0E14EC02F07E0E14EC02F061
:101B300009D01EAE04D07E0E14EC02F01E9E1E5084
:101B400014EC02F023CCE8FF1E6E7F0E1E6206D05E
:101B500014EC02F07F0E14EC02F013D07E0E1E6225
:101B600007D07F0E14EC02F07E0E14EC02F009D0C8
:101B70001EAE04D07E0E14EC02F01E9E1E5014EC1D
:101B800002F006CCE8FF1E6E7F0E1E6206D014EC3B
:101B900002F07F0E14EC02F013D07E0E1E6207D00E
:101BA0007F0E14EC02F07E0E14EC02F009D01EAE93
:101BB00004D07E0E14EC02F01E9E1E5014EC02F0B7
:101BC00010CCE8FF1E6E7F0E1E6206D014EC02F0F1
:101BD0007F0E14EC02F013D07E0E1E6207D07F0E33
:101BE00014EC02F07E0E14EC02F009D01EAE04D00C
:101BF0007E0E14EC02F01E9E1E5014EC02F01ACC65
:101C0000E8FF1E6E7F0E1E6206D014EC02F07F0EFF
:101C100014EC02F013D07E0E1E6207D07F0E14EC7F
:101C200002F07E0E14EC02F009D01EAE04D07E0E3F
:101C300014EC02F01E9E1E5014EC02F024CCE8FFBF
:101C40001E6E7F0E1E6206D014EC02F07F0E14ECA6
:101C500002F013D07E0E1E6207D07F0E14EC02F04D
:101C60007E0E14EC02F009D01EAE04D07E0E14ECF1
:101C700002F01E9E1E5014EC02F007CCE8FF1E6E10
:101C80007F0E1E6206D014EC02F07F0E14EC02F000
:101C900013D07E0E1E6207D07F0E14EC02F07E0E73
:101CA00014EC02F009D01EAE04D07E0E14EC02F04B
:101CB0001E9E1E5014EC02F011CCE8FF1E6E7F0E2B
:101CC0001E6206D014EC02F07F0E14EC02F013D06A
:101CD0007E0E1E6207D07F0E14EC02F07E0E14EC16
:101CE00002F009D01EAE04D07E0E14EC02F01E9E4F
:101CF0001E5014EC02F01BCCE8FF1E6E7F0E1E621D
:101D000006D014EC02F07F0E14EC02F013D07E0E1D
:101D10001E6207D07F0E14EC02F07E0E14EC02F06F
:101D200009D01EAE04D07E0E14EC02F01E9E1E5092
:101D300014EC02F025CCE8FF1E6E7F0E1E6206D06A
:101D400014EC02F07F0E14EC02F013D07E0E1E6233
:101D500007D07F0E14EC02F07E0E14EC02F009D0D6
:101D60001EAE04D07E0E14EC02F01E9E1E5014EC2B
:101D700002F008CCE8FF1E6E7F0E1E6206D014EC47
:101D800002F07F0E14EC02F013D07E0E1E6207D01C
:101D90007F0E14EC02F07E0E14EC02F009D01EAEA1
:101DA00004D07E0E14EC02F01E9E1E5014EC02F0C5
:101DB00012CCE8FF1E6E7F0E1E6206D014EC02F0FD
:101DC0007F0E14EC02F013D07E0E1E6207D07F0E41
:101DD00014EC02F07E0E14EC02F009D01EAE04D01A
:101DE0007E0E14EC02F01E9E1E5014EC02F01CCC71
:101DF000E8FF1E6E7F0E1E6206D014EC02F07F0E0E
:101E000014EC02F013D07E0E1E6207D07F0E14EC8D
:101E100002F07E0E14EC02F009D01EAE04D07E0E4D
:101E200014EC02F01E9E1E5014EC02F026CCE8FFCB
:101E30001E6E7F0E1E6206D014EC02F07F0E14ECB4
:101E400002F013D07E0E1E6207D07F0E14EC02F05B
:101E50007E0E14EC02F009D01EAE04D07E0E14ECFF
:101E600002F01E9E1E5014EC02F009CCE8FF1E6E1C
:101E70007F0E1E6206D014EC02F07F0E14EC02F00E
:101E800013D07E0E1E6207D07F0E14EC02F07E0E81
:101E900014EC02F009D01EAE04D07E0E14EC02F059
:101EA0001E9E1E5014EC02F013CCE8FF1E6E7F0E37
:101EB0001E6206D014EC02F07F0E14EC02F013D078
:101EC0007E0E1E6207D07F0E14EC02F07E0E14EC24
:101ED00002F009D01EAE04D07E0E14EC02F01E9E5D
:101EE0001E5014EC02F01DCCE8FF1E6E7F0E1E6229
:101EF00006D014EC02F07F0E14EC02F013D07E0E2C
:101F00001E6207D07F0E14EC02F07E0E14EC02F07D
:101F100009D01EAE04D07E0E14EC02F01E9E1E50A0
:101F200014EC02F027CCE8FF1E6E7F0E1E6206D076
:101F300014EC02F07F0E14EC02F013D07E0E1E6241
:101F400007D07F0E14EC02F07E0E14EC02F009D0E4
:101F50001EAE04D07E0E14EC02F01E9E1E5014EC39
:101F600002F0B9EF0FF0126A26B0128C125014EC86
:101F700002F0470E1214E88AE88614EC02F0068498
:101F80000A6A1200E82C04D00DC012F00A2A1200CE
:101F9000E82C2DD012AE12BC63EF04F00DAE0DACE8
:101FA00063EF04F00DAA0DB863EF04F00C01289361
:101FB00012B02883299312B229832A9312B42A8358
:101FC0002B9312B62B832C9312B82C832D9312BA19
:101FD0002D832E930DB02E832F930DB22F8330932C
:101FE0000DB4308331930DB631830A6A1200050EA9
:101FF000136E0A6A12000400179E179C226E04EEEC
:1020000000F01750E92622C0EFFF140EE926EF6A10
:10201000E926EF6AE926EF6AE926EF6A1200040072
:102020003F0E0D14176E170E17641200178C178EC3
:10203000120004000401069A16503EE0006301D02D
:102040008B84016301D08B82026301D08B80036398
:1020500001D08D84046301D08A8E056301D08A8CFF
:10206000066301D08A8A076301D08A88086301D099
:102070008A86096301D08A840A6301D08A820B634D
:1020800001D08D800C6301D08C8E0D6301D08C8CBF
:102090000E6301D08C8A0F6301D08D82106301D052
:1020A0008A80116301D08C86126301D08C82136305
:1020B00001D08C841606120004010788001D02E17D
:1020C000079801D08B9414AF0DD0502F1AD03CC478
:1020D00050F42851002715E30069149F14AB11D068
:1020E000148D0FD014AD0DD0502F0BD03CC450F434
:1020F0002851005F06E2006B149D14BB148F14B9C5
:102100005069011D02E1079801D08B9215AF0DD0E7
:10211000512F1AD03DC451F42951012715E301690B
:10212000159F15AB11D0158D0FD015AD0DD0512FBA
:102130000BD03DC451F42951015F06E2016B159D9E
:1021400015BB158F15B95169021D02E1079801D021
:102150008B9016AF0DD0522F1AD03EC452F42A5194
:10216000022715E30269169F16AB11D0168D0FD00A
:1021700016AD0DD0522F0BD03EC452F42A51025F3F
:1021800006E2026B169D16BB168F16B95269031D27
:1021900002E1079801D08D9417AF0DD0532F1AD0BC
:1021A0003FC453F42B51032715E30369179F17AB63
:1021B00011D0178D0FD017AD0DD0532F0BD03FC4BA
:1021C00053F42B51035F06E2036B179D17BB178F68
:1021D00017B95369041D02E1079801D08A9E18AF10
:1021E0000DD0542F1AD040C454F42C51042715E3B9
:1021F0000469189F18AB11D0188D0FD018AD0DD0F1
:10220000542F0BD040C454F42C51045F06E2046BED
:10221000189D18BB188F18B95469051D02E107985D
:1022200001D08A9C19AF0DD0552F1AD041C455F456
:102230002D51052715E30569199F19AB11D0198D8B
:102240000FD019AD0DD0552F0BD041C455F42D51E1
:10225000055F06E2056B199D19BB198F19B9556900
:10226000061D02E1079801D08A9A1AAF0DD0562FA9
:102270001AD042C456F42E51062715E306691A9F58
:102280001AAB11D01A8D0FD01AAD0DD0562F0BD01E
:1022900042C456F42E51065F06E2066B1A9D1ABB25
:1022A0001A8F1AB95669071D02E1079801D08A985A
:1022B0001BAF0DD0572F1AD043C457F42F51072707
:1022C00015E307691B9F1BAB11D01B8D0FD01BADF6
:1022D0000DD0572F0BD043C457F42F51075F06E2A0
:1022E000076B1B9D1BBB1B8F1BB95769081D02E1A8
:1022F000079801D08A961CAF0DD0582F1AD044C42D
:1023000058F43051082715E308691C9F1CAB11D005
:102310001C8D0FD01CAD0DD0582F0BD044C458F4D9
:102320003051085F06E2086B1C9D1CBB1C8F1CB95A
:102330005869091D02E1079801D08A941DAF0DD09C
:10234000592F1AD045C459F43151092715E30969A9
:102350001D9F1DAB11D01D8D0FD01DAD0DD0592F60
:102360000BD045C459F43151095F06E2096B1D9D3C
:102370001DBB1D8F1DB959690A1D02E1079801D0C7
:102380008A921EAF0DD05A2F1AD046C45AF4325139
:102390000A2715E30A691E9F1EAB11D01E8D0FD0B0
:1023A0001EAD0DD05A2F0BD046C45AF432510A5FDD
:1023B00006E20A6B1E9D1EBB1E8F1EB95A690B1DBD
:1023C00002E1079801D08D901FAF0DD05B2F1AD07E
:1023D00047C45BF433510B2715E30B691F9F1FABF9
:1023E00011D01F8D0FD01FAD0DD05B2F0BD047C468
:1023F0005BF433510B5F06E20B6B1F9D1FBB1F8FFE
:102400001FB95B690C1D02E1079801D08C9E20AFBB
:102410000DD05C2F1AD048C45CF434510C2715E35E
:102420000C69209F20AB11D0208D0FD020AD0DD096
:102430005C2F0BD048C45CF434510C5F06E20C6B8B
:10244000209D20BB208F20B95C690D1D02E10798FB
:1024500001D08C9C21AF0DD05D2F1AD049C45DF402
:1024600035510D2715E30D69219F21AB11D0218D29
:102470000FD021AD0DD05D2F0BD049C45DF4355187
:102480000D5F06E20D6B219D21BB218F21B95D6996
:102490000E1D02E1079801D08C9A22AF0DD05E2F5D
:1024A0001AD04AC45EF436510E2715E30E69229FF6
:1024B00022AB11D0228D0FD022AD0DD05E2F0BD0CC
:1024C0004AC45EF436510E5F06E20E6B229D22BBBB
:1024D000228F22B95E690F1D02E1079801D08D920B
:1024E00023AF0DD05F2F1AD04BC45FF437510F27A5
:1024F00015E30F69239F23AB11D0238D0FD023AD9C
:102500000DD05F2F0BD04BC45FF437510F5F06E245
:102510000F6B239D23BB238F23B95F69101D02E13D
:10252000079801D08A9024AF0DD0602F1AD04CC4E8
:1025300060F43851102715E31069249F24AB11D0A3
:10254000248D0FD024AD0DD0602F0BD04CC460F47F
:102550003851105F06E2106B249D24BB248F24B9F0
:102560006069111D02E1079801D08C9625AF0DD04E
:10257000612F1AD04DC461F43951112715E3116947
:10258000259F25AB11D0258D0FD025AD0DD0612F06
:102590000BD04DC461F43951115F06E2116B259DDA
:1025A00025BB258F25B96169121D02E1079801D06D
:1025B0008C9226AF0DD0622F1AD04EC462F43A51DD
:1025C000122715E31269269F26AB11D0268D0FD056
:1025D00026AD0DD0622F0BD04EC462F43A51125F7B
:1025E00006E2126B269D26BB268F26B96269131D53
:1025F00002E1079801D08C9427AF0DD0632F1AD039
:102600004FC463F43B51132715E31369279F27AB8E
:1026100011D0278D0FD027AD0DD0632F0BD04FC415
:1026200063F43B51135F06E2136B279D27BB278F93
:1026300027B96369069E07A809D01D2E12001D68E0
:102640001C2E120006A6BAEC06F0120006B6CFEC5D
:1026500006F01C681D68120085EC04F0F29EF29CE6
:10266000730ED36ED18004000300FDD723680400ED
:08267000232EFDD71200FAD75A
:020000040001F9
:10400000FF06000002000000000000000000004267
:105000000F0BE846F9CF09F3F926300C310C320CBE
:10501000330C340C350C360C370C380C390C410C75
:10502000420C430C440C450C460C1F0BE846F9CFD0
:1050300009F3F926820C420C200C100C080C040C0D
:10504000020C010C000C000C000C000C000C000CFD
:10505000000C000C000C020C020C020C020C020CE6
:10506000020C020C020C020C020C020C020C020CD0
:10507000020C020C1F0BE846F9CF09F3F926340C99
:10508000190C8C0C450C220C100C070C030CAC0CEE
:10509000550C270C130C090C040C030C010C000C10
:1050A000070C070C070C070C070C070C070C070C68
:0E50B000070C070C070C070C070C070C070C6D
:0250BE000400EC
:1050C0000C01266A3C0E466F006B0A6B146B1E6B5C
:1050D000286B326B3C6B016B0B6B156B1F6B296B79
:1050E000336B3D6B026B0C6B166B206B2A6B346B56
:1050F0003E6B036B0D6B176B216B2B6B356B3F6B33
:10510000046B0E6B186B226B2C6B366B406B056B54
:105110000F6B196B236B2D6B376B416B066B106B31
:105120001A6B246B2E6B386B426B076B116B1B6B0E
:10513000256B2F6B396B436B086B126B1C6B266BEB
:10514000306B3A6B446B096B136B1D6B276B316BC8
:105150003B6B456B04003F0E8014280A0BE1068868
:105160000401000E136F040E3B6F010E4F6F636F4F
:10517000A00E276F0401000E136F010E3B6F030E8C
:105180004F6F636FA00E276F120004000C0126A260
:1051900002D0268426920C01040080A662D03C67CF
:1051A00002D02897D1D03C07CFD0288546CC32FCFE
:1051B0000C0128A523D028B921D028890401000E8C
:1051C000026F2A6B3E6B526B166B0401000E016F6F
:1051D000296B3D6B516B156B0401000E006F286B42
:1051E0003C6B506B146B0401000E006F040E286FB3
:1051F000010E3C6F506FA00E146F31D028B31AD03F
:1052000028B118D026A016D00401FF0E026F2A6B19
:105210003E6B526B166B0401FF0E016F296B3D6BE9
:10522000516B156B0401FF0E006F286B3C6B506BCC
:10523000146B15D00401000E026F2A6B3E6B526B8B
:10524000166B0401000E016F296B3D6B516B156BE2
:105250000401000E006F286B3C6B506B146B0C014B
:1052600073D03C3F71D03C6928B59FD728B76CD02C
:10527000288728B369D028B167D026A096D728817F
:10528000F29EF29C25C00AFC24C000FCCECF1EFC7E
:10529000CFCF14FCF28EF28C0C0128A523D028B9B4
:1052A00021D028890401000E026F2A6B3E6B526BDD
:1052B000166B0401000E016F296B3D6B516B156B72
:1052C0000401000E006F286B3C6B506B146B0401E3
:1052D000000E006F040E286F010E3C6F506FA00E81
:1052E000146F31D028B31AD028B118D026A016D008
:1052F0000401FF0E026F2A6B3E6B526B166B0401AA
:10530000FF0E016F296B3D6B516B156B0401FF0E96
:10531000006F286B3C6B506B146B15D00401000EB2
:10532000026F2A6B3E6B526B166B0401000E016F0D
:10533000296B3D6B516B156B0401000E006F286BE0
:105340003C6B506B146B0C0126A45DD028B5322F3A
:105350005AD0289528990C0128A523D028B921D006
:1053600028890401000E026F2A6B3E6B526B166B8C
:105370000401000E016F296B3D6B516B156B04012D
:10538000000E006F286B3C6B506B146B0401000E19
:10539000006F040E286F010E3C6F506FA00E146F4B
:1053A00031D028B31AD028B118D026A016D00401C5
:1053B000FF0E026F2A6B3E6B526B166B0401FF0EE1
:1053C000016F296B3D6B516B156B0401FF0E006F74
:1053D000286B3C6B506B146B15D00401000E026FF0
:1053E0002A6B3E6B526B166B0401000E016F296B2A
:1053F0003D6B516B156B0401000E006F286B3C6B0D
:10540000506B146B0C010C01040080A438D03D6774
:1054100002D029977DD03D077BD0298546CC33FC2F
:105420000C0129A515D029B913D029890401000E32
:10543000036F2B6B3F6B536B176B0401000E036FF5
:10544000040E2B6F010E3F6F536FA00E176F15D018
:1054500029B30CD029B10AD026A008D00401FF0E30
:10546000036F2B6B3F6B536B176B07D00401000E60
:10547000036F2B6B3F6B536B176B0C0149D03D3F98
:1054800047D03D6929B5C9D729B742D0298729B363
:105490003FD029B13DD026A0C0D72981F29EF29CF1
:1054A00025C00BFC24C001FCCECF1FFCCFCF15FCC8
:1054B000F28EF28C0C0129A515D029B913D02989B7
:1054C0000401000E036F2B6B3F6B536B176B0401D2
:1054D000000E036F040E2B6F010E3F6F536FA00E73
:1054E000176F15D029B30CD029B10AD026A008D047
:1054F0000401FF0E036F2B6B3F6B536B176B07D0D1
:105500000401000E036F2B6B3F6B536B176B0C0189
:1055100026A433D029B5332F30D0299529990C01F1
:1055200029A515D029B913D029890401000E036FCC
:105530002B6B3F6B536B176B0401000E036F040E54
:105540002B6F010E3F6F536FA00E176F15D029B34D
:105550000CD029B10AD026A008D00401FF0E036F99
:105560002B6B3F6B536B176B07D00401000E036F5F
:105570002B6B3F6B536B176B0C010C01040080A26B
:1055800062D03E6702D02A97D1D03E07CFD02A857D
:1055900046CC34FC0C012AA523D02AB921D02A8973
:1055A0000401000E066F2E6B426B566B1A6B0401E2
:1055B000000E056F2D6B416B556B196B0401000ECE
:1055C000046F2C6B406B546B186B0401000E046F5E
:1055D000040E2C6F010E406F546FA00E186F31D067
:1055E0002AB31AD02AB118D026A016D00401FF0E73
:1055F000066F2E6B426B566B1A6B0401FF0E056F24
:105600002D6B416B556B196B0401FF0E046F2C6BF6
:10561000406B546B186B15D00401000E066F2E6B97
:10562000426B566B1A6B0401000E056F2D6B416BBC
:10563000556B196B0401000E046F2C6B406B546B9F
:10564000186B0C0173D03E3F71D03E692AB59FD7CD
:105650002AB76CD02A872AB369D02AB167D026A08E
:1056600096D72A81F29EF29C25C00CFC24C002FC35
:10567000CECF20FCCFCF16FCF28EF28C0C012AA5E7
:1056800023D02AB921D02A890401000E066F2E6B7F
:10569000426B566B1A6B0401000E056F2D6B416B4C
:1056A000556B196B0401000E046F2C6B406B546B2F
:1056B000186B0401000E046F040E2C6F010E406F76
:1056C000546FA00E186F31D02AB31AD02AB118D057
:1056D00026A016D00401FF0E066F2E6B426B566B90
:1056E0001A6B0401FF0E056F2D6B416B556B196B27
:1056F0000401FF0E046F2C6B406B546B186B15D0BC
:105700000401000E066F2E6B426B566B1A6B040180
:10571000000E056F2D6B416B556B196B0401000E6C
:10572000046F2C6B406B546B186B0C0126A45DD07E
:105730002AB5342F5AD02A952A990C012AA523D0AC
:105740002AB921D02A890401000E066F2E6B426B04
:10575000566B1A6B0401000E056F2D6B416B556B78
:10576000196B0401000E046F2C6B406B546B186BAB
:105770000401000E046F040E2C6F010E406F546F75
:10578000A00E186F31D02AB31AD02AB118D026A093
:1057900016D00401FF0E066F2E6B426B566B1A6B10
:1057A0000401FF0E056F2D6B416B556B196B0401E6
:1057B000FF0E046F2C6B406B546B186B15D00401FB
:1057C000000E066F2E6B426B566B1A6B0401000EB7
:1057D000056F2D6B416B556B196B0401000E046F47
:1057E0002C6B406B546B186B0C010C01040080A0F7
:1057F00038D03F6702D02B977DD03F077BD02B85D9
:1058000046CC35FC0C012BA515D02BB913D02B8918
:105810000401000E076F2F6B436B576B1B6B04016A
:10582000000E076F040E2F6F010E436F576FA00E0F
:105830001B6F15D02BB30CD02BB10AD026A008D0EB
:105840000401FF0E076F2F6B436B576B1B6B07D069
:105850000401000E076F2F6B436B576B1B6B0C0122
:1058600049D03F3F47D03F692BB5C9D72BB742D06E
:105870002B872BB33FD02BB13DD026A0C0D72B8197
:10588000F29EF29C25C00DFC24C003FCCECF21FC6F
:10589000CFCF17FCF28EF28C0C012BA515D02BB9B3
:1058A00013D02B890401000E076F2F6B436B576BCE
:1058B0001B6B0401000E076F040E2F6F010E436F68
:1058C000576FA00E1B6F15D02BB30CD02BB10AD085
:1058D00026A008D00401FF0E076F2F6B436B576B98
:1058E0001B6B07D00401000E076F2F6B436B576BC8
:1058F0001B6B0C0126A433D02BB5352F30D02B9544
:105900002B990C012BA515D02BB913D02B89040191
:10591000000E076F2F6B436B576B1B6B0401000E60
:10592000076F040E2F6F010E436F576FA00E1B6F92
:1059300015D02BB30CD02BB10AD026A008D004016F
:10594000FF0E076F2F6B436B576B1B6B07D0040168
:10595000000E076F2F6B436B576B1B6B0C010C0119
:10596000040080A862D0406702D02C97D1D04007B5
:10597000CFD02C8546CC36FC0C012CA523D02CB9DD
:1059800021D02C890401000E0A6F326B466B5A6BD2
:105990001E6B0401000E096F316B456B596B1D6B5B
:1059A0000401000E086F306B446B586B1C6B0401D4
:1059B000000E086F040E306F010E446F586FA00E7A
:1059C0001C6F31D02CB31AD02CB118D026A016D011
:1059D0000401FF0E0A6F326B466B5A6B1E6B04019B
:1059E000FF0E096F316B456B596B1D6B0401FF0E88
:1059F000086F306B446B586B1C6B15D00401000EA4
:105A00000A6F326B466B5A6B1E6B0401000E096FF6
:105A1000316B456B596B1D6B0401000E086F306BC9
:105A2000446B586B1C6B0C0173D0403F71D04069C4
:105A30002CB59FD72CB76CD02C872CB369D02CB148
:105A400067D026A096D72C81F29EF29C25C00EFC32
:105A500024C004FCCECF22FCCFCF18FCF28EF28CF7
:105A60000C012CA523D02CB921D02C890401000EC7
:105A70000A6F326B466B5A6B1E6B0401000E096F86
:105A8000316B456B596B1D6B0401000E086F306B59
:105A9000446B586B1C6B0401000E086F040E306FD2
:105AA000010E446F586FA00E1C6F31D02CB31AD06A
:105AB0002CB118D026A016D00401FF0E0A6F326B4D
:105AC000466B5A6B1E6B0401FF0E096F316B456B01
:105AD000596B1D6B0401FF0E086F306B446B586BE4
:105AE0001C6B15D00401000E0A6F326B466B5A6BAB
:105AF0001E6B0401000E096F316B456B596B1D6BFA
:105B00000401000E086F306B446B586B1C6B0C016A
:105B100026A45DD02CB5362F5AD02C952C990C018B
:105B20002CA523D02CB921D02C890401000E0A6F9A
:105B3000326B466B5A6B1E6B0401000E096F316BA2
:105B4000456B596B1D6B0401000E086F306B446B85
:105B5000586B1C6B0401000E086F040E306F010EB1
:105B6000446F586FA00E1C6F31D02CB31AD02CB1DB
:105B700018D026A016D00401FF0E0A6F326B466BB8
:105B80005A6B1E6B0401FF0E096F316B456B596B2D
:105B90001D6B0401FF0E086F306B446B586B1C6B60
:105BA00015D00401000E0A6F326B466B5A6B1E6BE8
:105BB0000401000E096F316B456B596B1D6B0401BD
:105BC000000E086F306B446B586B1C6B0C010C01A2
:105BD000040080AA38D0416702D02D977DD04107BC
:105BE0007BD02D8546CC37FC0C012DA515D02DB9C9
:105BF00013D02D890401000E0B6F336B476B5B6B69
:105C00001F6B0401000E0B6F040E336F010E476F04
:105C10005B6FA00E1F6F15D02DB30CD02DB10AD025
:105C200026A008D00401FF0E0B6F336B476B5B6B34
:105C30001F6B07D00401000E0B6F336B476B5B6B60
:105C40001F6B0C0149D0413F47D041692DB5C9D7E1
:105C50002DB742D02D872DB33FD02DB13DD026A0FA
:105C6000C0D72D81F29EF29C25C00FFC24C005FCFC
:105C7000CECF23FCCFCF19FCF28EF28C0C012DA5D8
:105C800015D02DB913D02D890401000E0B6F336B85
:105C9000476B5B6B1F6B0401000E0B6F040E336FC1
:105CA000010E476F5B6FA00E1F6F15D02DB30CD088
:105CB0002DB10AD026A008D00401FF0E0B6F336B64
:105CC000476B5B6B1F6B07D00401000E0B6F336BD0
:105CD000476B5B6B1F6B0C0126A433D02DB5372FA0
:105CE00030D02D952D990C012DA515D02DB913D09F
:105CF0002D890401000E0B6F336B476B5B6B1F6BC1
:105D00000401000E0B6F040E336F010E476F5B6FC3
:105D1000A00E1F6F15D02DB30CD02DB10AD026A028
:105D200008D00401FF0E0B6F336B476B5B6B1F6B6F
:105D300007D00401000E0B6F336B476B5B6B1F6B5F
:105D40000C010C01040082A862D0426702D02E9799
:105D5000D1D04207CFD02E8546CC38FC0C012EA5E1
:105D600023D02EB921D02E890401000E0E6F366B80
:105D70004A6B5E6B226B0401000E0D6F356B496B35
:105D80005D6B216B0401000E0C6F346B486B5C6B18
:105D9000206B0401000E0C6F040E346F010E486F6F
:105DA0005C6FA00E206F31D02EB31AD02EB118D058
:105DB00026A016D00401FF0E0E6F366B4A6B5E6B89
:105DC000226B0401FF0E0D6F356B496B5D6B216B10
:105DD0000401FF0E0C6F346B486B5C6B206B15D0AD
:105DE0000401000E0E6F366B4A6B5E6B226B040172
:105DF000000E0D6F356B496B5D6B216B0401000E5E
:105E00000C6F346B486B5C6B206B0C0173D0423FA2
:105E100071D042692EB59FD72EB76CD02E872EB386
:105E200069D02EB167D026A096D72E81F29EF29C23
:105E300025C010FC24C006FCCECF24FCCFCF1AFC1A
:105E4000F28EF28C0C012EA523D02EB921D02E89F2
:105E50000401000E0E6F366B4A6B5E6B226B040101
:105E6000000E0D6F356B496B5D6B216B0401000EED
:105E70000C6F346B486B5C6B206B0401000E0C6F75
:105E8000040E346F010E486F5C6FA00E206F31D08E
:105E90002EB31AD02EB118D026A016D00401FF0EB2
:105EA0000E6F366B4A6B5E6B226B0401FF0E0D6F3B
:105EB000356B496B5D6B216B0401FF0E0C6F346B0E
:105EC000486B5C6B206B15D00401000E0E6F366BB7
:105ED0004A6B5E6B226B0401000E0D6F356B496BD4
:105EE0005D6B216B0401000E0C6F346B486B5C6BB7
:105EF000206B0C0126A45DD02EB5382F5AD02E95DC
:105F00002E990C012EA523D02EB921D02E89040163
:105F1000000E0E6F366B4A6B5E6B226B0401000E37
:105F20000D6F356B496B5D6B216B0401000E0C6FBF
:105F3000346B486B5C6B206B0401000E0C6F040E1D
:105F4000346F010E486F5C6FA00E206F31D02EB3FE
:105F50001AD02EB118D026A016D00401FF0E0E6F55
:105F6000366B4A6B5E6B226B0401FF0E0D6F356B57
:105F7000496B5D6B216B0401FF0E0C6F346B486B3A
:105F80005C6B206B15D00401000E0E6F366B4A6BF4
:105F90005E6B226B0401000E0D6F356B496B5D6B00
:105FA000216B0401000E0C6F346B486B5C6B206B33
:105FB0000C010C01040083A038D0436702D02F9756
:105FC0007DD043077BD02F8546CC39FC0C012FA513
:105FD00015D02FB913D02F890401000E0F6F376B26
:105FE0004B6B5F6B236B0401000E0F6F040E376F5A
:105FF000010E4B6F5F6FA00E236F15D02FB30CD027
:106000002FB10AD026A008D00401FF0E0F6F376B06
:106010004B6B5F6B236B07D00401000E0F6F376B68
:106020004B6B5F6B236B0C0149D0433F47D04369F7
:106030002FB5C9D72FB742D02F872FB33FD02FB15D
:106040003DD026A0C0D72F81F29EF29C25C011FC26
:1060500024C007FCCECF25FCCFCF1BFCF28EF28CE8
:106060000C012FA515D02FB913D02F890401000ED4
:106070000F6F376B4B6B5F6B236B0401000E0F6F61
:10608000040E376F010E4B6F5F6FA00E236F15D09C
:106090002FB30CD02FB10AD026A008D00401FF0ED8
:1060A0000F6F376B4B6B5F6B236B07D00401000ED8
:1060B0000F6F376B4B6B5F6B236B0C0126A433D0D8
:1060C0002FB5392F30D02F952F990C012FA515D032
:1060D0002FB913D02F890401000E0F6F376B4B6B54
:1060E0005F6B236B0401000E0F6F040E376F010E00
:1060F0004B6F5F6FA00E236F15D02FB30CD02FB155
:106100000AD026A008D00401FF0E0F6F376B4B6B2F
:106110005F6B236B07D00401000E0F6F376B4B6B67
:106120005F6B236B0C010C01040083A862D04467F1
:1061300002D03097D1D04407CFD0308546CC3AFC3E
:106140000C0130A523D030B921D030890401000ED4
:10615000126F3A6B4E6B626B266B0401000E116F6F
:10616000396B4D6B616B256B0401000E106F386B42
:106170004C6B606B246B0401000E106F040E386FC3
:10618000010E4C6F606FA00E246F31D030B31AD067
:1061900030B118D026A016D00401FF0E126F3A6B52
:1061A0004E6B626B266B0401FF0E116F396B4D6BEA
:1061B000616B256B0401FF0E106F386B4C6B606BCD
:1061C000246B15D00401000E126F3A6B4E6B626B9C
:1061D000266B0401000E116F396B4D6B616B256BE3
:1061E0000401000E106F386B4C6B606B246B0C015C
:1061F00073D0443F71D0446930B59FD730B76CD06D
:10620000308730B369D030B167D026A096D73081BF
:10621000F29EF29C25C012FC24C008FCCECF26FCC6
:10622000CFCF1CFCF28EF28C0C0130A523D030B9FC
:1062300021D030890401000E126F3A6B4E6B626BF5
:10624000266B0401000E116F396B4D6B616B256B72
:106250000401000E106F386B4C6B606B246B0401F3
:10626000000E106F040E386F010E4C6F606FA00EA1
:10627000246F31D030B31AD030B118D026A016D048
:106280000401FF0E126F3A6B4E6B626B266B0401BA
:10629000FF0E116F396B4D6B616B256B0401FF0EA7
:1062A000106F386B4C6B606B246B15D00401000EC3
:1062B000126F3A6B4E6B626B266B0401000E116F0E
:1062C000396B4D6B616B256B0401000E106F386BE1
:1062D0004C6B606B246B0C0126A45DD030B53A2F5B
:1062E0005AD0309530990C0130A523D030B921D047
:1062F00030890401000E126F3A6B4E6B626B266B95
:106300000401000E116F396B4D6B616B256B04013D
:10631000000E106F386B4C6B606B246B0401000E29
:10632000106F040E386F010E4C6F606FA00E246F5B
:1063300031D030B31AD030B118D026A016D0040115
:10634000FF0E126F3A6B4E6B626B266B0401FF0EF1
:10635000116F396B4D6B616B256B0401FF0E106F74
:10636000386B4C6B606B246B15D00401000E126F00
:106370003A6B4E6B626B266B0401000E116F396B2A
:106380004D6B616B256B0401000E106F386B4C6B0D
:10639000606B246B0C010C01040082AA38D04567A5
:1063A00002D031977DD045077BD0318546CC3BFC70
:1063B0000C0131A515D031B913D031890401000E7B
:1063C000136F3B6B4F6B636B276B0401000E136FF6
:1063D000040E3B6F010E4F6F636FA00E276F15D039
:1063E00031B30CD031B10AD026A008D00401FF0E81
:1063F000136F3B6B4F6B636B276B07D00401000E71
:10640000136F3B6B4F6B636B276B0C0149D0453FA0
:1064100047D0456931B5C9D731B742D0318731B39B
:106420003FD031B13DD026A0C0D73181F29EF29C41
:1064300025C013FC24C009FCCECF27FCCFCF1DFC08
:10644000F28EF28C0C0131A515D031B913D03189FF
:106450000401000E136F3B6B4F6B636B276B0401E2
:10646000000E136F040E3B6F010E4F6F636FA00E93
:10647000276F15D031B30CD031B10AD026A008D087
:106480000401FF0E136F3B6B4F6B636B276B07D0E1
:106490000401000E136F3B6B4F6B636B276B0C019A
:1064A00026A433D031B53B2F30D0319531990C0132
:1064B00031A515D031B913D031890401000E136F05
:1064C0003B6B4F6B636B276B0401000E136F040E65
:1064D0003B6F010E4F6F636FA00E276F15D031B366
:1064E0000CD031B10AD026A008D00401FF0E136FE2
:1064F0003B6B4F6B636B276B07D00401000E136F70
:106500003B6B4F6B636B276B0C01269412000400EE
:10651000006B0A6B146B1E6B2891016B0B6B156B78
:106520001F6B2991026B0C6B166B206B2A91036B0E
:106530000D6B176B216B2B91046B0E6B186B226B21
:106540002C91056B0F6B196B236B2D91066B106BE8
:106550001A6B246B2E91076B116B1B6B256B2F91A4
:10656000086B126B1C6B266B3091096B136B1D6BE8
:10657000276B31912680246A256ACF6ACE6A9E9065
:106580009F809D80CD8001D8120004000C010C0179
:1065900028A523D028B921D028890401000E026F34
:1065A0002A6B3E6B526B166B0401000E016F296B58
:1065B0003D6B516B156B0401000E006F286B3C6B3B
:1065C000506B146B0401000E006F040E286F010E57
:1065D0003C6F506FA00E146F31D028B31AD028B181
:1065E00018D026A016D00401FF0E026F2A6B3E6B56
:1065F000526B166B0401FF0E016F296B3D6B516BE3
:10660000156B0401FF0E006F286B3C6B506B146B15
:1066100015D00401000E026F2A6B3E6B526B166B95
:106620000401000E016F296B3D6B516B156B04016A
:10663000000E006F286B3C6B506B146B0C010C014F
:1066400029A515D029B913D029890401000E036F9B
:106650002B6B3F6B536B176B0401000E036F040E23
:106660002B6F010E3F6F536FA00E176F15D029B31C
:106670000CD029B10AD026A008D00401FF0E036F68
:106680002B6B3F6B536B176B07D00401000E036F2E
:106690002B6B3F6B536B176B0C010C012AA523D09E
:1066A0002AB921D02A890401000E066F2E6B426B95
:1066B000566B1A6B0401000E056F2D6B416B556B09
:1066C000196B0401000E046F2C6B406B546B186B3C
:1066D0000401000E046F040E2C6F010E406F546F06
:1066E000A00E186F31D02AB31AD02AB118D026A024
:1066F00016D00401FF0E066F2E6B426B566B1A6BA1
:106700000401FF0E056F2D6B416B556B196B040176
:10671000FF0E046F2C6B406B546B186B15D004018B
:10672000000E066F2E6B426B566B1A6B0401000E47
:10673000056F2D6B416B556B196B0401000E046FD7
:106740002C6B406B546B186B0C010C012BA515D0F6
:106750002BB913D02B890401000E076F2F6B436BED
:10676000576B1B6B0401000E076F040E2F6F010E99
:10677000436F576FA00E1B6F15D02BB30CD02BB1EE
:106780000AD026A008D00401FF0E076F2F6B436BC1
:10679000576B1B6B07D00401000E076F2F6B436B09
:1067A000576B1B6B0C010C012CA523D02CB921D0ED
:1067B0002C890401000E0A6F326B466B5A6B1E6BFC
:1067C0000401000E096F316B456B596B1D6B0401A1
:1067D000000E086F306B446B586B1C6B0401000E8D
:1067E000086F040E306F010E446F586FA00E1C6FBF
:1067F00031D02CB31AD02CB118D026A016D0040159
:10680000FF0E0A6F326B466B5A6B1E6B0401FF0E54
:10681000096F316B456B596B1D6B0401FF0E086FDF
:10682000306B446B586B1C6B15D00401000E0A6F63
:10683000326B466B5A6B1E6B0401000E096F316B95
:10684000456B596B1D6B0401000E086F306B446B78
:10685000586B1C6B0C010C012DA515D02DB913D054
:106860002D890401000E0B6F336B476B5B6B1F6B45
:106870000401000E0B6F040E336F010E476F5B6F48
:10688000A00E1F6F15D02DB30CD02DB10AD026A0AD
:1068900008D00401FF0E0B6F336B476B5B6B1F6BF4
:1068A00007D00401000E0B6F336B476B5B6B1F6BE4
:1068B0000C010C012EA523D02EB921D02E89040164
:1068C000000E0E6F366B4A6B5E6B226B0401000E7E
:1068D0000D6F356B496B5D6B216B0401000E0C6F06
:1068E000346B486B5C6B206B0401000E0C6F040E64
:1068F000346F010E486F5C6FA00E206F31D02EB345
:106900001AD02EB118D026A016D00401FF0E0E6F9B
:10691000366B4A6B5E6B226B0401FF0E0D6F356B9D
:10692000496B5D6B216B0401FF0E0C6F346B486B80
:106930005C6B206B15D00401000E0E6F366B4A6B3A
:106940005E6B226B0401000E0D6F356B496B5D6B46
:10695000216B0401000E0C6F346B486B5C6B206B79
:106960000C010C012FA515D02FB913D02F890401CC
:10697000000E0F6F376B4B6B5F6B236B0401000EC8
:106980000F6F040E376F010E4B6F5F6FA00E236FFA
:1069900015D02FB30CD02FB10AD026A008D00401F7
:1069A000FF0E0F6F376B4B6B5F6B236B07D00401D0
:1069B000000E0F6F376B4B6B5F6B236B0C010C0181
:1069C00030A523D030B921D030890401000E126FD8
:1069D0003A6B4E6B626B266B0401000E116F396BC4
:1069E0004D6B616B256B0401000E106F386B4C6BA7
:1069F000606B246B0401000E106F040E386F010EE3
:106A00004C6F606FA00E246F31D030B31AD030B10C
:106A100018D026A016D00401FF0E126F3A6B4E6BF1
:106A2000626B266B0401FF0E116F396B4D6B616B4E
:106A3000256B0401FF0E106F386B4C6B606B246B81
:106A400015D00401000E126F3A6B4E6B626B266B11
:106A50000401000E116F396B4D6B616B256B0401E6
:106A6000000E106F386B4C6B606B246B0C010C01CB
:106A700031A515D031B913D031890401000E136F3F
:106A80003B6B4F6B636B276B0401000E136F040E9F
:106A90003B6F010E4F6F636FA00E276F15D031B3A0
:106AA0000CD031B10AD026A008D00401FF0E136F1C
:106AB0003B6B4F6B636B276B07D00401000E136FAA
:106AC0003B6B4F6B636B276B0C011200040026902D
:0A6AD000CD909D909E9059DD1200BC
:026FF000A5A05A
:020000040030CA
:0100010006F8
:0100020019E4
:010003001DDF
:01000500807A
:010006008178
:010008003FB8
:01000900C036
:01000A003FB6
:01000B00E014
:01000C003FB4
:01000D0040B2
:0200000400F00A
:10000000FF060000020000000000000000000042A7
:00000001FF
