:020000040000FA
:06000000040082EF00F095
:020006000000F8
:06000800040032EFB7F026
:02000E000400EC
:06001000000ECD6E12008F
:0600180004001DEFB7F02B
:02001E000400DC
:10002000400ED36E9F0ED06E000EF26EB40EF16EC7
:10003000000EF06E000E9D6E000EA06E000EA36E00
:10004000020E9F6E000EA26E000EA56E9E6AA16A41
:10005000A46A3C0EC26E0F0EC16EC06AB56A806A99
:10006000896A816A8A6A826A8B6A836A8C6A846A0C
:100070008D6A9268936AF00E946E110E956E966A70
:10008000100ED56ED76AD66A800ECD6ECF6ACE6A54
:10009000080ECA6ECC6ACB6A800EB16EB36AB26AC1
:1000A000D26A200E6E6EBA6AB46ABD6A010ED16E53
:0600B00007EC00F0120055
:10010000120012000400FC6A0FEC00F081EC00F019
:10011000BFECB5F00400AA6AA96AA69EA69CA694A4
:10012000A680FF0EA862CFD00F0EA96EA680420E49
:10013000A862C9D00400A198A694A69EA69CAA6A0B
:10014000010EA96EA680A850FBECB5F0A92AA680E6
:10015000A8CF03F0A92AA680A8CF04F0A92AA680D8
:10016000A8CF05F0A92AA680A8CF08F0A92AA92A15
:10017000A96A9F989F9A0400066A076A0A6A800E15
:10018000186E196A1C681D680401006B146B286BDB
:100190003C6B506B016B156B296B3D6B516B026BAC
:1001A000166B2A6B3E6B526B036B176B2B6B3F6BA3
:1001B000536B046B186B2C6B406B546B056B196B9A
:1001C0002D6B416B556B066B1A6B2E6B426B566B2E
:1001D000076B1B6B2F6B436B576B086B1C6B306B88
:1001E000446B586B096B1D6B316B456B596B0A6B1C
:1001F0001E6B326B466B5A6B0B6B1F6B336B476B13
:100200005B6B0C6B206B346B486B5C6B0D6B216B09
:10021000356B496B5D6B0E6B226B366B4A6B5E6B9D
:100220000F6B236B376B4B6B5F6B106B246B386BF7
:100230004C6B606B116B256B396B4D6B616B126B8B
:10024000266B3A6B4E6B626B136B276B3B6B4F6B82
:10025000636BD76AD66AF184F28AD58E9F0ECB6E15
:10026000CC6A9F829E929D82CA849D8A9E6AA16A60
:10027000A46AF294F292F28EF28C04008A9E50D814
:1002800083B81CD004008A8E4BD883A817D00400F2
:100290008A9E46D883B812D004008A8E41D883A89B
:1002A0000DD08A8E8C848B948B80040039D88C740A
:1002B0008B748B7083A8F9D763EF01F05FECA8F023
:1002C000040100EF04F00400F29EF29C000EAA6EFE
:1002D000000EA96EA69EA69CA684010EF86E400E86
:1002E000F76E000EF66E100E1F6E0900F5CFA8FF18
:1002F000A198550EA76EAA0EA76EA682A1A8FED73A
:100300000400A198A92A1F2EF0D7A694F28EF28C91
:10031000AA6AA96A100E1F6E0400F29EF29CFF00EA
:100320000400040E226E03D00400080E226E206822
:100330002168212EFED7202EFBD7222EF8D71200BF
:100800000400C6ECA8F0040006BA2CEC10F00301BA
:1008100000BB47D8030100B947D8030100B747D848
:10082000030100A306D006B002D051D802D05BEC81
:10083000B6F006B403D806B011D8E2D7030100B170
:1008400012009EA81200ACA21200069476EC13F0DF
:100850008B961200120E136E0A6A12000400181C06
:1008600002E1078A0AD0186608D007AA06D0079ABC
:10087000077E1A6807AE01D000D007AE07AC1200A1
:10088000079C1A2E1200780E1A6E41D81B2A140EDD
:100890001B601B6A3F0E1B140D6E0D8CE2D8040109
:1008A00012000301009B12000301009912000A6A62
:1008B000E1ECB5F01200230E136E65EF04F0220E8A
:1008C000136E65EF04F0200E136E0A6A1200040026
:1008D00007846EECB6F00400030101AFA4D00792C8
:1008E00007900A5001E0E7DF03010400DF0E030177
:1008F000016302D0CEEFB2F0030101510F0B03628E
:10090000120003010139070B02E0EDEF04F00401CE
:10091000006B146B286B3C6B506B016B156B296B78
:100920003D6B516B026B166B2A6B3E6B526B036B0C
:10093000176B2B6B3F6B536B046B186B2C6B406B03
:10094000546B056B196B2D6B416B556B066B1A6BFA
:100950002E6B426B566B076B1B6B2F6B436B576B8E
:10096000086B1C6B306B446B586B096B1D6B316BE8
:10097000456B596B0A6B1E6B326B466B5A6B0B6B7C
:100980001F6B336B476B5B6B0C6B206B346B486B73
:100990005C6B0D6B216B356B496B5D6B0E6B226B6A
:1009A000366B4A6B5E6B0F6B236B376B4B6B5F6BFE
:1009B000106B246B386B4C6B606B116B256B396B58
:1009C0004D6B616B126B266B3A6B4E6B626B136BEC
:1009D000276B3B6B4F6B636B12000B6EE82C03D0E5
:1009E000010E0A6E1200E82C03D0020E0A6E1200ED
:1009F000E82C03D0040E0A6E1200E82C03D0050E7A
:100A00000A6E1200E82C02D05FEF04F0E82C02D04E
:100A10005FEF04F0E82C03D0090E0A6E1200010EFD
:100A2000136E0A6A1200040007A204D00301018FAA
:100A3000079210D007A002D007900CD07E0E0301C1
:100A4000016302D0078212007F0E0301016302D00E
:100A5000078012000A5001E1120001C30DF0E82CDA
:100A600012D022EC10F00A6A17BC63EF04F017BE34
:100A700008D00DBC03D0E86A0EEF10F0E8680EEF66
:100A800010F063EF04F0E82C09D022EC10F017BC52
:100A900063EF04F00DBC178C0A2A1200E82C0DD06D
:100AA00017BE07D0D89017BCD8800D340A6A0EEF55
:100AB00010F0020E136E0A6A1200E82C0FD022EC1E
:100AC00010F017BC63EF04F0390E0E6E550E0F6E6A
:100AD000060E0A6E106A000E116E1200E82C0DD080
:100AE00022EC10F017BC63EF04F00DBC178C0C6AFD
:100AF0000DBE0C8E070E0A6E1200E82C36EF09F0C0
:100B000004000D500F622AEF09F0115002E0B4EF1B
:100B100005F00A6A05EE00F017503F0BEF24E828B5
:100B2000140802E263EF04F0EF2810642AEF09F0E2
:100B300017AE04D0030E136E0A6A1200040005EE0D
:100B400000F014EE00F024EE14F017503F0BE126F5
:100B5000D926EECF1FF01F2ADE6AEECFE7FFE12A8B
:100B60001F2EFAD712001200E82E39D0030E105CA7
:100B700002E22AEF09F002E063EF04F005EE02F072
:100B8000ED503A0802E063EF04F0EDCF09F0086A97
:100B9000F29EF29C000EAA6E050EA96EA69EA69C61
:100BA000A684A86AA198550EA76EAA0EA76EA68263
:100BB000A1A8FED70400A198A92AA86AA198550E59
:100BC000A76EAA0EA76EA682A1A8FED70400A198C0
:100BD000A694F28EF28CAA6AA96A0A6A1200E82E1A
:100BE00030D0010E105C02E22AEF09F002E063EF60
:100BF00004F005EE00F0110EEF5C02E363EF04F089
:100C00000F0EEF16F29EF29C000EAA6E010EA96E58
:100C1000A69EA69CA684EFCFA8FFA198550EA76E0E
:100C2000AA0EA76EA682A1A8FED70400A198A6943A
:100C3000F28EF28CAA6AA96AEF50FBECB5F00A6A50
:100C40001200E82E15D0010E105C02E22AEF09F026
:100C500002E063EF04F005EE00F0240EEF6263EFB4
:100C600004F063EF01F0700E136E0A6A1200FFD7F2
:100C7000E82E41D0020E105C02E22AEF09F002E0F9
:100C800063EF04F005EE01F0500EED6263EF04F047
:100C9000EFCF05F012B0058E046A12B20480F29E06
:100CA000F29C000EAA6E030EA96EA69EA69CA684B8
:100CB00004C0A8FFA198550EA76EAA0EA76EA68223
:100CC000A1A8FED70400A198000EAA6E040EA96E7A
:100CD00005C0A8FFA198550EA76EAA0EA76EA68202
:100CE000A1A8FED70400A198A694F28EF28CAA6A5D
:100CF000A96A0A6A1200E82E31D0020E105C02E2E4
:100D00002AEF09F002E063EF04F005EE01F0410E76
:100D1000ED6263EF04F0490EEF6263EF04F01250EE
:100D20000F0B036EF29EF29C000EAA6E020EA96ECD
:100D3000A69EA69CA68403C0A8FFA198550EA76EE8
:100D4000AA0EA76EA682A1A8FED70400A198A69419
:100D5000F28EF28CAA6AA96A0A6A1200E82E13D0EF
:100D6000010E105C02E22AEF09F002E063EF04F0EA
:100D700005EE00F05A0EEF6263EF04F00A6A06B85F
:100D8000120006861200E82E13D0010E105C02E25B
:100D90002AEF09F002E063EF04F005EE00F05A0ECE
:100DA000EF6263EF04F00A6A06961C681D68120081
:100DB000E82E10D0010E105C02E22AEF09F002E0EA
:100DC00063EF04F005EE00F0580EEF6263EF04F0FD
:100DD00067EF13F0E82EC2D1010E105C02E22AEF99
:100DE00009F002E063EF04F005EE00F0240EEF627C
:100DF00063EF04F071EC13F08B8607940350F00955
:100E00003CECB6F01F0E1E6E7F0E1E6206D03CEC50
:100E1000B6F07F0E3CECB6F013D07E0E1E6207D00B
:100E20007F0E3CECB6F07E0E3CECB6F009D01EAE68
:100E300004D07E0E3CECB6F01E9E1E503CECB6F08C
:100E4000310E1E6E7F0E1E6206D03CECB6F07F0E99
:100E50003CECB6F013D07E0E1E6207D07F0E3CEC49
:100E6000B6F07E0E3CECB6F009D01EAE04D07E0E7D
:100E70003CECB6F01E9E1E503CECB6F0E86A1E6ECE
:100E80007F0E1E6206D03CECB6F07F0E3CECB6F056
:100E900013D07E0E1E6207D07F0E3CECB6F07E0EA5
:100EA0003CECB6F009D01EAE04D07E0E3CECB6F0A1
:100EB0001E9E1E503CECB6F0E86A1E6E7F0E1E624F
:100EC00006D03CECB6F07F0E3CECB6F013D07E0EB4
:100ED0001E6207D07F0E3CECB6F07E0E3CECB6F006
:100EE00009D01EAE04D07E0E3CECB6F01E9E1E5005
:100EF0003CECB6F0E86A06B8E88406B6E8821E6EF6
:100F00007F0E1E6206D03CECB6F07F0E3CECB6F0D5
:100F100013D07E0E1E6207D07F0E3CECB6F07E0E24
:100F20003CECB6F009D01EAE04D07E0E3CECB6F020
:100F30001E9E1E503CECB6F0E86A07B6E88404B08A
:100F4000E88205BEE8801E6E7F0E1E6206D03CEC75
:100F5000B6F07F0E3CECB6F013D07E0E1E6207D0CA
:100F60007F0E3CECB6F07E0E3CECB6F009D01EAE27
:100F700004D07E0E3CECB6F01E9E1E503CECB6F04B
:100F80000550E89E1E6E7F0E1E6206D03CECB6F049
:100F90007F0E3CECB6F013D07E0E1E6207D07F0EA3
:100FA0003CECB6F07E0E3CECB6F009D01EAE04D0A0
:100FB0007E0E3CECB6F01E9E1E503CECB6F0E86A8D
:100FC0003CECB6F0E86A3CECB6F0E86A3CECB6F013
:100FD000E86A3CECB6F0040E1E6E7F0E1E6206D070
:100FE0003CECB6F07F0E3CECB6F013D07E0E1E62E9
:100FF00007D07F0E3CECB6F07E0E3CECB6F009D08C
:101000001EAE04D07E0E3CECB6F01E9E1E503CEC94
:10101000B6F0E86A3CECB6F0000E3CECB6F0000E20
:101020003CECB6F0000E3CECB6F0000E3CECB6F03A
:10103000010E3CECB6F0000E3CECB6F0000E3CECC1
:10104000B6F0000E3CECB6F0020E3CECB6F0000E32
:101050003CECB6F0000E3CECB6F0000E3CECB6F00A
:10106000030E3CECB6F0000E3CECB6F0000E3CEC8F
:10107000B6F0000E3CECB6F01350136A1E6E7F0EF5
:101080001E6206D03CECB6F07F0E3CECB6F013D0FE
:101090007E0E1E6207D07F0E3CECB6F07E0E3CEC5E
:1010A000B6F009D01EAE04D07E0E3CECB6F01E9E0B
:1010B0001E503CECB6F0E86A3CECB6F0E86A3CEC5A
:1010C000B6F0E86A3CECB6F0010EF86E6F0EF76E03
:1010D000F00EF66E0900F5501E6E7F0E1E6206D0F1
:1010E0003CECB6F07F0E3CECB6F013D07E0E1E62E8
:1010F00007D07F0E3CECB6F07E0E3CECB6F009D08B
:101100001EAE04D07E0E3CECB6F01E9E1E503CEC93
:10111000B6F00900F5501E6E7F0E1E6206D03CEC44
:10112000B6F07F0E3CECB6F013D07E0E1E6207D0F8
:101130007F0E3CECB6F07E0E3CECB6F009D01EAE55
:1011400004D07E0E3CECB6F01E9E1E503CECB6F079
:10115000330E3CECB6F006840A6A1200E82E0CD07E
:10116000040E105C02E22AEF09F002E063EF04F0E3
:1011700005EE00F05FEF04F0E82E10D0010E105CD9
:1011800002E22AEF09F002E063EF04F005EE00F05E
:10119000430EEF6263EF04F05FEF04F0E82E18D027
:1011A000105002E12AEF09F005EE00F0EF28E828E0
:1011B000E828105C02E22AEF09F002E063EF04F095
:1011C0001004E926440EEF6263EF04F05FEF04F0D1
:1011D000E82E11D0020E105C02E063EF04F005EE81
:1011E00000F0330EEE6263EF04F04C0EEF6263EF3B
:1011F00004F063EF04F0E82C0AD00028105C02E24F
:101200002AEF09F002E063EF04F00A6A1200E82C0A
:101210000AD0380E105C02E22AEF09F002E063EF18
:1012200004F00A6A1200E82C10D0020E105C02E2F0
:101230002AEF09F002E063EF04F0320E016263EF7F
:1012400004F000C546FC0A6A1200050E136E0A6A15
:101250001200120010500E6463EF04F005EE00F06F
:101260001050E9260DC0EFFF102A1200E82C04D020
:101270000D28126E0A2A1200E82C1FD00D2A17BE64
:1012800018D004EE14F017503F0BE926EF6A17BC94
:10129000EF8E17ACEF8C0CBEEF8A140EE92612C04D
:1012A000EFFFE9260DC0EFFFE9260DC0EFFF0A6A48
:1012B0001200060E136E0A6A1200E82CF0D00DBC64
:1012C00083D00DBA7FD00D500AE1020E0E6E5A0E79
:1012D0000F6E060E0A6E106A060E116E1200E82CD2
:1012E0000AD0020E0E6E5A0E0F6E060E0A6E106AAD
:1012F000070E116E1200E82C0AD0020E0E6E590E67
:101300000F6E060E0A6E106A080E116E1200E82C9F
:101310000AD0020E0E6E540E0F6E060E0A6E106A82
:10132000090E116E1200E82C03D00E0E0A6E120088
:10133000E82C03D00F0E0A6E1200E82C0AD0050E1E
:101340000E6E3C0E0F6E060E0A6E106A0A0E116EBD
:101350001200E82C03D0100E0A6E1200E82C0AD0FE
:10136000020E0E6E410E0F6E060E0A6E106A0B0E06
:10137000116E1200E82C02D01AEF0AF0E82C03D00C
:10138000130E0A6E1200E82C03D0140E0A6E12001F
:10139000E82C0AD0430E0E6E550E0F6E060E0A6E26
:1013A000106A0E0E116E1200E82C0AD03B0E0E6E63
:1013B000660E0F6E060E0A6E106A0F0E116E120088
:1013C00063EF04F063EF04F006B804D0210E136E4F
:1013D00065EF04F00DAA4BD00DA855D00F0E0D14DB
:1013E00003E106980A6A1200E82C0AD0040E0E6E79
:1013F0003D0E0F6E060E0A6E106A010E116E12007F
:10140000E82C0AD0020E0E6E260E0F6E060E0A6E25
:10141000106A020E116E1200E82C0AD0020E0E6E37
:10142000720E0F6E060E0A6E106A030E116E120017
:10143000E82C03D00786F1EF09F0E82C0AD0030E60
:101440000E6E1C0E0F6E060E0A6E106A0D0E116ED9
:101450001200E82C0AD0050E0E6E5A0E0F6E060E04
:101460000A6E106A100E116E120063EF04F00DC0C8
:1014700012F0030E0E6E4F0E0F6E060E0A6E106AFD
:10148000040E116E12000DC012F0030E0E6E440E0B
:101490000F6E060E0A6E106A050E116E1200E82C11
:1014A00004D0080E136E0A6A1200E82C04D00B0E4A
:1014B000136E0A6A1200E82C04D00C0E136E0A6A2E
:1014C0001200E82C04D00D0E136E0A6A1200E82CEC
:1014D0000CD00DC012F0830E0E6E730E0F6E060E42
:1014E0000A6E106A0C0E116E1200E82C02D05FEF2B
:1014F00004F0E82C02D05FEF04F0E82C02D063EF98
:1015000004F0E82C02D063EF04F0E82CCBEF0FF0EE
:101510000400F80E0D14126E600E126263EF04F0F8
:101520000DB0B8ECB5F071EC13F08B860794F00EAB
:1015300003103CECB6F01D0E3CECB6F00DB2BCEF67
:101540000FF0030E0DA4280F26B0E88C126E3CECB1
:10155000B6F00C01E86A0C0128B1E88028B3E882F3
:1015600029B1E88429B3E8862EB1E8882EB3E88A49
:101570002FB1E88C3CECB6F00C01E86A2AB1E880A7
:101580002AB3E8822BB1E8842BB3E88630B1E8882F
:1015900030B3E88A31B1E88C3CECB6F00C01E86A73
:1015A0002CB1E8802CB3E8822DB1E8842DB3E88615
:1015B0002FB3E88831B3E88A3CECB6F00C010DB4E7
:1015C000C2EF0FF000CCE8FF1E6E7F0E1E6206D049
:1015D0003CECB6F07F0E3CECB6F013D07E0E1E62F3
:1015E00007D07F0E3CECB6F07E0E3CECB6F009D096
:1015F0001EAE04D07E0E3CECB6F01E9E1E503CEC9F
:10160000B6F00ACCE8FF1E6E7F0E1E6206D03CECE0
:10161000B6F07F0E3CECB6F013D07E0E1E6207D003
:101620007F0E3CECB6F07E0E3CECB6F009D01EAE60
:1016300004D07E0E3CECB6F01E9E1E503CECB6F084
:1016400014CCE8FF1E6E7F0E1E6206D03CECB6F096
:101650007F0E3CECB6F013D07E0E1E6207D07F0EDC
:101660003CECB6F07E0E3CECB6F009D01EAE04D0D9
:101670007E0E3CECB6F01E9E1E503CECB6F01ECC2E
:10168000E8FF1E6E7F0E1E6206D03CECB6F07F0EA9
:101690003CECB6F013D07E0E1E6207D07F0E3CEC01
:1016A000B6F07E0E3CECB6F009D01EAE04D07E0E35
:1016B0003CECB6F01E9E1E503CECB6F001CCE8FFB0
:1016C0001E6E7F0E1E6206D03CECB6F07F0E3CEC28
:1016D000B6F013D07E0E1E6207D07F0E3CECB6F043
:1016E0007E0E3CECB6F009D01EAE04D07E0E3CEC73
:1016F000B6F01E9E1E503CECB6F00BCCE8FF1E6E02
:101700007F0E1E6206D03CECB6F07F0E3CECB6F0CD
:1017100013D07E0E1E6207D07F0E3CECB6F07E0E1C
:101720003CECB6F009D01EAE04D07E0E3CECB6F018
:101730001E9E1E503CECB6F015CCE8FF1E6E7F0ED0
:101740001E6206D03CECB6F07F0E3CECB6F013D037
:101750007E0E1E6207D07F0E3CECB6F07E0E3CEC97
:10176000B6F009D01EAE04D07E0E3CECB6F01E9E44
:101770001E503CECB6F01FCCE8FF1E6E7F0E1E62C2
:1017800006D03CECB6F07F0E3CECB6F013D07E0EEB
:101790001E6207D07F0E3CECB6F07E0E3CECB6F03D
:1017A00009D01EAE04D07E0E3CECB6F01E9E1E503C
:1017B0003CECB6F002CCE8FF1E6E7F0E1E6206D037
:1017C0003CECB6F07F0E3CECB6F013D07E0E1E6201
:1017D00007D07F0E3CECB6F07E0E3CECB6F009D0A4
:1017E0001EAE04D07E0E3CECB6F01E9E1E503CECAD
:1017F000B6F00CCCE8FF1E6E7F0E1E6206D03CECED
:10180000B6F07F0E3CECB6F013D07E0E1E6207D011
:101810007F0E3CECB6F07E0E3CECB6F009D01EAE6E
:1018200004D07E0E3CECB6F01E9E1E503CECB6F092
:1018300016CCE8FF1E6E7F0E1E6206D03CECB6F0A2
:101840007F0E3CECB6F013D07E0E1E6207D07F0EEA
:101850003CECB6F07E0E3CECB6F009D01EAE04D0E7
:101860007E0E3CECB6F01E9E1E503CECB6F020CC3A
:10187000E8FF1E6E7F0E1E6206D03CECB6F07F0EB7
:101880003CECB6F013D07E0E1E6207D07F0E3CEC0F
:10189000B6F07E0E3CECB6F009D01EAE04D07E0E43
:1018A0003CECB6F01E9E1E503CECB6F003CCE8FFBC
:1018B0001E6E7F0E1E6206D03CECB6F07F0E3CEC36
:1018C000B6F013D07E0E1E6207D07F0E3CECB6F051
:1018D0007E0E3CECB6F009D01EAE04D07E0E3CEC81
:1018E000B6F01E9E1E503CECB6F00DCCE8FF1E6E0E
:1018F0007F0E1E6206D03CECB6F07F0E3CECB6F0DC
:1019000013D07E0E1E6207D07F0E3CECB6F07E0E2A
:101910003CECB6F009D01EAE04D07E0E3CECB6F026
:101920001E9E1E503CECB6F017CCE8FF1E6E7F0EDC
:101930001E6206D03CECB6F07F0E3CECB6F013D045
:101940007E0E1E6207D07F0E3CECB6F07E0E3CECA5
:10195000B6F009D01EAE04D07E0E3CECB6F01E9E52
:101960001E503CECB6F021CCE8FF1E6E7F0E1E62CE
:1019700006D03CECB6F07F0E3CECB6F013D07E0EF9
:101980001E6207D07F0E3CECB6F07E0E3CECB6F04B
:1019900009D01EAE04D07E0E3CECB6F01E9E1E504A
:1019A0003CECB6F004CCE8FF1E6E7F0E1E6206D043
:1019B0003CECB6F07F0E3CECB6F013D07E0E1E620F
:1019C00007D07F0E3CECB6F07E0E3CECB6F009D0B2
:1019D0001EAE04D07E0E3CECB6F01E9E1E503CECBB
:1019E000B6F00ECCE8FF1E6E7F0E1E6206D03CECF9
:1019F000B6F07F0E3CECB6F013D07E0E1E6207D020
:101A00007F0E3CECB6F07E0E3CECB6F009D01EAE7C
:101A100004D07E0E3CECB6F01E9E1E503CECB6F0A0
:101A200018CCE8FF1E6E7F0E1E6206D03CECB6F0AE
:101A30007F0E3CECB6F013D07E0E1E6207D07F0EF8
:101A40003CECB6F07E0E3CECB6F009D01EAE04D0F5
:101A50007E0E3CECB6F01E9E1E503CECB6F022CC46
:101A6000E8FF1E6E7F0E1E6206D03CECB6F07F0EC5
:101A70003CECB6F013D07E0E1E6207D07F0E3CEC1D
:101A8000B6F07E0E3CECB6F009D01EAE04D07E0E51
:101A90003CECB6F01E9E1E503CECB6F005CCE8FFC8
:101AA0001E6E7F0E1E6206D03CECB6F07F0E3CEC44
:101AB000B6F013D07E0E1E6207D07F0E3CECB6F05F
:101AC0007E0E3CECB6F009D01EAE04D07E0E3CEC8F
:101AD000B6F01E9E1E503CECB6F00FCCE8FF1E6E1A
:101AE0007F0E1E6206D03CECB6F07F0E3CECB6F0EA
:101AF00013D07E0E1E6207D07F0E3CECB6F07E0E39
:101B00003CECB6F009D01EAE04D07E0E3CECB6F034
:101B10001E9E1E503CECB6F019CCE8FF1E6E7F0EE8
:101B20001E6206D03CECB6F07F0E3CECB6F013D053
:101B30007E0E1E6207D07F0E3CECB6F07E0E3CECB3
:101B4000B6F009D01EAE04D07E0E3CECB6F01E9E60
:101B50001E503CECB6F023CCE8FF1E6E7F0E1E62DA
:101B600006D03CECB6F07F0E3CECB6F013D07E0E07
:101B70001E6207D07F0E3CECB6F07E0E3CECB6F059
:101B800009D01EAE04D07E0E3CECB6F01E9E1E5058
:101B90003CECB6F006CCE8FF1E6E7F0E1E6206D04F
:101BA0003CECB6F07F0E3CECB6F013D07E0E1E621D
:101BB00007D07F0E3CECB6F07E0E3CECB6F009D0C0
:101BC0001EAE04D07E0E3CECB6F01E9E1E503CECC9
:101BD000B6F010CCE8FF1E6E7F0E1E6206D03CEC05
:101BE000B6F07F0E3CECB6F013D07E0E1E6207D02E
:101BF0007F0E3CECB6F07E0E3CECB6F009D01EAE8B
:101C000004D07E0E3CECB6F01E9E1E503CECB6F0AE
:101C10001ACCE8FF1E6E7F0E1E6206D03CECB6F0BA
:101C20007F0E3CECB6F013D07E0E1E6207D07F0E06
:101C30003CECB6F07E0E3CECB6F009D01EAE04D003
:101C40007E0E3CECB6F01E9E1E503CECB6F024CC52
:101C5000E8FF1E6E7F0E1E6206D03CECB6F07F0ED3
:101C60003CECB6F013D07E0E1E6207D07F0E3CEC2B
:101C7000B6F07E0E3CECB6F009D01EAE04D07E0E5F
:101C80003CECB6F01E9E1E503CECB6F007CCE8FFD4
:101C90001E6E7F0E1E6206D03CECB6F07F0E3CEC52
:101CA000B6F013D07E0E1E6207D07F0E3CECB6F06D
:101CB0007E0E3CECB6F009D01EAE04D07E0E3CEC9D
:101CC000B6F01E9E1E503CECB6F011CCE8FF1E6E26
:101CD0007F0E1E6206D03CECB6F07F0E3CECB6F0F8
:101CE00013D07E0E1E6207D07F0E3CECB6F07E0E47
:101CF0003CECB6F009D01EAE04D07E0E3CECB6F043
:101D00001E9E1E503CECB6F01BCCE8FF1E6E7F0EF4
:101D10001E6206D03CECB6F07F0E3CECB6F013D061
:101D20007E0E1E6207D07F0E3CECB6F07E0E3CECC1
:101D3000B6F009D01EAE04D07E0E3CECB6F01E9E6E
:101D40001E503CECB6F025CCE8FF1E6E7F0E1E62E6
:101D500006D03CECB6F07F0E3CECB6F013D07E0E15
:101D60001E6207D07F0E3CECB6F07E0E3CECB6F067
:101D700009D01EAE04D07E0E3CECB6F01E9E1E5066
:101D80003CECB6F008CCE8FF1E6E7F0E1E6206D05B
:101D90003CECB6F07F0E3CECB6F013D07E0E1E622B
:101DA00007D07F0E3CECB6F07E0E3CECB6F009D0CE
:101DB0001EAE04D07E0E3CECB6F01E9E1E503CECD7
:101DC000B6F012CCE8FF1E6E7F0E1E6206D03CEC11
:101DD000B6F07F0E3CECB6F013D07E0E1E6207D03C
:101DE0007F0E3CECB6F07E0E3CECB6F009D01EAE99
:101DF00004D07E0E3CECB6F01E9E1E503CECB6F0BD
:101E00001CCCE8FF1E6E7F0E1E6206D03CECB6F0C6
:101E10007F0E3CECB6F013D07E0E1E6207D07F0E14
:101E20003CECB6F07E0E3CECB6F009D01EAE04D011
:101E30007E0E3CECB6F01E9E1E503CECB6F026CC5E
:101E4000E8FF1E6E7F0E1E6206D03CECB6F07F0EE1
:101E50003CECB6F013D07E0E1E6207D07F0E3CEC39
:101E6000B6F07E0E3CECB6F009D01EAE04D07E0E6D
:101E70003CECB6F01E9E1E503CECB6F009CCE8FFE0
:101E80001E6E7F0E1E6206D03CECB6F07F0E3CEC60
:101E9000B6F013D07E0E1E6207D07F0E3CECB6F07B
:101EA0007E0E3CECB6F009D01EAE04D07E0E3CECAB
:101EB000B6F01E9E1E503CECB6F013CCE8FF1E6E32
:101EC0007F0E1E6206D03CECB6F07F0E3CECB6F006
:101ED00013D07E0E1E6207D07F0E3CECB6F07E0E55
:101EE0003CECB6F009D01EAE04D07E0E3CECB6F051
:101EF0001E9E1E503CECB6F01DCCE8FF1E6E7F0E01
:101F00001E6206D03CECB6F07F0E3CECB6F013D06F
:101F10007E0E1E6207D07F0E3CECB6F07E0E3CECCF
:101F2000B6F009D01EAE04D07E0E3CECB6F01E9E7C
:101F30001E503CECB6F027CCE8FF1E6E7F0E1E62F2
:101F400006D03CECB6F07F0E3CECB6F013D07E0E23
:101F50001E6207D07F0E3CECB6F07E0E3CECB6F075
:101F600009D01EAE04D07E0E3CECB6F01E9E1E5074
:101F70003CECB6F0C2EF0FF0126A26B0128C125091
:101F80003CECB6F0470E1214E88AE8863CECB6F05A
:101F900006840A6A1200E82C04D00DC012F00A2A46
:101FA0001200E82C37D012AE12BC63EF04F00DAE75
:101FB0000DAC63EF04F00DAA0DB863EF04F00C0153
:101FC0000C01289312B028830C01299312B22983A3
:101FD0000C012A9312B42A830C012B9312B62B8383
:101FE0000C012C9312B82C830C012D9312BA2D8363
:101FF0000C012E930DB02E830C012F930DB22F8365
:102000000C0130930DB430830C0131930DB6318344
:102010000A6A1200050E136E0A6A12000400179E67
:10202000179C226E04EE00F01750E92622C0EFFF45
:10203000140EE926EF6AE926EF6AE926EF6AE92637
:10204000EF6A120004003F0E0D14176E170E17648E
:102050001200178C178E120004000401069A165005
:102060003EE0006301D08B84016301D08B82026368
:1020700001D08B80036301D08D84046301D08A8EEC
:10208000056301D08A8C066301D08A8A076301D078
:102090008A88086301D08A86096301D08A840A632A
:1020A00001D08A820B6301D08D800C6301D08C8EAD
:1020B0000D6301D08C8C0E6301D08C8A0F6301D02C
:1020C0008D82106301D08A80116301D08C861263E7
:1020D00001D08C82136301D08C8416061200040197
:1020E0000788001D02E1079801D08B94040114AF0A
:1020F0000DD0502F1BD03CC450F42851002716E3BC
:102100000069149F14AB12D0148D10D0040114ADCB
:102110000DD0502F0BD03CC450F42851005F06E284
:10212000006B149D14BB148F14B95069011D02E19A
:10213000079801D08B92040115AF0DD0512F1BD001
:102140003DC451F42951012716E30169159F15ABD0
:1021500012D0158D10D0040115AD0DD0512F0BD01C
:102160003DC451F42951015F06E2016B159D15BB79
:10217000158F15B95169021D02E1079801D08B90A6
:10218000040116AF0DD0522F1BD03EC452F42A5179
:10219000022716E30269169F16AB12D0168D10D0D7
:1021A000040116AD0DD0522F0BD03EC452F42A516B
:1021B000025F06E2026B169D16BB168F16B95269B6
:1021C000031D02E1079801D08D94040117AF0DD0D3
:1021D000532F1BD03FC453F42B51032716E303693D
:1021E000179F17AB12D0178D10D0040117AD0DD06B
:1021F000532F0BD03FC453F42B51035F06E2036B04
:10220000179D17BB178F17B95369041D02E1079873
:1022100001D08A9E040118AF0DD0542F1BD040C4AA
:1022200054F42C51042716E30469189F18AB12D0FC
:10223000188D10D0040118AD0DD0542F0BD040C410
:1022400054F42C51045F06E2046B189D18BB188FE0
:1022500018B95469051D02E1079801D08A9C040150
:1022600019AF0DD0552F1BD041C455F42D51052762
:1022700016E30569199F19AB12D0198D10D004010E
:1022800019AD0DD0552F0BD041C455F42D51055F1C
:1022900006E2056B199D19BB198F19B95569061D01
:1022A00002E1079801D08A9A04011AAF0DD0562F87
:1022B0001BD042C456F42E51062716E306691A9F16
:1022C0001AAB12D01A8D10D004011AAD0DD0562FB2
:1022D0000BD042C456F42E51065F06E2066B1A9DDF
:1022E0001ABB1A8F1AB95669071D02E1079801D067
:1022F0008A9804011BAF0DD0572F1BD043C457F44D
:102300002F51072716E307691B9F1BAB12D01B8DAC
:1023100010D004011BAD0DD0572F0BD043C457F480
:102320002F51075F06E2076B1B9D1BBB1B8F1BB961
:102330005769081D02E1079801D08A9604011CAF75
:102340000DD0582F1BD044C458F43051082716E341
:1023500008691C9F1CAB12D01C8D10D004011CAD51
:102360000DD0582F0BD044C458F43051085F06E20A
:10237000086B1C9D1CBB1C8F1CB95869091D02E110
:10238000079801D08A9404011DAF0DD0592F1BD09E
:1023900045C459F43151092716E309691D9F1DAB46
:1023A00012D01D8D10D004011DAD0DD0592F0BD0B2
:1023B00045C459F43151095F06E2096B1D9D1DBBEF
:1023C0001D8F1DB959690A1D02E1079801D08A9233
:1023D00004011EAF0DD05A2F1BD046C45AF43251FF
:1023E0000A2716E30A691E9F1EAB12D01E8D10D05D
:1023F00004011EAD0DD05A2F0BD046C45AF43251F1
:102400000A5F06E20A6B1E9D1EBB1E8F1EB95A692B
:102410000B1D02E1079801D08D9004011FAF0DD074
:102420005B2F1BD047C45BF433510B2716E30B69BA
:102430001F9F1FAB12D01F8D10D004011FAD0DD0F8
:102440005B2F0BD047C45BF433510B5F06E20B6B81
:102450001F9D1FBB1F8F1FB95B690C1D02E10798F1
:1024600001D08C9E040120AF0DD05C2F1BD048C43E
:102470005CF434510C2716E30C69209F20AB12D07A
:10248000208D10D0040120AD0DD05C2F0BD048C49E
:102490005CF434510C5F06E20C6B209D20BB208F56
:1024A00020B95C690D1D02E1079801D08C9C0401E4
:1024B00021AF0DD05D2F1BD049C45DF435510D27E0
:1024C00016E30D69219F21AB12D0218D10D004019C
:1024D00021AD0DD05D2F0BD049C45DF435510D5F9A
:1024E00006E20D6B219D21BB218F21B95D690E1D77
:1024F00002E1079801D08C9A040122AF0DD05E2F23
:102500001BD04AC45EF436510E2716E30E69229F93
:1025100022AB12D0228D10D0040122AD0DD05E2F3F
:102520000BD04AC45EF436510E5F06E20E6B229D5C
:1025300022BB228F22B95E690F1D02E1079801D0EC
:102540008D92040123AF0DD05F2F1BD04BC45FF4DD
:1025500037510F2716E30F69239F23AB12D0238D2A
:1025600010D0040123AD0DD05F2F0BD04BC45FF40E
:1025700037510F5F06E20F6B239D23BB238F23B9D7
:102580005F69101D02E1079801D08A90040124AF11
:102590000DD0602F1BD04CC460F43851102716E3C7
:1025A0001069249F24AB12D0248D10D0040124ADD7
:1025B0000DD0602F0BD04CC460F43851105F06E290
:1025C000106B249D24BB248F24B96069111D02E186
:1025D000079801D08C96040125AF0DD0612F1BD038
:1025E0004DC461F43951112716E31169259F25ABBC
:1025F00012D0258D10D0040125AD0DD0612F0BD048
:102600004DC461F43951115F06E2116B259D25BB64
:10261000258F25B96169121D02E1079801D08C92BE
:10262000040126AF0DD0622F1BD04EC462F43A5184
:10263000122716E31269269F26AB12D0268D10D0E2
:10264000040126AD0DD0622F0BD04EC462F43A5176
:10265000125F06E2126B269D26BB268F26B96269A1
:10266000131D02E1079801D08C94040127AF0DD00F
:10267000632F1BD04FC463F43B51132716E3136938
:10268000279F27AB12D0278D10D0040127AD0DD086
:10269000632F0BD04FC463F43B51135F06E2136BFF
:1026A000279D27BB278F27B96369069E07A809D0F6
:1026B0001D2E12001D681C2E120006A6BFEC06F08F
:1026C000120006B6D4EC06F01C681D68120087ECF8
:1026D00004F0F29EF29C730ED36ED18004000300CE
:0E26E000FDD723680400232EFDD71200FAD781
:020000040001F9
:10400000FF06000002000000000000000000004267
:105000000F0BE846F9CF09F3F926300C310C320CBE
:10501000330C340C350C360C370C380C390C410C75
:10502000420C430C440C450C460C1F0BE846F9CFD0
:1050300009F3F926820C420C200C100C080C040C0D
:10504000020C010C000C000C000C000C000C000CFD
:10505000000C000C000C020C020C020C020C020CE6
:10506000020C020C020C020C020C020C020C020CD0
:10507000020C020C1F0BE846F9CF09F3F926340C99
:10508000190C8C0C450C220C100C070C030CAC0CEE
:10509000550C270C130C090C040C030C010C000C10
:1050A000070C070C070C070C070C070C070C070C68
:0E50B000070C070C070C070C070C070C070C6D
:0250BE000400EC
:1050C0000C01266A3C0E466F0C01006B0A6B146BD8
:1050D0001E6B286B326B3C6B016B0B6B156B1F6B84
:1050E000296B336B3D6B026B0C6B166B206B2A6B61
:1050F000346B3E6B036B0D6B176B216B2B6B356B3E
:105100003F6B046B0E6B186B226B2C6B366B406B1A
:10511000056B0F6B196B236B2D6B376B416B066B3C
:10512000106B1A6B246B2E6B386B426B076B116B19
:105130001B6B256B2F6B396B436B086B126B1C6BF6
:10514000266B306B3A6B446B096B136B1D6B276BD3
:10515000316B3B6B456B04003F0E8014280A0BE15A
:1051600006880401000E136F040E3B6F010E4F6F93
:10517000636FA00E276F0401000E136F010E3B6FCB
:10518000030E4F6F636FA00E276F120004000C0117
:1051900026A202D0268426920C01040080A665D0A7
:1051A0003C6702D02897D6D00C013C07D3D00C0125
:1051B000288546CC32FC0C0128A523D028B921D063
:1051C00028890401000E026F2A6B3E6B526B166B2E
:1051D0000401000E016F296B3D6B516B156B0401CF
:1051E000000E006F286B3C6B506B146B0401000EBB
:1051F000006F040E286F010E3C6F506FA00E146FED
:1052000032D00C0128B31AD028B118D026A016D05D
:105210000401FF0E026F2A6B3E6B526B166B04018A
:10522000FF0E016F296B3D6B516B156B0401FF0E77
:10523000006F286B3C6B506B146B15D00401000E93
:10524000026F2A6B3E6B526B166B0401000E016FEE
:10525000296B3D6B516B156B0401000E006F286BC1
:105260003C6B506B146B0C0175D00C013C3F72D041
:105270003C6928B59CD728B76DD0288728B36AD059
:1052800028B168D026A093D72881F29EF29C25C031
:105290000AFC24C000FCCECF1EFCCFCF14FCF28E43
:1052A000F28C0C0128A523D028B921D0288904012B
:1052B000000E026F2A6B3E6B526B166B0401000EE0
:1052C000016F296B3D6B516B156B0401000E006F74
:1052D000286B3C6B506B146B0401000E006F040EC6
:1052E000286F010E3C6F506FA00E146F32D00C016E
:1052F00028B31AD028B118D026A016D00401FF0E6A
:10530000026F2A6B3E6B526B166B0401FF0E016F2E
:10531000296B3D6B516B156B0401FF0E006F286B01
:105320003C6B506B146B15D00401000E026F2A6B9E
:105330003E6B526B166B0401000E016F296B3D6BC7
:10534000516B156B0401000E006F286B3C6B506BAA
:10535000146B0C0126A45FD00C0128B5322F5BD052
:10536000289528990C0128A523D028B921D028896F
:105370000401000E026F2A6B3E6B526B166B040128
:10538000000E016F296B3D6B516B156B0401000E14
:10539000006F286B3C6B506B146B0401000E006FA8
:1053A000040E286F010E3C6F506FA00E146F32D0A8
:1053B0000C0128B31AD028B118D026A016D00401A9
:1053C000FF0E026F2A6B3E6B526B166B0401FF0ED1
:1053D000016F296B3D6B516B156B0401FF0E006F64
:1053E000286B3C6B506B146B15D00401000E026FE0
:1053F0002A6B3E6B526B166B0401000E016F296B1A
:105400003D6B516B156B0401000E006F286B3C6BFC
:10541000506B146B0C010C01040080A43BD03D6761
:1054200002D0299782D00C013D077FD00C0129853D
:1054300046CC33FC0C0129A515D029B913D02989F4
:105440000401000E036F2B6B3F6B536B176B040152
:10545000000E036F040E2B6F010E3F6F536FA00EF3
:10546000176F16D00C0129B30CD029B10AD026A091
:1054700008D00401FF0E036F2B6B3F6B536B176B50
:1054800007D00401000E036F2B6B3F6B536B176B40
:105490000C014BD00C013D3F48D03D6929B5C6D722
:1054A00029B743D0298729B340D029B13ED026A0BF
:1054B000BDD72981F29EF29C25C00BFC24C001FCC3
:1054C000CECF1FFCCFCF15FCF28EF28C0C0129A59C
:1054D00015D029B913D029890401000E036F2B6B55
:1054E0003F6B536B176B0401000E036F040E2B6FA1
:1054F000010E3F6F536FA00E176F16D00C0129B32A
:105500000CD029B10AD026A008D00401FF0E036FE9
:105510002B6B3F6B536B176B07D00401000E036FAF
:105520002B6B3F6B536B176B0C0126A435D00C0112
:1055300029B5332F31D0299529990C0129A515D0EA
:1055400029B913D029890401000E036F2B6B3F6B1F
:10555000536B176B0401000E036F040E2B6F010ECB
:105560003F6F536FA00E176F16D00C0129B30CD0EC
:1055700029B10AD026A008D00401FF0E036F2B6BBF
:105580003F6B536B176B07D00401000E036F2B6B3F
:105590003F6B536B176B0C010C01040080A265D0AC
:1055A0003E6702D02A97D6D00C013E07D3D00C011B
:1055B0002A8546CC34FC0C012AA523D02AB921D057
:1055C0002A890401000E066F2E6B426B566B1A6B14
:1055D0000401000E056F2D6B416B556B196B0401B7
:1055E000000E046F2C6B406B546B186B0401000EA3
:1055F000046F040E2C6F010E406F546FA00E186FD5
:1056000032D00C012AB31AD02AB118D026A016D055
:105610000401FF0E066F2E6B426B566B1A6B040172
:10562000FF0E056F2D6B416B556B196B0401FF0E5F
:10563000046F2C6B406B546B186B15D00401000E7B
:10564000066F2E6B426B566B1A6B0401000E056FD2
:105650002D6B416B556B196B0401000E046F2C6BA5
:10566000406B546B186B0C0175D00C013E3F72D02F
:105670003E692AB59CD72AB76DD02A872AB36AD04B
:105680002AB168D026A093D72A81F29EF29C25C029
:105690000CFC24C002FCCECF20FCCFCF16FCF28E37
:1056A000F28C0C012AA523D02AB921D02A89040121
:1056B000000E066F2E6B426B566B1A6B0401000EC8
:1056C000056F2D6B416B556B196B0401000E046F58
:1056D0002C6B406B546B186B0401000E046F040EAE
:1056E0002C6F010E406F546FA00E186F32D00C015A
:1056F0002AB31AD02AB118D026A016D00401FF0E62
:10570000066F2E6B426B566B1A6B0401FF0E056F12
:105710002D6B416B556B196B0401FF0E046F2C6BE5
:10572000406B546B186B15D00401000E066F2E6B86
:10573000426B566B1A6B0401000E056F2D6B416BAB
:10574000556B196B0401000E046F2C6B406B546B8E
:10575000186B0C0126A45FD00C012AB5342F5BD046
:105760002A952A990C012AA523D02AB921D02A8961
:105770000401000E066F2E6B426B566B1A6B040110
:10578000000E056F2D6B416B556B196B0401000EFC
:10579000046F2C6B406B546B186B0401000E046F8C
:1057A000040E2C6F010E406F546FA00E186F32D094
:1057B0000C012AB31AD02AB118D026A016D00401A1
:1057C000FF0E066F2E6B426B566B1A6B0401FF0EB9
:1057D000056F2D6B416B556B196B0401FF0E046F48
:1057E0002C6B406B546B186B15D00401000E066FC8
:1057F0002E6B426B566B1A6B0401000E056F2D6BFE
:10580000416B556B196B0401000E046F2C6B406BE0
:10581000546B186B0C010C01040080A03BD03F6757
:1058200002D02B9782D00C013F077FD00C012B8533
:1058300046CC35FC0C012BA515D02BB913D02B89E8
:105840000401000E076F2F6B436B576B1B6B04013A
:10585000000E076F040E2F6F010E436F576FA00EDF
:105860001B6F16D00C012BB30CD02BB10AD026A085
:1058700008D00401FF0E076F2F6B436B576B1B6B38
:1058800007D00401000E076F2F6B436B576B1B6B28
:105890000C014BD00C013F3F48D03F692BB5C6D718
:1058A0002BB743D02B872BB340D02BB13ED026A0B3
:1058B000BDD72B81F29EF29C25C00DFC24C003FCB9
:1058C000CECF21FCCFCF17FCF28EF28C0C012BA592
:1058D00015D02BB913D02B890401000E076F2F6B45
:1058E000436B576B1B6B0401000E076F040E2F6F89
:1058F000010E436F576FA00E1B6F16D00C012BB318
:105900000CD02BB10AD026A008D00401FF0E076FDF
:105910002F6B436B576B1B6B07D00401000E076F97
:105920002F6B436B576B1B6B0C0126A435D00C01FE
:105930002BB5352F31D02B952B990C012BA515D0DC
:105940002BB913D02B890401000E076F2F6B436B0B
:10595000576B1B6B0401000E076F040E2F6F010EB7
:10596000436F576FA00E1B6F16D00C012BB30CD0DA
:105970002BB10AD026A008D00401FF0E076F2F6BB1
:10598000436B576B1B6B07D00401000E076F2F6B27
:10599000436B576B1B6B0C010C01040080A865D096
:1059A000406702D02C97D6D00C014007D3D00C0111
:1059B0002C8546CC36FC0C012CA523D02CB921D04B
:1059C0002C890401000E0A6F326B466B5A6B1E6BFA
:1059D0000401000E096F316B456B596B1D6B04019F
:1059E000000E086F306B446B586B1C6B0401000E8B
:1059F000086F040E306F010E446F586FA00E1C6FBD
:105A000032D00C012CB31AD02CB118D026A016D04D
:105A10000401FF0E0A6F326B466B5A6B1E6B04015A
:105A2000FF0E096F316B456B596B1D6B0401FF0E47
:105A3000086F306B446B586B1C6B15D00401000E63
:105A40000A6F326B466B5A6B1E6B0401000E096FB6
:105A5000316B456B596B1D6B0401000E086F306B89
:105A6000446B586B1C6B0C0175D00C01403F72D01D
:105A700040692CB59CD72CB76DD02C872CB36AD03D
:105A80002CB168D026A093D72C81F29EF29C25C021
:105A90000EFC24C004FCCECF22FCCFCF18FCF28E2B
:105AA000F28C0C012CA523D02CB921D02C89040117
:105AB000000E0A6F326B466B5A6B1E6B0401000EB0
:105AC000096F316B456B596B1D6B0401000E086F3C
:105AD000306B446B586B1C6B0401000E086F040E96
:105AE000306F010E446F586FA00E1C6F32D00C0146
:105AF0002CB31AD02CB118D026A016D00401FF0E5A
:105B00000A6F326B466B5A6B1E6B0401FF0E096FF6
:105B1000316B456B596B1D6B0401FF0E086F306BC9
:105B2000446B586B1C6B15D00401000E0A6F326B6E
:105B3000466B5A6B1E6B0401000E096F316B456B8F
:105B4000596B1D6B0401000E086F306B446B586B72
:105B50001C6B0C0126A45FD00C012CB5362F5BD03A
:105B60002C952C990C012CA523D02CB921D02C8953
:105B70000401000E0A6F326B466B5A6B1E6B0401F8
:105B8000000E096F316B456B596B1D6B0401000EE4
:105B9000086F306B446B586B1C6B0401000E086F70
:105BA000040E306F010E446F586FA00E1C6F32D080
:105BB0000C012CB31AD02CB118D026A016D0040199
:105BC000FF0E0A6F326B466B5A6B1E6B0401FF0EA1
:105BD000096F316B456B596B1D6B0401FF0E086F2C
:105BE000306B446B586B1C6B15D00401000E0A6FB0
:105BF000326B466B5A6B1E6B0401000E096F316BE2
:105C0000456B596B1D6B0401000E086F306B446BC4
:105C1000586B1C6B0C010C01040080AA3BD041673F
:105C200002D02D9782D00C0141077FD00C012D8529
:105C300046CC37FC0C012DA515D02DB913D02D89DC
:105C40000401000E0B6F336B476B5B6B1F6B040122
:105C5000000E0B6F040E336F010E476F5B6FA00ECB
:105C60001F6F16D00C012DB30CD02DB10AD026A079
:105C700008D00401FF0E0B6F336B476B5B6B1F6B20
:105C800007D00401000E0B6F336B476B5B6B1F6B10
:105C90000C014BD00C01413F48D041692DB5C6D70E
:105CA0002DB743D02D872DB340D02DB13ED026A0A7
:105CB000BDD72D81F29EF29C25C00FFC24C005FCAF
:105CC000CECF23FCCFCF19FCF28EF28C0C012DA588
:105CD00015D02DB913D02D890401000E0B6F336B35
:105CE000476B5B6B1F6B0401000E0B6F040E336F71
:105CF000010E476F5B6FA00E1F6F16D00C012DB306
:105D00000CD02DB10AD026A008D00401FF0E0B6FD5
:105D1000336B476B5B6B1F6B07D00401000E0B6F7F
:105D2000336B476B5B6B1F6B0C0126A435D00C01EA
:105D30002DB5372F31D02D952D990C012DA515D0CE
:105D40002DB913D02D890401000E0B6F336B476BF7
:105D50005B6B1F6B0401000E0B6F040E336F010EA3
:105D6000476F5B6FA00E1F6F16D00C012DB30CD0C8
:105D70002DB10AD026A008D00401FF0E0B6F336BA3
:105D8000476B5B6B1F6B07D00401000E0B6F336B0F
:105D9000476B5B6B1F6B0C010C01040082A865D084
:105DA000426702D02E97D6D00C014207D3D00C0107
:105DB0002E8546CC38FC0C012EA523D02EB921D03F
:105DC0002E890401000E0E6F366B4A6B5E6B226BE0
:105DD0000401000E0D6F356B496B5D6B216B040187
:105DE000000E0C6F346B486B5C6B206B0401000E73
:105DF0000C6F040E346F010E486F5C6FA00E206FA5
:105E000032D00C012EB31AD02EB118D026A016D045
:105E10000401FF0E0E6F366B4A6B5E6B226B040142
:105E2000FF0E0D6F356B496B5D6B216B0401FF0E2F
:105E30000C6F346B486B5C6B206B15D00401000E4B
:105E40000E6F366B4A6B5E6B226B0401000E0D6F9A
:105E5000356B496B5D6B216B0401000E0C6F346B6D
:105E6000486B5C6B206B0C0175D00C01423F72D00B
:105E700042692EB59CD72EB76DD02E872EB36AD02F
:105E80002EB168D026A093D72E81F29EF29C25C019
:105E900010FC24C006FCCECF24FCCFCF1AFCF28E1F
:105EA000F28C0C012EA523D02EB921D02E8904010D
:105EB000000E0E6F366B4A6B5E6B226B0401000E98
:105EC0000D6F356B496B5D6B216B0401000E0C6F20
:105ED000346B486B5C6B206B0401000E0C6F040E7E
:105EE000346F010E486F5C6FA00E206F32D00C0132
:105EF0002EB31AD02EB118D026A016D00401FF0E52
:105F00000E6F366B4A6B5E6B226B0401FF0E0D6FDA
:105F1000356B496B5D6B216B0401FF0E0C6F346BAD
:105F2000486B5C6B206B15D00401000E0E6F366B56
:105F30004A6B5E6B226B0401000E0D6F356B496B73
:105F40005D6B216B0401000E0C6F346B486B5C6B56
:105F5000206B0C0126A45FD00C012EB5382F5BD02E
:105F60002E952E990C012EA523D02EB921D02E8945
:105F70000401000E0E6F366B4A6B5E6B226B0401E0
:105F8000000E0D6F356B496B5D6B216B0401000ECC
:105F90000C6F346B486B5C6B206B0401000E0C6F54
:105FA000040E346F010E486F5C6FA00E206F32D06C
:105FB0000C012EB31AD02EB118D026A016D0040191
:105FC000FF0E0E6F366B4A6B5E6B226B0401FF0E89
:105FD0000D6F356B496B5D6B216B0401FF0E0C6F10
:105FE000346B486B5C6B206B15D00401000E0E6F98
:105FF000366B4A6B5E6B226B0401000E0D6F356BC6
:10600000496B5D6B216B0401000E0C6F346B486BA8
:106010005C6B206B0C010C01040083A03BD0436738
:1060200002D02F9782D00C0143077FD00C012F851F
:1060300046CC39FC0C012FA515D02FB913D02F89D0
:106040000401000E0F6F376B4B6B5F6B236B04010A
:10605000000E0F6F040E376F010E4B6F5F6FA00EB7
:10606000236F16D00C012FB30CD02FB10AD026A06D
:1060700008D00401FF0E0F6F376B4B6B5F6B236B08
:1060800007D00401000E0F6F376B4B6B5F6B236BF8
:106090000C014BD00C01433F48D043692FB5C6D704
:1060A0002FB743D02F872FB340D02FB13ED026A09B
:1060B000BDD72F81F29EF29C25C011FC24C007FCA5
:1060C000CECF25FCCFCF1BFCF28EF28C0C012FA57E
:1060D00015D02FB913D02F890401000E0F6F376B25
:1060E0004B6B5F6B236B0401000E0F6F040E376F59
:1060F000010E4B6F5F6FA00E236F16D00C012FB3F4
:106100000CD02FB10AD026A008D00401FF0E0F6FCB
:10611000376B4B6B5F6B236B07D00401000E0F6F67
:10612000376B4B6B5F6B236B0C0126A435D00C01D6
:106130002FB5392F31D02F952F990C012FA515D0C0
:106140002FB913D02F890401000E0F6F376B4B6BE3
:106150005F6B236B0401000E0F6F040E376F010E8F
:106160004B6F5F6FA00E236F16D00C012FB30CD0B6
:106170002FB10AD026A008D00401FF0E0F6F376B95
:106180004B6B5F6B236B07D00401000E0F6F376BF7
:106190004B6B5F6B236B0C010C01040083A865D073
:1061A000446702D03097D6D00C014407D3D00C01FD
:1061B000308546CC3AFC0C0130A523D030B921D033
:1061C00030890401000E126F3A6B4E6B626B266BC6
:1061D0000401000E116F396B4D6B616B256B04016F
:1061E000000E106F386B4C6B606B246B0401000E5B
:1061F000106F040E386F010E4C6F606FA00E246F8D
:1062000032D00C0130B31AD030B118D026A016D03D
:106210000401FF0E126F3A6B4E6B626B266B04012A
:10622000FF0E116F396B4D6B616B256B0401FF0E17
:10623000106F386B4C6B606B246B15D00401000E33
:10624000126F3A6B4E6B626B266B0401000E116F7E
:10625000396B4D6B616B256B0401000E106F386B51
:106260004C6B606B246B0C0175D00C01443F72D0F9
:10627000446930B59CD730B76DD0308730B36AD021
:1062800030B168D026A093D73081F29EF29C25C011
:1062900012FC24C008FCCECF26FCCFCF1CFCF28E13
:1062A000F28C0C0130A523D030B921D03089040103
:1062B000000E126F3A6B4E6B626B266B0401000E80
:1062C000116F396B4D6B616B256B0401000E106F04
:1062D000386B4C6B606B246B0401000E106F040E66
:1062E000386F010E4C6F606FA00E246F32D00C011E
:1062F00030B31AD030B118D026A016D00401FF0E4A
:10630000126F3A6B4E6B626B266B0401FF0E116FBE
:10631000396B4D6B616B256B0401FF0E106F386B91
:106320004C6B606B246B15D00401000E126F3A6B3E
:106330004E6B626B266B0401000E116F396B4D6B57
:10634000616B256B0401000E106F386B4C6B606B3A
:10635000246B0C0126A45FD00C0130B53A2F5BD022
:10636000309530990C0130A523D030B921D0308937
:106370000401000E126F3A6B4E6B626B266B0401C8
:10638000000E116F396B4D6B616B256B0401000EB4
:10639000106F386B4C6B606B246B0401000E106F38
:1063A000040E386F010E4C6F606FA00E246F32D058
:1063B0000C0130B31AD030B118D026A016D0040189
:1063C000FF0E126F3A6B4E6B626B266B0401FF0E71
:1063D000116F396B4D6B616B256B0401FF0E106FF4
:1063E000386B4C6B606B246B15D00401000E126F80
:1063F0003A6B4E6B626B266B0401000E116F396BAA
:106400004D6B616B256B0401000E106F386B4C6B8C
:10641000606B246B0C010C01040082AA3BD0456721
:1064200002D0319782D00C0145077FD00C01318515
:1064300046CC3BFC0C0131A515D031B913D03189C4
:106440000401000E136F3B6B4F6B636B276B0401F2
:10645000000E136F040E3B6F010E4F6F636FA00EA3
:10646000276F16D00C0131B30CD031B10AD026A061
:1064700008D00401FF0E136F3B6B4F6B636B276BF0
:1064800007D00401000E136F3B6B4F6B636B276BE0
:106490000C014BD00C01453F48D0456931B5C6D7FA
:1064A00031B743D0318731B340D031B13ED026A08F
:1064B000BDD73181F29EF29C25C013FC24C009FC9B
:1064C000CECF27FCCFCF1DFCF28EF28C0C0131A574
:1064D00015D031B913D031890401000E136F3B6B15
:1064E0004F6B636B276B0401000E136F040E3B6F41
:1064F000010E4F6F636FA00E276F16D00C0131B3E2
:106500000CD031B10AD026A008D00401FF0E136FC1
:106510003B6B4F6B636B276B07D00401000E136F4F
:106520003B6B4F6B636B276B0C0126A435D00C01C2
:1065300031B53B2F31D0319531990C0131A515D0B2
:1065400031B913D031890401000E136F3B6B4F6BCF
:10655000636B276B0401000E136F040E3B6F010E7B
:106560004F6F636FA00E276F16D00C0131B30CD0A4
:1065700031B10AD026A008D00401FF0E136F3B6B87
:106580004F6B636B276B07D00401000E136F3B6BDF
:106590004F6B636B276B0C012694120004000C01F7
:1065A000006B0A6B146B1E6B2891016B0B6B156BE8
:1065B0001F6B2991026B0C6B166B206B2A91036B7E
:1065C0000D6B176B216B2B91046B0E6B186B226B91
:1065D0002C91056B0F6B196B236B2D91066B106B58
:1065E0001A6B246B2E91076B116B1B6B256B2F9114
:1065F000086B126B1C6B266B3091096B136B1D6B58
:10660000276B31912680CF6ACE6A246A256A9E90D4
:106610009F809D80CD8001D8120004000C010C01E8
:1066200028A523D028B921D028890401000E026FA3
:106630002A6B3E6B526B166B0401000E016F296BC7
:106640003D6B516B156B0401000E006F286B3C6BAA
:10665000506B146B0401000E006F040E286F010EC6
:106660003C6F506FA00E146F32D00C0128B31AD0BB
:1066700028B118D026A016D00401FF0E026F2A6B95
:106680003E6B526B166B0401FF0E016F296B3D6B65
:10669000516B156B0401FF0E006F286B3C6B506B48
:1066A000146B15D00401000E026F2A6B3E6B526B07
:1066B000166B0401000E016F296B3D6B516B156B5E
:1066C0000401000E006F286B3C6B506B146B0C01C7
:1066D0000C0129A515D029B913D029890401000E70
:1066E000036F2B6B3F6B536B176B0401000E036F33
:1066F000040E2B6F010E3F6F536FA00E176F16D055
:106700000C0129B30CD029B10AD026A008D004016D
:10671000FF0E036F2B6B3F6B536B176B07D004019E
:10672000000E036F2B6B3F6B536B176B0C010C014F
:106730002AA523D02AB921D02A890401000E066F88
:106740002E6B426B566B1A6B0401000E056F2D6B9E
:10675000416B556B196B0401000E046F2C6B406B81
:10676000546B186B0401000E046F040E2C6F010EA5
:10677000406F546FA00E186F32D00C012AB31AD09C
:106780002AB118D026A016D00401FF0E066F2E6B7A
:10679000426B566B1A6B0401FF0E056F2D6B416B3C
:1067A000556B196B0401FF0E046F2C6B406B546B1F
:1067B000186B15D00401000E066F2E6B426B566BE2
:1067C0001A6B0401000E056F2D6B416B556B196B35
:1067D0000401000E046F2C6B406B546B186B0C01A2
:1067E0000C012BA515D02BB913D02B890401000E59
:1067F000076F2F6B436B576B1B6B0401000E076F0A
:10680000040E2F6F010E436F576FA00E1B6F16D033
:106810000C012BB30CD02BB10AD026A008D0040158
:10682000FF0E076F2F6B436B576B1B6B07D0040179
:10683000000E076F2F6B436B576B1B6B0C010C012A
:106840002CA523D02CB921D02C890401000E0A6F6D
:10685000326B466B5A6B1E6B0401000E096F316B75
:10686000456B596B1D6B0401000E086F306B446B58
:10687000586B1C6B0401000E086F040E306F010E84
:10688000446F586FA00E1C6F32D00C012CB31AD07D
:106890002CB118D026A016D00401FF0E0A6F326B5F
:1068A000466B5A6B1E6B0401FF0E096F316B456B13
:1068B000596B1D6B0401FF0E086F306B446B586BF6
:1068C0001C6B15D00401000E0A6F326B466B5A6BBD
:1068D0001E6B0401000E096F316B456B596B1D6B0C
:1068E0000401000E086F306B446B586B1C6B0C017D
:1068F0000C012DA515D02DB913D02D890401000E42
:106900000B6F336B476B5B6B1F6B0401000E0B6FE0
:10691000040E336F010E476F5B6FA00E1F6F16D012
:106920000C012DB30CD02DB10AD026A008D0040143
:10693000FF0E0B6F336B476B5B6B1F6B07D0040154
:10694000000E0B6F336B476B5B6B1F6B0C010C0105
:106950002EA523D02EB921D02E890401000E0E6F52
:10696000366B4A6B5E6B226B0401000E0D6F356B4C
:10697000496B5D6B216B0401000E0C6F346B486B2F
:106980005C6B206B0401000E0C6F040E346F010E63
:10699000486F5C6FA00E206F32D00C012EB31AD05E
:1069A0002EB118D026A016D00401FF0E0E6F366B44
:1069B0004A6B5E6B226B0401FF0E0D6F356B496BEA
:1069C0005D6B216B0401FF0E0C6F346B486B5C6BCD
:1069D000206B15D00401000E0E6F366B4A6B5E6B98
:1069E000226B0401000E0D6F356B496B5D6B216BE3
:1069F0000401000E0C6F346B486B5C6B206B0C0158
:106A00000C012FA515D02FB913D02F890401000E2A
:106A10000F6F376B4B6B5F6B236B0401000E0F6FB7
:106A2000040E376F010E4B6F5F6FA00E236F16D0F1
:106A30000C012FB30CD02FB10AD026A008D004012E
:106A4000FF0E0F6F376B4B6B5F6B236B07D004012F
:106A5000000E0F6F376B4B6B5F6B236B0C010C01E0
:106A600030A523D030B921D030890401000E126F37
:106A70003A6B4E6B626B266B0401000E116F396B23
:106A80004D6B616B256B0401000E106F386B4C6B06
:106A9000606B246B0401000E106F040E386F010E42
:106AA0004C6F606FA00E246F32D00C0130B31AD03F
:106AB00030B118D026A016D00401FF0E126F3A6B29
:106AC0004E6B626B266B0401FF0E116F396B4D6BC1
:106AD000616B256B0401FF0E106F386B4C6B606BA4
:106AE000246B15D00401000E126F3A6B4E6B626B73
:106AF000266B0401000E116F396B4D6B616B256BBA
:106B00000401000E106F386B4C6B606B246B0C0132
:106B10000C0131A515D031B913D031890401000E13
:106B2000136F3B6B4F6B636B276B0401000E136F8E
:106B3000040E3B6F010E4F6F636FA00E276F16D0D0
:106B40000C0131B30CD031B10AD026A008D0040119
:106B5000FF0E136F3B6B4F6B636B276B07D004010A
:106B6000000E136F3B6B4F6B636B276B0C011200B6
:0E6B700004002690CD909D909E904FDD120067
:026B7E00040011
:106B80000301948E949C060EFBECB5F00101040009
:106B900001EE00F0EE6AE966FDD70201040002EEA4
:106BA00000F0EE6AE966FDD70301006B036B046B2E
:106BB000056B066B900EAB6E240EAC6E080EB86EB5
:106BC00012000301086B9DAA02D09D9A0881056BF3
:106BD000066B0097009308B19D8A12000301086BB1
:106BE0009DA802D09D980881036B046B00950091CD
:106BF00008B19D88120003010400086F15ECA8F08D
:106C0000B06E030108513AECA8F0AF6E1200030118
:106C1000026F0400030102AF06D04D0E21D82D0EE5
:106C20001FD80301029F7F0E0301026305D05E0E91
:106C300017D83F0E0301026F1B0E0301026302D03F
:106C4000240E026F030102AD02BB04D05E0E08D811
:106C50000301028D0301025103D812000301025106
:106C600004000301076F00A111D003010351046365
:106C70000DD0F9D70301025104000301076F00A1F1
:106C800005D00351046302D00085120004C3E1FF64
:106C9000010EE26E07C3E7FF03010081042B9D880C
:106CA000120004000D0EDCDF0A0EDADF120003D83A
:106CB0000301015112000400030100B302D0016B73
:106CC000120005C3E1FF020EE26EE7CF01F30301FC
:106CD000052B0551066301D00093120003D8030170
:106CE000015112000301040000A3FDD7E4D7030102
:106CF000026F0400030102C308F3083900ECA8F096
:106D000030ECB6F00301085100ECA8F030ECB6F01E
:106D1000120003010400200E0C6F126B136B146B36
:106D2000156B166BEACF0EF3E9CF0FF303EE12F0FB
:106D3000050E03010D6F0400330EEF26EFB6F00BC6
:106D4000EFBE0F0BEE5E03010D2FF5D71A37193783
:106D500018371737163715371437133712370C2FE4
:106D6000E5D70EC3EAFF0FC3E9FF120004000301D9
:106D7000EACF0EF3E9CF0FF3E2CF10F3E1CF11F337
:106D800003EE16F013EE1BF0050E0D6FEF500F0B18
:106D9000300FE56EED380F0B300FE56E03010D2F50
:106DA000F5D70EC3EAFF0FC3E9FF10C3E2FF11C31B
:106DB000E1FF12000400030100B102D09D9812000F
:106DC000E2CF0AF3E1CF0BF303C3E1FF010EE26E62
:106DD000E7CFADFF0301032B0351046301D0009102
:106DE0000AC3E2FF0BC3E1FF120004000301ABB4CE
:106DF0001CD8ABB21DD800A306D00551066303D042
:106E00000087AE501200E2CF0AF3E1CF0BF306C3C6
:106E1000E1FF020EE26EAECFE7FF03010083062B17
:106E20000AC3E2FF0BC3E1FF12000301008B120053
:0A6E300003010089AB98AB88120043
:066E3A00026ED8CF00F04B
:106E4000E0CF01F09EA803D0DAECB6F09E989EAA9F
:106E500003D0F5ECB6F09E9A01C0E0FF025000C0EE
:106E6000D8FF1000F2A40CD05D0ED76E3D0ED66E8A
:106E7000F294068C078C04C014F005C015F026822D
:106E80009EA20CD006AC07D0152E07D014660CD0ED
:106E9000069C068E166806BE068A9E929EA003D0A9
:0E6EA0009E90254A242A110014061568F6D784
:026FF000A5A05A
:020000040030CA
:0100010006F8
:0100020019E4
:010003001DDF
:01000500807A
:010006008178
:010008003FB8
:01000900C036
:01000A003FB6
:01000B00E014
:01000C003FB4
:01000D0040B2
:0200000400F00A
:10000000FF060000020000000000000000000042A7
:00000001FF
