:020000040000FA
:06000000040082EF00F095
:020006000000F8
:060008000400E9EF02F024
:02000E000400EC
:06001000000ECD6E12008F
:060018000400D4EF02F029
:02001E000400DC
:10002000400ED36E9F0ED06E000EF26EB40EF16EC7
:10003000000EF06E000E9D6E000EA06E000EA36E00
:10004000020E9F6E000EA26E000EA56E9E6AA16A41
:10005000A46A3C0EC26E0F0EC16EC06AB56A806A99
:10006000896A816A8A6A826A8B6A836A8C6A846A0C
:100070008D6A9268936AF00E946E110E956E966A70
:10008000100ED56ED76AD66A800ECD6ECF6ACE6A54
:10009000080ECA6ECC6ACB6A800EB16EB36AB26AC1
:1000A000D26A200E6E6EBD6ABA6AB46A010ED16E53
:0600B00007EC00F0120055
:10010000120012000400FC6A0FEC00F081EC00F019
:100110008BEC01F00400AA6AA96AA69EA69CA6948C
:10012000A680FF0EA862BAD00F0EA96EA680420E5E
:10013000A862B4D00400A198A694A69EA69CAA6A20
:10014000010EA96EA680A850C7EC01F0A92AA680CE
:10015000A8CF03F0A92AA680A8CF04F0A92AA680D8
:10016000A8CF05F0A92AA680A8CF08F0A92AA680C2
:10017000A8CF09F0089CA92AA96A9F989F9A040011
:10018000066A076A0A6A800E186E196A1C681D687A
:100190000401006B146B286B3C6B506B016B156B8F
:1001A000296B3D6B516B026B166B2A6B3E6B526B6E
:1001B000036B176B2B6B3F6B536B046B186B2C6BC8
:1001C000406B546B056B196B2D6B416B556B066B5C
:1001D0001A6B2E6B426B566B076B1B6B2F6B436B53
:1001E000576B086B1C6B306B446B586B096B1D6B4A
:1001F000316B456B596B0A6B1E6B326B466B5A6BDE
:100200000B6B1F6B336B476B5B6B0C6B206B346B37
:10021000486B5C6B0D6B216B356B496B5D6B0E6BCB
:10022000226B366B4A6B5E6B0F6B236B376B4B6BC2
:100230005F6B106B246B386B4C6B606B116B256BB9
:10024000396B4D6B616B126B266B3A6B4E6B626B4D
:10025000136B276B3B6B4F6B636BD76AD66AF1846A
:10026000F28AD58E9F0ECB6ECC6A9F829E929D8223
:10027000CA849D8A9E6AA16AA46AF294F292F28E5E
:10028000F28C04003FECA8F0040108AE00EF04F08B
:100290000A0EC7EC01F0088C00EF04F00400F29E97
:1002A000F29C000EAA6E000EA96EA69EA69CA684C5
:1002B000010EF86E400EF76E000EF66E100E1F6EF9
:1002C0000900F5CFA8FFA198550EA76EAA0EA76E3C
:1002D000A682A1A8FED70400A198A92A1F2EF0D7B4
:1002E000A694F28EF28CAA6AA96A100E1F6E040000
:1002F000F29EF29CFF000400040E226E03D0040064
:10030000080E226E20682168212EFED7202EFBD7F2
:06031000222EF8D71200B6
:0A03160004000301948E949C060E6F
:10032000C7EC01F00101040001EE00F0EE6AE9669D
:10033000FDD70201040002EE00F0EE6AE966FDD787
:100340000301006B036B046B056B066B900EAB6EC9
:10035000240EAC6E080EB86E12000301086B9DAA45
:1003600002D09D9A0881056B066B0097009308B137
:100370009D8A12000301086B9DA802D09D980881F8
:10038000036B046B0095009108B19D881200030176
:100390000400086F15ECA8F0B06E08512AECA8F024
:1003A000AF6E12000301026F0400030102AF05D01B
:1003B0004D0E1AD82D0E18D8029F7F0E026304D05E
:1003C0005E0E12D83F0E026F1B0E026302D0240E87
:1003D000026F02AD02BB03D05E0E06D8028D025141
:1003E00003D812000301025104000301076F00A1AA
:1003F00010D0035104630DD0FAD703010251040059
:100400000301076F00A105D00351046302D00085EA
:10041000120004C3E1FF010EE26E07C3E7FF008193
:10042000042B9D88120004000D0EDEDF0A0EDCDFB7
:10043000120002D8015112000400030100B302D0DF
:10044000016B120005C3E1FF020EE26EE7CF01F37C
:10045000052B0551066301D00093120002D801510B
:1004600012000301040000A3FDD7E6D70301026FC9
:100470000400030102C308F3083900ECA8F0F4EC0F
:1004800001F0085100ECA8F0F4EC01F012000301B7
:100490000400200E0C6F126B136B146B156B166B34
:1004A000EACF0EF3E9CF0FF303EE12F0050E0D6F56
:1004B0000400330EEF26EFB6F00BEFBE0F0BEE5E2F
:1004C0000D2FF6D71A37193718371737163715374C
:1004D0001437133712370C2FE7D70EC3EAFF0FC3B9
:1004E000E9FF120004000301EACF0EF3E9CF0FF396
:1004F000E2CF10F3E1CF11F303EE16F013EE1BF091
:10050000050E0D6FEF500F0B300FE56EED380F0B32
:10051000300FE56E0D2FF6D70EC3EAFF0FC3E9FFCC
:1005200010C3E2FF11C3E1FF12000400030100B198
:1005300002D09D981200E2CF0AF3E1CF0BF303C380
:10054000E1FF010EE26EE7CFADFF032B0351046321
:1005500001D000910AC3E2FF0BC3E1FF12000400C7
:100560000301ABB41BD8ABB21BD800A306D0055116
:10057000066303D00087AE501200E2CF0AF3E1CF4A
:100580000BF306C3E1FF020EE26EAECFE7FF00837E
:10059000062B0AC3E2FF0BC3E1FF1200008B12001F
:0805A0000089AB98AB88120042
:0805A800026ED8CF00F0E0CF95
:1005B00001F09EA803D095EC02F09E989EAA03D06D
:1005C000AFEC02F09E9A01C0E0FF025000C0D8FFDD
:1005D0001000F2A40CD05D0ED76E3D0ED66EF294D4
:1005E000068C078C04C014F005C015F026829EA26C
:1005F0000CD006AC07D0152E07D014660CD0069C84
:10060000068E166806BE068A9E929EA003D09E9015
:0C061000254A242A110014061568F6D7AC
:100800000400CFECA8F0040006BA63EC10F008AEC8
:1008100029D0030100AB07D031EC02F0016722D0F0
:100820000301009B04D0ABA41DD0AE501BE19D9AE8
:10083000E00EB36EC70EB26EA192A092B18004001A
:1008400006BA63EC10F082BE05D0A1A2F8D7B19031
:100850009D8A0AD0B1909D8AAB98AB88E00EB250C9
:10086000B3624DD0030100BB47D8030100B949D89A
:10087000030100B749D8030100A306D006B002D097
:1008800053D802D01CEC02F006B403D806B011D83D
:10089000B7D7030100B112009EA81200ACA212004B
:1008A0000694DCEC13F08B961200120E136E0A6A9B
:1008B00012000400181C02E1078A0AD0186608D04A
:1008C00007AA06D0079A077E1A6807AE01D000D0A3
:1008D00007AE07AC1200079C1A2E1200780E1A6E93
:1008E0004BD81B2A140E1B601B6A3F0E1B140D6E87
:1008F0000D8CE9D8040112000301009B1200088A44
:1009000012000301009912000A6AADEC01F0120016
:10091000230E136E92EF04F0220E136E92EF04F08A
:10092000200E136E0A6A1200040007842EEC02F0F7
:1009300008BC96EF13F00400030101AFA9D00792A1
:1009400007900A5001E0E4DF030104008F0E016309
:1009500002D0BCEF04F0BCEF04F0DF0E016302D064
:1009600029EFB1F001510F0B0362120003010139AD
:10097000070B02E022EF05F00401006B146B286BFB
:100980003C6B506B016B156B296B3D6B516B026BB4
:10099000166B2A6B3E6B526B036B176B2B6B3F6BAB
:1009A000536B046B186B2C6B406B546B056B196BA2
:1009B0002D6B416B556B066B1A6B2E6B426B566B36
:1009C000076B1B6B2F6B436B576B086B1C6B306B90
:1009D000446B586B096B1D6B316B456B596B0A6B24
:1009E0001E6B326B466B5A6B0B6B1F6B336B476B1B
:1009F0005B6B0C6B206B346B486B5C6B0D6B216B12
:100A0000356B496B5D6B0E6B226B366B4A6B5E6BA5
:100A10000F6B236B376B4B6B5F6B106B246B386BFF
:100A20004C6B606B116B256B396B4D6B616B126B93
:100A3000266B3A6B4E6B626B136B276B3B6B4F6B8A
:100A4000636B12000B6EE82C03D0010E0A6E1200CD
:100A5000E82C03D0020E0A6E1200E82C03D0040E1C
:100A60000A6E1200E82C03D0050E0A6E1200E82C64
:100A700002D08CEF04F0E82C02D08CEF04F0E82CCC
:100A800003D0090E0A6E1200010E136E0A6A1200DC
:100A9000040007A203D0018F07920ED007A002D056
:100AA00007900AD07E0E016302D0078212007F0EEB
:100AB000016302D0078012000A5001E1120001C355
:100AC0000DF0E82C12D059EC10F00A6A17BC90EF28
:100AD00004F017BE08D00DBC03D0E86A45EF10F053
:100AE000E86845EF10F090EF04F0E82C09D059ECDD
:100AF00010F017BC90EF04F00DBC178C0A2A1200FE
:100B0000E82C0DD017BE07D0D89017BCD8800D3474
:100B10000A6A45EF10F0020E136E0A6A1200E82C02
:100B20000FD059EC10F017BC90EF04F0390E0E6E98
:100B3000550E0F6E060E0A6E106A000E116E120030
:100B4000E82C0DD059EC10F017BC90EF04F00DBC60
:100B5000178C0C6A0DBE0C8E070E0A6E1200E82C64
:100B600077EF09F004000D500F626BEF09F01150A0
:100B700002E0E6EF05F00A6A05EE00F017503F0BC1
:100B8000EF24E828140802E290EF04F0EF28106444
:100B90006BEF09F017AE04D0030E136E0A6A120051
:100BA000040005EE00F014EE00F024EE14F01750EF
:100BB0003F0BE126D926EECF1FF01F2ADE6AEECFCB
:100BC000E7FFE12A1F2EFAD712001200E82E41D0CB
:100BD000030E105C02E26BEF09F002E090EF04F00C
:100BE00005EE02F0ED503A0802E090EF04F0EDCF90
:100BF00009F0086AEFB0098EEFB20880EFB4088EF2
:100C0000F29EF29C000EAA6E050EA96EA69EA69CF0
:100C1000A68408C0A8FFA198550EA76EAA0EA76EBD
:100C2000A682A1A8FED70400A198A92A09C0A8FFFE
:100C3000A198550EA76EAA0EA76EA682A1A8FED7F0
:100C40000400A198A694F28EF28CAA6AA96A0A6A94
:100C50001200E82E30D0010E105C02E26BEF09F0BA
:100C600002E090EF04F005EE00F00B0EEF5C02E303
:100C700090EF04F00F0EEF16F29EF29C000EAA6E9B
:100C8000010EA96EA69EA69CA684EFCFA8FFA198F0
:100C9000550EA76EAA0EA76EA682A1A8FED70400C5
:100CA000A198A694F28EF28CAA6AA96AEF50C7ECBA
:100CB00001F00A6A1200E82E15D0010E105C02E263
:100CC0006BEF09F002E090EF04F005EE00F0240E67
:100CD000EF6290EF04F04EEF01F0700E136E0A6AAF
:100CE0001200FFD7E82E41D0020E105C02E26BEF3B
:100CF00009F002E090EF04F005EE01F0500EED6215
:100D000090EF04F0EFCF05F012B0058E046A12B236
:100D10000480F29EF29C000EAA6E030EA96EA69E9F
:100D2000A69CA68404C0A8FFA198550EA76EAA0E83
:100D3000A76EA682A1A8FED70400A198000EAA6EF5
:100D4000040EA96E05C0A8FFA198550EA76EAA0EA5
:100D5000A76EA682A1A8FED70400A198A694F28E41
:100D6000F28CAA6AA96A0A6A1200E82E31D0020E31
:100D7000105C02E26BEF09F002E090EF04F005EE88
:100D800001F0410EED6290EF04F0490EEF6290EF3A
:100D900004F012500F0B036EF29EF29C000EAA6E2E
:100DA000020EA96EA69EA69CA68403C0A8FFA198C9
:100DB000550EA76EAA0EA76EA682A1A8FED70400A4
:100DC000A198A694F28EF28CAA6AA96A0A6A120005
:100DD000E82E13D0010E105C02E26BEF09F002E086
:100DE00090EF04F005EE00F05A0EEF6290EF04F081
:100DF0000A6A06B8120006861200E82E15D0010E07
:100E0000105C02E26BEF09F002E090EF04F005EEF7
:100E100000F05A0EEF6290EF04F00A6A08AC00D0BE
:100E200006961C681D681200E82E10D0010E105C9A
:100E300002E26BEF09F002E090EF04F005EE00F043
:100E4000580EEF6290EF04F0CDEF13F0E82EC9D109
:100E5000010E105C02E26BEF09F002E090EF04F08B
:100E600005EE00F0240EEF6290EF04F0D7EC13F0E3
:100E70008B8607940350F009FFEC01F01F0E1E6EE5
:100E80007F0E1E6206D0FFEC01F07F0EFFEC01F03A
:100E900013D07E0E1E6207D07F0EFFEC01F07E0E97
:100EA000FFEC01F009D01EAE04D07E0EFFEC01F085
:100EB0001E9E1E50FFEC01F0310E1E6E7F0E1E6254
:100EC00006D0FFEC01F07F0EFFEC01F013D07E0E98
:100ED0001E6207D07F0EFFEC01F07E0EFFEC01F0EA
:100EE00009D01EAE04D07E0EFFEC01F01E9E1E50F7
:100EF000FFEC01F0E86A08BEE88408B0E88209BEA9
:100F0000E8801E6E7F0E1E6206D0FFEC01F07F0EA1
:100F1000FFEC01F013D07E0E1E6207D07F0EFFECB7
:100F200001F07E0EFFEC01F009D01EAE04D07E0E63
:100F3000FFEC01F01E9E1E50FFEC01F009507F0BEC
:100F40001E6E7F0E1E6206D0FFEC01F07F0EFFECDE
:100F500001F013D07E0E1E6207D07F0EFFEC01F071
:100F60007E0EFFEC01F009D01EAE04D07E0EFFEC29
:100F700001F01E9E1E50FFEC01F0E86A06B8E884FE
:100F800006B6E8821E6E7F0E1E6206D0FFEC01F0F0
:100F90007F0EFFEC01F013D07E0E1E6207D07F0E95
:100FA000FFEC01F07E0EFFEC01F009D01EAE04D084
:100FB0007E0EFFEC01F01E9E1E50FFEC01F0E86A71
:100FC00007B6E88404B0E88205BEE8801E6E7F0E96
:100FD0001E6206D0FFEC01F07F0EFFEC01F013D093
:100FE0007E0E1E6207D07F0EFFEC01F07E0EFFEC3E
:100FF00001F009D01EAE04D07E0EFFEC01F01E9E63
:101000001E50FFEC01F00550E89E1E6E7F0E1E6222
:1010100006D0FFEC01F07F0EFFEC01F013D07E0E46
:101020001E6207D07F0EFFEC01F07E0EFFEC01F098
:1010300009D01EAE04D07E0EFFEC01F01E9E1E50A5
:10104000FFEC01F0E86AFFEC01F0E86AFFEC01F068
:10105000E86AFFEC01F0E86AFFEC01F0040E1E6E96
:101060007F0E1E6206D0FFEC01F07F0EFFEC01F058
:1010700013D07E0E1E6207D07F0EFFEC01F07E0EB5
:10108000FFEC01F009D01EAE04D07E0EFFEC01F0A3
:101090001E9E1E50FFEC01F0E86AFFEC01F0000E0E
:1010A000FFEC01F0000EFFEC01F0000EFFEC01F090
:1010B000000EFFEC01F0010EFFEC01F0000EFFEC62
:1010C00001F0000EFFEC01F0000EFFEC01F0020E4B
:1010D000FFEC01F0000EFFEC01F0000EFFEC01F060
:1010E000000EFFEC01F0030EFFEC01F0000EFFEC30
:1010F00001F0000EFFEC01F0000EFFEC01F01350C8
:10110000136A1E6E7F0E1E6206D0FFEC01F07F0E8A
:10111000FFEC01F013D07E0E1E6207D07F0EFFECB5
:1011200001F07E0EFFEC01F009D01EAE04D07E0E61
:10113000FFEC01F01E9E1E50FFEC01F0E86AFFEC90
:1011400001F0E86AFFEC01F0E86AFFEC01F0010E43
:10115000F86E6F0EF76EF00EF66E0900F5501E6E0B
:101160007F0E1E6206D0FFEC01F07F0EFFEC01F057
:1011700013D07E0E1E6207D07F0EFFEC01F07E0EB4
:10118000FFEC01F009D01EAE04D07E0EFFEC01F0A2
:101190001E9E1E50FFEC01F00900F5501E6E7F0EE2
:1011A0001E6206D0FFEC01F07F0EFFEC01F013D0C1
:1011B0007E0E1E6207D07F0EFFEC01F07E0EFFEC6C
:1011C00001F009D01EAE04D07E0EFFEC01F01E9E91
:1011D0001E50FFEC01F0330EFFEC01F006840A6AAA
:1011E0001200E82E0CD0040E105C02E26BEF09F046
:1011F00002E090EF04F005EE00F08CEF04F0E82E32
:1012000010D0010E105C02E26BEF09F002E090EFEB
:1012100004F005EE00F0430EEF6290EF04F08CEF67
:1012200004F0E82E18D0105002E16BEF09F005EE43
:1012300000F0EF28E828E828105C02E26BEF09F0E4
:1012400002E090EF04F01004E926440EEF6290EF04
:1012500004F08CEF04F0E82E11D0020E105C02E0D6
:1012600090EF04F005EE00F0330EEE6290EF04F024
:101270004C0EEF6290EF04F090EF04F0E82C0AD0EF
:101280000028105C02E26BEF09F002E090EF04F03E
:101290000A6A1200E82C0AD0380E105C02E26BEFEA
:1012A00009F002E090EF04F00A6A1200E82C0ED078
:1012B000020E105C02E26BEF09F002E090EF04F026
:1012C000320E016290EF04F00A6A1200050E136EEE
:1012D0000A6A1200120010500E6490EF04F005EE3E
:1012E00000F01050E9260DC0EFFF102A1200E82C84
:1012F00004D00D28126E0A2A1200E82C1FD00D2AE5
:1013000017BE18D004EE14F017503F0BE926EF6A11
:1013100017BCEF8E17ACEF8C0CBEEF8A140EE926CB
:1013200012C0EFFFE9260DC0EFFFE9260DC0EFFF69
:101330000A6A1200060E136E0A6A1200E82CF4D034
:101340000DBC83D00DBA7FD00D500AE1020E0E6E97
:101350005A0E0F6E060E0A6E106A060E116E1200FD
:10136000E82C0AD0020E0E6E5A0E0F6E060E0A6E92
:10137000106A070E116E1200E82C0AD0020E0E6ED3
:10138000590E0F6E060E0A6E106A080E116E1200CC
:10139000E82C0AD0020E0E6E540E0F6E060E0A6E68
:1013A000106A090E116E1200E82C03D00E0E0A6EA0
:1013B0001200E82C03D00F0E0A6E1200E82C0AD09F
:1013C000050E0E6E3C0E0F6E060E0A6E106A0A0EA9
:1013D000116E1200E82C03D0100E0A6E1200E82CD9
:1013E0000AD0020E0E6E410E0F6E060E0A6E106AC5
:1013F0000B0E116E1200E82C02D05FEF0AF0E82C01
:1014000003D0130E0A6E1200E82C03D0140E0A6EDD
:101410001200E82C0AD0430E0E6E550E0F6E060E0B
:101420000A6E106A0E0E116E1200E82C0AD03B0EE6
:101430000E6E660E0F6E060E0A6E106A0F0E116E9D
:10144000120090EF04F090EF04F006B804D0210EE3
:10145000136E92EF04F00DAA4FD00DA859D00F0EC5
:101460000D1407E1069808AC00D00A6A8DEC13F061
:101470001200E82C0AD0040E0E6E3D0E0F6E060E02
:101480000A6E106A010E116E1200E82C0AD0020ECC
:101490000E6E260E0F6E060E0A6E106A020E116E8A
:1014A0001200E82C0AD0020E0E6E720E0F6E060E9F
:1014B0000A6E106A030E116E1200E82C03D0078624
:1014C00032EF0AF0E82C0AD0030E0E6E1C0E0F6EDF
:1014D000060E0A6E106A0D0E116E1200E82C0AD06C
:1014E000050E0E6E5A0E0F6E060E0A6E106A100E64
:1014F000116E120090EF04F00DC012F0030E0E6E8C
:101500004F0E0F6E060E0A6E106A040E116E120058
:101510000DC012F0030E0E6E440E0F6E060E0A6E14
:10152000106A050E116E1200E82C04D0080E136E1E
:101530000A6A1200E82C04D00B0E136E0A6A12001D
:10154000E82C04D00C0E136E0A6A1200E82C04D0AA
:101550000D0E136E0A6A1200E82C0CD00DC012F0AA
:10156000830E0E6E730E0F6E060E0A6E106A0C0E50
:10157000116E1200E82C02D08CEF04F0E82C02D09F
:101580008CEF04F0E82C02D090EF04F0E82C02D0AD
:1015900090EF04F0E82C0CEF10F00400F80E0D149E
:1015A000126E600E126290EF04F00DB0B8ECB3F062
:1015B000D7EC13F08B860794F00E0314FFEC01F0C8
:1015C0001D0EFFEC01F00DB2FDEF0FF0030E0DA4A8
:1015D000280F26B0E88C126EFFEC01F00C01E86ACF
:1015E00040B1E88040B3E88241B1E88441B3E88685
:1015F00046B1E88846B3E88A47B1E88CFFEC01F0D1
:10160000E86A42B1E88042B3E88243B1E88443B378
:10161000E88648B1E88848B3E88A49B1E88CFFEC2D
:1016200001F0E86A44B1E88044B3E88245B1E88457
:1016300045B3E88647B3E88849B3E88AFFEC01F090
:101640000DB403EF10F000CCE8FF1E6E7F0E1E629B
:1016500006D0FFEC01F07F0EFFEC01F013D07E0E00
:101660001E6207D07F0EFFEC01F07E0EFFEC01F052
:1016700009D01EAE04D07E0EFFEC01F01E9E1E505F
:10168000FFEC01F010CCE8FF1E6E7F0E1E6206D04C
:10169000FFEC01F07F0EFFEC01F013D07E0E1E6216
:1016A00007D07F0EFFEC01F07E0EFFEC01F009D0B9
:1016B0001EAE04D07E0EFFEC01F01E9E1E50FFEC0D
:1016C00001F020CCE8FF1E6E7F0E1E6206D0FFECFC
:1016D00001F07F0EFFEC01F013D07E0E1E6207D0EA
:1016E0007F0EFFEC01F07E0EFFEC01F009D01EAE84
:1016F00004D07E0EFFEC01F01E9E1E50FFEC01F0A8
:1017000030CCE8FF1E6E7F0E1E6206D0FFEC01F0AB
:101710007F0EFFEC01F013D07E0E1E6207D07F0E0D
:10172000FFEC01F07E0EFFEC01F009D01EAE04D0FC
:101730007E0EFFEC01F01E9E1E50FFEC01F001CC6E
:10174000E8FF1E6E7F0E1E6206D0FFEC01F07F0EDA
:10175000FFEC01F013D07E0E1E6207D07F0EFFEC6F
:1017600001F07E0EFFEC01F009D01EAE04D07E0E1B
:10177000FFEC01F01E9E1E50FFEC01F011CCE8FFC3
:101780001E6E7F0E1E6206D0FFEC01F07F0EFFEC96
:1017900001F013D07E0E1E6207D07F0EFFEC01F029
:1017A0007E0EFFEC01F009D01EAE04D07E0EFFECE1
:1017B00001F01E9E1E50FFEC01F021CCE8FF1E6ED2
:1017C0007F0E1E6206D0FFEC01F07F0EFFEC01F0F1
:1017D00013D07E0E1E6207D07F0EFFEC01F07E0E4E
:1017E000FFEC01F009D01EAE04D07E0EFFEC01F03C
:1017F0001E9E1E50FFEC01F031CCE8FF1E6E7F0EE6
:101800001E6206D0FFEC01F07F0EFFEC01F013D05A
:101810007E0E1E6207D07F0EFFEC01F07E0EFFEC05
:1018200001F009D01EAE04D07E0EFFEC01F01E9E2A
:101830001E50FFEC01F002CCE8FF1E6E7F0E1E6210
:1018400006D0FFEC01F07F0EFFEC01F013D07E0E0E
:101850001E6207D07F0EFFEC01F07E0EFFEC01F060
:1018600009D01EAE04D07E0EFFEC01F01E9E1E506D
:10187000FFEC01F012CCE8FF1E6E7F0E1E6206D058
:10188000FFEC01F07F0EFFEC01F013D07E0E1E6224
:1018900007D07F0EFFEC01F07E0EFFEC01F009D0C7
:1018A0001EAE04D07E0EFFEC01F01E9E1E50FFEC1B
:1018B00001F022CCE8FF1E6E7F0E1E6206D0FFEC08
:1018C00001F07F0EFFEC01F013D07E0E1E6207D0F8
:1018D0007F0EFFEC01F07E0EFFEC01F009D01EAE92
:1018E00004D07E0EFFEC01F01E9E1E50FFEC01F0B6
:1018F00032CCE8FF1E6E7F0E1E6206D0FFEC01F0B8
:101900007F0EFFEC01F013D07E0E1E6207D07F0E1B
:10191000FFEC01F07E0EFFEC01F009D01EAE04D00A
:101920007E0EFFEC01F01E9E1E50FFEC01F003CC7A
:10193000E8FF1E6E7F0E1E6206D0FFEC01F07F0EE8
:10194000FFEC01F013D07E0E1E6207D07F0EFFEC7D
:1019500001F07E0EFFEC01F009D01EAE04D07E0E29
:10196000FFEC01F01E9E1E50FFEC01F013CCE8FFCF
:101970001E6E7F0E1E6206D0FFEC01F07F0EFFECA4
:1019800001F013D07E0E1E6207D07F0EFFEC01F037
:101990007E0EFFEC01F009D01EAE04D07E0EFFECEF
:1019A00001F01E9E1E50FFEC01F023CCE8FF1E6EDE
:1019B0007F0E1E6206D0FFEC01F07F0EFFEC01F0FF
:1019C00013D07E0E1E6207D07F0EFFEC01F07E0E5C
:1019D000FFEC01F009D01EAE04D07E0EFFEC01F04A
:1019E0001E9E1E50FFEC01F033CCE8FF1E6E7F0EF2
:1019F0001E6206D0FFEC01F07F0EFFEC01F013D069
:101A00007E0E1E6207D07F0EFFEC01F07E0EFFEC13
:101A100001F009D01EAE04D07E0EFFEC01F01E9E38
:101A20001E50FFEC01F004CCE8FF1E6E7F0E1E621C
:101A300006D0FFEC01F07F0EFFEC01F013D07E0E1C
:101A40001E6207D07F0EFFEC01F07E0EFFEC01F06E
:101A500009D01EAE04D07E0EFFEC01F01E9E1E507B
:101A6000FFEC01F014CCE8FF1E6E7F0E1E6206D064
:101A7000FFEC01F07F0EFFEC01F013D07E0E1E6232
:101A800007D07F0EFFEC01F07E0EFFEC01F009D0D5
:101A90001EAE04D07E0EFFEC01F01E9E1E50FFEC29
:101AA00001F024CCE8FF1E6E7F0E1E6206D0FFEC14
:101AB00001F07F0EFFEC01F013D07E0E1E6207D006
:101AC0007F0EFFEC01F07E0EFFEC01F009D01EAEA0
:101AD00004D07E0EFFEC01F01E9E1E50FFEC01F0C4
:101AE00034CCE8FF1E6E7F0E1E6206D0FFEC01F0C4
:101AF0007F0EFFEC01F013D07E0E1E6207D07F0E2A
:101B0000FFEC01F07E0EFFEC01F009D01EAE04D018
:101B10007E0EFFEC01F01E9E1E50FFEC01F005CC86
:101B2000E8FF1E6E7F0E1E6206D0FFEC01F07F0EF6
:101B3000FFEC01F013D07E0E1E6207D07F0EFFEC8B
:101B400001F07E0EFFEC01F009D01EAE04D07E0E37
:101B5000FFEC01F01E9E1E50FFEC01F015CCE8FFDB
:101B60001E6E7F0E1E6206D0FFEC01F07F0EFFECB2
:101B700001F013D07E0E1E6207D07F0EFFEC01F045
:101B80007E0EFFEC01F009D01EAE04D07E0EFFECFD
:101B900001F01E9E1E50FFEC01F025CCE8FF1E6EEA
:101BA0007F0E1E6206D0FFEC01F07F0EFFEC01F00D
:101BB00013D07E0E1E6207D07F0EFFEC01F07E0E6A
:101BC000FFEC01F009D01EAE04D07E0EFFEC01F058
:101BD0001E9E1E50FFEC01F035CCE8FF1E6E7F0EFE
:101BE0001E6206D0FFEC01F07F0EFFEC01F013D077
:101BF0007E0E1E6207D07F0EFFEC01F07E0EFFEC22
:101C000001F009D01EAE04D07E0EFFEC01F01E9E46
:101C10001E50FFEC01F006CCE8FF1E6E7F0E1E6228
:101C200006D0FFEC01F07F0EFFEC01F013D07E0E2A
:101C30001E6207D07F0EFFEC01F07E0EFFEC01F07C
:101C400009D01EAE04D07E0EFFEC01F01E9E1E5089
:101C5000FFEC01F016CCE8FF1E6E7F0E1E6206D070
:101C6000FFEC01F07F0EFFEC01F013D07E0E1E6240
:101C700007D07F0EFFEC01F07E0EFFEC01F009D0E3
:101C80001EAE04D07E0EFFEC01F01E9E1E50FFEC37
:101C900001F026CCE8FF1E6E7F0E1E6206D0FFEC20
:101CA00001F07F0EFFEC01F013D07E0E1E6207D014
:101CB0007F0EFFEC01F07E0EFFEC01F009D01EAEAE
:101CC00004D07E0EFFEC01F01E9E1E50FFEC01F0D2
:101CD00036CCE8FF1E6E7F0E1E6206D0FFEC01F0D0
:101CE0007F0EFFEC01F013D07E0E1E6207D07F0E38
:101CF000FFEC01F07E0EFFEC01F009D01EAE04D027
:101D00007E0EFFEC01F01E9E1E50FFEC01F007CC92
:101D1000E8FF1E6E7F0E1E6206D0FFEC01F07F0E04
:101D2000FFEC01F013D07E0E1E6207D07F0EFFEC99
:101D300001F07E0EFFEC01F009D01EAE04D07E0E45
:101D4000FFEC01F01E9E1E50FFEC01F017CCE8FFE7
:101D50001E6E7F0E1E6206D0FFEC01F07F0EFFECC0
:101D600001F013D07E0E1E6207D07F0EFFEC01F053
:101D70007E0EFFEC01F009D01EAE04D07E0EFFEC0B
:101D800001F01E9E1E50FFEC01F027CCE8FF1E6EF6
:101D90007F0E1E6206D0FFEC01F07F0EFFEC01F01B
:101DA00013D07E0E1E6207D07F0EFFEC01F07E0E78
:101DB000FFEC01F009D01EAE04D07E0EFFEC01F066
:101DC0001E9E1E50FFEC01F037CCE8FF1E6E7F0E0A
:101DD0001E6206D0FFEC01F07F0EFFEC01F013D085
:101DE0007E0E1E6207D07F0EFFEC01F07E0EFFEC30
:101DF00001F009D01EAE04D07E0EFFEC01F01E9E55
:101E00001E50FFEC01F008CCE8FF1E6E7F0E1E6234
:101E100006D0FFEC01F07F0EFFEC01F013D07E0E38
:101E20001E6207D07F0EFFEC01F07E0EFFEC01F08A
:101E300009D01EAE04D07E0EFFEC01F01E9E1E5097
:101E4000FFEC01F018CCE8FF1E6E7F0E1E6206D07C
:101E5000FFEC01F07F0EFFEC01F013D07E0E1E624E
:101E600007D07F0EFFEC01F07E0EFFEC01F009D0F1
:101E70001EAE04D07E0EFFEC01F01E9E1E50FFEC45
:101E800001F028CCE8FF1E6E7F0E1E6206D0FFEC2C
:101E900001F07F0EFFEC01F013D07E0E1E6207D022
:101EA0007F0EFFEC01F07E0EFFEC01F009D01EAEBC
:101EB00004D07E0EFFEC01F01E9E1E50FFEC01F0E0
:101EC00038CCE8FF1E6E7F0E1E6206D0FFEC01F0DC
:101ED0007F0EFFEC01F013D07E0E1E6207D07F0E46
:101EE000FFEC01F07E0EFFEC01F009D01EAE04D035
:101EF0007E0EFFEC01F01E9E1E50FFEC01F009CC9F
:101F0000E8FF1E6E7F0E1E6206D0FFEC01F07F0E12
:101F1000FFEC01F013D07E0E1E6207D07F0EFFECA7
:101F200001F07E0EFFEC01F009D01EAE04D07E0E53
:101F3000FFEC01F01E9E1E50FFEC01F019CCE8FFF3
:101F40001E6E7F0E1E6206D0FFEC01F07F0EFFECCE
:101F500001F013D07E0E1E6207D07F0EFFEC01F061
:101F60007E0EFFEC01F009D01EAE04D07E0EFFEC19
:101F700001F01E9E1E50FFEC01F029CCE8FF1E6E02
:101F80007F0E1E6206D0FFEC01F07F0EFFEC01F029
:101F900013D07E0E1E6207D07F0EFFEC01F07E0E86
:101FA000FFEC01F009D01EAE04D07E0EFFEC01F074
:101FB0001E9E1E50FFEC01F039CCE8FF1E6E7F0E16
:101FC0001E6206D0FFEC01F07F0EFFEC01F013D093
:101FD0007E0E1E6207D07F0EFFEC01F07E0EFFEC3E
:101FE00001F009D01EAE04D07E0EFFEC01F01E9E63
:101FF0001E50FFEC01F003EF10F0126A26B0128CB5
:102000001250FFEC01F0470E1214E88AE886FFEC4C
:1020100001F006840A6A1200E82C04D00DC012F008
:102020000A2A1200E82C2DD012AE12BC90EF04F058
:102030000DAE0DAC90EF04F00DAA0DB890EF04F0CA
:102040000C01409312A04083419312A2418342931A
:1020500012A44283439312A64383449312A8448359
:10206000459312AA458346930DA0468347930DA23C
:10207000478348930DA4488349930DA649830A6A70
:102080001200050E136E0A6A12000400179E179CB8
:10209000226E04EE00F01750E92622C0EFFF140E66
:1020A000E926EF6AE926EF6AE926EF6AE926EF6A90
:1020B000120004003F0E0D14176E170E1764120065
:1020C000178C178E120004000401069A16503EE089
:1020D000006301D08B84016301D08B82026301D045
:1020E0008B80036301D08D84046301D08A8E0563E5
:1020F00001D08A8C066301D08A8A076301D08A885E
:10210000086301D08A86096301D08A840A6301D0FA
:102110008A820B6301D08D800C6301D08C8E0D639D
:1021200001D08C8C0E6301D08C8A0F6301D08D821C
:10213000106301D08A80116301D08C86126301D0B4
:102140008C82136301D08C84160612000401078868
:10215000001D02E1079801D08B9414AF0DD0502FD1
:102160001AD03CC450F42851002715E30069149F8D
:1021700014AB11D0148D0FD014AD0DD0502F0BD047
:102180003CC450F42851005F06E2006B149D14BB60
:10219000148F14B95069011D02E1079801D08B9288
:1021A00015AF0DD0512F1AD03DC451F4295101273C
:1021B00015E30169159F15AB11D0158D0FD015AD25
:1021C0000DD0512F0BD03DC451F42951015F06E2CF
:1021D000016B159D15BB158F15B95169021D02E1E3
:1021E000079801D08B9016AF0DD0522F1AD03EC455
:1021F00052F42A51022715E30269169F16AB11D03B
:10220000168D0FD016AD0DD0522F0BD03EC452F408
:102210002A51025F06E2026B169D16BB168F16B995
:102220005269031D02E1079801D08D9417AF0DD0BC
:10223000532F1AD03FC453F42B51032715E30369DE
:10224000179F17AB11D0178D0FD017AD0DD0532F8F
:102250000BD03FC453F42B51035F06E2036B179D71
:1022600017BB178F17B95369041D02E1079801D0F6
:102270008A9E18AF0DD0542F1AD040C454F42C515C
:10228000042715E30469189F18AB11D0188D0FD0DF
:1022900018AD0DD0542F0BD040C454F42C51045F12
:1022A00006E2046B189D18BB188F18B95469051DF8
:1022B00002E1079801D08A9C19AF0DD0552F1AD092
:1022C00041C455F42D51052715E30569199F19AB34
:1022D00011D0198D0FD019AD0DD0552F0BD041C491
:1022E00055F42D51055F06E2056B199D19BB198F39
:1022F00019B95569061D02E1079801D08A9A1AAFEB
:102300000DD0562F1AD042C456F42E51062715E38D
:1023100006691A9F1AAB11D01A8D0FD01AAD0DD0C5
:10232000562F0BD042C456F42E51065F06E2066BC0
:102330001A9D1ABB1A8F1AB95669071D02E1079830
:1023400001D08A981BAF0DD0572F1AD043C457F431
:102350002F51072715E307691B9F1BAB11D01B8D5E
:102360000FD01BAD0DD0572F0BD043C457F42F51B6
:10237000075F06E2076B1B9D1BBB1B8F1BB95769D1
:10238000081D02E1079801D08A961CAF0DD0582F86
:102390001AD044C458F43051082715E308691C9F2B
:1023A0001CAB11D01C8D0FD01CAD0DD0582F0BD0F5
:1023B00044C458F43051085F06E2086B1C9D1CBBF6
:1023C0001C8F1CB95869091D02E1079801D08A9435
:1023D0001DAF0DD0592F1AD045C459F431510927DA
:1023E00015E309691D9F1DAB11D01D8D0FD01DADCB
:1023F0000DD0592F0BD045C459F43151095F06E275
:10240000096B1D9D1DBB1D8F1DB959690A1D02E178
:10241000079801D08A921EAF0DD05A2F1AD046C409
:102420005AF432510A2715E30A691E9F1EAB11D0D8
:102430001E8D0FD01EAD0DD05A2F0BD046C45AF4AE
:1024400032510A5F06E20A6B1E9D1EBB1E8F1EB92B
:102450005A690B1D02E1079801D08D901FAF0DD076
:102460005B2F1AD047C45BF433510B2715E30B697C
:102470001F9F1FAB11D01F8D0FD01FAD0DD05B2F35
:102480000BD047C45BF433510B5F06E20B6B1F9D0F
:102490001FBB1F8F1FB95B690C1D02E1079801D09C
:1024A0008C9E20AF0DD05C2F1AD048C45CF4345100
:1024B0000C2715E30C69209F20AB11D0208D0FD085
:1024C00020AD0DD05C2F0BD048C45CF434510C5FB0
:1024D00006E20C6B209D20BB208F20B95C690D1D8E
:1024E00002E1079801D08C9C21AF0DD05D2F1AD04E
:1024F00049C45DF435510D2715E30D69219F21ABCA
:1025000011D0218D0FD021AD0DD05D2F0BD049C43E
:102510005DF435510D5F06E20D6B219D21BB218FCE
:1025200021B95D690E1D02E1079801D08C9A22AF96
:102530000DD05E2F1AD04AC45EF436510E2715E333
:102540000E69229F22AB11D0228D0FD022AD0DD06B
:102550005E2F0BD04AC45EF436510E5F06E20E6B5E
:10256000229D22BB228F22B95E690F1D02E10798CE
:1025700001D08D9223AF0DD05F2F1AD04BC45FF4E2
:1025800037510F2715E30F69239F23AB11D0238DFC
:102590000FD023AD0DD05F2F0BD04BC45FF437515C
:1025A0000F5F06E20F6B239D23BB238F23B95F6967
:1025B000101D02E1079801D08A9024AF0DD0602F42
:1025C0001AD04CC460F43851102715E31069249FC9
:1025D00024AB11D0248D0FD024AD0DD0602F0BD0A3
:1025E0004CC460F43851105F06E2106B249D24BB8C
:1025F000248F24B96069111D02E1079801D08C96DF
:1026000025AF0DD0612F1AD04DC461F43951112777
:1026100015E31169259F25AB11D0258D0FD025AD70
:102620000DD0612F0BD04DC461F43951115F06E21A
:10263000116B259D25BB258F25B96169121D02E10E
:10264000079801D08C9226AF0DD0622F1AD04EC4BD
:1026500062F43A51122715E31269269F26AB11D076
:10266000268D0FD026AD0DD0622F0BD04EC462F454
:102670003A51125F06E2126B269D26BB268F26B9C1
:102680006269131D02E1079801D08C9427AF0DD029
:10269000632F1AD04FC463F43B51132715E313691A
:1026A000279F27AB11D0278D0FD027AD0DD0632FDB
:1026B0000BD04FC463F43B51135F06E2136B279DAD
:1026C00027BB278F27B96369069E07A809D01D2E4F
:1026D00012001D681C2E120006A6F9EC06F012006E
:1026E00006B60EEC07F01C681D681200040008AC6A
:1026F0001200F29EF29C000EAA6E010EA96EA69E1A
:10270000A69CA694A680A8CFE8FFF28EF28CAA6AB7
:10271000A96AC7EC01F0089C1200040008BE08BCBE
:1027200012000A0EC7EC01F0088C1200040008AA7F
:102730000DD0089AE86608D0170E0A6E09C012F08C
:102740000B6A08B00B8012000A6A12000D6E170E99
:102750000A6208D0126603D00BA003D00B901206B9
:1027600012000A2A0400180E0A6215D00DC00BF0E0
:1027700012C00DF0122A59EC10F017BC0AD00BC091
:102780000DF017BE02D045EF10F0020E136E0A6A6C
:1027900012000A6A12000A6A1200BCEC04F0F29EEF
:1027A000F29C730ED36ED18004000300FDD7236822
:0A27B0000400232EFDD71200FAD713
:020000040001F9
:10400000FF06000002000000000000000000004267
:105000000F0BE846F9CF09F3F926300C310C320CBE
:10501000330C340C350C360C370C380C390C410C75
:10502000420C430C440C450C460C0F0BE846F9CFE0
:1050300009F3F926820C420C200C100C080C040C0D
:10504000020C010C000C000C000C020C020C020CF7
:10505000020C020C0F0BE846F9CF09F3F926340CC9
:10506000190C8C0C450C220C100C070C030CAC0C0E
:0E507000550C270C070C070C070C070C070C3F
:02507E0004002C
:105080000C01266A3C0E706F006B106B206B306B4E
:10509000406B506B606B016B116B216B316B416B23
:1050A000516B616B026B126B226B326B426B526BFA
:1050B000626B036B136B236B336B436B536B636BD1
:1050C000046B146B246B346B446B546B646B056B17
:1050D000156B256B356B456B556B656B066B166BEE
:1050E000266B366B466B566B666B076B176B276BC5
:1050F000376B476B576B676B086B186B286B386B9C
:10510000486B586B686B096B196B296B396B496B72
:10511000596B696B0A6B1A6B2A6B3A6B4A6B5A6B49
:105120006A6B0B6B1B6B2B6B3B6B4B6B5B6B6B6B20
:105130000C6B1C6B2C6B3C6B4C6B5C6B6C6B0D6B66
:105140001D6B2D6B3D6B4D6B5D6B6D6B0E6B1E6B3D
:105150002E6B3E6B4E6B5E6B6E6B0F6B1F6B2F6B14
:105160003F6B4F6B5F6B6F6B04003F0E8014280A20
:105170000BE106880401000E016F040E296F010E79
:105180003D6F516FA00E156F0401000E006F010EF0
:10519000286F010E3C6F506FA00E146F12000400B8
:1051A0000C0126A202D02684269280B606D040B7F3
:1051B0008CD0603F8BD0409789D040A786D0603F8D
:1051C00085D0408740A140B381D026B03CD04085F7
:1051D00070CC50FC0C0140A512D00401000E016FF0
:1051E000296B3D6B516B156B0401000E006F040EB3
:1051F000286F010E3C6F506FA00E146F22D040A399
:1052000040B111D026A00FD00401000E006F286B12
:105210003C6B506B146B0401FF0E016F296B3D6BEF
:10522000516B156B0ED00401000E016F296B3D6BA5
:10523000516B156B0401000E006F286B3C6B506BBB
:10524000146B0C0143D0408125C010FC24C000FC2D
:10525000CECF30FCCFCF20FC0C0140A512D00401F2
:10526000000E016F296B3D6B516B156B0401000E35
:10527000006F040E286F010E3C6F506FA00E146F6C
:1052800022D040A340B111D026A00FD00401000EBF
:10529000006F286B3C6B506B146B0401FF0E016FA9
:1052A000296B3D6B516B156B0ED00401000E016F25
:1052B000296B3D6B516B156B0401000E006F286B61
:1052C0003C6B506B146B0C0101D0606B26A442D078
:1052D00040A540D040A703D070CC50FC3BD0502F0D
:1052E00039D040950C0140A512D00401000E016F89
:1052F000296B3D6B516B156B0401000E006F040EA2
:10530000286F010E3C6F506FA00E146F22D040A387
:1053100040B111D026A00FD00401000E006F286B01
:105320003C6B506B146B0401FF0E016F296B3D6BDE
:10533000516B156B0ED00401000E016F296B3D6B94
:10534000516B156B0401000E006F286B3C6B506BAA
:10535000146B0C0180B406D041B78CD0613F8BD068
:10536000419789D041A786D0613F85D0418741A12F
:1053700041B381D026B03CD0418570CC51FC0C01AA
:1053800041A512D00401000E036F2B6B3F6B536BD2
:10539000176B0401000E036F040E2B6F010E3F6F9D
:1053A000536FA00E176F22D041A341B111D026A098
:1053B0000FD00401000E036F2B6B3F6B536B176B09
:1053C0000401FF0E036F2B6B3F6B536B176B0ED0FB
:1053D0000401000E036F2B6B3F6B536B176B0401C3
:1053E000000E036F2B6B3F6B536B176B0C0143D09D
:1053F000418125C011FC24C001FCCECF31FCCFCFB0
:1054000021FC0C0141A512D00401000E036F2B6B8F
:105410003F6B536B176B0401000E036F040E2B6F71
:10542000010E3F6F536FA00E176F22D041A341B101
:1054300011D026A00FD00401000E036F2B6B3F6B21
:10544000536B176B0401FF0E036F2B6B3F6B536B9A
:10545000176B0ED00401000E036F2B6B3F6B536B69
:10546000176B0401000E036F2B6B3F6B536B176BB5
:105470000C0101D0616B26A442D041A540D041A7C8
:1054800003D070CC51FC3BD0512F39D041950C0149
:1054900041A512D00401000E036F2B6B3F6B536BC1
:1054A000176B0401000E036F040E2B6F010E3F6F8C
:1054B000536FA00E176F22D041A341B111D026A087
:1054C0000FD00401000E036F2B6B3F6B536B176BF8
:1054D0000401FF0E036F2B6B3F6B536B176B0ED0EA
:1054E0000401000E036F2B6B3F6B536B176B0401B2
:1054F000000E036F2B6B3F6B536B176B0C0180B26D
:1055000006D042B78CD0623F8BD0429789D042A759
:1055100086D0623F85D0428742A142B381D026B077
:105520003CD0428570CC52FC0C0142A512D0040143
:10553000000E056F2D6B416B556B196B0401000E4E
:10554000046F040E2C6F010E406F546FA00E186F85
:1055500022D042A342B111D026A00FD00401000EE8
:10556000046F2C6B406B546B186B0401FF0E056FBE
:105570002D6B416B556B196B0ED00401000E056F3E
:105580002D6B416B556B196B0401000E046F2C6B76
:10559000406B546B186B0C0143D0428125C012FC48
:1055A00024C002FCCECF32FCCFCF22FC0C0142A59E
:1055B00012D00401000E056F2D6B416B556B196BFA
:1055C0000401000E046F040E2C6F010E406F546F27
:1055D000A00E186F22D042A342B111D026A00FD046
:1055E0000401000E046F2C6B406B546B186B0401AC
:1055F000FF0E056F2D6B416B556B196B0ED00401BF
:10560000000E056F2D6B416B556B196B0401000E7D
:10561000046F2C6B406B546B186B0C0101D0626BE8
:1056200026A442D042A540D042A703D070CC52FC61
:105630003BD0522F39D042950C0142A512D0040123
:10564000000E056F2D6B416B556B196B0401000E3D
:10565000046F040E2C6F010E406F546FA00E186F74
:1056600022D042A342B111D026A00FD00401000ED7
:10567000046F2C6B406B546B186B0401FF0E056FAD
:105680002D6B416B556B196B0ED00401000E056F2D
:105690002D6B416B556B196B0401000E046F2C6B65
:1056A000406B546B186B0C0180B006D043B78CD0A4
:1056B000633F8BD0439789D043A786D0633F85D083
:1056C000438743A143B381D026B03CD0438570CCFF
:1056D00053FC0C0143A512D00401000E076F2F6B81
:1056E000436B576B1B6B0401000E076F040E2F6F8B
:1056F000010E436F576FA00E1B6F22D043A343B11F
:1057000011D026A00FD00401000E076F2F6B436B42
:10571000576B1B6B0401FF0E076F2F6B436B576BAF
:105720001B6B0ED00401000E076F2F6B436B576B82
:105730001B6B0401000E076F2F6B436B576B1B6BCA
:105740000C0143D0438125C013FC24C003FCCECF01
:1057500033FCCFCF23FC0C0143A512D00401000E73
:10576000076F2F6B436B576B1B6B0401000E076FAA
:10577000040E2F6F010E436F576FA00E1B6F22D0C8
:1057800043A343B111D026A00FD00401000E076F30
:105790002F6B436B576B1B6B0401FF0E076F2F6B57
:1057A000436B576B1B6B0ED00401000E076F2F6B02
:1057B000436B576B1B6B0401000E076F2F6B436B22
:1057C000576B1B6B0C0101D0636B26A442D043A521
:1057D00040D043A703D070CC53FC3BD0532F39D0DB
:1057E00043950C0143A512D00401000E076F2F6BE7
:1057F000436B576B1B6B0401000E076F040E2F6F7A
:10580000010E436F576FA00E1B6F22D043A343B10D
:1058100011D026A00FD00401000E076F2F6B436B31
:10582000576B1B6B0401FF0E076F2F6B436B576B9E
:105830001B6B0ED00401000E076F2F6B436B576B71
:105840001B6B0401000E076F2F6B436B576B1B6BB9
:105850000C0180B806D044B78CD0643F8BD04497FD
:1058600089D044A786D0643F85D0448744A144B3FF
:1058700081D026B03CD0448570CC54FC0C0144A5AA
:1058800012D00401000E096F316B456B596B1D6B13
:105890000401000E086F040E306F010E446F586F44
:1058A000A00E1C6F22D044A344B111D026A00FD06B
:1058B0000401000E086F306B446B586B1C6B0401C5
:1058C000FF0E096F316B456B596B1D6B0ED00401D8
:1058D000000E096F316B456B596B1D6B0401000E97
:1058E000086F306B446B586B1C6B0C0143D04481C8
:1058F00025C014FC24C004FCCECF34FCCFCF24FC44
:105900000C0144A512D00401000E096F316B456BE8
:10591000596B1D6B0401000E086F040E306F010EF1
:10592000446F586FA00E1C6F22D044A344B111D015
:1059300026A00FD00401000E086F306B446B586B2B
:105940001C6B0401FF0E096F316B456B596B1D6BAE
:105950000ED00401000E096F316B456B596B1D6B46
:105960000401000E086F306B446B586B1C6B0C010C
:1059700001D0646B26A442D044A540D044A703D0F4
:1059800070CC54FC3BD0542F39D044950C0144A525
:1059900012D00401000E096F316B456B596B1D6B02
:1059A0000401000E086F040E306F010E446F586F33
:1059B000A00E1C6F22D044A344B111D026A00FD05A
:1059C0000401000E086F306B446B586B1C6B0401B4
:1059D000FF0E096F316B456B596B1D6B0ED00401C7
:1059E000000E096F316B456B596B1D6B0401000E86
:1059F000086F306B446B586B1C6B0C0180BA06D07F
:105A000045B78CD0653F8BD0459789D045A786D0C8
:105A1000653F85D0458745A145B381D026B03CD0B0
:105A2000458570CC55FC0C0145A512D00401000E33
:105A30000B6F336B476B5B6B1F6B0401000E0B6FBF
:105A4000040E336F010E476F5B6FA00E1F6F22D0E5
:105A500045A345B111D026A00FD00401000E0B6F55
:105A6000336B476B5B6B1F6B0401FF0E0B6F336B6C
:105A7000476B5B6B1F6B0ED00401000E0B6F336B1B
:105A8000476B5B6B1F6B0401000E0B6F336B476B37
:105A90005B6B1F6B0C0143D0458125C015FC24C0F6
:105AA00005FCCECF35FCCFCF25FC0C0145A512D08F
:105AB0000401000E0B6F336B476B5B6B1F6B0401B4
:105AC000000E0B6F040E336F010E476F5B6FA00E5D
:105AD0001F6F22D045A345B111D026A00FD00401DD
:105AE000000E0B6F336B476B5B6B1F6B0401FF0E7C
:105AF0000B6F336B476B5B6B1F6B0ED00401000E9B
:105B00000B6F336B476B5B6B1F6B0401000E0B6FEE
:105B1000336B476B5B6B1F6B0C0101D0656B26A46D
:105B200042D045A540D045A703D070CC55FC3BD012
:105B3000552F39D045950C0145A512D00401000E12
:105B40000B6F336B476B5B6B1F6B0401000E0B6FAE
:105B5000040E336F010E476F5B6FA00E1F6F22D0D4
:105B600045A345B111D026A00FD00401000E0B6F44
:105B7000336B476B5B6B1F6B0401FF0E0B6F336B5B
:105B8000476B5B6B1F6B0ED00401000E0B6F336B0A
:105B9000476B5B6B1F6B0401000E0B6F336B476B26
:105BA0005B6B1F6B0C0182B806D046B78CD0663F8A
:105BB0008BD0469789D046A786D0663F85D046874A
:105BC00046A146B381D026B03CD0468570CC56FC69
:105BD0000C0146A512D00401000E0D6F356B496B08
:105BE0005D6B216B0401000E0C6F040E346F010E0F
:105BF000486F5C6FA00E206F22D046A346B111D033
:105C000026A00FD00401000E0C6F346B486B5C6B48
:105C1000206B0401FF0E0D6F356B496B5D6B216BC3
:105C20000ED00401000E0D6F356B496B5D6B216B5F
:105C30000401000E0C6F346B486B5C6B206B0C0125
:105C400043D0468125C016FC24C006FCCECF36FCCE
:105C5000CFCF26FC0C0146A512D00401000E0D6F1B
:105C6000356B496B5D6B216B0401000E0C6F040EEC
:105C7000346F010E486F5C6FA00E206F22D046A3D8
:105C800046B111D026A00FD00401000E0C6F346B6A
:105C9000486B5C6B206B0401FF0E0D6F356B496B1D
:105CA0005D6B216B0ED00401000E0D6F356B496BDF
:105CB0005D6B216B0401000E0C6F346B486B5C6BE9
:105CC000206B0C0101D0666B26A442D046A540D0C3
:105CD00046A703D070CC56FC3BD0562F39D0469502
:105CE0000C0146A512D00401000E0D6F356B496BF7
:105CF0005D6B216B0401000E0C6F040E346F010EFE
:105D0000486F5C6FA00E206F22D046A346B111D021
:105D100026A00FD00401000E0C6F346B486B5C6B37
:105D2000206B0401FF0E0D6F356B496B5D6B216BB2
:105D30000ED00401000E0D6F356B496B5D6B216B4E
:105D40000401000E0C6F346B486B5C6B206B0C0114
:105D500083B006D047B78CD0673F8BD0479789D0A8
:105D600047A786D0673F85D0478747A147B381D0F3
:105D700026B03CD0478570CC57FC0C0147A512D00B
:105D80000401000E0F6F376B4B6B5F6B236B0401CD
:105D9000000E0F6F040E376F010E4B6F5F6FA00E7A
:105DA000236F22D047A347B111D026A00FD0040102
:105DB000000E0F6F376B4B6B5F6B236B0401FF0E95
:105DC0000F6F376B4B6B5F6B236B0ED00401000EB4
:105DD0000F6F376B4B6B5F6B236B0401000E0F6F04
:105DE000376B4B6B5F6B236B0C0143D0478125C036
:105DF00017FC24C007FCCECF37FCCFCF27FC0C010B
:105E000047A512D00401000E0F6F376B4B6B5F6B11
:105E1000236B0401000E0F6F040E376F010E4B6FE2
:105E20005F6FA00E236F22D047A347B111D026A0E9
:105E30000FD00401000E0F6F376B4B6B5F6B236B42
:105E40000401FF0E0F6F376B4B6B5F6B236B0ED034
:105E50000401000E0F6F376B4B6B5F6B236B0401FC
:105E6000000E0F6F376B4B6B5F6B236B0C0101D018
:105E7000676B26A442D047A540D047A703D070CC7B
:105E800057FC3BD0572F39D047950C0147A512D06E
:105E90000401000E0F6F376B4B6B5F6B236B0401BC
:105EA000000E0F6F040E376F010E4B6F5F6FA00E69
:105EB000236F22D047A347B111D026A00FD00401F1
:105EC000000E0F6F376B4B6B5F6B236B0401FF0E84
:105ED0000F6F376B4B6B5F6B236B0ED00401000EA3
:105EE0000F6F376B4B6B5F6B236B0401000E0F6FF3
:105EF000376B4B6B5F6B236B0C0183B806D048B7D5
:105F00008CD0683F8BD0489789D048A786D0683F0F
:105F100085D0488748A148B381D026B03CD0488579
:105F200070CC58FC0C0148A512D00401000E116F72
:105F3000396B4D6B616B256B0401000E106F040E05
:105F4000386F010E4C6F606FA00E246F22D048A3F3
:105F500048B111D026A00FD00401000E106F386B8D
:105F60004C6B606B246B0401FF0E116F396B4D6B32
:105F7000616B256B0ED00401000E116F396B4D6BF8
:105F8000616B256B0401000E106F386B4C6B606BFE
:105F9000246B0C0143D0488125C018FC24C008FCA8
:105FA000CECF38FCCFCF28FC0C0148A512D004017D
:105FB000000E116F396B4D6B616B256B0401000E88
:105FC000106F040E386F010E4C6F606FA00E246FBF
:105FD00022D048A348B111D026A00FD00401000E52
:105FE000106F386B4C6B606B246B0401FF0E116FEC
:105FF000396B4D6B616B256B0ED00401000E116F78
:10600000396B4D6B616B256B0401000E106F386BA3
:106010004C6B606B246B0C0101D0686B26A442D0E2
:1060200048A540D048A703D070CC58FC3BD0582F8F
:1060300039D048950C0148A512D00401000E116F0B
:10604000396B4D6B616B256B0401000E106F040EF4
:10605000386F010E4C6F606FA00E246F22D048A3E2
:1060600048B111D026A00FD00401000E106F386B7C
:106070004C6B606B246B0401FF0E116F396B4D6B21
:10608000616B256B0ED00401000E116F396B4D6BE7
:10609000616B256B0401000E106F386B4C6B606BED
:1060A000246B0C0182BA06D049B78CD0693F8BD0E3
:1060B000499789D049A786D0693F85D0498749A1AA
:1060C00049B381D026B03CD0498570CC59FC0C0135
:1060D00049A512D00401000E136F3B6B4F6B636B2D
:1060E000276B0401000E136F040E3B6F010E4F6F00
:1060F000636FA00E276F22D049A349B111D026A00B
:106100000FD00401000E136F3B6B4F6B636B276B5B
:106110000401FF0E136F3B6B4F6B636B276B0ED04D
:106120000401000E136F3B6B4F6B636B276B040115
:10613000000E136F3B6B4F6B636B276B0C0143D0EF
:10614000498125C019FC24C009FCCECF39FCCFCF32
:1061500029FC0C0149A512D00401000E136F3B6B02
:106160004F6B636B276B0401000E136F040E3B6FC4
:10617000010E4F6F636FA00E276F22D049A349B164
:1061800011D026A00FD00401000E136F3B6B4F6B94
:10619000636B276B0401FF0E136F3B6B4F6B636BDD
:1061A000276B0ED00401000E136F3B6B4F6B636BBC
:1061B000276B0401000E136F3B6B4F6B636B276BF8
:1061C0000C0101D0696B26A442D049A540D049A753
:1061D00003D070CC59FC3BD0592F39D049950C01D4
:1061E00049A512D00401000E136F3B6B4F6B636B1C
:1061F000276B0401000E136F040E3B6F010E4F6FEF
:10620000636FA00E276F22D049A349B111D026A0F9
:106210000FD00401000E136F3B6B4F6B636B276B4A
:106220000401FF0E136F3B6B4F6B636B276B0ED03C
:106230000401000E136F3B6B4F6B636B276B040104
:10624000000E136F3B6B4F6B636B276B0C01269437
:1062500012000400006B106B206B306B4091016BDF
:10626000116B216B316B4191026B126B226B326BA4
:106270004291036B136B236B336B4391046B146B71
:10628000246B346B4491056B156B256B356B459115
:10629000066B166B266B366B4691076B176B276B7D
:1062A000376B4791086B186B286B386B4891096BFB
:1062B000196B296B396B49910A6B1A6B2A6B3A6B14
:1062C0004A910B6B1B6B2B6B3B6B4B910C6B1C6BE1
:1062D0002C6B3C6B4C910D6B1D6B2D6B3D6B4D9185
:1062E0000E6B1E6B2E6B3E6B4E910F6B1F6B2F6BED
:1062F0003F6B4F912680246A256ACF6ACE6A9E90B2
:106300009F809D80CD8001D8120004000C010C01FB
:1063100040A512D00401000E016F296B3D6B516B3B
:10632000156B0401000E006F040E286F010E3C6F08
:10633000506FA00E146F22D040A340B111D026A000
:106340000FD00401000E006F286B3C6B506B146B78
:106350000401FF0E016F296B3D6B516B156B0ED065
:106360000401000E016F296B3D6B516B156B04012D
:10637000000E006F286B3C6B506B146B0C010C0112
:1063800041A512D00401000E036F2B6B3F6B536BC2
:10639000176B0401000E036F040E2B6F010E3F6F8D
:1063A000536FA00E176F22D041A341B111D026A088
:1063B0000FD00401000E036F2B6B3F6B536B176BF9
:1063C0000401FF0E036F2B6B3F6B536B176B0ED0EB
:1063D0000401000E036F2B6B3F6B536B176B0401B3
:1063E000000E036F2B6B3F6B536B176B0C010C0193
:1063F00042A512D00401000E056F2D6B416B556B49
:10640000196B0401000E046F040E2C6F010E406F17
:10641000546FA00E186F22D042A342B111D026A013
:106420000FD00401000E046F2C6B406B546B186B83
:106430000401FF0E056F2D6B416B556B196B0ED070
:106440000401000E056F2D6B416B556B196B040138
:10645000000E046F2C6B406B546B186B0C010C011D
:1064600043A512D00401000E076F2F6B436B576BCF
:106470001B6B0401000E076F040E2F6F010E436F9C
:10648000576FA00E1B6F22D043A343B111D026A09B
:106490000FD00401000E076F2F6B436B576B1B6B04
:1064A0000401FF0E076F2F6B436B576B1B6B0ED0F6
:1064B0000401000E076F2F6B436B576B1B6B0401BE
:1064C000000E076F2F6B436B576B1B6B0C010C019E
:1064D00044A512D00401000E096F316B456B596B56
:1064E0001D6B0401000E086F040E306F010E446F27
:1064F000586FA00E1C6F22D044A344B111D026A027
:106500000FD00401000E086F306B446B586B1C6B8E
:106510000401FF0E096F316B456B596B1D6B0ED07B
:106520000401000E096F316B456B596B1D6B040143
:10653000000E086F306B446B586B1C6B0C010C0128
:1065400045A512D00401000E0B6F336B476B5B6BDC
:106550001F6B0401000E0B6F040E336F010E476FAB
:106560005B6FA00E1F6F22D045A345B111D026A0AE
:106570000FD00401000E0B6F336B476B5B6B1F6B0F
:106580000401FF0E0B6F336B476B5B6B1F6B0ED001
:106590000401000E0B6F336B476B5B6B1F6B0401C9
:1065A000000E0B6F336B476B5B6B1F6B0C010C01A9
:1065B00046A512D00401000E0D6F356B496B5D6B63
:1065C000216B0401000E0C6F040E346F010E486F36
:1065D0005C6FA00E206F22D046A346B111D026A03A
:1065E0000FD00401000E0C6F346B486B5C6B206B9A
:1065F0000401FF0E0D6F356B496B5D6B216B0ED087
:106600000401000E0D6F356B496B5D6B216B04014E
:10661000000E0C6F346B486B5C6B206B0C010C0133
:1066200047A512D00401000E0F6F376B4B6B5F6BE9
:10663000236B0401000E0F6F040E376F010E4B6FBA
:106640005F6FA00E236F22D047A347B111D026A0C1
:106650000FD00401000E0F6F376B4B6B5F6B236B1A
:106660000401FF0E0F6F376B4B6B5F6B236B0ED00C
:106670000401000E0F6F376B4B6B5F6B236B0401D4
:10668000000E0F6F376B4B6B5F6B236B0C010C01B4
:1066900048A512D00401000E116F396B4D6B616B70
:1066A000256B0401000E106F040E386F010E4C6F45
:1066B000606FA00E246F22D048A348B111D026A04D
:1066C0000FD00401000E106F386B4C6B606B246BA5
:1066D0000401FF0E116F396B4D6B616B256B0ED092
:1066E0000401000E116F396B4D6B616B256B04015A
:1066F000000E106F386B4C6B606B246B0C010C013F
:1067000049A512D00401000E136F3B6B4F6B636BF6
:10671000276B0401000E136F040E3B6F010E4F6FC9
:10672000636FA00E276F22D049A349B111D026A0D4
:106730000FD00401000E136F3B6B4F6B636B276B25
:106740000401FF0E136F3B6B4F6B636B276B0ED017
:106750000401000E136F3B6B4F6B636B276B0401DF
:10676000000E136F3B6B4F6B636B276B0C011200BA
:0E67700004002690CD909D909E90C7DD1200F3
:026FF000A445B6
:020000040030CA
:0100010006F8
:0100020019E4
:010003001DDF
:01000500807A
:010006008178
:010008003FB8
:01000900C036
:01000A003FB6
:01000B00E014
:01000C003FB4
:01000D0040B2
:0200000400F00A
:10000000FF060000020000000000000000000042A7
:00000001FF
