:020000040000FA
:0600000004009AEF00F07D
:020006000000F8
:06000800040022EF03F0EA
:0600180004000DEF03F0EF
:02001E000400DC
:10002000400ED36E9F0ED06E100EF26EB00EF16EBB
:10003000000EF06E000E9D6E000EA06E000EA36E00
:10004000000E9F6E000EA26E000EA56E9E6AA16A43
:10005000A46A3C0EC26E0F0EC16EC06AB56A1F0E56
:10006000806EBE0E816E3F6E826E8368846AC00EA3
:10007000926E400E936EC00E946E956A966A100E44
:10008000D56ED76AD66A880ECD6ECF6ACE6A080E54
:10009000CA6ECC6ACB6A800EB16EB36AB26AD26A9B
:1000A000200E6E6EBD6ABA6AB46A010ED16E12007D
:100100008D8436D98D8034D98D9432D98D9030D963
:1001100012008D842DD98D802BD98D8229D9898A81
:1001200027D98D9425D98D9023D98D9221D9899A5B
:100130001FD912000400FC6A0FEC00F089EC00F0FB
:10014000C4EC01F08D840400AA6AA96AA69EA69C4C
:10015000A694A680FF0EA862D6D00F0EA96EA68028
:10016000420EA862D0D00400A1988D948D82A694EE
:10017000A69EA69CAA6A010EA96EA680A85000ECB5
:1001800002F0A92AA680A8CF03F0A92AA680A8CFAA
:1001900004F0A92AA680A8CF05F0A96A8D809F98AF
:1001A0009F9A0400066A076A086A156A166A19683F
:1001B0001A680401006B1C6B386B546B706B016B1D
:1001C0001D6B396B556B716B026B1E6B3A6B566B0B
:1001D000726B036B1F6B3B6B576B736B046B206B0A
:1001E0003C6B586B746B056B216B3D6B596B756B7E
:1001F000066B226B3E6B5A6B766B076B236B3F6B08
:100200005B6B776B086B246B406B5C6B786B096B7B
:10021000256B416B5D6B796B0A6B266B426B5E6B7A
:100220007A6B0B6B276B436B5F6B7B6B0C6B286B79
:10023000446B606B7C6B0D6B296B456B616B7D6BED
:100240000E6B2A6B466B626B7E6B0F6B2B6B476B77
:10025000636B7F6B106B2C6B486B646B806B116BEB
:100260002D6B496B656B816B126B2E6B4A6B666BEA
:10027000826B136B2F6B4B6B676B836B146B306BE9
:100280004C6B686B846B156B316B4D6B696B856B5D
:10029000166B326B4E6B6A6B866B176B336B4F6BE7
:1002A0006B6B876B186B346B506B6C6B886B196B5B
:1002B000356B516B6D6B896B1A6B366B526B6E6B5A
:1002C0008A6B1B6B376B536B6F6B8B6BD76AD66A02
:1002D000F184F28AD58E9F0ECB6ECC6A9F829D826E
:1002E000CA849D8AF28EF28C8D920401186B0401EF
:1002F000000E186F010E506F010E6C6F886FA00E0C
:10030000346F00EF04F00400F29EF29C000EAA6E1F
:10031000000EA96EA69EA69CA684010EF86E400E45
:10032000F76E000EF66E100E1B6E0900F5CFA8FFDB
:100330008D82A198550EA76EAA0EA76EA682A1A8BF
:10034000FED70400A1988D921B2EEFD7A694F28EB3
:10035000F28C100E1B6E898A8D808D828D8408D858
:10036000899A8D908D928D9403D81B2EF4D7FF001F
:100370000400080E1E6E1C681D681D2EFED71C2E64
:08038000FBD71E2EF8D7120076
:0803880004000301948E949C13
:10039000060E00EC02F00101040001EE00F0EE6A2E
:1003A000E966FDD70201040002EE00F0EE6AE9669C
:1003B000FDD70301006B036B046B056B066B900E9E
:1003C000AB6E240EAC6E080EB86E12000301086B03
:1003D0009DAA02D09D9A0881056B066B0097009339
:1003E00008B19D8A12000301086B9DA802D09D9858
:1003F0000881036B046B0095009108B19D88120081
:1004000003010400086F15ECA8F0B06E08512AEC47
:10041000A8F0AF6E12000301026F0400030102AFE7
:1004200005D04D0E1AD82D0E18D8029F7F0E0263EC
:1004300004D05E0E12D83F0E026F1B0E026302D074
:10044000240E026F02AD02BB03D05E0E06D8028DF1
:10045000025103D812000301025104000301076F87
:1004600000A110D0035104630DD0FAD7030102514B
:1004700004000301076F00A105D00351046302D0FB
:100480000085120004C3E1FF010EE26E07C3E7FF1F
:100490000081042B9D88120004000D0EDEDF0A0E81
:1004A000DCDF120002D8015112000400030100B386
:1004B00002D0016B120005C3E1FF020EE26EE7CF2E
:1004C00001F3052B0551066301D00093120002D8F9
:1004D000015112000301040000A3FDD7E6D7030178
:1004E000026F0400030102C308F3083900ECA8F00E
:1004F0002DEC02F0085100ECA8F02DEC02F01200F7
:1005000003010400200E0C6F126B136B146B156B40
:10051000166BEACF0EF3E9CF0FF303EE12F0050EE0
:100520000D6F0400330EEF26EFB6F00BEFBE0F0B8E
:10053000EE5E0D2FF6D71A371937183717371637DB
:1005400015371437133712370C2FE7D70EC3EAFFCE
:100550000FC3E9FF120004000301EACF0EF3E9CF55
:100560000FF3E2CF10F3E1CF11F303EE16F013EE29
:100570001BF0050E0D6FEF500F0B300FE56EED38D1
:100580000F0B300FE56E0D2FF6D70EC3EAFF0FC32A
:10059000E9FF10C3E2FF11C3E1FF120004000301F1
:1005A00000B102D09D981200E2CF0AF3E1CF0BF325
:1005B00003C3E1FF010EE26EE7CFADFF032B035152
:1005C000046301D000910AC3E2FF0BC3E1FF1200F4
:1005D00004000301ABB41BD8ABB21BD800A306D0F8
:1005E0000551066303D00087AE501200E2CF0AF334
:1005F000E1CF0BF306C3E1FF020EE26EAECFE7FFE1
:100600000083062B0AC3E2FF0BC3E1FF1200008B3D
:0A06100012000089AB98AB881200BD
:06061A00026ED8CF00F0D3
:10062000E0CF01F09EA803D0CEEC02F09E989EAAE7
:1006300003D0E8EC02F09E9A01C0E0FF025000C037
:10064000D8FF1000F2A412D05D0ED76E3D0ED66E0C
:10065000F294068C078C04C011F005C012F0151C32
:1006600003E1164A166802D0166616069EA212D03C
:1006700081BC03D0154A156801D0156A06AC07D0B5
:10068000122E07D0116607D0069C068E136806BE90
:0C069000068A9E92110011061268FBD72A
:10080000040006BA5AEC0BF0030100BBC1D8030187
:1008100000B9D2D8030100B7E6D8030100A306D07F
:1008200006B002D00BD902D055EC02F006B482D843
:1008300006B086D806A82DD006A227D0156679D096
:1008400006920680780E176E1868166A0401000E6C
:100850001B6F536B6F6B8B6B376B0401000E186F44
:10086000506B6C6B886B346B0401000E196F516B0D
:100870006D6B896B356B0401000E1A6F526B6E6BDA
:100880008A6B366B176AF9D854D0161C52E106826F
:1008900050D006A223D016664CD0069206880401DA
:1008A000FF0E1B6F020E536F010E6F6F8B6F400EAA
:1008B000376F0401FF0E196F020E516F010E6D6F3D
:1008C000896F400E356F0401FF0E1A6F020E526FD2
:1008D000010E6E6F8A6F400E366F2BD0161C29E109
:1008E00006820401FF0E1B6FFF0E536F1E0E6F6F0B
:1008F0008B6F600E376F0401FF0E186FFF0E506F85
:100900001E0E6C6F886F600E346F0401FF0E196F3E
:10091000FF0E516F1E0E6D6F896F600E356F0401F3
:10092000FF0E1A6FFF0E526F1E0E6E6F8A6F600EF3
:10093000366F66D7030100B1120006948A90120048
:100940000400151C02E1078A120007BA156603D0DD
:10095000079A077E176807AE07AC1200079C172E90
:1009600012008BD8182A170E1864186A3F0E181434
:100970000A6E0A8C59D91A6A196A186A1B6A18B061
:100980001A6818B2196818B4186818B61B681200EB
:100990000301009B0401FF0E1A6FFF0E526F1E0E23
:1009A0006E6F8A6F600E366F0401FF0E196F516B08
:1009B0006D6B896B356B1200030100990401FF0E0A
:1009C0001A6FFF0E526F1E0E6E6F8A6F600E366FBB
:1009D0000401FF0E196FFF0E516F1E0E6D6F896FB0
:1009E000600E356F12000401FF0E1A6FFF0E526F7A
:1009F0001E0E6E6F8A6F600E366F0401000E196F47
:100A0000010E516F010E6D6F896FA00E356F086A70
:100A1000E6EC01F01200230E106E15EF05F0220E29
:100A2000106E15EF05F0200E106E0401FF0E1A6F08
:100A3000526B6E6B8A6B366B086A1200040067ECAF
:100A400002F00400030101AFE7D0085001E0E3DF4A
:100A50000301040001510F0B036212000401FF0E99
:100A60001B6F020E536F010E6F6F8B6F400E376F4F
:100A70000139070B02E0CBEF05F00401006B1C6BA2
:100A8000386B546B706B016B1D6B396B556B716BF5
:100A9000026B1E6B3A6B566B726B036B1F6B3B6B7F
:100AA000576B736B046B206B3C6B586B746B056BF3
:100AB000216B3D6B596B756B066B226B3E6B5A6BF2
:100AC000766B076B236B3F6B5B6B776B086B246BF1
:100AD000406B5C6B786B096B256B416B5D6B796B65
:100AE0000A6B266B426B5E6B7A6B0B6B276B436BEF
:100AF0005F6B7B6B0C6B286B446B606B7C6B0D6B63
:100B0000296B456B616B7D6B0E6B2A6B466B626B61
:100B10007E6B0F6B2B6B476B636B7F6B106B2C6B60
:100B2000486B646B806B116B2D6B496B656B816BD4
:100B3000126B2E6B4A6B666B826B136B2F6B4B6B5E
:100B4000676B836B146B306B4C6B686B846B156BD2
:100B5000316B4D6B696B856B166B326B4E6B6A6BD1
:100B6000866B176B336B4F6B6B6B876B186B346BD0
:100B7000506B6C6B886B196B356B516B6D6B896B44
:100B80001A6B366B526B6E6B8A6B1B6B376B536BCE
:100B90006F6B8B6B1200096EE82C03D0010E086E90
:100BA0001200E82C03D0020E086E1200E82C03D0CD
:100BB000040E086E1200E82C03D0050E086E120019
:100BC000E82C02D00FEF05F0E82C02D00FEF05F073
:100BD000E82C03D0090E086E1200010E106E0401FD
:100BE000FF0E1B6FFF0E536F1E0E6F6F8B6F600E2D
:100BF000376F0401FF0E196FFF0E516F1E0E6D6FE0
:100C0000896F600E356F0401000E1A6F526B6E6BA8
:100C10008A6B366B086A12000400085001E112006A
:100C200001C30AF0E82C12D050EC0BF014BC13EF07
:100C300005F014BE09D00ABC086A03D0E86A3CEF8C
:100C40000BF0E8683CEF0BF013EF05F0E82C09D04F
:100C500050EC0BF014BC13EF05F00ABC148C082AFE
:100C60001200E82C29D014BE08D0D89014BCD8802B
:100C70000A34086A0A503CEF0BF0020E106E0401B1
:100C8000FF0E1B6FFF0E536F1E0E6F6F8B6F600E8C
:100C9000376F0401FF0E196FFF0E516F1E0E6D6F3F
:100CA000896F600E356F0401000E1A6F526B6E6B08
:100CB0008A6B366B086A1200E82C11D050EC0BF0EE
:100CC00014BC13EF05F00ABC148C390E0B6E550ED4
:100CD0000C6E060E086E0D6A000E0E6E1200E82CE9
:100CE0000AD050EC0BF014BC13EF05F00ABC148CC6
:100CF000070E086E1200E82C0FD304000A500C6295
:100D000080EF09F00E5002E03CEF07F0086A05EEB4
:100D100000F014503F0BEF24E828180801E213EF0D
:100D200005F0EF280D6480EF09F0EF2A14BC3ED0E7
:100D3000EF280D6213EF05F014AE1FD0030E106EF6
:100D40000401FF0E1B6FFF0E536F1E0E6F6F8B6F34
:100D5000600E376F0401FF0E196FFF0E516F1E0EEC
:100D60006D6F896F600E356F0401000E1A6F526B44
:100D70006E6B8A6B366B086A1200040005EE00F099
:100D800014EE00F024EE1CF014503F0BE126D9269F
:100D9000EECF1BF01BC01DF0DE6AEECFE7FFE7468B
:100DA00001E0E780012A1B2EF7D712001B6A1C6A9C
:100DB0001B2A070E1C26EF501C5CFAE3EF281C6E62
:100DC0001B240D5C01E21AEF07F0EF28E926560E0E
:100DD000EF6213EF05F01C501B240D6213EF05F0BA
:100DE000CCDF0400560EEE6228D014EE00F0145052
:100DF0003F0BE126EFBCE6801D4E1AD0EFBAE6802D
:100E00001D4E16D0EFB8E6801D4E12D0EFB6E6802C
:100E10001D4E0ED0EFB4E6801D4E0AD0EFB2E68034
:100E20001D4E06D0EFB0E6801D4E02D0E92AE2D773
:100E3000086A1200EF0680EF09F0040E106E04013C
:100E4000FF0E1B6FFF0E536F1E0E6F6F8B6F600ECA
:100E5000376F0401FF0E196FFF0E516F1E0E6D6F7D
:100E6000896F600E356F0401000E1A6F526B6E6B46
:100E70008A6B366B086A1200E82E12D0030E0D5CE6
:100E800001E280EF09F001E013EF05F005EE02F05A
:100E9000ED503F0B3A0801E013EF05F0086A12002D
:100EA000E82E2CD0010E0D5C01E280EF09F001E08C
:100EB00013EF05F005EE00F00B0EEF5C01E313EF0E
:100EC00005F0F29EF29C000EAA6E010EA96EA69E7F
:100ED000A69CA684EFCFA8FFA198550EA76EAA0ED8
:100EE000A76EA682A1A8FED70400A198A694F28EB0
:100EF000F28CEF5000EC02F0086A1200E82E3AD0B3
:100F0000010E0D5C01E280EF09F001E013EF05F046
:100F100005EE00F0240EEF6213EF05F083EF01F011
:100F2000700E106E0401FF0E1B6FFF0E536F1E0E2E
:100F30006F6F8B6F600E376F0401FF0E196FFF0E1E
:100F4000516F1E0E6D6F896F600E356F0401FF0EBD
:100F50001A6FFF0E526F1E0E6E6F8A6F600E366F25
:100F60000401000E186F506B6C6B886B346B086A51
:100F70001200FFD7E82E3FD0020E0D5C01E280EF99
:100F800009F001E013EF05F005EE01F0500EED62FF
:100F900013EF05F0EFCF05F00FB0058E046A0FB226
:100FA0000482F29EF29C000EAA6E030EA96EA69E0B
:100FB000A69CA68404C0A8FFA198550EA76EAA0EF1
:100FC000A76EA682A1A8FED70400A198000EAA6E63
:100FD000040EA96E05C0A8FFA198550EA76EAA0E13
:100FE000A76EA682A1A8FED70400A198A694F28EAF
:100FF000F28C086A1200E82E2FD0020E0D5C01E27E
:1010000080EF09F001E013EF05F005EE01F0410E6D
:10101000ED6213EF05F0490EED6213EF05F0EF50AE
:101020000F0B036EF29EF29C000EAA6E020EA96ECA
:10103000A69EA69CA68403C0A8FFA198550EA76EE5
:10104000AA0EA76EA682A1A8FED70400A198A69416
:10105000F28EF28C086A1200E82E30D0010E0D5C80
:1010600001E280EF09F001E013EF05F005EE00F07A
:101070005A0EEF6213EF05F0086A8A8E0401FF0E24
:10108000186FFF0E506F1E0E6C6F886F700E346FEE
:101090000401FF0E196FFF0E516F1E0E6D6F896FE9
:1010A000700E356F0401FF0E1A6FFF0E526F1E0E89
:1010B0006E6F8A6F700E366F06861200E82EFED7AE
:1010C000010E0D5C01E280EF09F001E013EF05F085
:1010D00005EE00F05A0EEF6213EF05F0086A8A9EE3
:1010E0000401000E186F010E506F010E6C6F886FB7
:1010F000A00E346F0401000E196F516B6D6B896B7C
:10110000356B0401000E1A6F526B6E6B8A6B366B77
:10111000069619681A681200E82E10D0010E0D5CB0
:1011200001E280EF09F001E013EF05F005EE00F0B9
:10113000580EEF6213EF05F0A8EF0FF0E82E86D0FF
:10114000010E0D5C01E280EF09F001E013EF05F004
:1011500005EE00F0240EEF6213EF05F081800350DE
:10116000F00938EC02F01F0E38EC02F0300E38ECCB
:1011700002F0000E38EC02F0E86A38EC02F0E86A9F
:1011800006B8E88406B6E88238EC02F0E86A04B0F3
:10119000E88205BEE88038EC02F00550E89E38ECA5
:1011A00002F0E86A38EC02F0E86A38EC02F0E86A2B
:1011B00038EC02F0E86A38EC02F0010E38EC02F08C
:1011C000E86A38EC02F0000E38EC02F0000E38EC61
:1011D00002F0000E38EC02F0000E38EC02F0010EC6
:1011E00038EC02F0000E38EC02F0000E38EC02F0A1
:1011F000000E38EC02F0020E38EC02F0000E38EC73
:1012000002F0000E38EC02F0000E38EC02F0030E93
:1012100038EC02F0000E38EC02F0000E38EC02F070
:10122000000E38EC02F01050106A38EC02F0E86A58
:1012300038EC02F0E86A38EC02F0E86A38EC02F0C8
:10124000330E38EC02F00684086A1200E82E0CD047
:10125000040E0D5C01E280EF09F001E013EF05F0F0
:1012600005EE00F00FEF05F0E82E10D0010E0D5C3A
:1012700001E280EF09F001E013EF05F005EE00F068
:10128000430EEF6213EF05F00FEF05F0E82E18D0D4
:101290000D5001E180EF09F005EE00F0EF28E8289D
:1012A000E8280D5C01E280EF09F001E013EF05F0A2
:1012B0000D04E926440EEF6213EF05F00FEF05F081
:1012C000050E106E0401FF0E1B6FFF0E536F1E0EF6
:1012D0006F6F8B6F600E376F0401FF0E196FFF0E7B
:1012E000516F1E0E6D6F896F600E356F0401000E19
:1012F0001A6F526B6E6B8A6B366B086A12001200A3
:101300000D500B6413EF05F005EE00F00D50E926CB
:101310000AC0EFFF0D281200E82C04D00A280F6E37
:10132000082A1200E82C38D00A2A14BE16D004EE7F
:101330001CF014503F0BE926EF6A14BCEF8E14AC7E
:10134000EF8C1C0EE9260FC0EFFFE9260AC0EFFF65
:10135000E9260AC0EFFF086A1200060E106E0401AB
:10136000FF0E1B6FFF0E536F1E0E6F6F8B6F600EA5
:10137000376F0401FF0E196FFF0E516F1E0E6D6F58
:10138000896F600E356F0401000E1A6F526B6E6B21
:101390008A6B366B086A1200E82CB5D00ABC5CD0A8
:1013A0000ABA58D00A500AE1020E0B6E5A0E0C6EA1
:1013B000060E086E0D6A060E0E6E1200E82C0AD09C
:1013C000020E0B6E5A0E0C6E060E086E0D6A070E9C
:1013D0000E6E1200E82C0AD0020E0B6E590E0C6E27
:1013E000060E086E0D6A080E0E6E1200E82C0AD06A
:1013F000020E0B6E540E0C6E060E086E0D6A090E70
:101400000E6E1200E82C03D00E0E086E1200E82CAF
:1014100003D00F0E086E1200E82C0AD0050E0B6EDA
:101420003C0E0C6E060E086E0D6A0A0E0E6E120051
:10143000E82C03D0100E086E1200E82C13EF05F014
:10144000020E0B6E410E0C6E060E086E0D6A0B0E30
:101450000E6E120013EF05F006A8210E106E15EFA8
:1014600005F00AAA38D00AA842D00F0E0A140DE1DE
:1014700006980401000E186F010E506F010E6C6F7C
:10148000886FA00E346F086A1200E82C0AD0040E90
:101490000B6E3D0E0C6E060E086E0D6A010E0E6E82
:1014A0001200E82C0AD0020E0B6E260E0C6E060EF1
:1014B000086E0D6A020E0E6E1200E82C0AD0020EA3
:1014C0000B6E720E0C6E060E086E0D6A030E0E6E1B
:1014D000120013EF05F00AC00FF0030E0B6E4F0E53
:1014E0000C6E060E086E0D6A040E0E6E12000AC017
:1014F0000FF0030E0B6E440E0C6E060E086E0D6A96
:10150000050E0E6E1200E82C1FD0080E106E04019E
:10151000FF0E1B6FFF0E536F1E0E6F6F8B6F600EF3
:10152000376F0401FF0E196FFF0E516F1E0E6D6FA6
:10153000896F600E356F0401000E1A6F526B6E6B6F
:101540008A6B366B086A1200E82C1FD00B0E106EE7
:101550000401FF0E1B6FFF0E536F1E0E6F6F8B6F1C
:10156000600E376F0401FF0E196FFF0E516F1E0ED4
:101570006D6F896F600E356F0401000E1A6F526B2C
:101580006E6B8A6B366B086A1200E82C1FD00C0E4B
:10159000106E0401FF0E1B6FFF0E536F1E0E6F6F58
:1015A0008B6F600E376F0401FF0E196FFF0E516FC6
:1015B0001E0E6D6F896F600E356F0401000E1A6F7D
:1015C000526B6E6B8A6B366B086A1200E82C1FD068
:1015D0000D0E106E0401FF0E1B6FFF0E536F1E0EDB
:1015E0006F6F8B6F600E376F0401FF0E196FFF0E68
:1015F000516F1E0E6D6F896F600E356F0401000E06
:101600001A6F526B6E6B8A6B366B086A1200E82C8D
:101610000CD00AC00FF0830E0B6E730E0C6E060E0C
:10162000086E0D6A0C0E0E6E1200E82C02D00FEF41
:1016300005F0E82C02D00FEF05F00E0E106E04013D
:10164000FF0E1B6FFF0E536F1E0E6F6F8B6F600EC2
:10165000376F0401FF0E196FFF0E516F1E0E6D6F75
:10166000896F600E356F0401000E1A6F526B6E6B3E
:101670008A6B366B086A12000400149E149C1E6E5E
:1016800004EE00F01450E9261EC0EFFF1C0EE92600
:10169000EF6AE926EF6AE926EF6AE926EF6A1200A7
:1016A00004003F0E0A14146E170E14641200148CFA
:1016B000148E120004000401069A135056E00063D1
:1016C00001D08A9A016301D08A98026301D08A9678
:1016D000036301D08A94046301D08A92056301D028
:1016E0008C9E066301D08C9C076301D08C9A0863A2
:1016F00001D08C98096301D08B9A0A6301D08B9832
:101700000B6301D08C960C6301D08C940D6301D0D7
:101710008C920E6301D08C900F6301D08B96106376
:1017200001D08B94116301D08B92126301D08B9006
:10173000136301D08998146301D08996156301D091
:101740008994166301D08992176301D08990186338
:1017500001D08D80196301D08D821A6301D08D84F0
:101760001B6301D0898A130612000788001D01E05F
:101770008A8A006607981CAF0FD0702F1AD054C405
:1017800070F43851002715E300691C9F1CAB11D081
:101790001C8D1CB970690DD01CAD0BD0702F09D0F9
:1017A00054C470F43851005F04E2006B1C9D1CBBF4
:1017B0001C8F011D01E08A88016607981DAF0FD0BC
:1017C000712F1AD055C471F43951012715E30169FD
:1017D0001D9F1DAB11D01D8D1DB971690DD01DADA3
:1017E0000BD0712F09D055C471F43951015F04E257
:1017F000016B1D9D1DBB1D8F021D01E08A860266C7
:1018000007981EAF0FD0722F1AD056C472F43A51F7
:10181000022715E302691E9F1EAB11D01E8D1EB953
:1018200072690DD01EAD0BD0722F09D056C472F460
:101830003A51025F04E2026B1E9D1EBB1E8F031D08
:1018400001E08A84036607981FAF0FD0732F1AD068
:1018500057C473F43B51032715E303691F9F1FAB64
:1018600011D01F8D1FB973690DD01FAD0BD0732F11
:1018700009D057C473F43B51035F04E2036B1F9D0F
:101880001FBB1F8F041D01E08A820466079820AFEA
:101890000FD0742F1AD058C474F43C51042715E3A8
:1018A0000469209F20AB11D0208D20B974690DD020
:1018B00020AD0BD0742F09D058C474F43C51045F90
:1018C00004E2046B209D20BB208F051D01E08C8E5F
:1018D0000566079821AF0FD0752F1AD059C475F43B
:1018E0003D51052715E30569219F21AB11D0218DBD
:1018F00021B975690DD021AD0BD0752F09D059C410
:1019000075F43D51055F04E2056B219D21BB218FDC
:10191000061D01E08C8C0666079822AF0FD0762F4B
:101920001AD05AC476F43E51062715E30669229F61
:1019300022AB11D0228D22B976690DD022AD0BD009
:10194000762F09D05AC476F43E51065F04E2066B46
:10195000229D22BB228F071D01E08C8A0766079813
:1019600023AF0FD0772F1AD05BC477F43F510727EE
:1019700015E30769239F23AB11D0238D23B9776922
:101980000DD023AD0BD0772F09D05BC477F43F5136
:10199000075F04E2076B239D23BB238F081D01E033
:1019A0008C880866079824AF0FD0782F1AD05CC4B3
:1019B00078F44051082715E30869249F24AB11D01F
:1019C000248D24B978690DD024AD0BD0782F09D09F
:1019D0005CC478F44051085F04E2086B249D24BB8A
:1019E000248F091D01E08B8A0966079825AF0FD067
:1019F000792F1AD05DC479F44151092715E309699B
:101A0000259F25AB11D0258D25B979690DD025AD40
:101A10000BD0792F09D05DC479F44151095F04E2FC
:101A2000096B259D25BB258F0A1D01E08B880A6661
:101A3000079826AF0FD07A2F1AD05EC47AF442519D
:101A40000A2715E30A69269F26AB11D0268D26B9F1
:101A50007A690DD026AD0BD07A2F09D05EC47AF406
:101A600042510A5F04E20A6B269D26BB268F0B1D9E
:101A700001E08C860B66079827AF0FD07B2F1AD01A
:101A80005FC47BF443510B2715E30B69279F27ABFA
:101A900011D0278D27B97B690DD027AD0BD07B2FB7
:101AA00009D05FC47BF443510B5F04E20B6B279DAD
:101AB00027BB278F0C1D01E08C840C66079828AF8C
:101AC0000FD07C2F1AD060C47CF444510C2715E34E
:101AD0000C69289F28AB11D0288D28B97C690DD0BE
:101AE00028AD0BD07C2F09D060C47CF444510C5F2E
:101AF00004E20C6B289D28BB288F0D1D01E08C8211
:101B00000D66079829AF0FD07D2F1AD061C47DF4E0
:101B100045510D2715E30D69299F29AB11D0298D5A
:101B200029B97D690DD029AD0BD07D2F09D061C4B5
:101B30007DF445510D5F04E20D6B299D29BB298F72
:101B40000E1D01E08C800E6607982AAF0FD07E2F05
:101B50001AD062C47EF446510E2715E30E692A9FFF
:101B60002AAB11D02A8D2AB97E690DD02AAD0BD0AF
:101B70007E2F09D062C47EF446510E5F04E20E6BE4
:101B80002A9D2ABB2A8F0F1D01E08B860F660798BE
:101B90002BAF0FD07F2F1AD063C47FF447510F278C
:101BA00015E30F692B9F2BAB11D02B8D2BB97F69C0
:101BB0000DD02BAD0BD07F2F09D063C47FF44751DC
:101BC0000F5F04E20F6B2B9D2BBB2B8F101D01E0D1
:101BD0008B84106607982CAF0FD0802F1AD064C466
:101BE00080F44851102715E310692C9F2CAB11D0BD
:101BF0002C8D2CB980690DD02CAD0BD0802F09D045
:101C000064C480F44851105F04E2106B2C9D2CBB1F
:101C10002C8F111D01E08B82116607982DAF0FD01C
:101C2000812F1AD065C481F44951112715E3116938
:101C30002D9F2DAB11D02D8D2DB981690DD02DADDE
:101C40000BD0812F09D065C481F44951115F04E2A2
:101C5000116B2D9D2DBB2D8F121D01E08B80126607
:101C600007982EAF0FD0822F1AD066C482F44A5143
:101C7000122715E312692E9F2EAB11D02E8D2EB98F
:101C800082690DD02EAD0BD0822F09D066C482F4AC
:101C90004A51125F04E2126B2E9D2EBB2E8F131D34
:101CA00001E08988136607982FAF0FD0832F1AD0D1
:101CB00067C483F44B51132715E313692F9F2FAB90
:101CC00011D02F8D2FB983690DD02FAD0BD0832F5D
:101CD00009D067C483F44B51135F04E2136B2F9D4B
:101CE0002FBB2F8F141D01E089861466079830AF33
:101CF0000FD0842F1AD068C484F44C51142715E3F4
:101D00001469309F30AB11D0308D30B984690DD05B
:101D100030AD0BD0842F09D068C484F44C51145FCB
:101D200004E2146B309D30BB308F151D01E08984B7
:101D30001566079831AF0FD0852F1AD069C485F486
:101D40004D51152715E31569319F31AB11D0318DF8
:101D500031B985690DD031AD0BD0852F09D069C45B
:101D600085F44D51155F04E2156B319D31BB318F08
:101D7000161D01E089821666079832AF0FD0862FB4
:101D80001AD06AC486F44E51162715E31669329F9D
:101D900032AB11D0328D32B986690DD032AD0BD055
:101DA000862F09D06AC486F44E51165F04E2166B82
:101DB000329D32BB328F171D01E08980176607986C
:101DC00033AF0FD0872F1AD06BC487F44F5117272A
:101DD00015E31769339F33AB11D0338D33B987695E
:101DE0000DD033AD0BD0872F09D06BC487F44F5182
:101DF000175F04E2176B339D33BB338F181D01E06F
:101E00008D901866079834AF0FD0882F1AD06CC405
:101E100088F45051182715E31869349F34AB11D05A
:101E2000348D34B988690DD034AD0BD0882F09D0EA
:101E30006CC488F45051185F04E2186B349D34BBB5
:101E4000348F191D01E08D921966079835AF0FD0B8
:101E5000892F1AD06DC489F45151192715E31969D6
:101E6000359F35AB11D0358D35B989690DD035AD7C
:101E70000BD0892F09D06DC489F45151195F04E248
:101E8000196B359D35BB358F1A1D01E08D941A668F
:101E9000079836AF0FD08A2F1AD06EC48AF45251E9
:101EA0001A2715E31A69369F36AB11D0368D36B92D
:101EB0008A690DD036AD0BD08A2F09D06EC48AF452
:101EC00052511A5F04E21A6B369D36BB368F1B1DCA
:101ED00001E0899A1B66079837AF0FD08B2F1AD075
:101EE0006FC48BF453511B2715E31B69379F37AB26
:101EF00011D0378D37B98B690DD037AD0BD08B2F03
:101F000009D06FC48BF453511B5F04E21B6B379DE8
:101F100037BB378F069E07A809D01A2E12001A6801
:101F2000192E120006A63DEC08F0120006B66FEC62
:101F300008F019681A6812009EBAAE50ABA4FCD71C
:101F4000AE509EAAFED7ABB4FCD7AE50FF0BF4E167
:101F50003DEC05F00401000E186F506B6C6B886B44
:101F6000346B0401000E196F516B6D6B896B356B0F
:101F70000401000E1A6F526B6E6B8A6B366B040194
:101F8000000E1B6F536B6F6B8B6B376B0400030082
:041F90008D74FCD779
:020000040001F9
:10400000FF06000002000000000000000000004267
:105000000F0BE846F9CF09F3F926300C310C320CBE
:10501000330C340C350C360C370C380C390C410C75
:10502000420C430C440C450C460C0F0BE846F9CFE0
:1050300009F3F926820C420C200C100C080C040C0D
:10504000020C010C000C000C000C020C020C020CF7
:10505000020C020C0F0BE846F9CF09F3F926340CC9
:10506000190C8C0C450C220C100C070C030CAC0C0E
:0E507000550C270C070C070C070C070C070C3F
:020000040030CA
:0100010006F8
:0100020019E4
:0100030015E7
:01000500807A
:010006008178
:010008003FB8
:01000900C036
:01000A003FB6
:01000B00E014
:01000C003FB4
:01000D0040B2
:0200000400F00A
:10000000FF060000020000000000000000000042A7
:00000001FF
