:020000040000FA
:0600000004009AEF00F07D
:020006000000F8
:06000800040023EF03F0E9
:0600180004000EEF03F0EE
:02001E000400DC
:10002000400ED36E9F0ED06E100EF26EB00EF16EBB
:10003000000EF06E000E9D6E000EA06E000EA36E00
:10004000000E9F6E000EA26E000EA56E9E6AA16A43
:10005000A46A3C0EC26E0F0EC16EC06AB56A1F0E56
:10006000806EBE0E816E3F6E826E8368846AC00EA3
:10007000926E400E936EC00E946E956A966A100E44
:10008000D56ED76AD66A880ECD6ECF6ACE6A080E54
:10009000CA6ECC6ACB6A800EB16EB36AB26AD26A9B
:1000A000200E6E6EBD6ABA6AB46A010ED16E12007D
:100100008D8437D98D8035D98D9433D98D9031D95F
:1001100012008D842ED98D802CD98D822AD9898A7E
:1001200028D98D9426D98D9024D98D9222D9899A57
:1001300020D912000400FC6A0FEC00F089EC00F0FA
:10014000C5EC01F08D840400AA6AA96AA69EA69C4B
:10015000A694A680FF0EA862D7D00F0EA96EA68027
:10016000420EA862D1D00400A1988D948D82A694ED
:10017000A69EA69CAA6A010EA96EA680A85001ECB4
:1001800002F0A92AA680A8CF03F0A92AA680A8CFAA
:1001900004F0A92AA680A8CF05F0A96A8D809F98AF
:1001A0009F9A0400066A076A086A800E156E166A2E
:1001B00019681A680401006B1C6B386B546B706B08
:1001C000016B1D6B396B556B716B026B1E6B3A6B60
:1001D000566B726B036B1F6B3B6B576B736B046BD4
:1001E000206B3C6B586B746B056B216B3D6B596BD3
:1001F000756B066B226B3E6B5A6B766B076B236BD2
:100200003F6B5B6B776B086B246B406B5C6B786B45
:10021000096B256B416B5D6B796B0A6B266B426BCF
:100220005E6B7A6B0B6B276B436B5F6B7B6B0C6B43
:10023000286B446B606B7C6B0D6B296B456B616B42
:100240007D6B0E6B2A6B466B626B7E6B0F6B2B6B41
:10025000476B636B7F6B106B2C6B486B646B806BB5
:10026000116B2D6B496B656B816B126B2E6B4A6B3F
:10027000666B826B136B2F6B4B6B676B836B146BB3
:10028000306B4C6B686B846B156B316B4D6B696BB2
:10029000856B166B326B4E6B6A6B866B176B336BB1
:1002A0004F6B6B6B876B186B346B506B6C6B886B25
:1002B000196B356B516B6D6B896B1A6B366B526BAF
:1002C0006E6B8A6B1B6B376B536B6F6B8B6BD76A69
:1002D000D66AF184F28AD58E9F0ECB6ECC6A9F824D
:1002E0009D82CA849D8AF28EF28C8D920401186BD5
:1002F0000401000E186F010E506F010E6C6F886FB5
:10030000A00E346F00EF04F00400F29EF29C000E89
:10031000AA6E000EA96EA69EA69CA684010EF86E7B
:10032000400EF76E000EF66E100E1B6E0900F5CF34
:10033000A8FF8D82A198550EA76EAA0EA76EA68261
:10034000A1A8FED70400A1988D921B2EEFD7A694EA
:10035000F28EF28C100E1B6E898A8D808D828D84B8
:1003600008D8899A8D908D928D9403D81B2EF4D73E
:10037000FF000400080E1E6E1C681D681D2EFED7AF
:0A0380001C2EFBD71E2EF8D712002A
:06038A0004000301948E43
:10039000949C060E01EC02F00101040001EE00F055
:1003A000EE6AE966FDD70201040002EE00F0EE6A93
:1003B000E966FDD70301006B036B046B056B066BED
:1003C000900EAB6E240EAC6E080EB86E12000301D8
:1003D000086B9DAA02D09D9A0881056B066B009759
:1003E000009308B19D8A12000301086B9DA802D0FA
:1003F0009D980881036B046B0095009108B19D885E
:10040000120003010400086F15ECA8F0B06E08514B
:100410002AECA8F0AF6E12000301026F0400030182
:1004200002AF05D04D0E1AD82D0E18D8029F7F0EA0
:10043000026304D05E0E12D83F0E026F1B0E0263E1
:1004400002D0240E026F02AD02BB03D05E0E06D8AE
:10045000028D025103D8120003010251040003016E
:10046000076F00A110D0035104630DD0FAD7030128
:10047000025104000301076F00A105D0035104637A
:1004800002D00085120004C3E1FF010EE26E07C333
:10049000E7FF0081042B9D88120004000D0EDEDFB3
:1004A0000A0EDCDF120002D8015112000400030121
:1004B00000B302D0016B120005C3E1FF020EE26E31
:1004C000E7CF01F3052B0551066301D0009312001D
:1004D00002D8015112000301040000A3FDD7E6D7A2
:1004E0000301026F0400030102C308F3083900ECA2
:1004F000A8F02EEC02F0085100ECA8F02EEC02F06F
:10050000120003010400200E0C6F126B136B146BAE
:10051000156B166BEACF0EF3E9CF0FF303EE12F073
:10052000050E0D6F0400330EEF26EFB6F00BEFBE95
:100530000F0BEE5E0D2FF6D71A371937183717370E
:10054000163715371437133712370C2FE7D70EC36A
:10055000EAFF0FC3E9FF120004000301EACF0EF324
:10056000E9CF0FF3E2CF10F3E1CF11F303EE16F072
:1005700013EE1BF0050E0D6FEF500F0B300FE56EF5
:10058000ED380F0B300FE56E0D2FF6D70EC3EAFFD7
:100590000FC3E9FF10C3E2FF11C3E1FF1200040023
:1005A000030100B102D09D981200E2CF0AF3E1CF1F
:1005B0000BF303C3E1FF010EE26EE7CFADFF032BA8
:1005C0000351046301D000910AC3E2FF0BC3E1FFB2
:1005D000120004000301ABB41BD8ABB21BD800A3BC
:1005E00006D00551066303D00087AE501200E2CF5B
:1005F0000AF3E1CF0BF306C3E1FF020EE26EAECFCA
:10060000E7FF0083062B0AC3E2FF0BC3E1FF1200E2
:0C061000008B12000089AB98AB88120030
:04061C00026ED8CFC3
:1006200000F0E0CF01F09EA803D0CFEC02F09E983E
:100630009EAA03D0E9EC02F09E9A01C0E0FF0250AE
:1006400000C0D8FF1000F2A414D05D0ED76E3D0E8E
:10065000D66EF294068C078C04C011F005C012F01F
:10066000151C05E0156605D01666160602D0164A5A
:1006700016689EA213D081BC03D0154A156802D01B
:100680001566150606AC07D0122E07D0116607D0E6
:10069000069C068E136806BE068A9E9211001106FD
:0406A0001268FBD70A
:10080000040006BA73EC0BF0030100BBE4D803014B
:1008100000B9F5D8030100B709D9030100A306D038
:1008200006B002D02ED902D056EC02F006B483D81E
:1008300006B08BD806A82CD006A226D015667AD092
:1008400006920680780E176E1868166A0401000E6C
:100850001B6F536B6F6B8B6B376B0401000E186F44
:10086000506B6C6B886B346B0401000E196F516B0D
:100870006D6B896B356B0401000E1A6F526B6E6BDA
:100880008A6B366B1ED956D0161C54E1068252D0A4
:1008900006A225D016664ED0069207B64BD0068823
:1008A0000401FF0E1B6F020E536F010E6F6F8B6FF3
:1008B000400E376F0401FF0E196F020E516F010ECB
:1008C0006D6F896F400E356F0401FF0E1A6F020EB7
:1008D000526F010E6E6F8A6F400E366F2BD0161C52
:1008E00029E106820401FF0E1B6FFF0E536F1E0EDF
:1008F0006F6F8B6F600E376F0401FF0E186FFF0E66
:10090000506F1E0E6C6F886F600E346F0401FF0E07
:10091000196FFF0E516F1E0E6D6F896F600E356F70
:100920000401FF0E1A6FFF0E526F1E0E6E6F8A6F5C
:10093000600E366F65D7030100B112009EA8120049
:10094000ACA2120006948A9012000400151C02E169
:10095000078A1BD0156619D007AA17D0079A077EF9
:10096000176807AE08D00401FF0E1A6F526B6E6B4A
:100970008A6B366B0AD00401000E1A6F010E526F9B
:10098000010E6E6F8A6FA00E366F07AE07AC1200B5
:10099000079C172E120095D8182A180E1860186A8E
:1009A0003F0E18140A6E0A8C4FD904011A6B196B8A
:1009B000186B1B6B18B0196918B2186918B41B6949
:1009C0000401000E1A6F010E526F010E6E6F8A6FD6
:1009D000A00E366F12000301009B0401FF0E1A6F78
:1009E000FF0E526F1E0E6E6F8A6F600E366F04011F
:1009F000FF0E196F516B6D6B896B356B1200030124
:100A000000990401FF0E1A6FFF0E526F1E0E6E6FDB
:100A10008A6F600E366F0401FF0E196FFF0E516F63
:100A20001E0E6D6F896F600E356F12000401FF0E90
:100A30001A6FFF0E526F1E0E6E6F8A6F600E366F4A
:100A40000401000E196F010E516F010E6D6F896F59
:100A5000A00E356F086AE7EC01F01200230E106E4D
:100A600038EF05F0220E106E38EF05F0200E106EF4
:100A70000401FF0E1A6F526B6E6B8A6B366B086A3D
:100A80001200040068EC02F00400030101AFD4D0AE
:100A9000085001E0E3DF0301040001510F0B036282
:100AA00012000401FF0E1B6F020E536F010E6F6FD9
:100AB0008B6F400E376F03010139070B02E0DBEF4C
:100AC00005F00401006B1C6B386B546B706B016B91
:100AD0001D6B396B556B716B026B1E6B3A6B566BF2
:100AE000726B036B1F6B3B6B576B736B046B206BF1
:100AF0003C6B586B746B056B216B3D6B596B756B65
:100B0000066B226B3E6B5A6B766B076B236B3F6BEE
:100B10005B6B776B086B246B406B5C6B786B096B62
:100B2000256B416B5D6B796B0A6B266B426B5E6B61
:100B30007A6B0B6B276B436B5F6B7B6B0C6B286B60
:100B4000446B606B7C6B0D6B296B456B616B7D6BD4
:100B50000E6B2A6B466B626B7E6B0F6B2B6B476B5E
:100B6000636B7F6B106B2C6B486B646B806B116BD2
:100B70002D6B496B656B816B126B2E6B4A6B666BD1
:100B8000826B136B2F6B4B6B676B836B146B306BD0
:100B90004C6B686B846B156B316B4D6B696B856B44
:100BA000166B326B4E6B6A6B866B176B336B4F6BCE
:100BB0006B6B876B1200096EE82C03D0010E086E78
:100BC0001200E82C03D0020E086E1200E82C03D0AD
:100BD000040E086E1200E82C03D0050E086E1200F9
:100BE000E82C02D032EF05F0E82C02D032EF05F00D
:100BF000E82C03D0090E086E1200010E106E0401DD
:100C0000FF0E1B6FFF0E536F1E0E6F6F8B6F600E0C
:100C1000376F0401FF0E196FFF0E516F1E0E6D6FBF
:100C2000896F600E356F0401000E1A6F526B6E6B88
:100C30008A6B366B086A12000400085001E112004A
:100C400001C30AF0E82C12D069EC0BF014BC36EFAB
:100C500005F014BE09D00ABC086A03D0E86A55EF53
:100C60000BF0E86855EF0BF036EF05F0E82C09D0F3
:100C700069EC0BF014BC36EF05F00ABC148C082AA2
:100C80001200E82C29D014BE08D0D89014BCD8800B
:100C90000A34086A0A5055EF0BF0020E106E040178
:100CA000FF0E1B6FFF0E536F1E0E6F6F8B6F600E6C
:100CB000376F0401FF0E196FFF0E516F1E0E6D6F1F
:100CC000896F600E356F0401000E1A6F526B6E6BE8
:100CD0008A6B366B086A1200E82C11D069EC0BF0B5
:100CE00014BC36EF05F00ABC148C390E0B6E550E91
:100CF0000C6E060E086E0D6A000E0E6E1200E82CC9
:100D00000AD069EC0BF014BC36EF05F00ABC148C69
:100D1000070E086E1200E82C9FEF09F004000A503D
:100D20000C6293EF09F00E5002E04DEF07F0086AF5
:100D300005EE00F014503F0BEF24E828180801E2FC
:100D400036EF05F0EF280D6493EF09F0EF2A14BC9D
:100D50003ED0EF280D6236EF05F014AE1FD0030E23
:100D6000106E0401FF0E1B6FFF0E536F1E0E6F6F90
:100D70008B6F600E376F0401FF0E196FFF0E516FFE
:100D80001E0E6D6F896F600E356F0401000E1A6FB5
:100D9000526B6E6B8A6B366B086A1200040005EEAC
:100DA00000F014EE00F024EE1CF014503F0BE1268E
:100DB000D926EECF1BF01BC01DF0DE6AEECFE7FF99
:100DC000E74601E0E780012A1B2EF7D712001B6AD5
:100DD0001C6A1B2A070E1C26EF501C5CFAE3EF2846
:100DE0001C6E1B240D5C01E22BEF07F0EF28E926B7
:100DF000560EEF6236EF05F01C501B240D6236EFE5
:100E000005F0CCDF0400560EEE6228D014EE00F0A0
:100E100014503F0BE126EFBCE6801D4E1AD0EFBA0E
:100E2000E6801D4E16D0EFB8E6801D4E12D0EFB60C
:100E3000E6801D4E0ED0EFB4E6801D4E0AD0EFB214
:100E4000E6801D4E06D0EFB0E6801D4E02D0E92AA6
:100E5000E2D7086A1200EF0693EF09F0040E106E55
:100E60000401FF0E1B6FFF0E536F1E0E6F6F8B6F13
:100E7000600E376F0401FF0E196FFF0E516F1E0ECB
:100E80006D6F896F600E356F0401000E1A6F526B23
:100E90006E6B8A6B366B086A1200E82E12D0030E56
:100EA0000D5C01E293EF09F001E036EF05F005EE8D
:100EB00002F0ED503F0B3A0801E036EF05F0086A0A
:100EC0001200E82E2CD0010E0D5C01E293EF09F028
:100ED00001E036EF05F005EE00F00B0EEF5C01E3EC
:100EE00036EF05F0F29EF29C000EAA6E010EA96E7E
:100EF000A69EA69CA684EFCFA8FFA198550EA76E2C
:100F0000AA0EA76EA682A1A8FED70400A198A69457
:100F1000F28EF28CEF5001EC02F0086A1200E82E1B
:100F20003AD0010E0D5C01E293EF09F001E036EFDB
:100F300005F005EE00F0240EEF6236EF05F084EFC9
:100F400001F0700E106E0401FF0E1B6FFF0E536F49
:100F50001E0E6F6F8B6F600E376F0401FF0E196FDF
:100F6000FF0E516F1E0E6D6F896F600E356F04019D
:100F7000FF0E1A6FFF0E526F1E0E6E6F8A6F600E9D
:100F8000366F0401000E186F506B6C6B886B346BFE
:100F9000086A1200FFD7E82E3FD0020E0D5C01E276
:100FA00093EF09F001E036EF05F005EE01F0500E89
:100FB000ED6236EF05F0EFCF05F00FB0058E046A55
:100FC0000FB20482F29EF29C000EAA6E030EA96E6E
:100FD000A69EA69CA68404C0A8FFA198550EA76E45
:100FE000AA0EA76EA682A1A8FED70400A198000EA3
:100FF000AA6E040EA96E05C0A8FFA198550EA76E93
:10100000AA0EA76EA682A1A8FED70400A198A69456
:10101000F28EF28C086A1200E82E2FD0020E0D5CC0
:1010200001E293EF09F001E036EF05F005EE01F083
:10103000410EED6236EF05F0490EED6236EF05F038
:10104000EF500F0B036EF29EF29C000EAA6E020E82
:10105000A96EA69EA69CA68403C0A8FFA198550EC3
:10106000A76EAA0EA76EA682A1A8FED70400A1981B
:10107000A694F28EF28C086A1200E82E30D0010E8F
:101080000D5C01E293EF09F001E036EF05F005EEAB
:1010900000F05A0EEF6236EF05F0086A8A8E0401FE
:1010A000FF0E186FFF0E506F1E0E6C6F886F700E64
:1010B000346F0401FF0E196FFF0E516F1E0E6D6F1E
:1010C000896F700E356F0401FF0E1A6FFF0E526F9D
:1010D0001E0E6E6F8A6F700E366F06861200E82E37
:1010E0002CD0010E0D5C01E293EF09F001E036EF28
:1010F00005F005EE00F05A0EEF6236EF05F0086AD3
:101100008A9E0401000E186F010E506F010E6C6F65
:10111000886FA00E346F0401000E196F516B6D6B58
:10112000896B356B0401000E1A6F526B6E6B8A6B04
:10113000366B069619681A681200E82E10D0010E58
:101140000D5C01E293EF09F001E036EF05F005EEEA
:1011500000F0580EEF6236EF05F0C2EF0FF0E82E08
:1011600088D0010E0D5C01E293EF09F001E036EF4B
:1011700005F005EE00F0240EEF6236EF05F08180F9
:101180000350F00939EC02F01F0E39EC02F0300E7A
:1011900039EC02F0000E39EC02F0E86A39EC02F0AA
:1011A000E86A06B8E88406B6E88239EC02F0E86A34
:1011B00007B6E88404B0E88205BEE88039EC02F0A6
:1011C0000550E89E39EC02F0E86A39EC02F0E86A72
:1011D00039EC02F0E86A39EC02F0E86A39EC02F026
:1011E000010E39EC02F0E86A39EC02F0000E39EC3D
:1011F00002F0000E39EC02F0000E39EC02F0000EA5
:1012000039EC02F0010E39EC02F0000E39EC02F07C
:10121000000E39EC02F0000E39EC02F0020E39EC4F
:1012200002F0000E39EC02F0000E39EC02F0000E74
:1012300039EC02F0030E39EC02F0000E39EC02F04A
:10124000000E39EC02F0000E39EC02F01050106A7A
:1012500039EC02F0E86A39EC02F0E86A39EC02F0A5
:10126000E86A39EC02F0330E39EC02F00684086AC1
:101270001200E82E0CD0040E0D5C01E293EF09F091
:1012800001E036EF05F005EE00F032EF05F0E82E54
:1012900010D0010E0D5C01E293EF09F001E036EF92
:1012A00005F005EE00F0430EEF6236EF05F032EF89
:1012B00005F0E82E18D00D5001E193EF09F005EE8E
:1012C00000F0EF28E828E8280D5C01E293EF09F030
:1012D00001E036EF05F00D04E926440EEF6236EF2B
:1012E00005F032EF05F0050E106E0401FF0E1B6FC6
:1012F000FF0E536F1E0E6F6F8B6F600E376F040102
:10130000FF0E196FFF0E516F1E0E6D6F896F600E0D
:10131000356F0401000E1A6F526B6E6B8A6B366B61
:10132000086A120012000D500B6436EF05F005EE4E
:1013300000F00D50E9260AC0EFFF0D281200E82C3E
:1013400004D00A280F6E082A1200E82C38D00A2A86
:1013500014BE16D004EE1CF014503F0BE926EF6AC1
:1013600014BCEF8E14ACEF8C1C0EE9260FC0EFFFFF
:10137000E9260AC0EFFFE9260AC0EFFF086A12005B
:10138000060E106E0401FF0E1B6FFF0E536F1E0E34
:101390006F6F8B6F600E376F0401FF0E196FFF0EBA
:1013A000516F1E0E6D6F896F600E356F0401000E58
:1013B0001A6F526B6E6B8A6B366B086A1200E82CE0
:1013C000BBD00ABC5CD00ABA58D00A500AE1020E5F
:1013D0000B6E5A0E0C6E060E086E0D6A060E0E6E21
:1013E0001200E82C0AD0020E0B6E5A0E0C6E060E7E
:1013F000086E0D6A070E0E6E1200E82C0AD0020E5F
:101400000B6E590E0C6E060E086E0D6A080E0E6EEF
:101410001200E82C0AD0020E0B6E540E0C6E060E53
:10142000086E0D6A090E0E6E1200E82C03D00E0E27
:10143000086E1200E82C03D00F0E086E1200E82C84
:101440000AD0050E0B6E3C0E0C6E060E086E0D6A71
:101450000A0E0E6E1200E82C03D0100E086E120059
:10146000E82C36EF05F0020E0B6E410E0C6E060EE8
:10147000086E0D6A0B0E0E6E120036EF05F006B800
:1014800004D0210E106E38EF05F00AAA3DD00AA84C
:1014900047D00F0E0A140DE106980401000E186FD4
:1014A000010E506F010E6C6F886FA00E346F086ACA
:1014B0001200E82C0AD0040E0B6E3D0E0C6E060EC8
:1014C000086E0D6A010E0E6E1200E82C0AD0020E94
:1014D0000B6E260E0C6E060E086E0D6A020E0E6E58
:1014E0001200E82C0AD0020E0B6E720E0C6E060E65
:1014F000086E0D6A030E0E6E1200E82C03D00786EC
:101500004CEF0AF036EF05F00AC00FF0030E0B6E39
:101510004F0E0C6E060E086E0D6A040E0E6E120053
:101520000AC00FF0030E0B6E440E0C6E060E086E12
:101530000D6A050E0E6E1200E82C1FD0080E106EFC
:101540000401FF0E1B6FFF0E536F1E0E6F6F8B6F2C
:10155000600E376F0401FF0E196FFF0E516F1E0EE4
:101560006D6F896F600E356F0401000E1A6F526B3C
:101570006E6B8A6B366B086A1200E82C1FD00B0E5C
:10158000106E0401FF0E1B6FFF0E536F1E0E6F6F68
:101590008B6F600E376F0401FF0E196FFF0E516FD6
:1015A0001E0E6D6F896F600E356F0401000E1A6F8D
:1015B000526B6E6B8A6B366B086A1200E82C1FD078
:1015C0000C0E106E0401FF0E1B6FFF0E536F1E0EEC
:1015D0006F6F8B6F600E376F0401FF0E196FFF0E78
:1015E000516F1E0E6D6F896F600E356F0401000E16
:1015F0001A6F526B6E6B8A6B366B086A1200E82C9E
:101600001FD00D0E106E0401FF0E1B6FFF0E536FE7
:101610001E0E6F6F8B6F600E376F0401FF0E196F18
:10162000FF0E516F1E0E6D6F896F600E356F0401D6
:10163000000E1A6F526B6E6B8A6B366B086A120063
:10164000E82C0CD00AC00FF0830E0B6E730E0C6EDC
:10165000060E086E0D6A0C0E0E6E1200E82C02D0FB
:1016600032EF05F0E82C02D032EF05F00E0E106ECE
:101670000401FF0E1B6FFF0E536F1E0E6F6F8B6FFB
:10168000600E376F0401FF0E196FFF0E516F1E0EB3
:101690006D6F896F600E356F0401000E1A6F526B0B
:1016A0006E6B8A6B366B086A12000400149E149CE1
:1016B0001E6E04EE00F01450E9261EC0EFFF1C0E53
:1016C000E926EF6AE926EF6AE926EF6AE926EF6A7A
:1016D000120004003F0E0A14146E170E1464120058
:1016E000148C148E120004000401069A135056E064
:1016F000006301D08A9A016301D08A98026301D005
:101700008A96036301D08A94046301D08A920563A8
:1017100001D08C9E066301D08C9C076301D08C9A0B
:10172000086301D08C98096301D08B9A0A6301D0B9
:101730008B980B6301D08C960C6301D08C940D6355
:1017400001D08C920E6301D08C900F6301D08B96E8
:10175000106301D08B94116301D08B92126301D07E
:101760008B90136301D08998146301D08996156317
:1017700001D08994166301D08992176301D08990B2
:10178000186301D08D80196301D08D821A6301D056
:101790008D841B6301D0898A130612000401078817
:1017A000001D01E08A8A006707981CAF0FD0702FD8
:1017B0001AD054C470F43851002715E300691C9FF7
:1017C0001CAB11D01C8D1CB970690DD01CAD0BD099
:1017D000702F09D054C470F43851005F04E2006BDC
:1017E0001C9D1CBB1C8F011D01E08A8801670798A6
:1017F0001DAF0FD0712F1AD055C471F43951012784
:1018000015E301691D9F1DAB11D01D8D1DB97169B7
:101810000DD01DAD0BD0712F09D055C471F43951C5
:10182000015F04E2016B1D9D1DBB1D8F021D01E0C8
:101830008A86026707981EAF0FD0722F1AD056C43F
:1018400072F43A51022715E302691E9F1EAB11D0B4
:101850001E8D1EB972690DD01EAD0BD0722F09D02E
:1018600056C472F43A51025F04E2026B1E9D1EBB25
:101870001E8F031D01E08A84036707981FAF0FD0F6
:10188000732F1AD057C473F43B51032715E3036930
:101890001F9F1FAB11D01F8D1FB973690DD01FADD6
:1018A0000BD0732F09D057C473F43B51035F04E28C
:1018B000036B1F9D1FBB1F8F041D01E08A820467FD
:1018C000079820AF0FD0742F1AD058C474F43C512D
:1018D000042715E30469209F20AB11D0208D20B987
:1018E00074690DD020AD0BD0742F09D058C474F496
:1018F0003C51045F04E2046B209D20BB208F051D3A
:1019000001E08C8E0567079821AF0FD0752F1AD094
:1019100059C475F43D51052715E30569219F21AB95
:1019200011D0218D21B975690DD021AD0BD0752F46
:1019300009D059C475F43D51055F04E2056B219D42
:1019400021BB218F061D01E08C8C0667079822AF12
:101950000FD0762F1AD05AC476F43E51062715E3DD
:101960000669229F22AB11D0228D22B976690DD053
:1019700022AD0BD0762F09D05AC476F43E51065FC3
:1019800004E2066B229D22BB228F071D01E08C8A98
:101990000767079823AF0FD0772F1AD05BC477F46F
:1019A0003F51072715E30769239F23AB11D0238DF0
:1019B00023B977690DD023AD0BD0772F09D05BC445
:1019C00077F43F51075F04E2076B239D23BB238F0E
:1019D000081D01E08C880867079824AF0FD0782F86
:1019E0001AD05CC478F44051082715E30869249F95
:1019F00024AB11D0248D24B978690DD024AD0BD03F
:101A0000782F09D05CC478F44051085F04E2086B79
:101A1000249D24BB248F091D01E08B8A0967079848
:101A200025AF0FD0792F1AD05DC479F44151092721
:101A300015E30969259F25AB11D0258D25B9796955
:101A40000DD025AD0BD0792F09D05DC479F441516B
:101A5000095F04E2096B259D25BB258F0A1D01E066
:101A60008B880A67079826AF0FD07A2F1AD05EC4EA
:101A70007AF442510A2715E30A69269F26AB11D052
:101A8000268D26B97A690DD026AD0BD07A2F09D0D4
:101A90005EC47AF442510A5F04E20A6B269D26BBBB
:101AA000268F0B1D01E08C860B67079827AF0FD0A0
:101AB0007B2F1AD05FC47BF443510B2715E30B69CE
:101AC000279F27AB11D0278D27B97B690DD027AD74
:101AD0000BD07B2F09D05FC47BF443510B5F04E232
:101AE0000B6B279D27BB278F0C1D01E08C840C6797
:101AF000079828AF0FD07C2F1AD060C47CF44451D3
:101B00000C2715E30C69289F28AB11D0288D28B924
:101B10007C690DD028AD0BD07C2F09D060C47CF43B
:101B200044510C5F04E20C6B289D28BB288F0D1DCF
:101B300001E08C820D67079829AF0FD07D2F1AD056
:101B400061C47DF445510D2715E30D69299F29AB2B
:101B500011D0298D29B97D690DD029AD0BD07D2FEC
:101B600009D061C47DF445510D5F04E20D6B299DE0
:101B700029BB298F0E1D01E08C800E6707982AAFC4
:101B80000FD07E2F1AD062C47EF446510E2715E383
:101B90000E692A9F2AAB11D02A8D2AB97E690DD0F1
:101BA0002AAD0BD07E2F09D062C47EF446510E5F61
:101BB00004E20E6B2A9D2ABB2A8F0F1D01E08B8643
:101BC0000F6707982BAF0FD07F2F1AD063C47FF415
:101BD00047510F2715E30F692B9F2BAB11D02B8D8E
:101BE0002BB97F690DD02BAD0BD07F2F09D063C4EB
:101BF0007FF447510F5F04E20F6B2B9D2BBB2B8FA4
:101C0000101D01E08B84106707982CAF0FD0802F38
:101C10001AD064C480F44851102715E310692C9F32
:101C20002CAB11D02C8D2CB980690DD02CAD0BD0E4
:101C3000802F09D064C480F44851105F04E2106B17
:101C40002C9D2CBB2C8F111D01E08B8211670798F6
:101C50002DAF0FD0812F1AD065C481F449511127BF
:101C600015E311692D9F2DAB11D02D8D2DB98169F3
:101C70000DD02DAD0BD0812F09D065C481F4495111
:101C8000115F04E2116B2D9D2DBB2D8F121D01E004
:101C90008B80126707982EAF0FD0822F1AD066C4A0
:101CA00082F44A51122715E312692E9F2EAB11D0F0
:101CB0002E8D2EB982690DD02EAD0BD0822F09D07A
:101CC00066C482F44A51125F04E2126B2E9D2EBB51
:101CD0002E8F131D01E08988136707982FAF0FD04F
:101CE000832F1AD067C483F44B51132715E313696C
:101CF0002F9F2FAB11D02F8D2FB983690DD02FAD12
:101D00000BD0832F09D067C483F44B51135F04E2D7
:101D1000136B2F9D2FBB2F8F141D01E08986146735
:101D2000079830AF0FD0842F1AD068C484F44C5178
:101D3000142715E31469309F30AB11D0308D30B9C2
:101D400084690DD030AD0BD0842F09D068C484F4E1
:101D50004C51145F04E2146B309D30BB308F151D65
:101D600001E089841567079831AF0FD0852F1AD00D
:101D700069C485F44D51152715E31569319F31ABC1
:101D800011D0318D31B985690DD031AD0BD0852F92
:101D900009D069C485F44D51155F04E2156B319D7E
:101DA00031BB318F161D01E089821667079832AF6B
:101DB0000FD0862F1AD06AC486F44E51162715E329
:101DC0001669329F32AB11D0328D32B986690DD08F
:101DD00032AD0BD0862F09D06AC486F44E51165FFF
:101DE00004E2166B329D32BB328F171D01E08980F1
:101DF0001767079833AF0FD0872F1AD06BC487F4BB
:101E00004F51172715E31769339F33AB11D0338D2B
:101E100033B987690DD033AD0BD0872F09D06BC490
:101E200087F44F51175F04E2176B339D33BB338F39
:101E3000181D01E08D901867079834AF0FD0882FD8
:101E40001AD06CC488F45051182715E31869349FD0
:101E500034AB11D0348D34B988690DD034AD0BD08A
:101E6000882F09D06CC488F45051185F04E2186BB5
:101E7000349D34BB348F191D01E08D92196707988A
:101E800035AF0FD0892F1AD06DC489F4515119275D
:101E900015E31969359F35AB11D0358D35B9896991
:101EA0000DD035AD0BD0892F09D06DC489F45151B7
:101EB000195F04E2196B359D35BB358F1A1D01E0A2
:101EC0008D941A67079836AF0FD08A2F1AD06EC438
:101ED0008AF452511A2715E31A69369F36AB11D08E
:101EE000368D36B98A690DD036AD0BD08A2F09D020
:101EF0006EC48AF452511A5F04E21A6B369D36BBE7
:101F0000368F1B1D01E0899A1B67079837AF0FD0EA
:101F10008B2F1AD06FC48BF453511B2715E31B6909
:101F2000379F37AB11D0378D37B98B690DD037ADAF
:101F30000BD08B2F09D06FC48BF453511B5F04E27D
:101F40001B6B379D37BB378F069E07A809D01A2E0B
:101F500012001A68192E120006A64EEC08F01200A4
:101F600006B680EC08F019681A6812009EBAAE50E6
:101F7000ABA4FCD7AE509EAAFED7ABB4FCD7AE50F4
:101F8000FF0BF4E161EC05F00401000E186F506BDB
:101F90006C6B886B346B0401000E196F516B6D6BA9
:101FA000896B356B0401000E1A6F526B6E6B8A6B76
:101FB000366B0401000E1B6F536B6F6B8B6B376BB3
:081FC000040003008D74FCD73E
:020000040001F9
:10400000FF06000002000000000000000000004267
:105000000F0BE846F9CF09F3F926300C310C320CBE
:10501000330C340C350C360C370C380C390C410C75
:10502000420C430C440C450C460C0F0BE846F9CFE0
:1050300009F3F926820C420C200C100C080C040C0D
:10504000020C010C000C000C000C020C020C020CF7
:10505000020C020C0F0BE846F9CF09F3F926340CC9
:10506000190C8C0C450C220C100C070C030CAC0C0E
:0E507000550C270C070C070C070C070C070C3F
:020000040030CA
:0100010006F8
:0100020019E4
:0100030015E7
:01000500807A
:010006008178
:010008003FB8
:01000900C036
:01000A003FB6
:01000B00E014
:01000C003FB4
:01000D0040B2
:0200000400F00A
:10000000FF060000020000000000000000000042A7
:00000001FF
