:020000040000FA
:06000000040096EF00F081
:020006000000F8
:06000800040014EF03F0F8
:060018000400FFEF02F0FE
:02001E000400DC
:10002000400ED36E9F0ED06E100EF26EB00EF16EBB
:10003000000EF06E000E9D6E000EA06E000EA36E00
:10004000000E9F6E000EA26E000EA56E9E6AA16A43
:10005000A46A3C0EC26E0F0EC16EC06AB56A1F0E56
:10006000806EBE0E816E3F6E826E8368846AC00EA3
:10007000926E010E936EC00E946E956A966A100E83
:10008000D56ED76AD66A880ECD6ECF6ACE6A080E54
:10009000CA6ECC6ACB6A800EB16EB36AB26AD26A9B
:1000A000200E6E6EBD6ABA6AB46A010ED16E12007D
:100100008D8428D98D8026D98D9424D98D9022D99B
:1001100012008D841FD98D801DD98D821BD98D949D
:1001200019D98D9017D98D9215D912000400FC6A47
:100130000FEC00F089EC00F0B6EC01F08D840400C7
:10014000AA6AA96AA69EA69CA694A680FF0EA8628B
:10015000CED00F0EA96EA680420EA862C8D00400B1
:10016000A1988D948D82A694A69EA69CAA6A010E43
:10017000A96EA680A850F2EC01F0A92AA680A8CF0B
:1001800003F0A92AA680A8CF04F0A92AA680A8CFA8
:1001900005F0A96A8D809F989F9A0400066A076AF5
:1001A000086A800E156E166A19681A680401006BD9
:1001B0001B6B366B516B6C6B016B1C6B376B526B33
:1001C0006D6B026B1D6B386B536B6E6B036B1E6B31
:1001D000396B546B6F6B046B1F6B3A6B556B706BA9
:1001E000056B206B3B6B566B716B066B216B3C6B2D
:1001F000576B726B076B226B3D6B586B736B086BA5
:10020000236B3E6B596B746B096B246B3F6B5A6BA2
:10021000756B0A6B256B406B5B6B766B0B6B266BA0
:10022000416B5C6B776B0C6B276B426B5D6B786B18
:100230000D6B286B436B5E6B796B0E6B296B446B9C
:100240005F6B7A6B0F6B2A6B456B606B7B6B106B14
:100250002B6B466B616B7C6B116B2C6B476B626B12
:100260007D6B126B2D6B486B636B7E6B136B2E6B10
:10027000496B646B7F6B146B2F6B4A6B656B806B88
:10028000156B306B4B6B666B816B166B316B4C6B0C
:10029000676B826B176B326B4D6B686B836B186B84
:1002A000336B4E6B696B846B196B346B4F6B6A6B82
:1002B000856B1A6B356B506B6B6B866BF2889F0E80
:1002C000CB6ECC6A9F829D82CA849D8AF28EF28C0C
:1002D0008D920401186B0401000E186F010E4E6F11
:1002E000010E696F846FA00E336F00EF04F00400FD
:1002F000F29EF29C000EAA6E000EA96EA69EA69C0F
:10030000A684010EF86E400EF76E000EF66E100E0B
:100310001B6E0900F5CFA8FF8D82A198550EA76E20
:10032000AA0EA76EA682A1A8FED70400A1988D925E
:100330001B2EEFD7A694F28EF28C100E1B6E8D80C2
:100340008D828D8407D88D908D928D9403D81B2E2D
:10035000F6D7FF000400080E1E6E1C681D681D2ED7
:0C036000FED71C2EFBD71E2EF8D7120073
:04036C000400030185
:10037000948E949C060EF2EC01F00101040001EE53
:1003800000F0EE6AE966FDD70201040002EE00F01B
:10039000EE6AE966FDD70301006B036B046B056B26
:1003A000066B900EAB6E240EAC6E080EB86E12008B
:1003B0000301086B9DAA02D09D9A0881056B066B0C
:1003C0000097009308B19D8A12000301086B9DA855
:1003D00002D09D980881036B046B0095009108B1D1
:1003E0009D88120003010400086F15ECA8F0B06EA0
:1003F00008512AECA8F0AF6E12000301026F04004E
:10040000030102AF05D04D0E1AD82D0E18D8029F49
:100410007F0E026304D05E0E12D83F0E026F1B0ED9
:10042000026302D0240E026F02AD02BB03D05E0E47
:1004300006D8028D025103D81200030102510400B4
:100440000301076F00A110D0035104630DD0FAD748
:100450000301025104000301076F00A105D00351FD
:10046000046302D00085120004C3E1FF010EE26EB6
:1004700007C3E7FF0081042B9D88120004000D0EC6
:10048000DEDF0A0EDCDF120002D801511200040088
:10049000030100B302D0016B120005C3E1FF020E9D
:1004A000E26EE7CF01F3052B0551066301D00093FF
:1004B000120002D8015112000301040000A3FDD76D
:1004C000E6D70301026F0400030102C308F30839F1
:1004D00000ECA8F01FEC02F0085100ECA8F01FECB3
:1004E00002F0120003010400200E0C6F126B136B5C
:1004F000146B156B166BEACF0EF3E9CF0FF303EE17
:1005000012F0050E0D6F0400330EEF26EFB6F00B60
:10051000EFBE0F0BEE5E0D2FF6D71A3719371837CF
:100520001737163715371437133712370C2FE7D70D
:100530000EC3EAFF0FC3E9FF120004000301EACF74
:100540000EF3E9CF0FF3E2CF10F3E1CF11F303EE97
:1005500016F013EE1BF0050E0D6FEF500F0B300F62
:10056000E56EED380F0B300FE56E0D2FF6D70EC38D
:10057000EAFF0FC3E9FF10C3E2FF11C3E1FF12005E
:100580000400030100B102D09D981200E2CF0AF3EB
:10059000E1CF0BF303C3E1FF010EE26EE7CFADFF46
:1005A000032B0351046301D000910AC3E2FF0BC384
:1005B000E1FF120004000301ABB41BD8ABB21BD89F
:1005C00000A306D00551066303D00087AE50120089
:1005D000E2CF0AF3E1CF0BF306C3E1FF020EE26EB6
:1005E000AECFE7FF0083062B0AC3E2FF0BC3E1FF98
:0E05F0001200008B12000089AB98AB8812003D
:0205FE00026E8B
:10060000D8CF00F0E0CF01F09EA803D0C0EC02F0FC
:100610009E989EAA03D0DAEC02F09E9A01C0E0FFF9
:10062000025000C0D8FF1000F2A207D0F292068C50
:10063000078C04C011F005C012F09EA20CD006ACCD
:1006400007D0122E07D0116607D0069C068E1368BD
:0E06500006BE068A9E92110011061268FBD7A4
:10080000040006BAB8EC0BF0030100BB61D8030189
:1008100000B972D8030100B786D8030100A306D03F
:1008200006B002D0ABD802D047EC02F006B403D831
:1008300006B00BD8E5D7030100B112009EA8120044
:10084000ACA212000694899A12000400151C02E161
:10085000078A1BD0156619D007AA17D0079A077EFA
:10086000176807AE08D00401FF0E1A6F506B6B6B50
:10087000866B356B0AD00401000E1A6F010E506FA3
:10088000010E6B6F866FA00E356F07AE07AC1200BE
:10089000079C172E12008DD8182A300E1860186A7F
:1008A0003F0E18140A6E0A8C4CD904011A6B196B8E
:1008B000186B18B0196918B218690401000E1A6F84
:1008C000010E506F010E6B6F866FA00E356F120018
:1008D0000301009B0401FF0E1A6FFF0E506F1E0EE6
:1008E0006B6F866F600E356F0401FF0E196F4F6BD3
:1008F0006A6B856B346B1200030100990401FF0ED3
:100900001A6FFF0E506F1E0E6B6F866F600E356F85
:100910000401FF0E196FFF0E4F6F1E0E6A6F856F79
:10092000600E346F12000401FF0E1A6FFF0E506F3D
:100930001E0E6B6F866F600E356F0401000E196F0F
:10094000010E4F6F010E6A6F856FA00E346F086A3B
:10095000D8EC01F01200230E106EB5EF04F0220E59
:10096000106EB5EF04F0200E106E0401FF0E1A6F2A
:10097000506B6B6B866B356B086A1200040059EC88
:1009800002F00400030101AFD4D0085001E0E3DF1E
:10099000030104000401FF0E196F020E4F6F010ED8
:1009A0006A6F856F400E346F0139070B02E062EF0A
:1009B00005F00401006B1B6B366B516B6C6B016BAC
:1009C0001C6B376B526B6D6B026B1D6B386B536B13
:1009D0006E6B036B1E6B396B546B6F6B046B1F6B11
:1009E0003A6B556B706B056B206B3B6B566B716B89
:1009F000066B216B3C6B576B726B076B226B3D6B0D
:100A0000586B736B086B236B3E6B596B746B096B84
:100A1000246B3F6B5A6B756B0A6B256B406B5B6B82
:100A2000766B0B6B266B416B5C6B776B0C6B276B80
:100A3000426B5D6B786B0D6B286B436B5E6B796BF8
:100A40000E6B296B446B5F6B7A6B0F6B2A6B456B7C
:100A5000606B7B6B106B2B6B466B616B7C6B116BF4
:100A60002C6B476B626B7D6B126B2D6B486B636BF2
:100A70007E6B136B2E6B496B646B7F6B146B2F6BF0
:100A80004A6B656B806B156B306B4B6B666B816B68
:100A9000166B316B4C6B676B826B176B326B4D6BEC
:100AA000686B836B186B336B4E6B696B846B196B64
:100AB000346B4F6B6A6B856B1A6B356B506B6B6B62
:100AC000866B1200096EE82C03D0010E086E12002E
:100AD000E82C03D0020E086E1200E82C03D0040E9E
:100AE000086E1200E82C03D0050E086E1200E82CE8
:100AF00002D0AFEF04F0E82C02D0AFEF04F0E82C06
:100B000003D0090E086E1200010E106E0401FF0ED4
:100B1000196FFF0E4F6F1E0E6A6F856F600E346F78
:100B20000401000E1A6F506B6B6B866B356B086A95
:100B300012000400085001E1120001C30AF0E82C81
:100B400012D0AEEC0BF014BCB3EF04F014BE09D01D
:100B50000ABC086A03D0E86A9AEF0BF0E8689AEFDB
:100B60000BF0B3EF04F0E82C09D0AEEC0BF014BCA2
:100B7000B3EF04F00ABC148C082A1200E82C1FD032
:100B800014BE08D0D89014BCD8800A34086A0A5021
:100B90009AEF0BF0020E106E0401FF0E196FFF0E9C
:100BA0004F6F1E0E6A6F856F600E346F0401000E6A
:100BB0001A6F506B6B6B866B356B086A1200E82CF2
:100BC00011D0AEEC0BF014BCB3EF04F00ABC148CE3
:100BD000390E0B6E550E0C6E060E086E0D6A000E69
:100BE0000E6E1200E82C0AD0AEEC0BF014BCB3EF82
:100BF00004F00ABC148C070E086E1200E82C12EFE9
:100C000009F004000A500C6206EF09F00E5002E0F1
:100C1000ACEF06F0086A05EE00F014503F0BEF242D
:100C2000E828300801E2B3EF04F0EF280D6406EF86
:100C300009F0EF2A14BC34D0EF280D62B3EF04F0B2
:100C400014AE15D0030E106E0401FF0E196FFF0EC7
:100C50004F6F1E0E6A6F856F600E346F0401000EB9
:100C60001A6F506B6B6B866B356B086A1200040051
:100C700005EE00F014EE00F024EE1BF014503F0BD4
:100C8000E126D926EECF1BF01BC01DF0DE6AEECFA9
:100C9000E7FFE74601E0E780012A1B2EF7D71200A5
:100CA0001B6A1C6A1B2A070E1C26EF501C5CFAE309
:100CB000EF281C6E1B240D5C01E294EF06F0EF2878
:100CC000E926560EEF62B3EF04F01C501B240D62B0
:100CD000B3EF04F0CCDF0400550EEE6228D014EE22
:100CE00000F014503F0BE126EFBCE6801D4E1AD0F9
:100CF000EFBAE6801D4E16D0EFB8E6801D4E12D03A
:100D0000EFB6E6801D4E0ED0EFB4E6801D4E0AD041
:100D1000EFB2E6801D4E06D0EFB0E6801D4E02D049
:100D2000E92AE2D7086A1200EF0606EF09F0040E7E
:100D3000106E0401FF0E196FFF0E4F6F1E0E6A6FCB
:100D4000856F600E346F0401000E1A6F506B6B6B71
:100D5000866B356B086A1200E82E12D0030E0D5C0C
:100D600001E206EF09F001E0B3EF04F005EE02F056
:100D7000ED503F0B3A0801E0B3EF04F0086A1200AF
:100D8000E82E2CD0010E0D5C01E206EF09F001E027
:100D9000B3EF04F005EE00F00B0EEF5C01E3B3EFF0
:100DA00004F0F29EF29C000EAA6E010EA96EA69EA1
:100DB000A69CA684EFCFA8FFA198550EA76EAA0EF9
:100DC000A76EA682A1A8FED70400A198A694F28ED1
:100DD000F28CEF50F2EC01F0086A1200E82E30D0ED
:100DE000010E0D5C01E206EF09F001E0B3EF04F043
:100DF00005EE00F0240EEF62B3EF04F077EF01F0A0
:100E0000700E106E0401FF0E196FFF0E4F6F1E0E55
:100E10006A6F856F600E346F0401FF0E1A6FFF0E4C
:100E2000506F1E0E6B6F866F600E356F0401000EE3
:100E3000186F4E6B696B846B336B086A1200FFD7B7
:100E4000E82E3FD0020E0D5C01E206EF09F001E052
:100E5000B3EF04F005EE01F0500EED62B3EF04F0D5
:100E6000EFCF05F00FB0058E046A0FB20482F29E38
:100E7000F29C000EAA6E030EA96EA69EA69CA684E6
:100E800004C0A8FFA198550EA76EAA0EA76EA68251
:100E9000A1A8FED70400A198000EAA6E040EA96EA8
:100EA00005C0A8FFA198550EA76EAA0EA76EA68230
:100EB000A1A8FED70400A198A694F28EF28C086A2D
:100EC0001200E82E2FD0020E0D5C01E206EF09F0B1
:100ED00001E0B3EF04F005EE01F0410EED62B3EF77
:100EE00004F0490EED62B3EF04F0EF500F0B036E08
:100EF000F29EF29C000EAA6E020EA96EA69EA69C01
:100F0000A68403C0A8FFA198550EA76EAA0EA76ECF
:100F1000A682A1A8FED70400A198A694F28EF28C16
:100F2000086A1200E82E30D0010E0D5C01E206EFD7
:100F300009F001E0B3EF04F005EE00F05A0EEF62A5
:100F4000B3EF04F0086A8A8E0401FF0E186FFF0EDB
:100F50004E6F1E0E696F846F700E336F0401FF0EAB
:100F6000196FFF0E4F6F1E0E6A6F856F700E346F14
:100F70000401FF0E1A6FFF0E506F1E0E6B6F866F0F
:100F8000700E356F06861200E82EFED7010E0D5C3E
:100F900001E206EF09F001E0B3EF04F005EE00F026
:100FA0005A0EEF62B3EF04F0086A8A9E0401000E45
:100FB000186F010E4E6F010E696F846FA00E336FB4
:100FC0000401000E196F4F6B6A6B856B346B040163
:100FD000000E1A6F506B6B6B866B356B069619683B
:100FE0001A681200E82E10D0010E0D5C01E206EF27
:100FF00009F001E0B3EF04F005EE00F0580EEF62E7
:10100000B3EF04F0E0EF0FF0E82EB0D0010E0D5C6E
:1010100001E206EF09F001E0B3EF04F005EE00F0A5
:10102000240EEF62B3EF04F00F0E106E0401FF0EFA
:10103000196FFF0E4F6F1E0E6A6F856F600E346F53
:101040000401000E1A6F506B6B6B866B356B086A70
:1010500012000350F0092AEC02F01F0E2AEC02F0F5
:10106000300E2AEC02F0000E2AEC02F0E86A2AECBC
:1010700002F0E86A06B8E88406B6E8822AEC02F0D4
:10108000E86A07B6E88404B0E88205BEE8802AEC86
:1010900002F00550E89E2AEC02F0E86A2AEC02F021
:1010A000E86A2AEC02F0E86A2AEC02F0E86A2AEC24
:1010B00002F0100E106E0401FF0E196FFF0E4F6F3D
:1010C0001E0E6A6F856F600E346F0401000E1A6F7A
:1010D000506B6B6B866B356B086A12002AEC02F062
:1010E000E86A2AEC02F0000E2AEC02F0000E2AEC6C
:1010F00002F0000E2AEC02F0000E2AEC02F0010EC3
:101100002AEC02F0000E2AEC02F0000E2AEC02F0AB
:10111000000E2AEC02F0020E2AEC02F0000E2AEC7D
:1011200002F0000E2AEC02F0000E2AEC02F0030E90
:101130002AEC02F0000E2AEC02F0000E2AEC02F07B
:10114000000E2AEC02F01050106A2AEC02F0E86A55
:101150002AEC02F0E86A2AEC02F0E86A2AEC02F0D3
:10116000330E2AEC02F00684086A1200E82E0CD036
:10117000040E0D5C01E206EF09F001E0B3EF04F0AC
:1011800005EE00F0AFEF04F0E82E10D0010E0D5C7C
:1011900001E206EF09F001E0B3EF04F005EE00F024
:1011A000430EEF62B3EF04F0AFEF04F0E82E18D077
:1011B0000D5001E106EF09F005EE00F0EF28E828F8
:1011C000E8280D5C01E206EF09F001E0B3EF04F05E
:1011D0000D04E926440EEF62B3EF04F0AFEF04F024
:1011E000050E106E0401FF0E196FFF0E4F6F1E0EDD
:1011F0006A6F856F600E346F0401000E1A6F506BBA
:101200006B6B866B356B086A120012000D500B6415
:10121000B3EF04F005EE00F00D50E9260AC0EFFF31
:101220000D281200E82C04D00A280F6E082A12009C
:10123000E82C2ED00A2A14BE16D004EE1BF014504F
:101240003F0BE926EF6A14BCEF8E14ACEF8C1B0E3B
:10125000E9260FC0EFFFE9260AC0EFFFE9260AC022
:10126000EFFF086A1200060E106E0401FF0E196FE0
:10127000FF0E4F6F1E0E6A6F856F600E346F040194
:10128000000E1A6F506B6B6B866B356B086A120021
:10129000E82CFBD00ABC9DD00ABA58D00A500AE10B
:1012A000020E0B6E5A0E0C6E060E086E0D6A060EBE
:1012B0000E6E1200E82C0AD0020E0B6E5A0E0C6E47
:1012C000060E086E0D6A070E0E6E1200E82C0AD08C
:1012D000020E0B6E590E0C6E060E086E0D6A080E8D
:1012E0000E6E1200E82C0AD0020E0B6E540E0C6E1D
:1012F000060E086E0D6A090E0E6E1200E82C03D061
:101300000E0E086E1200E82C03D00F0E086E1200AD
:10131000E82C0AD0050E0B6E3C0E0C6E060E086E05
:101320000D6A0A0E0E6E1200E82C03D0100E086E25
:101330001200E82CB3EF04F0020E0B6E410E0C6E9F
:10134000060E086E0D6A0B0E0E6E12001F0E0A14AA
:1013500005E10AC009F00A0E086E1200E82C03D05D
:101360000C0E086E1200E82C18D00401000E186F45
:101370004E6B696B846B336B0401000E196F4F6BFE
:101380006A6B856B346B0401FF0E1A6F506B6B6BCD
:10139000866B356B899AE0EF0FF0E82C05D00AC018
:1013A00009F00A0E086E1200070E106E0401FF0EFF
:1013B000196FFF0E4F6F1E0E6A6F856F600E346FD0
:1013C0000401000E1A6F506B6B6B866B356B086AED
:1013D000120006A8210E106EB5EF04F00AAA3DD047
:1013E0000AA847D00F0E0A140DE106980401000E5A
:1013F000186F010E4E6F010E696F846FA00E336F70
:10140000086A1200E82C0AD0040E0B6E3D0E0C6E1A
:10141000060E086E0D6A010E0E6E1200E82C0AD040
:10142000020E0B6E260E0C6E060E086E0D6A020E74
:101430000E6E1200E82C0AD0020E0B6E720E0C6EAD
:10144000060E086E0D6A030E0E6E1200E82C03D015
:101450000786F5EF09F0B3EF04F00AC00FF0030EB2
:101460000B6E4F0E0C6E060E086E0D6A040E0E6E9D
:1014700012000AC00FF0030E0B6E440E0C6E060E27
:10148000086E0D6A050E0E6E1200E82C07D0098E4C
:10149000082A0AC00FF00F2A898A1200E82C3AD0D5
:1014A0000F662FD0730E0A6217D009A012D0105009
:1014B0002AEC02F0106AE86A04B0E88205BEE8800F
:1014C0002AEC02F00550E89E2AEC02F0330E2AECDA
:1014D00002F00684086A12000A0E106E0401FF0E64
:1014E000196FFF0E4F6F1E0E6A6F856F600E346F9F
:1014F0000401000E1A6F506B6B6B866B356B086ABC
:1015000012000A5009AE02D0E88E099E2AEC02F0C1
:101510000F061200E82C04D00AC00FF0082A1200AF
:10152000E82CDDD0070E0F1408E10401000E196F3E
:101530004F6B6A6B856B346B3DD0E82C08D004018F
:10154000FF0E196F4F6B6A6B856B346B33D0E82CD1
:101550000BD00401000E196F010E4F6F010E6A6F60
:10156000856FA00E346F26D0E82C0BD00401000E3E
:10157000196F040E4F6F010E6A6F856FA00E346FE6
:1015800019D0E82C0BD00401FF0E196FFF0E4F6F1E
:101590001E0E6A6F856F700E346F0CD0E82C0AD067
:1015A0000401FF0E196FFF0E4F6F1E0E6A6F856FDD
:1015B000600E346F380E0F14E840E840E84008E150
:1015C0000401000E186F4E6B696B846B336B3DD05A
:1015D000E82C08D00401FF0E186F4E6B696B846B0A
:1015E000336B33D0E82C0BD00401000E186F010EC2
:1015F0004E6F010E696F846FA00E336F26D0E82CFA
:101600000BD00401000E186F040E4E6F010E696FAF
:10161000846FA00E336F19D0E82C0BD00401FF0E9D
:10162000186FFF0E4E6F1E0E696F846F700E336F52
:101630000CD0E82C0AD00401FF0E186FFF0E4E6F7D
:101640001E0E696F846F600E336F070E0A1408E177
:101650000401000E1A6F506B6B6B866B356B3DD0BF
:10166000E82C08D00401FF0E1A6F506B6B6B866B71
:10167000356B33D0E82C0BD00401000E1A6F010E2D
:10168000506F010E6B6F866FA00E356F26D0E82C61
:101690000BD00401000E1A6F040E506F010E6B6F19
:1016A000866FA00E356F19D0E82C0BD00401FF0E09
:1016B0001A6FFF0E506F1E0E6B6F866F700E356FB8
:1016C0000CD0E82C0AD00401FF0E1A6FFF0E506FE9
:1016D0001E0E6B6F866F600E356F086A1200E82C65
:1016E0000CD00AC00FF0830E0B6E730E0C6E060E3C
:1016F000086E0D6A0C0E0E6E1200E82C02D0AFEFD1
:1017000004F0E82C02D0AFEF04F00E0E106E0401CE
:10171000FF0E196FFF0E4F6F1E0E6A6F856F600E02
:10172000346F0401000E1A6F506B6B6B866B356B58
:10173000086A12000400149E149C1E6E04EE00F051
:101740001450E9261EC0EFFF1B0EE926EF6AE926BA
:10175000EF6AE926EF6AE926EF6A120004003F0EFD
:101760000A14146E170E14641200148C148E1200D6
:1017700004000401069A135053E0006301D08B98D3
:10178000016301D08B96026301D08B9A036301D071
:101790008B94046301D08B90056301D08C9A06630F
:1017A00001D08C9C076301D08A92086301D089988C
:1017B000096301D08A940A6301D089960B6301D032
:1017C0008A960C6301D089940D6301D08A980E63C8
:1017D00001D089920F6301D08A9A106301D0899059
:1017E000116301D08C9E126301D08C98136301D0D9
:1017F0008B92146301D08C94156301D08C92166384
:1018000001D08C96176301D08C90186301D08D8025
:10181000196301D08D821A6301D08D8413061200E2
:101820000788001D01E08B88006707981BAF0FD069
:101830006C2F1AD051C46CF43651002715E300699F
:101840001B9F1BAB11D01B8D1BB96C690DD01BAD41
:101850000BD06C2F09D051C46CF43651005F04E2F8
:10186000006B1B9D1BBB1B8F011D01E08B8601675D
:1018700007981CAF0FD06D2F1AD052C46DF437519A
:10188000012715E301691C9F1CAB11D01C8D1CB9ED
:101890006D690DD01CAD0BD06D2F09D052C46DF405
:1018A0003751015F04E2016B1C9D1CBB1C8F021DA4
:1018B00001E08B8A026707981DAF0FD06E2F1AD0F8
:1018C00053C46EF43851022715E302691D9F1DAB06
:1018D00011D01D8D1DB96E690DD01DAD0BD06E2FB1
:1018E00009D053C46EF43851025F04E2026B1D9DAF
:1018F0001DBB1D8F031D01E08B84036707981EAF7E
:101900000FD06F2F1AD054C46FF43951032715E349
:1019100003691E9F1EAB11D01E8D1EB96F690DD0BD
:101920001EAD0BD06F2F09D054C46FF43951035F33
:1019300004E2036B1E9D1EBB1E8F041D01E08B8005
:10194000046707981FAF0FD0702F1AD055C470F4DA
:101950003A51042715E304691F9F1FAB11D01F8D57
:101960001FB970690DD01FAD0BD0702F09D055C4B1
:1019700070F43A51045F04E2046B1F9D1FBB1F8F7C
:10198000051D01E08C8A0567079820AF0FD0712FE5
:101990001AD056C471F43B51052715E30569209F01
:1019A00020AB11D0208D20B971690DD020AD0BD0A6
:1019B000712F09D056C471F43B51055F04E2056BE9
:1019C000209D20BB208F061D01E08C8C06670798A8
:1019D00021AF0FD0722F1AD057C472F43C51062792
:1019E00015E30669219F21AB11D0218D21B97269C0
:1019F0000DD021AD0BD0722F09D057C472F43C51D9
:101A0000065F04E2066B219D21BB218F071D01E0CB
:101A10008A820767079822AF0FD0732F1AD058C455
:101A200073F43D51072715E30769229F22AB11D0BC
:101A3000228D22B973690DD022AD0BD0732F09D03E
:101A400058C473F43D51075F04E2076B229D22BB2B
:101A5000228F081D01E089880867079823AF0FD0FF
:101A6000742F1AD059C474F43E51082715E308693D
:101A7000239F23AB11D0238D23B974690DD023ADDF
:101A80000BD0742F09D059C474F43E51085F04E29E
:101A9000086B239D23BB238F091D01E08A840967FE
:101AA000079824AF0FD0752F1AD05AC475F43F5140
:101AB000092715E30969249F24AB11D0248D24B98B
:101AC00075690DD024AD0BD0752F09D05AC475F4AB
:101AD0003F51095F04E2096B249D24BB248F0A1D3A
:101AE00001E089860A67079825AF0FD0762F1AD0B4
:101AF0005BC476F440510A2715E30A69259F25AB9C
:101B000011D0258D25B976690DD025AD0BD0762F56
:101B100009D05BC476F440510A5F04E20A6B259D4C
:101B200025BB258F0B1D01E08A860B67079826AF22
:101B30000FD0772F1AD05CC477F441510B2715E3EF
:101B40000B69269F26AB11D0268D26B977690DD05B
:101B500026AD0BD0772F09D05CC477F441510B5FD1
:101B600004E20B6B269D26BB268F0C1D01E08984A9
:101B70000C67079827AF0FD0782F1AD05DC478F480
:101B800042510C2715E30C69279F27AB11D0278DF5
:101B900027B978690DD027AD0BD0782F09D05DC457
:101BA00078F442510C5F04E20C6B279D27BB278F12
:101BB0000D1D01E08A880D67079828AF0FD0792F97
:101BC0001AD05EC479F443510D2715E30D69289F9F
:101BD00028AB11D0288D28B979690DD028AD0BD04C
:101BE000792F09D05EC479F443510D5F04E20D6B87
:101BF000289D28BB288F0E1D01E089820E6707985B
:101C000029AF0FD07A2F1AD05FC47AF444510E272F
:101C100015E30E69299F29AB11D0298D29B97A695D
:101C20000DD029AD0BD07A2F09D05FC47AF444517E
:101C30000E5F04E20E6B299D29BB298F0F1D01E069
:101C40008A8A0F6707982AAF0FD07B2F1AD060C4FB
:101C50007BF445510F2715E30F692A9F2AAB11D05A
:101C60002A8D2AB97B690DD02AAD0BD07B2F09D0E4
:101C700060C47BF445510F5F04E20F6B2A9D2ABBC1
:101C80002A8F101D01E08980106707982BAF0FD0B5
:101C90007C2F1AD061C47CF44651102715E31069DB
:101CA0002B9F2BAB11D02B8D2BB97C690DD02BAD7D
:101CB0000BD07C2F09D061C47CF44651105F04E244
:101CC000106B2B9D2BBB2B8F111D01E08C8E116790
:101CD00007982CAF0FD07D2F1AD062C47DF44751E6
:101CE000112715E311692C9F2CAB11D02C8D2CB929
:101CF0007D690DD02CAD0BD07D2F09D062C47DF451
:101D00004751115F04E2116B2C9D2CBB2C8F121DCF
:101D100001E08C88126707982DAF0FD07E2F1AD064
:101D200063C47EF44851122715E312692D9F2DAB31
:101D300011D02D8D2DB97E690DD02DAD0BD07E2FFC
:101D400009D063C47EF44851125F04E2126B2D9DEA
:101D50002DBB2D8F131D01E08B82136707982EAFCB
:101D60000FD07F2F1AD064C47FF44951132715E395
:101D700013692E9F2EAB11D02E8D2EB97F690DD0F9
:101D80002EAD0BD07F2F09D064C47FF44951135F6F
:101D900004E2136B2E9D2EBB2E8F141D01E08C844C
:101DA000146707982FAF0FD0802F1AD065C480F426
:101DB0004A51142715E314692F9F2FAB11D02F8D93
:101DC0002FB980690DD02FAD0BD0802F09D065C4FD
:101DD00080F44A51145F04E2146B2F9D2FBB2F8FA8
:101DE000151D01E08C821567079830AF0FD0812F49
:101DF0001AD066C481F44B51152715E31569309F3D
:101E000030AB11D0308D30B981690DD030AD0BD0F1
:101E1000812F09D066C481F44B51155F04E2156B24
:101E2000309D30BB308F161D01E08C8616670798F9
:101E300031AF0FD0822F1AD067C482F44C511627CD
:101E400015E31669319F31AB11D0318D31B98269FB
:101E50000DD031AD0BD0822F09D067C482F44C5124
:101E6000165F04E2166B319D31BB318F171D01E007
:101E70008C801767079832AF0FD0832F1AD068C4B1
:101E800083F44D51172715E31769329F32AB11D0F8
:101E9000328D32B983690DD032AD0BD0832F09D08A
:101EA00068C483F44D51175F04E2176B329D32BB57
:101EB000328F181D01E08D901867079833AF0FD04F
:101EC000842F1AD069C484F44E51182715E3186979
:101ED000339F33AB11D0338D33B984690DD033AD1B
:101EE0000BD0842F09D069C484F44E51185F04E2EA
:101EF000186B339D33BB338F191D01E08D92196729
:101F0000079834AF0FD0852F1AD06AC485F44F518B
:101F1000192715E31969349F34AB11D0348D34B9C6
:101F200085690DD034AD0BD0852F09D06AC485F4F6
:101F30004F51195F04E2196B349D34BB348F1A1D65
:101F400001E08D941A67079835AF0FD0862F1AD00D
:101F50006BC486F450511A2715E31A69359F35ABC7
:101F600011D0358D35B986690DD035AD0BD0862FA2
:101F700009D06BC486F450511A5F04E21A6B359D88
:101F800035BB358F069E07A809D01A2E12001A6895
:101F9000192E120006A6A3EC07F0120006B6D5EC27
:101FA00007F019681A6812009EBAAE50ABA4FCD7AD
:101FB000AE509EAAFED7ABB4FCD7AE50FF0BF4E1F7
:101FC000D9EC04F00401000E186F4E6B696B846B42
:101FD000336B0401000E196F4F6B6A6B856B346BAA
:101FE0000401000E1A6F506B6B6B866B356B04002F
:061FF00003008D74FCD714
:020000040001F9
:10400000FF06000002000000000000000000004267
:105000000F0BE846F9CF09F3F926300C310C320CBE
:10501000330C340C350C360C370C380C390C410C75
:10502000420C430C440C450C460C0F0BE846F9CFE0
:1050300009F3F926820C420C200C100C080C040C0D
:10504000020C010C000C000C000C020C020C020CF7
:10505000020C020C0F0BE846F9CF09F3F926340CC9
:10506000190C8C0C450C220C100C070C030CAC0C0E
:0E507000550C270C070C070C070C070C070C3F
:020000040030CA
:0100010006F8
:0100020019E4
:0100030015E7
:01000500807A
:010006008178
:010008003FB8
:01000900C036
:01000A003FB6
:01000B00E014
:01000C003FB4
:01000D0040B2
:0200000400F00A
:10000000FF060000020000000000000000000042A7
:00000001FF
