:020000040000FA
:0600000004009AEF00F07D
:020006000000F8
:06000800040034EF03F0D8
:0600180004001FEF03F0DD
:02001E000400DC
:10002000400ED36E9F0ED06E100EF26EB00EF16EBB
:10003000000EF06E000E9D6E000EA06E000EA36E00
:10004000000E9F6E000EA26E000EA56E9E6AA16A43
:10005000A46A3C0EC26E0F0EC16EC06AB56A1F0E56
:10006000806EBE0E816E3F6E826E8368846AC00EA3
:10007000926E400E936EC00E946E956A966A100E44
:10008000D56ED76AD66A880ECD6ECF6ACE6A080E54
:10009000CA6ECC6ACB6A800EB16EB36AB26AD26A9B
:1000A000200E6E6EBD6ABA6AB46A010ED16E12007D
:100100008D8448D98D8046D98D9444D98D9042D91B
:1001100012008D843BD98D8039D98D8237D9898A57
:1001200035D98D9433D98D9031D98D922FD9899A23
:100130002DD912000400FC6A0FEC00F00A0E1B6EB1
:10014000040080EC00F01B2EFBD789EC00F0D6EC0D
:1001500001F08D840400AA6AA96AA69EA69CA694B2
:10016000A680FF0EA862DAD00F0EA96EA680420EFE
:10017000A862D4D00400A1988D948D82A694A69EE6
:10018000A69CAA6A010EA96EA680A85012EC02F0E5
:10019000A92AA680A8CF03F0A92AA680A8CF04F098
:1001A000A92AA680A8CF05F0A96A8D809F989F9A5A
:1001B0000400066A076A086A800E156E166A1968D6
:1001C0001A680401006B1C6B386B546B706B016B0D
:1001D0001D6B396B556B716B026B1E6B3A6B566BFB
:1001E000726B036B1F6B3B6B576B736B046B206BFA
:1001F0003C6B586B746B056B216B3D6B596B756B6E
:10020000066B226B3E6B5A6B766B076B236B3F6BF7
:100210005B6B776B086B246B406B5C6B786B096B6B
:10022000256B416B5D6B796B0A6B266B426B5E6B6A
:100230007A6B0B6B276B436B5F6B7B6B0C6B286B69
:10024000446B606B7C6B0D6B296B456B616B7D6BDD
:100250000E6B2A6B466B626B7E6B0F6B2B6B476B67
:10026000636B7F6B106B2C6B486B646B806B116BDB
:100270002D6B496B656B816B126B2E6B4A6B666BDA
:10028000826B136B2F6B4B6B676B836B146B306BD9
:100290004C6B686B846B156B316B4D6B696B856B4D
:1002A000166B326B4E6B6A6B866B176B336B4F6BD7
:1002B0006B6B876B186B346B506B6C6B886B196B4B
:1002C000356B516B6D6B896B1A6B366B526B6E6B4A
:1002D0008A6B1B6B376B536B6F6B8B6B8D84D76A21
:1002E000D66AF184F28AD58E8D929F0ECB6ECC6A3F
:1002F0009F829D82CA849D8AF28EF28C8D94040125
:10030000186B0401000E186F010E506F010E6C6F18
:10031000886FA00E346F8A9E00EF04F00400F29EF6
:10032000F29C000EAA6E000EA96EA69EA69CA68444
:10033000010EF86E400EF76E000EF66E100E1B6E7C
:100340000900F5CFA8FF8D82A198550EA76EAA0EC1
:10035000A76EA682A1A8FED70400A1988D921B2E9D
:10036000EFD7A694F28EF28C100E1B6E0400F29E54
:10037000F29C898A8D808D828D8408D8899A8D908F
:100380008D928D9407D81B2EF4D7FF000400040E25
:100390001E6E03D00400080E1E6E1C681D681D2E04
:0C03A000FED71C2EFBD71E2EF8D7120033
:0403AC000400030145
:1003B000948E949C060E12EC02F00101040001EEF2
:1003C00000F0EE6AE966FDD70201040002EE00F0DB
:1003D000EE6AE966FDD70301006B036B046B056BE6
:1003E000066B900EAB6E240EAC6E080EB86E12004B
:1003F0000301086B9DAA02D09D9A0881056B066BCC
:100400000097009308B19D8A12000301086B9DA814
:1004100002D09D980881036B046B0095009108B190
:100420009D88120003010400086F15ECA8F0B06E5F
:1004300008512AECA8F0AF6E12000301026F04000D
:10044000030102AF05D04D0E1AD82D0E18D8029F09
:100450007F0E026304D05E0E12D83F0E026F1B0E99
:10046000026302D0240E026F02AD02BB03D05E0E07
:1004700006D8028D025103D8120003010251040074
:100480000301076F00A110D0035104630DD0FAD708
:100490000301025104000301076F00A105D00351BD
:1004A000046302D00085120004C3E1FF010EE26E76
:1004B00007C3E7FF0081042B9D88120004000D0E86
:1004C000DEDF0A0EDCDF120002D801511200040048
:1004D000030100B302D0016B120005C3E1FF020E5D
:1004E000E26EE7CF01F3052B0551066301D00093BF
:1004F000120002D8015112000301040000A3FDD72D
:10050000E6D70301026F0400030102C308F30839B0
:1005100000ECA8F03FEC02F0085100ECA8F03FEC32
:1005200002F0120003010400200E0C6F126B136B1B
:10053000146B156B166BEACF0EF3E9CF0FF303EED6
:1005400012F0050E0D6F0400330EEF26EFB6F00B20
:10055000EFBE0F0BEE5E0D2FF6D71A37193718378F
:100560001737163715371437133712370C2FE7D7CD
:100570000EC3EAFF0FC3E9FF120004000301EACF34
:100580000EF3E9CF0FF3E2CF10F3E1CF11F303EE57
:1005900016F013EE1BF0050E0D6FEF500F0B300F22
:1005A000E56EED380F0B300FE56E0D2FF6D70EC34D
:1005B000EAFF0FC3E9FF10C3E2FF11C3E1FF12001E
:1005C0000400030100B102D09D981200E2CF0AF3AB
:1005D000E1CF0BF303C3E1FF010EE26EE7CFADFF06
:1005E000032B0351046301D000910AC3E2FF0BC344
:1005F000E1FF120004000301ABB41BD8ABB21BD85F
:1006000000A306D00551066303D00087AE50120048
:10061000E2CF0AF3E1CF0BF306C3E1FF020EE26E75
:10062000AECFE7FF0083062B0AC3E2FF0BC3E1FF57
:0E0630001200008B12000089AB98AB881200FC
:02063E00026E4A
:10064000D8CF00F0E0CF01F09EA803D0E0EC02F09C
:100650009E989EAA03D0FAEC02F09E9A01C0E0FF99
:10066000025000C0D8FF1000F2A414D05D0ED76E67
:100670003D0ED66EF294068C078C04C011F005C0B6
:1006800012F0151C05E0156605D01666160602D098
:10069000164A16689EA213D081BC03D0154A15686D
:1006A00002D01566150606AC07D0122E07D01166CB
:1006B00007D0069C068E136806BE068A9E9211001D
:0606C00011061268FBD7D1
:10080000040006BA6EEC0BF0030100BBE4D8030150
:1008100000B9F5D8030100B709D9030100A306D038
:1008200006B002D045D902D067EC02F006B483D8F6
:1008300006B08BD806A82CD006A226D015667AD092
:1008400006920680780E176E1868166A0401000E6C
:100850001B6F536B6F6B8B6B376B0401000E186F44
:10086000506B6C6B886B346B0401000E196F516B0D
:100870006D6B896B356B0401000E1A6F526B6E6BDA
:100880008A6B366B35D956D0161C54E1068252D08D
:1008900006A225D016664ED0069207B64BD0068823
:1008A0000401FF0E1B6F020E536F010E6F6F8B6FF3
:1008B000400E376F0401FF0E196F020E516F010ECB
:1008C0006D6F896F400E356F0401FF0E1A6F020EB7
:1008D000526F010E6E6F8A6F400E366F2BD0161C52
:1008E00029E106820401FF0E1B6FFF0E536F1E0EDF
:1008F0006F6F8B6F600E376F0401FF0E186FFF0E66
:10090000506F1E0E6C6F886F600E346F0401FF0E07
:10091000196FFF0E516F1E0E6D6F896F600E356F70
:100920000401FF0E1A6FFF0E526F1E0E6E6F8A6F5C
:10093000600E366F65D7030100B112009EA8120049
:10094000ACA2120006948A9012000400151C02E169
:10095000078A1BD0156619D007AA17D0079A077EF9
:10096000176807AE08D00401FF0E1A6F526B6E6B4A
:100970008A6B366B0AD00401000E1A6F010E526F9B
:10098000010E6E6F8A6FA00E366F07AE07AC1200B5
:10099000079C172E1200ACD8182A180E1860186A77
:1009A0003F0E18140A6E0A8C66D904011A6B196B73
:1009B000186B1B6B18B0196918B2186918B41B6949
:1009C0000401000E1A6F010E526F010E6E6F8A6FD6
:1009D000A00E366F12000301009B0401FF0E1A6F78
:1009E000FF0E526F1E0E6E6F8A6F600E366F04011F
:1009F000FF0E196F516B6D6B896B356B1200030124
:100A000000990401FF0E1A6FFF0E526F1E0E6E6FDB
:100A10008A6F600E366F0401FF0E196FFF0E516F63
:100A20001E0E6D6F896F600E356F12000401FF0E90
:100A30001A6FFF0E526F1E0E6E6F8A6F600E366F4A
:100A40000401000E196F010E516F010E6D6F896F59
:100A5000A00E356F086AF8EC01F01200230E106E3C
:100A60000401FF0E1A6FFF0E526F1E0E6E6F8A6F1B
:100A7000700E366F56EF05F0220E106E0401FF0E59
:100A80001A6FFF0E526F1E0E6E6F8A6F600E366FFA
:100A900056EF05F0200E106E0401FF0E1A6F010EC6
:100AA000526F200E6E6F8A6F400E366F086A12000A
:100AB000040079EC02F00400030101AFD4D0085027
:100AC00001E0CCDF0301040001510F0B03621200AF
:100AD0000401FF0E1B6F020E536F010E6F6F8B6FC1
:100AE000400E376F03010139070B02E0F2EF05F00A
:100AF0000401006B1C6B386B546B706B016B1D6BCE
:100B0000396B556B716B026B1E6B3A6B566B726B6C
:100B1000036B1F6B3B6B576B736B046B206B3C6BF6
:100B2000586B746B056B216B3D6B596B756B066B6A
:100B3000226B3E6B5A6B766B076B236B3F6B5B6B69
:100B4000776B086B246B406B5C6B786B096B256B68
:100B5000416B5D6B796B0A6B266B426B5E6B7A6BDC
:100B60000B6B276B436B5F6B7B6B0C6B286B446B66
:100B7000606B7C6B0D6B296B456B616B7D6B0E6BDA
:100B80002A6B466B626B7E6B0F6B2B6B476B636BD9
:100B90007F6B106B2C6B486B646B806B116B2D6BD8
:100BA000496B656B816B126B2E6B4A6B666B826B4C
:100BB000136B2F6B4B6B676B836B146B306B4C6BD6
:100BC000686B846B156B316B4D6B696B856B166B4A
:100BD000326B4E6B6A6B866B176B336B4F6B6B6B49
:100BE000876B1200096EE82C03D0010E086E12000C
:100BF000E82C03D0020E086E1200E82C03D0040E7D
:100C0000086E1200E82C03D0050E086E1200E82CC6
:100C100002D03CEF05F0E82C02D03CEF05F0E82CC8
:100C200003D0090E086E1200010E106E0401FF0EB3
:100C30001B6FFF0E536F1E0E6F6F8B6F600E376F43
:100C40000401FF0E196FFF0E516F1E0E6D6F896F3D
:100C5000600E356F0401000E1A6F526B6E6B8A6B5B
:100C6000366B086A12000400085001E1120001C34B
:100C70000AF0E82C12D064EC0BF014BC4AEF05F03B
:100C800014BE09D00ABC086A03D0E86A50EF0BF022
:100C9000E86850EF0BF04AEF05F0E82C09D064EC5F
:100CA0000BF014BC4AEF05F00ABC148C082A1200A1
:100CB000E82C29D014BE08D0D89014BCD8800A34AF
:100CC000086A0A5050EF0BF0020E106E0401FF0E7E
:100CD0001B6FFF0E536F1E0E6F6F8B6F600E376FA3
:100CE0000401FF0E196FFF0E516F1E0E6D6F896F9D
:100CF000600E356F0401000E1A6F526B6E6B8A6BBB
:100D0000366B086A1200E82C11D064EC0BF014BCAE
:100D10004AEF05F00ABC148C390E0B6E550E0C6EA2
:100D2000060E086E0D6A000E0E6E1200E82C0AD038
:100D300064EC0BF014BC4AEF05F00ABC148C070EEF
:100D4000086E1200E82C9AEF09F004000A500C62B9
:100D50008EEF09F00E5002E049EF07F0086A05EE49
:100D600000F014503F0BEF24E828180802E24AEF85
:100D700005F0EF280D648EEF09F014BC40D0EF2889
:100D8000E8280D624AEF05F014AE1FD0030E106E76
:100D90000401FF0E1B6FFF0E536F1E0E6F6F8B6FE4
:100DA000600E376F0401FF0E196FFF0E516F1E0E9C
:100DB0006D6F896F600E356F0401000E1A6F526BF4
:100DC0006E6B8A6B366B086A1200040005EE00F049
:100DD00014EE00F024EE1CF014503F0BE126D9264F
:100DE000EECF1BF01B2A1BC01DF0DE6AEECFE7FF23
:100DF000E74601E0E780012A1B2EF7D712001B6AA5
:100E00001C6A1B2A070E1C26EF281C5CFAE3EF283D
:100E1000E8281C6EE8281B240D5C02E08EEF09F028
:100E20001C50E926560EEF624AEF05F01C50CDDF4C
:100E30000400560EEE624AEF05F014EE00F0145076
:100E40003F0BE126EFACE790012A1D4E20D0EFAA20
:100E5000E790012A1D4E1BD0EFA8E790012A1D4EF6
:100E600016D0EFA6E790012A1D4E11D0EFA4E7900F
:100E7000012A1D4E0CD0EFA2E790012A1D4E07D08B
:100E8000EFA0E790012A1D4E02D0E92ADBD7086ABD
:100E90001200E82E11D0030E0D5C02E28EEF09F075
:100EA00002E04AEF05F005EE02F0ED503A0802E0EC
:100EB0004AEF05F0086A1200E82E2CD0010E0D5CF6
:100EC00002E28EEF09F002E04AEF05F005EE00F0D5
:100ED0000B0EEF5C02E34AEF05F0F29EF29C000E6F
:100EE000AA6E010EA96EA69EA69CA684EFCFA8FFAF
:100EF000A198550EA76EAA0EA76EA682A1A8FED72E
:100F00000400A198A694F28EF28CEF5012EC02F03D
:100F1000086A1200E82E3AD0010E0D5C02E28EEF54
:100F200009F002E04AEF05F005EE00F0240EEF6252
:100F30004AEF05F08EEF01F0700E106E0401FF0E07
:100F40001B6FFF0E536F1E0E6F6F8B6F600E376F30
:100F50000401FF0E196FFF0E516F1E0E6D6F896F2A
:100F6000600E356F0401FF0E1A6FFF0E526F1E0EDA
:100F70006E6F8A6F600E366F0401000E186F506B33
:100F80006C6B886B346B086A1200FFD7E82E3FD079
:100F9000020E0D5C02E28EEF09F002E04AEF05F06E
:100FA00005EE01F0500EED624AEF05F0EFCF05F0CF
:100FB0000FB0058E046A0FB20480F29EF29C000E00
:100FC000AA6E030EA96EA69EA69CA68404C0A8FFC6
:100FD000A198550EA76EAA0EA76EA682A1A8FED74D
:100FE0000400A198000EAA6E040EA96E05C0A8FF09
:100FF000A198550EA76EAA0EA76EA682A1A8FED72D
:101000000400A198A694F28EF28C086A1200E82ED1
:101010002FD0020E0D5C02E28EEF09F002E04AEFE3
:1010200005F005EE01F0410EED624AEF05F0490EC4
:10103000EF624AEF05F00F500F0B036EF29EF29C29
:10104000000EAA6E020EA96EA69EA69CA68403C0E0
:10105000A8FFA198550EA76EAA0EA76EA682A1A8FA
:10106000FED70400A198A694F28EF28C086A1200B2
:10107000E82E30D0010E0D5C02E28EEF09F002E0A6
:101080004AEF05F005EE00F05A0EEF624AEF05F068
:10109000086A8A8E0401FF0E186FFF0E506F1E0E35
:1010A0006C6F886F700E346F0401FF0E196FFF0EA6
:1010B000516F1E0E6D6F896F700E356F0401FF0E3C
:1010C0001A6FFF0E526F1E0E6E6F8A6F700E366FA4
:1010D00006861200E82E2CD0010E0D5C02E28EEF87
:1010E00009F002E04AEF05F005EE00F05A0EEF625B
:1010F0004AEF05F0086A8A9E0401000E186F010E7F
:10110000506F010E6C6F886FA00E346F0401000EDB
:10111000196F516B6D6B896B356B0401000E1A6F83
:10112000526B6E6B8A6B366B069619681A681200E2
:10113000E82E10D0010E0D5C02E28EEF09F002E005
:101140004AEF05F005EE00F0580EEF624AEF05F0A9
:10115000BDEF0FF0E82E88D0010E0D5C02E28EEF9D
:1011600009F002E04AEF05F005EE00F0240EEF6210
:101170004AEF05F081800350F0094AEC02F01F0E9F
:101180004AEC02F0300E4AEC02F0000E4AEC02F09B
:10119000E86A4AEC02F0E86A06B8E88406B6E88233
:1011A0004AEC02F0E86A07B6E88404B0E88205BEBB
:1011B000E8804AEC02F00550E89E4AEC02F0E86A4A
:1011C0004AEC02F0E86A4AEC02F0E86A4AEC02F003
:1011D000E86A4AEC02F0010E4AEC02F0E86A4AECD6
:1011E00002F0000E4AEC02F0000E4AEC02F0000E93
:1011F0004AEC02F0000E4AEC02F0010E4AEC02F05A
:10120000000E4AEC02F0000E4AEC02F0000E4AEC2E
:1012100002F0020E4AEC02F0000E4AEC02F0000E60
:101220004AEC02F0000E4AEC02F0030E4AEC02F027
:10123000000E4AEC02F0000E4AEC02F0000E4AECFE
:1012400002F01050106A4AEC02F0E86A4AEC02F030
:10125000E86A4AEC02F0E86A4AEC02F0330E4AEC23
:1012600002F00684086A1200E82E0CD0040E0D5C11
:1012700002E28EEF09F002E04AEF05F005EE00F021
:101280003CEF05F0E82E10D0010E0D5C02E28EEF6F
:1012900009F002E04AEF05F005EE00F0430EEF62C0
:1012A0004AEF05F03CEF05F0E82E18D00D5002E1B2
:1012B0008EEF09F005EE00F0EF28E828E8280D5C35
:1012C00002E28EEF09F002E04AEF05F00D04E92694
:1012D000440EEF624AEF05F03CEF05F0050E106E8C
:1012E0000401FF0E1B6FFF0E536F1E0E6F6F8B6F8F
:1012F000600E376F0401FF0E196FFF0E516F1E0E47
:101300006D6F896F600E356F0401000E1A6F526B9E
:101310006E6B8A6B366B086A120012000D500B64FC
:101320004AEF05F005EE00F00D50E9260AC0EFFF88
:101330000D2A1200E82C04D00A280F6E082A120089
:10134000E82C38D00A2A14BE16D004EE1CF0145033
:101350003F0BE926EF6A14BCEF8E14ACEF8C1C0E29
:10136000E9260FC0EFFFE9260AC0EFFFE9260AC011
:10137000EFFF086A1200060E106E0401FF0E1B6FCD
:10138000FF0E536F1E0E6F6F8B6F600E376F040171
:10139000FF0E196FFF0E516F1E0E6D6F896F600E7D
:1013A000356F0401000E1A6F526B6E6B8A6B366BD1
:1013B000086A1200E82CBBD00ABC5CD00ABA58D02C
:1013C0000A500AE1020E0B6E5A0E0C6E060E086EE3
:1013D0000D6A060E0E6E1200E82C0AD0020E0B6E7D
:1013E0005A0E0C6E060E086E0D6A070E0E6E120077
:1013F000E82C0AD0020E0B6E590E0C6E060E086E0B
:101400000D6A080E0E6E1200E82C0AD0020E0B6E4A
:10141000540E0C6E060E086E0D6A090E0E6E12004A
:10142000E82C03D00E0E086E1200E82C03D00F0E2D
:10143000086E1200E82C0AD0050E0B6E3C0E0C6EE6
:10144000060E086E0D6A0A0E0E6E1200E82C03D00E
:10145000100E086E1200E82C4AEF05F0020E0B6E1B
:10146000410E0C6E060E086E0D6A0B0E0E6E12000B
:101470004AEF05F006B804D0210E106E56EF05F0C5
:101480000AAA3DD00AA847D00F0E0A140DE106980B
:101490000401000E186F010E506F010E6C6F886F03
:1014A000A00E346F086A1200E82C0AD0040E0B6EEE
:1014B0003D0E0C6E060E086E0D6A010E0E6E1200C9
:1014C000E82C0AD0020E0B6E260E0C6E060E086E6D
:1014D0000D6A020E0E6E1200E82C0AD0020E0B6E80
:1014E000720E0C6E060E086E0D6A030E0E6E120062
:1014F000E82C03D0078647EF0AF04AEF05F00AC050
:101500000FF0030E0B6E4F0E0C6E060E086E0D6A7A
:10151000040E0E6E12000AC00FF0030E0B6E440E86
:101520000C6E060E086E0D6A050E0E6E1200E82C8B
:101530001FD0080E106E0401FF0E1B6FFF0E536FBD
:101540001E0E6F6F8B6F600E376F0401FF0E196FE9
:10155000FF0E516F1E0E6D6F896F600E356F0401A7
:10156000000E1A6F526B6E6B8A6B366B086A120034
:10157000E82C1FD00B0E106E0401FF0E1B6FFF0E28
:10158000536F1E0E6F6F8B6F600E376F0401FF0E6F
:10159000196FFF0E516F1E0E6D6F896F600E356FE4
:1015A0000401000E1A6F526B6E6B8A6B366B086A01
:1015B0001200E82C1FD00C0E106E0401FF0E1B6FE2
:1015C000FF0E536F1E0E6F6F8B6F600E376F04012F
:1015D000FF0E196FFF0E516F1E0E6D6F896F600E3B
:1015E000356F0401000E1A6F526B6E6B8A6B366B8F
:1015F000086A1200E82C1FD00D0E106E0401FF0EB9
:101600001B6FFF0E536F1E0E6F6F8B6F600E376F69
:101610000401FF0E196FFF0E516F1E0E6D6F896F63
:10162000600E356F0401000E1A6F526B6E6B8A6B81
:10163000366B086A1200E82C0CD00AC00FF0830E3B
:101640000B6E730E0C6E060E086E0D6A0C0E0E6E8F
:101650001200E82C02D03CEF05F0E82C02D03CEF61
:1016600005F00E0E106E0401FF0E1B6FFF0E536F80
:101670001E0E6F6F8B6F600E376F0401FF0E196FB8
:10168000FF0E516F1E0E6D6F896F600E356F040176
:10169000000E1A6F526B6E6B8A6B366B086A120003
:1016A0000400149E149C1E6E04EE00F01450E926F3
:1016B0001EC0EFFF1C0EE926EF6AE926EF6AE92655
:1016C000EF6AE926EF6A120004003F0E0A14146E56
:1016D000170E14641200148C148E120004000401FE
:1016E000069A135056E0006301D08A9A016301D034
:1016F0008A98026301D08A96036301D08A940463B6
:1017000001D08A92056301D08C9E066301D08C9C27
:10171000076301D08C9A086301D08C98096301D0CB
:101720008B9A0A6301D08B980B6301D08C960C6363
:1017300001D08C940D6301D08C920E6301D08C90FB
:101740000F6301D08B96106301D08B94116301D08D
:101750008B92126301D08B90136301D0899814632C
:1017600001D08996156301D08994166301D08992BE
:10177000176301D08990186301D08D80196301D05F
:101780008D821A6301D08D841B6301D0898A130670
:10179000120004010788001D01E08A8A006707988B
:1017A0001CAF0DD0702F1AD054C470F438510027DC
:1017B00015E300691C9F1CAB11D01C8D0FD01CAD14
:1017C0000DD0702F0BD054C470F43851005F06E276
:1017D000006B1C9D1CBB1C8F1CB97069011D01E0B6
:1017E0008A88016707981DAF0DD0712F1AD055C494
:1017F00071F43951012715E301691D9F1DAB11D00B
:101800001D8D0FD01DAD0DD0712F0BD055C471F4AF
:101810003951015F06E2016B1D9D1DBB1D8F1DB976
:101820007169021D01E08A86026707981EAF0DD01C
:10183000722F1AD056C472F43A51022715E3026986
:101840001E9F1EAB11D01E8D0FD01EAD0DD0722F5E
:101850000BD056C472F43A51025F06E2026B1E9D31
:101860001EBB1E8F1EB97269031D01E08A840367C7
:1018700007981FAF0DD0732F1AD057C473F43B5184
:10188000032715E303691F9F1FAB11D01F8D0FD0D6
:101890001FAD0DD0732F0BD057C473F43B51035FB2
:1018A00006E2036B1F9D1FBB1F8F1FB97369041DC9
:1018B00001E08A820467079820AF0DD0742F1AD0F8
:1018C00058C474F43C51042715E30469209F20ABED
:1018D00011D0208D0FD020AD0DD0742F0BD058C457
:1018E00074F43C51045F06E2046B209D20BB208F02
:1018F00020B97469051D01E08C8E0567079821AF3A
:101900000DD0752F1AD059C475F43D51052715E334
:101910000569219F21AB11D0218D0FD021AD0DD0B4
:10192000752F0BD059C475F43D51055F06E2056B68
:10193000219D21BB218F21B97569061D01E08C8C89
:101940000667079822AF0DD0762F1AD05AC476F4C6
:101950003E51062715E30669229F22AB11D0228D46
:101960000FD022AD0DD0762F0BD05AC476F43E5155
:10197000065F06E2066B229D22BB228F22B97669A2
:10198000071D01E08C8A0767079823AF0DD0772FDA
:101990001AD05BC477F43F51072715E30769239FEB
:1019A00023AB11D0238D0FD023AD0DD0772F0BD0CB
:1019B0005BC477F43F51075F06E2076B239D23BBAF
:1019C000238F23B97769081D01E08C880867079881
:1019D00024AF0DD0782F1AD05CC478F4405108277A
:1019E00015E30869249F24AB11D0248D0FD024ADBA
:1019F0000DD0782F0BD05CC478F44051085F06E21C
:101A0000086B249D24BB248F24B97869091D01E04B
:101A10008B8A0967079825AF0DD0792F1AD05DC43E
:101A200079F44151092715E30969259F25AB11D0A8
:101A3000258D0FD025AD0DD0792F0BD05DC479F455
:101A40004151095F06E2096B259D25BB258F25B90C
:101A500079690A1D01E08B880A67079826AF0DD0C7
:101A60007A2F1AD05EC47AF442510A2715E30A6924
:101A7000269F26AB11D0268D0FD026AD0DD07A2F04
:101A80000BD05EC47AF442510A5F06E20A6B269DCF
:101A900026BB268F26B97A690B1D01E08C860B6761
:101AA000079827AF0DD07B2F1AD05FC47BF443512A
:101AB0000B2715E30B69279F27AB11D0278D0FD07C
:101AC00027AD0DD07B2F0BD05FC47BF443510B5F50
:101AD00006E20B6B279D27BB278F27B97B690C1D5F
:101AE00001E08C840C67079828AF0DD07C2F1AD0AA
:101AF00060C47CF444510C2715E30C69289F28AB83
:101B000011D0288D0FD028AD0DD07C2F0BD060C404
:101B10007CF444510C5F06E20C6B289D28BB288F97
:101B200028B97C690D1D01E08C820D67079829AFEB
:101B30000DD07D2F1AD061C47DF445510D2715E3DA
:101B40000D69299F29AB11D0298D0FD029AD0DD05A
:101B50007D2F0BD061C47DF445510D5F06E20D6B06
:101B6000299D29BB298F29B97D690E1D01E08C8033
:101B70000E6707982AAF0DD07E2F1AD062C47EF46C
:101B800046510E2715E30E692A9F2AAB11D02A8DE4
:101B90000FD02AAD0DD07E2F0BD062C47EF44651FB
:101BA0000E5F06E20E6B2A9D2ABB2A8F2AB97E6938
:101BB0000F1D01E08B860F6707982BAF0DD07F2F8D
:101BC0001AD063C47FF447510F2715E30F692B9F89
:101BD0002BAB11D02B8D0FD02BAD0DD07F2F0BD079
:101BE00063C47FF447510F5F06E20F6B2B9D2BBB45
:101BF0002B8F2BB97F69101D01E08B84106707982C
:101C00002CAF0DD0802F1AD064C480F44851102717
:101C100015E310692C9F2CAB11D02C8D0FD02CAD5F
:101C20000DD0802F0BD064C480F44851105F06E2C1
:101C3000106B2C9D2CBB2C8F2CB98069111D01E0E1
:101C40008B82116707982DAF0DD0812F1AD065C4F4
:101C500081F44951112715E311692D9F2DAB11D046
:101C60002D8D0FD02DAD0DD0812F0BD065C481F4FB
:101C70004951115F06E2116B2D9D2DBB2D8F2DB9A2
:101C80008169121D01E08B80126707982EAF0DD07D
:101C9000822F1AD066C482F44A51122715E31269C2
:101CA0002E9F2EAB11D02E8D0FD02EAD0DD0822FAA
:101CB0000BD066C482F44A51125F06E2126B2E9D6D
:101CC0002EBB2E8F2EB98269131D01E08988136700
:101CD00007982FAF0DD0832F1AD067C483F44B51D0
:101CE000132715E313692F9F2FAB11D02F8D0FD022
:101CF0002FAD0DD0832F0BD067C483F44B51135FEE
:101D000006E2136B2F9D2FBB2F8F2FB98369141DF4
:101D100001E089861467079830AF0DD0842F1AD060
:101D200068C484F44C51142715E31469309F30AB18
:101D300011D0308D0FD030AD0DD0842F0BD068C4B2
:101D400084F44C51145F06E2146B309D30BB308F2D
:101D500030B98469151D01E089841567079831AF92
:101D60000DD0852F1AD069C485F44D51152715E380
:101D70001569319F31AB11D0318D0FD031AD0DD000
:101D8000852F0BD069C485F44D51155F06E2156BA4
:101D9000319D31BB318F31B98569161D01E08982D2
:101DA0001667079832AF0DD0862F1AD06AC486F412
:101DB0004E51162715E31669329F32AB11D0328D82
:101DC0000FD032AD0DD0862F0BD06AC486F44E51A1
:101DD000165F06E2166B329D32BB328F32B98669CE
:101DE000171D01E089801767079833AF0DD0872F43
:101DF0001AD06BC487F44F51172715E31769339F27
:101E000033AB11D0338D0FD033AD0DD0872F0BD026
:101E10006BC487F44F51175F06E2176B339D33BBDA
:101E2000338F33B98769181D01E08D9018670798C3
:101E300034AF0DD0882F1AD06CC488F450511827B5
:101E400015E31869349F34AB11D0348D0FD034AD05
:101E50000DD0882F0BD06CC488F45051185F06E267
:101E6000186B349D34BB348F34B98869191D01E077
:101E70008D921967079835AF0DD0892F1AD06DC490
:101E800089F45151192715E31969359F35AB11D0E4
:101E9000358D0FD035AD0DD0892F0BD06DC489F4A1
:101EA0005151195F06E2196B359D35BB358F35B938
:101EB00089691A1D01E08D941A67079836AF0DD015
:101EC0008A2F1AD06EC48AF452511A2715E31A6960
:101ED000369F36AB11D0368D0FD036AD0DD08A2F50
:101EE0000BD06EC48AF452511A5F06E21A6B369D0B
:101EF00036BB368F36B98A691B1D01E0899A1B678C
:101F0000079837AF0DD08B2F1AD06FC48BF4535175
:101F10001B2715E31B69379F37AB11D0378D0FD0C7
:101F200037AD0DD08B2F0BD06FC48BF453511B5F8B
:101F300006E21B6B379D37BB378F37B98B69069E1F
:101F400007A809D01A2E12001A68192E120006A628
:101F500049EC08F0120006B67BEC08F019681A6824
:101F600012009EBAAE50ABA4FCD7AE509EAAFED7CC
:101F7000ABB4FCD7AE50FF0BF4E178EC05F00401F4
:101F8000000E186F506B6C6B886B346B0401000E85
:101F9000196F516B6D6B896B356B0401000E1A6FF5
:101FA000526B6E6B8A6B366B0401000E1B6F536BAA
:0E1FB0006F6B8B6B376B040003008D74FCD7D6
:020000040001F9
:10400000FF06000002000000000000000000004267
:105000000F0BE846F9CF09F3F926300C310C320CBE
:10501000330C340C350C360C370C380C390C410C75
:10502000420C430C440C450C460C0F0BE846F9CFE0
:1050300009F3F926820C420C200C100C080C040C0D
:10504000020C010C000C000C000C020C020C020CF7
:10505000020C020C0F0BE846F9CF09F3F926340CC9
:10506000190C8C0C450C220C100C070C030CAC0C0E
:0E507000550C270C070C070C070C070C070C3F
:020000040030CA
:0100010006F8
:0100020019E4
:0100030015E7
:01000500807A
:010006008178
:010008003FB8
:01000900C036
:01000A003FB6
:01000B00E014
:01000C003FB4
:01000D0040B2
:0200000400F00A
:10000000FF060000020000000000000000000042A7
:00000001FF
