:020000040000FA
:0600000004009AEF00F07D
:020006000000F8
:06000800040041EF03F0CB
:0600180004002CEF03F0D0
:02001E000400DC
:10002000400ED36E9F0ED06E000EF26EB40EF16EC7
:10003000000EF06E000E9D6E000EA06E000EA36E00
:10004000020E9F6E000EA26E000EA56E9E6AA16A41
:10005000A46A3C0EC26E0F0EC16EC06AB56A1F0E56
:10006000806EBE0E816E3F6E826E8368846AC00EA3
:10007000926E410E936EC00E946E956A966A100E43
:10008000D56ED76AD66A800ECD6ECF6ACE6A080E5C
:10009000CA6ECC6ACB6A800EB16EB36AB26AD26A9B
:1000A000200E6E6EBD6ABA6AB46A010ED16E12007D
:100100008D8455D98D8053D98D9451D98D904FD9E7
:1001100012008D8448D98D8046D98D8244D9898A30
:1001200042D98D9440D98D903ED98D923CD9899AEF
:100130003AD912000400FC6A0FEC00F089EC00F0E0
:10014000E3EC01F08D840400AA6AA96AA69EA69C2D
:10015000A694A680FF0EA862ECD00F0EA96EA68012
:10016000420EA862E6D00400A1988D948D82A694D8
:10017000A69EA69CAA6A010EA96EA680A8501FEC96
:1001800002F0A92AA680A8CF03F0A92AA680A8CFAA
:1001900004F0A92AA680A8CF05F0A92AA680A8CF96
:1001A00008F0A92AA680A8CF09F0089CA96A8D802A
:1001B0009F989F9A0400066A076A0A6A800E176E63
:1001C000186A1B681C680401006B1C6B386B546B4D
:1001D000706B016B1D6B396B556B716B026B1E6B1A
:1001E0003A6B566B726B036B1F6B3B6B576B736B8E
:1001F000046B206B3C6B586B746B056B216B3D6B18
:10020000596B756B066B226B3E6B5A6B766B076B8B
:10021000236B3F6B5B6B776B086B246B406B5C6B8A
:10022000786B096B256B416B5D6B796B0A6B266B89
:10023000426B5E6B7A6B0B6B276B436B5F6B7B6BFD
:100240000C6B286B446B606B7C6B0D6B296B456B87
:10025000616B7D6B0E6B2A6B466B626B7E6B0F6BFB
:100260002B6B476B636B7F6B106B2C6B486B646BFA
:10027000806B116B2D6B496B656B816B126B2E6BF9
:100280004A6B666B826B136B2F6B4B6B676B836B6D
:10029000146B306B4C6B686B846B156B316B4D6BF7
:1002A000696B856B166B326B4E6B6A6B866B176B6B
:1002B000336B4F6B6B6B876B186B346B506B6C6B6A
:1002C000886B196B356B516B6D6B896B1A6B366B69
:1002D000526B6E6B8A6B1B6B376B536B6F6B8B6BDD
:1002E0008D84F2888D929F0ECB6ECC6A9F829E92F7
:1002F0009D82CA849D8A9E6AA16AA46AF294F2923F
:10030000F28EF28C8D940401186B0401000E186FAC
:10031000010E506F010E6C6F886FA00E346F8A9EB5
:1003200008AE00EF04F00A0E1FEC02F0088C00EF9C
:1003300004F00400F29EF29C000EAA6E000EA96E5C
:10034000A69EA69CA684010EF86E400EF76E000EC7
:10035000F66E100E1E6E0900F5CFA8FF8D82A198D3
:10036000550EA76EAA0EA76EA682A1A8FED70400FE
:10037000A1988D921E2EEFD7A694F28EF28CAA6AC7
:10038000A96A100E1E6E0400F29EF29C898A8D806E
:100390008D828D8408D8899A8D908D928D9407D8FE
:1003A0001E2EF4D7FF000400040E216E03D00400BB
:1003B000080E216E1F682068202EFED71F2EFBD747
:0603C000212EF8D7120007
:0A03C60004000301948E949C060EBF
:1003D0001FEC02F00101040001EE00F0EE6AE96694
:1003E000FDD70201040002EE00F0EE6AE966FDD7D7
:1003F0000301006B036B046B056B066B900EAB6E19
:10040000240EAC6E080EB86E12000301086B9DAA94
:1004100002D09D9A0881056B066B0097009308B186
:100420009D8A12000301086B9DA802D09D98088147
:10043000036B046B0095009108B19D8812000301C5
:100440000400086F15ECA8F0B06E08512AECA8F073
:10045000AF6E12000301026F0400030102AF05D06A
:100460004D0E1AD82D0E18D8029F7F0E026304D0AD
:100470005E0E12D83F0E026F1B0E026302D0240ED6
:10048000026F02AD02BB03D05E0E06D8028D025190
:1004900003D812000301025104000301076F00A1F9
:1004A00010D0035104630DD0FAD7030102510400A8
:1004B0000301076F00A105D00351046302D000853A
:1004C000120004C3E1FF010EE26E07C3E7FF0081E3
:1004D000042B9D88120004000D0EDEDF0A0EDCDF07
:1004E000120002D8015112000400030100B302D02F
:1004F000016B120005C3E1FF020EE26EE7CF01F3CC
:10050000052B0551066301D00093120002D801515A
:1005100012000301040000A3FDD7E6D70301026F18
:100520000400030102C308F3083900ECA8F04CEC06
:1005300002F0085100ECA8F04CEC02F012000301AC
:100540000400200E0C6F126B136B146B156B166B83
:10055000EACF0EF3E9CF0FF303EE12F0050E0D6FA5
:100560000400330EEF26EFB6F00BEFBE0F0BEE5E7E
:100570000D2FF6D71A37193718371737163715379B
:100580001437133712370C2FE7D70EC3EAFF0FC308
:10059000E9FF120004000301EACF0EF3E9CF0FF3E5
:1005A000E2CF10F3E1CF11F303EE16F013EE1BF0E0
:1005B000050E0D6FEF500F0B300FE56EED380F0B82
:1005C000300FE56E0D2FF6D70EC3EAFF0FC3E9FF1C
:1005D00010C3E2FF11C3E1FF12000400030100B1E8
:1005E00002D09D981200E2CF0AF3E1CF0BF303C3D0
:1005F000E1FF010EE26EE7CFADFF032B0351046371
:1006000001D000910AC3E2FF0BC3E1FF1200040016
:100610000301ABB41BD8ABB21BD800A306D0055165
:10062000066303D00087AE501200E2CF0AF3E1CF99
:100630000BF306C3E1FF020EE26EAECFE7FF0083CD
:10064000062B0AC3E2FF0BC3E1FF1200008B12006E
:080650000089AB98AB88120091
:08065800026ED8CF00F0E0CFE4
:1006600001F09EA803D0EDEC02F09E989EAA03D064
:1006700007EC03F09E9A01C0E0FF025000C0D8FFD3
:100680001000F2A210D0F292068C078C04C013F076
:1006900005C014F0171C05E0176605D0186618068B
:1006A00002D0184A18689EA213D081BC03D0174A02
:1006B000176802D01766170606AC07D0142E07D0AD
:1006C000136607D0069C068E156806BE068A9E92A3
:0806D000110013061468FBD7AA
:10080000040006BABEEC10F0030100BB3BD90301A3
:1008100000B950D9030100B764D9030100A306D081
:1008200006B002D0A0D902D074EC02F006B4A9D868
:1008300006B0DED806A838D006A232D01766A0D0FF
:1008400006920680780E196E1A68186A0401000E66
:100850001B6F536B6F6B8B6B376B0401000E186F44
:10086000506B6C6B886B346B0401000E196F516B0D
:100870006D6B896B356B0401000E1A6F526B6E6BDA
:100880008A6B366BF00E57EC02F0210E57EC02F03B
:10089000000E57EC02F0000E57EC02F08AD970D02F
:1008A000181C6EE106826CD006A233D0186668D0A0
:1008B000069207B665D006880401FF0E1B6F020E74
:1008C000536F010E6F6F8B6F400E376F0401FF0E79
:1008D000196F020E516F010E6D6F896F400E356FEB
:1008E0000401FF0E1A6F020E526F010E6E6F8A6FB7
:1008F000400E366FF00E57EC02F0210E57EC02F06E
:10090000280E57EC02F0000E57EC02F02DEC15F01B
:1009100037D0181C35E106820401FF0E1B6FFF0E55
:10092000536F1E0E6F6F8B6F600E376F0401FF0EDB
:10093000186FFF0E506F1E0E6C6F886F600E346F55
:100940000401FF0E196FFF0E516F1E0E6D6F896F40
:10095000600E356F0401FF0E1A6FFF0E526F1E0EF0
:100960006E6F8A6F600E366FF00E57EC02F0210E3C
:1009700057EC02F02D0E57EC02F0050E57EC02F08A
:100980003FD7110E126E0401FF0E1B6FFF0E536F47
:100990001E0E6F6F8B6F600E376F0401FF0E196FA5
:1009A000FF0E516F1E0E6D6F896F600E356F040163
:1009B000000E1A6F526B6E6B8A6B366BF00E57EC33
:1009C00002F0210E57EC02F0380E57EC02F0050E43
:1009D00057EC02F00A6A12000301040000B1FED7CE
:1009E00004009EA8FED70400ACA2FED704001200AB
:1009F0000400171C02E1078A15D0176613D007AA56
:100A000011D0079A077E1968F00E57EC02F0210EFC
:100A100057EC02F03F0E57EC02F0010E07AE020E4B
:100A200057EC02F007AE07AC1200079C192E12001B
:100A3000780E196EBED81A2A300E1A601A6A3F0E46
:100A40001A140C6E0C8CA4D904011A6B196B186B58
:100A50001B6B1AB41A691AB619691AB818691ABA46
:100A60001B69F00E57EC02F0210E57EC02F0E86A19
:100A70001AB2E8861AB0E88057EC02F0020E57EC82
:100A800002F012000301009B08BE12D00401FF0E09
:100A90001A6FFF0E526F1E0E6E6F8A6F600E366FEA
:100AA0000401FF0E196F516B6D6B896B356B120072
:100AB000088A1200030100990401FF0E1A6FFF0E4D
:100AC000526F1E0E6E6F8A6F600E366F0401FF0E3E
:100AD000196FFF0E516F1E0E6D6F896F600E356FAF
:100AE00012000401FF0E1A6FFF0E526F1E0E6E6F82
:100AF0008A6F600E366F0401000E196F010E516F80
:100B0000010E6D6F896FA00E356F0A6A05EC02F059
:100B10001200230E126E0401FF0E1A6FFF0E526FA9
:100B20001E0E6E6F8A6F700E366FB1EF05F0220EDB
:100B3000126E0401FF0E1A6FFF0E526F1E0E6E6FC3
:100B40008A6F600E366FB1EF05F0200E126E040151
:100B5000FF0E1A6F010E526F200E6E6F8A6F400EDD
:100B6000366F0A6A12000400078486EC02F008BCA3
:100B70006BEF15F00400030101AFEFD0079207906F
:100B80000A5001E0C6DF0301040001510F0B0362AC
:100B900012000401FF0E1B6F020E536F010E6F6FE8
:100BA0008B6F400E376F03010139070B02E060EFD6
:100BB00006F00401006B1C6B386B546B706B016B9F
:100BC0001D6B396B556B716B026B1E6B3A6B566B01
:100BD000726B036B1F6B3B6B576B736B046B206B00
:100BE0003C6B586B746B056B216B3D6B596B756B74
:100BF000066B226B3E6B5A6B766B076B236B3F6BFE
:100C00005B6B776B086B246B406B5C6B786B096B71
:100C1000256B416B5D6B796B0A6B266B426B5E6B70
:100C20007A6B0B6B276B436B5F6B7B6B0C6B286B6F
:100C3000446B606B7C6B0D6B296B456B616B7D6BE3
:100C40000E6B2A6B466B626B7E6B0F6B2B6B476B6D
:100C5000636B7F6B106B2C6B486B646B806B116BE1
:100C60002D6B496B656B816B126B2E6B4A6B666BE0
:100C7000826B136B2F6B4B6B676B836B146B306BDF
:100C80004C6B686B846B156B316B4D6B696B856B53
:100C9000166B326B4E6B6A6B866B176B336B4F6BDD
:100CA0006B6B876B800E57EC02F00401FF0E196F1F
:100CB000020E516F010E6D6F896F400E356F12007D
:100CC0000B6EE82C03D0010E0A6E1200E82C03D044
:100CD000020E0A6E1200E82C03D0040E0A6E1200F7
:100CE000E82C03D0050E0A6E1200E82C02D097EF14
:100CF00005F0E82C02D097EF05F0E82C03D0090EA0
:100D00000A6E1200010E126E0401FF0E1B6FFF0E21
:100D1000536F1E0E6F6F8B6F600E376F0401FF0EE7
:100D2000196FFF0E516F1E0E6D6F896F600E356F5C
:100D30000401000E1A6F526B6E6B8A6B366BF00EED
:100D400057EC02F0210E57EC02F0280E57EC02F09F
:100D5000000E57EC02F00A6A1200040007A203D04A
:100D6000018F07920ED007A002D007900AD07E0E06
:100D7000016302D0078212007F0E016302D0078058
:100D800012000A5001E1120001C30CF0E82C3FD020
:100D9000B1EC10F00A6A16BCA5EF05F016BE08D03B
:100DA0000CBC03D0E86A9DEF10F0E8689DEF10F0EE
:100DB000900E57EC02F016503F0B0CBCE88C1D6EE9
:100DC0007F0E1D6206D057EC02F07F0E57EC02F04A
:100DD00013D07E0E1D6207D07F0E57EC02F07E0E00
:100DE00057EC02F009D01DAE04D07E0E57EC02F095
:100DF0001D9E1D5057EC02F00401FF0E196F020EEC
:100E0000516F010E6D6F896F400E356F1200E82C27
:100E100009D0B1EC10F016BCA5EF05F00CBC168C97
:100E20000A2A1200E82C55D016BE07D0D89016BC5E
:100E3000D8800C340A6A9DEF10F0A00E57EC02F037
:100E4000169E16501D6E7F0E1D6206D057EC02F0E6
:100E50007F0E57EC02F013D07E0E1D6207D07F0E7E
:100E600057EC02F07E0E57EC02F009D01DAE04D014
:100E70007E0E57EC02F01D9E1D5057EC02F00C50F8
:100E80001D6E7F0E1D6206D057EC02F07F0E57ECF0
:100E900002F013D07E0E1D6207D07F0E57EC02F0D9
:100EA0007E0E57EC02F009D01DAE04D07E0E57EC3A
:100EB00002F01D9E1D5057EC02F00A6A0401FF0E5D
:100EC000196F020E516F010E6D6F896F400E356FF5
:100ED0001200E82C11D0B1EC10F016BCA5EF05F013
:100EE0000CBC168C390E0D6E550E0E6E060E0A6E6B
:100EF0000F6A000E106E1200E82C0AD0B1EC10F050
:100F000016BCA5EF05F00CBC168C070E0A6E12007D
:100F1000E82C1DEF0EF004000C500E6211EF0EF0E5
:100F2000105002E051EF0AF00A6A05EE00F0165088
:100F30003F0BEF24E828300802E2A5EF05F0EF2888
:100F40000F6411EF0EF016BCE9D0EF28E8280F620D
:100F5000A5EF05F00A6A16AE52D004000401FF0E98
:100F6000196F020E516F010E6D6F896F400E356F54
:100F7000B00E57EC02F016501D6E7F0E1D6206D0AB
:100F800057EC02F07F0E57EC02F013D07E0E1D627C
:100F900007D07F0E57EC02F07E0E57EC02F009D01E
:100FA0001DAE04D07E0E57EC02F01D9E1D5057EC76
:100FB00002F005EE00F0EE501D6E7F0E1D6206D0B1
:100FC00057EC02F07F0E57EC02F013D07E0E1D623C
:100FD00007D07F0E57EC02F07E0E57EC02F009D0DE
:100FE0001DAE04D07E0E57EC02F01D9E1D5057EC36
:100FF00002F00F2EE0D7550E57EC02F0120004005D
:1010000005EE00F014EE00F024EE1CF016503F0B3D
:10101000E126D9261808216EEECF1EF01E2A1EC02A
:1010200020F0DE6AEECFE7FFE74601E0E780012A25
:10103000214E03D01E2EF5D712001E4E12000401C1
:10104000FF0E196F020E516F010E6D6F896F400E0A
:10105000356FB00E57EC02F0E86A16BCE88C1D6ED6
:101060007F0E1D6206D057EC02F07F0E57EC02F0A7
:1010700013D07E0E1D6207D07F0E57EC02F07E0E5D
:1010800057EC02F009D01DAE04D07E0E57EC02F0F2
:101090001D9E1D5057EC02F01E041D6E7F0E1D623A
:1010A00006D057EC02F07F0E57EC02F013D07E0E04
:1010B0001D6207D07F0E57EC02F07E0E57EC02F057
:1010C00009D01DAE04D07E0E57EC02F01D9E1D50BF
:1010D00057EC02F0EE501D6E7F0E1D6206D057ECED
:1010E00002F07F0E57EC02F013D07E0E1D6207D087
:1010F0007F0E57EC02F07E0E57EC02F009D01DAEC9
:1011000004D07E0E57EC02F01D9E1D5057EC02F0ED
:101110001E2EE0D7550E57EC02F012001E6A1F6A11
:101120001E2A070E1F26EF281F5CFAE3EF28E82887
:101130001F6EE8281E240F5C02E011EF0EF01F5016
:10114000E926560EEF62A5EF05F01F5058DF0400A8
:10115000116A118E560EEE62A5EF05F014EE00F046
:1011600016503F0BE1261808216E11BE27D01E42F3
:101170001EAE20D011501D6E7F0E1D6206D057ECA2
:1011800002F07F0E57EC02F013D07E0E1D6207D0E6
:101190007F0E57EC02F07E0E57EC02F009D01DAE28
:1011A00004D07E0E57EC02F01D9E1D5057EC02F04D
:1011B000116A1E421E50EFBC111203D0EFACE79033
:1011C000012A11AE05D0212E03D0116A800E1E6EA9
:1011D000204E40D111BE27D01E421EAE20D011504D
:1011E0001D6E7F0E1D6206D057EC02F07F0E57EC8D
:1011F00002F013D07E0E1D6207D07F0E57EC02F076
:101200007E0E57EC02F009D01DAE04D07E0E57ECD6
:1012100002F01D9E1D5057EC02F0116A1E421E5036
:10122000EFBA111203D0EFAAE790012A11AE05D050
:10123000212E03D0116A800E1E6E204E0BD111BEDE
:1012400027D01E421EAE20D011501D6E7F0E1D6293
:1012500006D057EC02F07F0E57EC02F013D07E0E52
:101260001D6207D07F0E57EC02F07E0E57EC02F0A5
:1012700009D01DAE04D07E0E57EC02F01D9E1D500D
:1012800057EC02F0116A1E421E50EFB8111203D043
:10129000EFA8E790012A11AE05D0212E03D0116AE4
:1012A000800E1E6E204ED6D011BE27D01E421EAE1E
:1012B00020D011501D6E7F0E1D6206D057EC02F03B
:1012C0007F0E57EC02F013D07E0E1D6207D07F0E0A
:1012D00057EC02F07E0E57EC02F009D01DAE04D0A0
:1012E0007E0E57EC02F01D9E1D5057EC02F0116A65
:1012F0001E421E50EFB6111203D0EFA6E790012A4E
:1013000011AE05D0212E03D0116A800E1E6E204E24
:10131000A1D011BE27D01E421EAE20D011501D6E8E
:101320007F0E1D6206D057EC02F07F0E57EC02F0E4
:1013300013D07E0E1D6207D07F0E57EC02F07E0E9A
:1013400057EC02F009D01DAE04D07E0E57EC02F02F
:101350001D9E1D5057EC02F0116A1E421E50EFB444
:10136000111203D0EFA4E790012A11AE05D0212E6F
:1013700003D0116A800E1E6E204E6CD011BE27D095
:101380001E421EAE20D011501D6E7F0E1D6206D073
:1013900057EC02F07F0E57EC02F013D07E0E1D6268
:1013A00007D07F0E57EC02F07E0E57EC02F009D00A
:1013B0001DAE04D07E0E57EC02F01D9E1D5057EC62
:1013C00002F0116A1E421E50EFB2111203D0EFA2BA
:1013D000E790012A11AE05D0212E03D0116A800EAC
:1013E0001E6E204E37D011BE27D01E421EAE20D01A
:1013F00011501D6E7F0E1D6206D057EC02F07F0E5D
:1014000057EC02F013D07E0E1D6207D07F0E57EC12
:1014100002F07E0E57EC02F009D01DAE04D07E0E15
:1014200057EC02F01D9E1D5057EC02F0116A1E424F
:101430001E50EFB0111203D0EFA0E790012A11AEB9
:1014400005D0212E03D0116A800E1E6E204E02D0D0
:10145000E92A8BD611BE23D01EBE1ED011501D6EA0
:101460007F0E1D6206D057EC02F07F0E57EC02F0A3
:1014700013D07E0E1D6207D07F0E57EC02F07E0E59
:1014800057EC02F009D01DAE04D07E0E57EC02F0EE
:101490001D9E1D5057EC02F0550E57EC02F00A6AE3
:1014A0001200E82E41D0030E0F5C02E211EF0EF0A5
:1014B00002E0A5EF05F005EE02F0ED503A0802E07B
:1014C000A5EF05F0EDCF09F0086AEFB0098EEFB295
:1014D0000880EFB4088EF29EF29C000EAA6E050EF4
:1014E000A96EA69EA69CA68408C0A8FFA198550E2A
:1014F000A76EAA0EA76EA682A1A8FED70400A19887
:10150000A92A09C0A8FFA198550EA76EAA0EA76E1A
:10151000A682A1A8FED70400A198A694F28EF28C10
:10152000AA6AA96A0A6A1200E82E48D0010E0F5C66
:1015300002E211EF0EF002E0A5EF05F005EE00F07B
:101540000B0EEF5C02E3A5EF05F00F0EEF160401A2
:10155000FF0E196F020E516F010E6D6F896F400EF5
:10156000356FF00E57EC02F0720E57EC02F0EF50B0
:1015700057EC02F0260E57EC02F0ECEC04F0F29E71
:10158000F29C000EAA6E010EA96EA69EA69CA684D1
:10159000EFCFA8FFA198550EA76EAA0EA76EA68240
:1015A000A1A8FED70400A198A694F28EF28CAA6A94
:1015B000A96AEF501FEC02F00A6A1200E82E46D02A
:1015C000010E0F5C02E211EF0EF002E0A5EF05F054
:1015D00005EE00F0240EEF62A5EF05F099EF01F0A3
:1015E000700E126E0401FF0E1B6FFF0E536F1E0E66
:1015F0006F6F8B6F600E376F0401FF0E196FFF0E58
:10160000516F1E0E6D6F896F600E356F0401FF0EF6
:101610001A6FFF0E526F1E0E6E6F8A6F600E366F5E
:101620000401000E186F506B6C6B886B346BF00EFE
:1016300057EC02F0210E57EC02F02D0E57EC02F0A1
:10164000050E57EC02F00A6A1200FFD7E82E90D080
:10165000020E0F5C02E211EF0EF002E0A5EF05F0C2
:1016600005EE01F0500EED62A5EF05F00401FF0E4E
:10167000196F020E516F010E6D6F896F400E356F3D
:10168000F00E57EC02F011501D6E7F0E1D6206D059
:1016900057EC02F07F0E57EC02F013D07E0E1D6265
:1016A00007D07F0E57EC02F07E0E57EC02F009D007
:1016B0001DAE04D07E0E57EC02F01D9E1D5057EC5F
:1016C00002F0EF501D6E7F0E1D6206D057EC02F047
:1016D0007F0E57EC02F013D07E0E1D6207D07F0EF6
:1016E00057EC02F07E0E57EC02F009D01DAE04D08C
:1016F0007E0E57EC02F01D9E1D5057EC02F0500E6E
:1017000057EC02F04F0E57EC02F0EFCF05F011B09E
:10171000058E046A11B20480F29EF29C000EAA6E3D
:10172000030EA96EA69EA69CA68404C0A8FFA1983D
:10173000550EA76EAA0EA76EA682A1A8FED704001A
:10174000A198000EAA6E040EA96E05C0A8FFA1986C
:10175000550EA76EAA0EA76EA682A1A8FED70400FA
:10176000A198A694F28EF28CAA6AA96A0A6A12005B
:10177000E82E31D0020E0F5C02E211EF0EF002E013
:10178000A5EF05F005EE01F0410EED62A5EF05F0C5
:10179000490EEF62A5EF05F011500F0B036EF29E9C
:1017A000F29C000EAA6E020EA96EA69EA69CA684AE
:1017B00003C0A8FFA198550EA76EAA0EA76EA68219
:1017C000A1A8FED70400A198A694F28EF28CAA6A72
:1017D000A96A0A6A1200E82E48D0010E0F5C02E2E4
:1017E00011EF0EF002E0A5EF05F005EE00F05A0E45
:1017F000EF62A5EF05F00A6A06B812000401FF0EB9
:10180000196F020E516F010E6D6F896F400E356FAB
:10181000F00E57EC02F0E86A57EC02F05A0E57EC63
:1018200002F05A0E57EC02F08A8E0401FF0E186F78
:10183000FF0E506F1E0E6C6F886F700E346F0401B8
:10184000FF0E196FFF0E516F1E0E6D6F896F700EB8
:10185000356F0401FF0E1A6FFF0E526F1E0E6E6F72
:101860008A6F700E366F06861200E82E42D0010E87
:101870000F5C02E211EF0EF002E0A5EF05F005EEBD
:1018800000F05A0EEF62A5EF05F00A6A0401FF0EA0
:10189000196F020E516F010E6D6F896F400E356F1B
:1018A000F00E57EC02F0010E57EC02F05A0E57EC16
:1018B00002F05A0E57EC02F08A9E0401000E186FD7
:1018C000010E506F010E6C6F886FA00E346F040113
:1018D000000E196F516B6D6B896B356B0401000E37
:1018E0001A6F526B6E6B8A6B366B06961B681C68A0
:1018F0001200E82E10D0010E0F5C02E211EF0EF084
:1019000002E0A5EF05F005EE00F0580EEF62A5EF3E
:1019100005F0EEEF15F0E82E1ED1010E0F5C02E28D
:1019200011EF0EF002E0A5EF05F005EE00F0240E39
:10193000EF62A5EF05F00401FF0E196F020E516F63
:10194000010E6D6F896F400E356FF00E57EC02F08F
:10195000230E57EC02F01E0E57EC02F00350F00974
:10196000E89E57EC02F01F0E57EC02F0300E57ECD9
:1019700002F0E86A08BEE88408B0E88209BEE880A0
:1019800057EC02F009507F0B57EC02F006B8E884E0
:1019900006B6E8821D6E7F0E1D6206D057EC02F07F
:1019A0007F0E57EC02F013D07E0E1D6207D07F0E23
:1019B00057EC02F07E0E57EC02F009D01DAE04D0B9
:1019C0007E0E57EC02F01D9E1D5057EC02F0E86AA7
:1019D00007B6E88404B0E88205BEE8801D6E7F0E7D
:1019E0001D6206D057EC02F07F0E57EC02F013D0C8
:1019F0007E0E1D6207D07F0E57EC02F07E0E57EC74
:101A000002F009D01DAE04D07E0E57EC02F01D9EF0
:101A10001D5057EC02F00550E89E1D6E7F0E1D62B2
:101A200006D057EC02F07F0E57EC02F013D07E0E7A
:101A30001D6207D07F0E57EC02F07E0E57EC02F0CD
:101A400009D01DAE04D07E0E57EC02F01D9E1D5035
:101A500057EC02F0E86A57EC02F0E86A57EC02F043
:101A6000E86A57EC02F0E86A57EC02F0000E1D6ECF
:101A70007F0E1D6206D057EC02F07F0E57EC02F08D
:101A800013D07E0E1D6207D07F0E57EC02F07E0E43
:101A900057EC02F009D01DAE04D07E0E57EC02F0D8
:101AA0001D9E1D5057EC02F0E86A57EC02F0000E44
:101AB00057EC02F0000E57EC02F0000E57EC02F06B
:101AC000000E57EC02F0010E57EC02F0000E57EC3E
:101AD00002F0000E57EC02F0000E57EC02F0020E7E
:101AE00057EC02F0000E57EC02F0000E57EC02F03B
:101AF000000E57EC02F0030E57EC02F0000E57EC0C
:101B000002F0000E57EC02F0000E57EC02F01250FB
:101B1000126A1D6E7F0E1D6206D057EC02F07F0E1A
:101B200057EC02F013D07E0E1D6207D07F0E57ECEB
:101B300002F07E0E57EC02F009D01DAE04D07E0EEE
:101B400057EC02F01D9E1D5057EC02F01B0E57EC97
:101B500002F00A6A1200E82E0CD0040E0F5C02E2BA
:101B600011EF0EF002E0A5EF05F005EE00F097EFA3
:101B700005F0E82E10D0010E0F5C02E211EF0EF01E
:101B800002E0A5EF05F005EE00F0430EEF62A5EFD1
:101B900005F097EF05F0E82E18D00F5002E111EF95
:101BA0000EF005EE00F0EF28E828E8280F5C02E2CE
:101BB00011EF0EF002E0A5EF05F00F04E926440E48
:101BC000EF62A5EF05F097EF05F0050E126E040128
:101BD000FF0E1B6FFF0E536F1E0E6F6F8B6F600E2D
:101BE000376F0401FF0E196FFF0E516F1E0E6D6FE0
:101BF000896F600E356F0401000E1A6F526B6E6BA9
:101C00008A6B366BF00E57EC02F0210E57EC02F0A7
:101C1000280E57EC02F0000E57EC02F00A6A120090
:101C200012000F500D64A5EF05F005EE00F00F5007
:101C3000E9260CC0EFFF0F2A1200E82C04D00C2874
:101C4000116E0A2A1200E82CAED00C2A16BE16D04D
:101C500004EE1CF016503F0BE926EF6A16BCEF8E1F
:101C600016ACEF8C1C0EE92611C0EFFFE9260CC064
:101C7000EFFFE9260CC0EFFF0A6A12000401FF0E15
:101C8000196F020E516F010E6D6F896F400E356F27
:101C9000C00E57EC02F01650169E1D6E7F0E1D6290
:101CA00006D057EC02F07F0E57EC02F013D07E0EF8
:101CB0001D6207D07F0E57EC02F07E0E57EC02F04B
:101CC00009D01DAE04D07E0E57EC02F01D9E1D50B3
:101CD00057EC02F011041D6E7F0E1D6206D057EC0A
:101CE00002F07F0E57EC02F013D07E0E1D6207D07B
:101CF0007F0E57EC02F07E0E57EC02F009D01DAEBD
:101D000004D07E0E57EC02F01D9E1D5057EC02F0E1
:101D10000C041D6E7F0E1D6206D057EC02F07F0E84
:101D200057EC02F013D07E0E1D6207D07F0E57ECE9
:101D300002F07E0E57EC02F009D01DAE04D07E0EEC
:101D400057EC02F01D9E1D5057EC02F00A6A12007B
:101D5000060E126E0401FF0E1B6FFF0E536F1E0E58
:101D60006F6F8B6F600E376F0401FF0E196FFF0EE0
:101D7000516F1E0E6D6F896F600E356F0401000E7E
:101D80001A6F526B6E6B8A6B366BF00E57EC02F06B
:101D9000210E57EC02F0380E57EC02F0010E57EC12
:101DA00002F00A6A1200E82CD3D00CBC5CD00CBA4A
:101DB00058D00C500AE1020E0D6E5A0E0E6E060E31
:101DC0000A6E0F6A060E106E1200E82C0AD0020E80
:101DD0000D6E5A0E0E6E060E0A6E0F6A070E106E0C
:101DE0001200E82C0AD0020E0D6E590E0E6E060E71
:101DF0000A6E0F6A080E106E1200E82C0AD0020E4E
:101E00000D6E540E0E6E060E0A6E0F6A090E106EDF
:101E10001200E82C03D00E0E0A6E1200E82C03D03C
:101E20000F0E0A6E1200E82C0AD0050E0D6E3C0E45
:101E30000E6E060E0A6E0F6A0A0E106E1200E82C65
:101E400003D0100E0A6E1200E82CA5EF05F0020E6A
:101E50000D6E410E0E6E060E0A6E0F6A0B0E106EA0
:101E60001200A5EF05F006B804D0210E126EB1EFF6
:101E700005F00CAA55D00CA85FD00F0E0C1425E16C
:101E800006980401000E186F010E506F010E6C6F62
:101E9000886FA00E346F0401FF0E196F020E516F90
:101EA000010E6D6F896F400E356FF00E57EC02F02A
:101EB000210E57EC02F0170E57EC02F0070E57EC0C
:101EC00002F00A6A54EC15F01200E82C0AD0040E55
:101ED0000D6E3D0E0E6E060E0A6E0F6A010E106E2E
:101EE0001200E82C0AD0020E0D6E260E0E6E060EA3
:101EF0000A6E0F6A020E106E1200E82C0AD0020E53
:101F00000D6E720E0E6E060E0A6E0F6A030E106EC6
:101F10001200E82C03D0078640EF0FF0A5EF05F084
:101F20000CC011F0030E0D6E4F0E0E6E060E0A6EF3
:101F30000F6A040E106E12000CC011F0030E0D6E2D
:101F4000440E0E6E060E0A6E0F6A050E106E12001B
:101F5000E82C2BD0080E126E0401FF0E1B6FFF0E33
:101F6000536F1E0E6F6F8B6F600E376F0401FF0E85
:101F7000196FFF0E516F1E0E6D6F896F600E356FFA
:101F80000401000E1A6F526B6E6B8A6B366BF00E8B
:101F900057EC02F0210E57EC02F0280E57EC02F03D
:101FA000000E57EC02F00A6A1200E82C2BD00B0E40
:101FB000126E0401FF0E1B6FFF0E536F1E0E6F6F2C
:101FC0008B6F600E376F0401FF0E196FFF0E516F9C
:101FD0001E0E6D6F896F600E356F0401000E1A6F53
:101FE000526B6E6B8A6B366BF00E57EC02F0210E63
:101FF00057EC02F0280E57EC02F0000E57EC02F0FE
:102000000A6A1200E82C2BD00C0E126E0401FF0E8F
:102010001B6FFF0E536F1E0E6F6F8B6F600E376F4F
:102020000401FF0E196FFF0E516F1E0E6D6F896F49
:10203000600E356F0401000E1A6F526B6E6B8A6B67
:10204000366BF00E57EC02F0210E57EC02F0280E22
:1020500057EC02F0000E57EC02F00A6A1200E82C6E
:102060002BD00D0E126E0401FF0E1B6FFF0E536F6F
:102070001E0E6F6F8B6F600E376F0401FF0E196FAE
:10208000FF0E516F1E0E6D6F896F600E356F04016C
:10209000000E1A6F526B6E6B8A6B366BF00E57EC3C
:1020A00002F0210E57EC02F0280E57EC02F0000E61
:1020B00057EC02F00A6A1200E82C0CD00CC011F0A8
:1020C000830E0D6E730E0E6E060E0A6E0F6A0C0EE8
:1020D000106E1200E82C02D097EF05F0E82C02D029
:1020E00097EF05F00E0E126E0401FF0E1B6FFF0E30
:1020F000536F1E0E6F6F8B6F600E376F0401FF0EF4
:10210000196FFF0E516F1E0E6D6F896F600E356F68
:102110000401000E1A6F526B6E6B8A6B366BF00EF9
:1021200057EC02F0210E57EC02F0280E57EC02F0AB
:10213000000E57EC02F00A6A12000400169E169C6C
:10214000216E04EE00F01650E92621C0EFFF1C0EB0
:10215000E926EF6AE926EF6AE926EF6AE926EF6ADF
:10216000120004003F0E0C14166E170E16641200B7
:10217000180E165E1660168C168E120004000401EE
:10218000069A155056E0006301D08B98016301D088
:102190008B96026301D08B9A036301D08B94046306
:1021A00001D08B90056301D08C9A066301D08C9C82
:1021B000076301D08A92086301D08998096301D02E
:1021C0008A940A6301D089960B6301D08A960C63C6
:1021D00001D089940D6301D08A980E6301D0899251
:1021E0000F6301D08A9A106301D08990116301D0E6
:1021F0008C9E126301D08C98136301D08B92146370
:1022000001D08C94156301D08C92166301D08C960A
:10221000176301D08C90186301D08D80196301D0B1
:102220008D821A6301D08D841B6301D0898A1506C3
:10223000120004010788001D02E1079803D08B8873
:10224000006707981CAF0DD0702F1AD054C470F4DB
:102250003851002715E300691C9F1CAB11D01C8D61
:102260000FD01CAD0DD0702F0BD054C470F438516A
:10227000005F06E2006B1C9D1CBB1C8F1CB97069C3
:10228000011D02E1079803D08B86016707981DAFF7
:102290000DD0712F1AD055C471F43951012715E3AF
:1022A00001691D9F1DAB11D01D8D0FD01DAD0DD02F
:1022B000712F0BD055C471F43951015F06E2016BE7
:1022C0001D9D1DBB1D8F1DB97169021D02E107987F
:1022D00003D08B8A026707981EAF0DD0722F1AD0D9
:1022E00056C472F43A51022715E302691E9F1EABD1
:1022F00011D01E8D0FD01EAD0DD0722F0BD056C435
:1023000072F43A51025F06E2026B1E9D1EBB1E8FE5
:102310001EB97269031D02E1079803D08B8403671D
:1023200007981FAF0DD0732F1AD057C473F43B51C9
:10233000032715E303691F9F1FAB11D01F8D0FD01B
:102340001FAD0DD0732F0BD057C473F43B51035FF7
:1023500006E2036B1F9D1FBB1F8F1FB97369041D0E
:1023600002E1079803D08B800467079820AF0DD057
:10237000742F1AD058C474F43C51042715E304692F
:10238000209F20AB11D0208D0FD020AD0DD0742F09
:102390000BD058C474F43C51045F06E2046B209DDA
:1023A00020BB208F20B97469051D02E1079803D076
:1023B0008C8A0567079821AF0DD0752F1AD059C4A4
:1023C00075F43D51052715E30569219F21AB11D017
:1023D000218D0FD021AD0DD0752F0BD059C475F4C0
:1023E0003D51055F06E2056B219D21BB218F21B97F
:1023F0007569061D02E1079803D08C8C0667079863
:1024000022AF0DD0762F1AD05AC476F43E5106274B
:1024100015E30669229F22AB11D0228D0FD022AD89
:102420000DD0762F0BD05AC476F43E51065F06E2EB
:10243000066B229D22BB228F22B97669071D02E11D
:10244000079803D08A820767079823AF0DD0772FAC
:102450001AD05BC477F43F51072715E30769239F20
:1024600023AB11D0238D0FD023AD0DD0772F0BD000
:102470005BC477F43F51075F06E2076B239D23BBE4
:10248000238F23B97769081D02E1079803D0898853
:102490000867079824AF0DD0782F1AD05CC478F461
:1024A0004051082715E30869249F24AB11D0248DDF
:1024B0000FD024AD0DD0782F0BD05CC478F44051F0
:1024C000085F06E2086B249D24BB248F24B9786939
:1024D000091D02E1079803D08A840967079825AF90
:1024E0000DD0792F1AD05DC479F44151092715E335
:1024F0000969259F25AB11D0258D0FD025AD0DD0B5
:10250000792F0BD05DC479F44151095F06E2096B64
:10251000259D25BB258F25B979690A1D02E10798FC
:1025200003D089860A67079826AF0DD07A2F1AD074
:102530005EC47AF442510A2715E30A69269F26AB46
:1025400011D0268D0FD026AD0DD07A2F0BD05EC4C2
:102550007AF442510A5F06E20A6B269D26BB268F5B
:1025600026B97A690B1D02E1079803D08A860B67AA
:10257000079827AF0DD07B2F1AD05FC47BF443514F
:102580000B2715E30B69279F27AB11D0278D0FD0A1
:1025900027AD0DD07B2F0BD05FC47BF443510B5F75
:1025A00006E20B6B279D27BB278F27B97B690C1D84
:1025B00002E1079803D089840C67079828AF0DD0F3
:1025C0007C2F1AD060C47CF444510C2715E30C69AD
:1025D000289F28AB11D0288D0FD028AD0DD07C2F8F
:1025E0000BD060C47CF444510C5F06E20C6B289D58
:1025F00028BB288F28B97C690D1D02E1079803D0FC
:102600008A880D67079829AF0DD07D2F1AD061C435
:102610007DF445510D2715E30D69299F29AB11D094
:10262000298D0FD029AD0DD07D2F0BD061C47DF445
:1026300045510D5F06E20D6B299D29BB298F29B9F4
:102640007D690E1D02E1079803D089820E67079805
:102650002AAF0DD07E2F1AD062C47EF446510E27C9
:1026600015E30E692A9F2AAB11D02A8D0FD02AAD0F
:102670000DD07E2F0BD062C47EF446510E5F06E271
:102680000E6B2A9D2ABB2A8F2AB97E690F1D02E193
:10269000079803D08A8A0F6707982BAF0DD07F2F3A
:1026A0001AD063C47FF447510F2715E30F692B9F9E
:1026B0002BAB11D02B8D0FD02BAD0DD07F2F0BD08E
:1026C00063C47FF447510F5F06E20F6B2B9D2BBB5A
:1026D0002B8F2BB97F69101D02E1079803D08980E9
:1026E000106707982CAF0DD0802F1AD064C480F4E7
:1026F0004851102715E310692C9F2CAB11D02C8D5D
:102700000FD02CAD0DD0802F0BD064C480F4485175
:10271000105F06E2106B2C9D2CBB2C8F2CB98069AE
:10272000111D02E1079803D08C8E116707982DAF19
:102730000DD0812F1AD065C481F44951112715E3BA
:1027400011692D9F2DAB11D02D8D0FD02DAD0DD03A
:10275000812F0BD065C481F44951115F06E2116BE2
:102760002D9D2DBB2D8F2DB98169121D02E107987A
:1027700003D08C88126707982EAF0DD0822F1AD005
:1027800066C482F44A51122715E312692E9F2EABBC
:1027900011D02E8D0FD02EAD0DD0822F0BD066C450
:1027A00082F44A51125F06E2126B2E9D2EBB2E8FD1
:1027B0002EB98269131D02E1079803D08B8213673B
:1027C00007982FAF0DD0832F1AD067C483F44B51D5
:1027D000132715E313692F9F2FAB11D02F8D0FD027
:1027E0002FAD0DD0832F0BD067C483F44B51135FF3
:1027F00006E2136B2F9D2FBB2F8F2FB98369141DFA
:1028000002E1079803D08C841467079830AF0DD08D
:10281000842F1AD068C484F44C51142715E314692A
:10282000309F30AB11D0308D0FD030AD0DD0842F14
:102830000BD068C484F44C51145F06E2146B309DD5
:1028400030BB308F30B98469151D02E1079803D081
:102850008C821567079831AF0DD0852F1AD069C4C7
:1028600085F44D51152715E31569319F31AB11D012
:10287000318D0FD031AD0DD0852F0BD069C485F4CB
:102880004D51155F06E2156B319D31BB318F31B96A
:102890008569161D02E1079803D08C861667079894
:1028A00032AF0DD0862F1AD06AC486F44E51162747
:1028B00015E31669329F32AB11D0328D0FD032AD95
:1028C0000DD0862F0BD06AC486F44E51165F06E2F7
:1028D000166B329D32BB328F32B98669171D02E109
:1028E000079803D08C801767079833AF0DD0872FD8
:1028F0001AD06BC487F44F51172715E31769339F1C
:1029000033AB11D0338D0FD033AD0DD0872F0BD01B
:102910006BC487F44F51175F06E2176B339D33BBCF
:10292000338F33B98769181D01E101D08D9034AF21
:102930000DD0882F1AD06CC488F45051182715E395
:102940001869349F34AB11D0348D0FD034AD0DD015
:10295000882F0BD06CC488F45051185F06E2186BB6
:10296000349D34BB348F34B98869191D01E101D01D
:102970008D9235AF0DD0892F1AD06DC489F4515185
:10298000192715E31969359F35AB11D0358D0FD057
:1029900035AD0DD0892F0BD06DC489F45151195F1D
:1029A00006E2196B359D35BB358F35B989691A1D1E
:1029B00001E101D08D9436AF0DD08A2F1AD06EC4AC
:1029C0008AF452511A2715E31A69369F36AB11D093
:1029D000368D0FD036AD0DD08A2F0BD06EC48AF451
:1029E00052511A5F06E21A6B369D36BB368F36B9E6
:1029F0008A691B1D01E101D0899A37AF0DD08B2F59
:102A00001AD06FC48BF453511B2715E31B69379FF2
:102A100037AB11D0378D0FD037AD0DD08B2F0BD0FA
:102A20006FC48BF453511B5F06E21B6B379D37BBA2
:102A3000378F37B98B69069E07A809D01C2E120064
:102A40001C681B2E120006A6FCEC0BF0120006B64A
:102A500046EC0CF01B681C681200040008AC120065
:102A6000F29EF29C000EAA6E010EA96EA69EA69C76
:102A7000A694A680A8CFE8FFF28EF28CAA6AA96A73
:102A80001E6EF00E57EC02F0720E57EC02F01E5064
:102A900057EC02F0260E57EC02F0ECEC04F01E505E
:102AA0001FEC02F0089C1200040008BE08BC1200D3
:102AB000F00E57EC02F0720E57EC02F00A0E57ECD3
:102AC00002F0260E57EC02F0ECEC04F00A0E1FECBC
:102AD00002F0088C1200040008AA0DD0089AE866DB
:102AE00008D0170E0A6E09C011F00B6A08B00B80EF
:102AF00012000A6A12000C6E170E0A6208D01166E4
:102B000003D00BA003D00B90110612000A2A040078
:102B1000180E0A6261D00CC00BF011C00CF0112A23
:102B2000B1EC10F016BC56D00BC00CF016BE02D0A3
:102B30009DEF10F0A00E57EC02F0169E169CD89058
:102B40000C32D8B0168C16501D6E7F0E1D6206D04A
:102B500057EC02F07F0E57EC02F013D07E0E1D6290
:102B600007D07F0E57EC02F07E0E57EC02F009D032
:102B70001DAE04D07E0E57EC02F01D9E1D5057EC8A
:102B800002F00C501D6E7F0E1D6206D057EC02F055
:102B90007F0E57EC02F013D07E0E1D6207D07F0E21
:102BA00057EC02F07E0E57EC02F009D01DAE04D0B7
:102BB0007E0E57EC02F01D9E1D5057EC02F00401F2
:102BC000FF0E196F020E516F010E6D6F896F400E6F
:102BD000356F12000A6A12000A6A1200D9EC05F079
:102BE000F29EF29C8D848D908D92899A730ED36E95
:102BF000D180040003008D84D7EC01F08D94F9D7C7
:020000040001F9
:10400000FF06000002000000000000000000004267
:105000000F0BE846F9CF09F3F926300C310C320CBE
:10501000330C340C350C360C370C380C390C410C75
:10502000420C430C440C450C460C0F0BE846F9CFE0
:1050300009F3F926820C420C200C100C080C040C0D
:10504000020C010C000C000C000C020C020C020CF7
:10505000020C020C0F0BE846F9CF09F3F926340CC9
:10506000190C8C0C450C220C100C070C030CAC0C0E
:0E507000550C270C070C070C070C070C070C3F
:020000040030CA
:0100010006F8
:0100020019E4
:010003001DDF
:01000500807A
:010006008178
:010008003FB8
:01000900C036
:01000A003FB6
:01000B00E014
:01000C003FB4
:01000D0040B2
:0200000400F00A
:10000000FF060300020000000000000000000042A4
:00000001FF
