:020000040000FA
:06000000040096EF00F081
:020006000000F8
:06000800040024EF03F0E8
:0600180004000FEF03F0ED
:02001E000400DC
:10002000400ED36E9F0ED06E000EF26EB40EF16EC7
:10003000000EF06E000E9D6E000EA06E000EA36E00
:10004000020E9F6E000EA26E000EA56E9E6AA16A41
:10005000A46A3C0EC26E0F0EC16EC06AB56A1F0E56
:10006000806EBE0E816E3F6E826E8368846AC00EA3
:10007000926E010E936EC00E946E956A966A100E83
:10008000D56ED76AD66A880ECD6ECF6ACE6A080E54
:10009000CA6ECC6ACB6A800EB16EB36AB26AD26A9B
:1000A000200E6E6EBD6ABA6AB46A010ED16E12007D
:100100008D8438D98D8036D98D9434D98D9032D95B
:1001100012008D842BD98D8029D98D8227D98D9479
:1001200025D98D9023D98D9221D912000400FC6A23
:100130000FEC00F089EC00F0C6EC01F08D840400B7
:10014000AA6AA96AA69EA69CA694A680FF0EA8628B
:10015000D7D00F0EA96EA680420EA862D1D004009F
:10016000A1988D948D82A694A69EA69CAA6A010E43
:10017000A96EA680A85002EC02F0A92AA680A8CFFA
:1001800003F0A92AA680A8CF04F0A92AA680A8CFA8
:1001900005F0A96A8D809F989F9A0400066A076AF5
:1001A000086A800E156E166A19681A680401006BD9
:1001B0001B6B366B516B6C6B016B1C6B376B526B33
:1001C0006D6B026B1D6B386B536B6E6B036B1E6B31
:1001D000396B546B6F6B046B1F6B3A6B556B706BA9
:1001E000056B206B3B6B566B716B066B216B3C6B2D
:1001F000576B726B076B226B3D6B586B736B086BA5
:10020000236B3E6B596B746B096B246B3F6B5A6BA2
:10021000756B0A6B256B406B5B6B766B0B6B266BA0
:10022000416B5C6B776B0C6B276B426B5D6B786B18
:100230000D6B286B436B5E6B796B0E6B296B446B9C
:100240005F6B7A6B0F6B2A6B456B606B7B6B106B14
:100250002B6B466B616B7C6B116B2C6B476B626B12
:100260007D6B126B2D6B486B636B7E6B136B2E6B10
:10027000496B646B7F6B146B2F6B4A6B656B806B88
:10028000156B306B4B6B666B816B166B316B4C6B0C
:10029000676B826B176B326B4D6B686B836B186B84
:1002A000336B4E6B696B846B196B346B4F6B6A6B82
:1002B000856B1A6B356B506B6B6B866B8D84F2881C
:1002C0008D929F0ECB6ECC6A9F829E929D82CA8435
:1002D0009D8A9E6AA16AA46AF294F292F28EF28CCE
:1002E0008D940401186B0401000E186F010E4E6FFF
:1002F000010E696F846FA00E336F8A9E00EF04F0C9
:100300000400F29EF29C000EAA6E000EA96EA69E3C
:10031000A69CA684010EF86E400EF76E000EF66ED7
:10032000100E1B6E0900F5CFA8FF8D82A198550E07
:10033000A76EAA0EA76EA682A1A8FED70400A19858
:100340008D921B2EEFD7A694F28EF28C100E1B6EA0
:100350000400F29EF29C8D808D828D8407D88D9052
:100360008D928D9407D81B2EF6D7FF000400040E43
:100370001E6E03D00400080E1E6E1C681D681D2E24
:0C038000FED71C2EFBD71E2EF8D7120053
:04038C000400030165
:10039000948E949C060E02EC02F00101040001EE22
:1003A00000F0EE6AE966FDD70201040002EE00F0FB
:1003B000EE6AE966FDD70301006B036B046B056B06
:1003C000066B900EAB6E240EAC6E080EB86E12006B
:1003D0000301086B9DAA02D09D9A0881056B066BEC
:1003E0000097009308B19D8A12000301086B9DA835
:1003F00002D09D980881036B046B0095009108B1B1
:100400009D88120003010400086F15ECA8F0B06E7F
:1004100008512AECA8F0AF6E12000301026F04002D
:10042000030102AF05D04D0E1AD82D0E18D8029F29
:100430007F0E026304D05E0E12D83F0E026F1B0EB9
:10044000026302D0240E026F02AD02BB03D05E0E27
:1004500006D8028D025103D8120003010251040094
:100460000301076F00A110D0035104630DD0FAD728
:100470000301025104000301076F00A105D00351DD
:10048000046302D00085120004C3E1FF010EE26E96
:1004900007C3E7FF0081042B9D88120004000D0EA6
:1004A000DEDF0A0EDCDF120002D801511200040068
:1004B000030100B302D0016B120005C3E1FF020E7D
:1004C000E26EE7CF01F3052B0551066301D00093DF
:1004D000120002D8015112000301040000A3FDD74D
:1004E000E6D70301026F0400030102C308F30839D1
:1004F00000ECA8F02FEC02F0085100ECA8F02FEC73
:1005000002F0120003010400200E0C6F126B136B3B
:10051000146B156B166BEACF0EF3E9CF0FF303EEF6
:1005200012F0050E0D6F0400330EEF26EFB6F00B40
:10053000EFBE0F0BEE5E0D2FF6D71A3719371837AF
:100540001737163715371437133712370C2FE7D7ED
:100550000EC3EAFF0FC3E9FF120004000301EACF54
:100560000EF3E9CF0FF3E2CF10F3E1CF11F303EE77
:1005700016F013EE1BF0050E0D6FEF500F0B300F42
:10058000E56EED380F0B300FE56E0D2FF6D70EC36D
:10059000EAFF0FC3E9FF10C3E2FF11C3E1FF12003E
:1005A0000400030100B102D09D981200E2CF0AF3CB
:1005B000E1CF0BF303C3E1FF010EE26EE7CFADFF26
:1005C000032B0351046301D000910AC3E2FF0BC364
:1005D000E1FF120004000301ABB41BD8ABB21BD87F
:1005E00000A306D00551066303D00087AE50120069
:1005F000E2CF0AF3E1CF0BF306C3E1FF020EE26E96
:10060000AECFE7FF0083062B0AC3E2FF0BC3E1FF77
:0E0610001200008B12000089AB98AB8812001C
:02061E00026E6A
:10062000D8CF00F0E0CF01F09EA803D0D0EC02F0CC
:100630009E989EAA03D0EAEC02F09E9A01C0E0FFC9
:10064000025000C0D8FF1000F2A207D0F292068C30
:10065000078C04C011F005C012F09EA20CD006ACAD
:1006600007D0122E07D0116607D0069C068E13689D
:0E06700006BE068A9E92110011061268FBD784
:10080000040006BACAEC0BF0030100BB78D8030160
:1008100000B989D8030100B79DD8030100A306D011
:1008200006B002D0D9D802D057EC02F006B403D8F3
:1008300006B020D8E5D7030100B112009EA812002F
:10084000ACA212000694899A1200120E106E0401D6
:10085000FF0E196FFF0E4F6F1E0E6A6F856F600ED1
:10086000346F0401000E1A6F506B6B6B866B356B27
:10087000086A12000400151C02E1078A1BD01566E5
:1008800019D007AA17D0079A077E176807AE08D0B5
:100890000401FF0E1A6F506B6B6B866B356B0AD0C1
:1008A0000401000E1A6F010E506F010E6B6F866F00
:1008B000A00E356F07AE07AC1200079C172E120072
:1008C000780E176EA6D8182A300E1860186A3F0ED8
:1008D00018140A6E0A8C56D904011A6B196B186B1E
:1008E00018B0196918B218690401000E1A6F010EC8
:1008F000506F010E6B6F866FA00E356F12000301F3
:10090000009B0401FF0E1A6FFF0E506F1E0E6B6FDF
:10091000866F600E356F0401FF0E196F4F6B6A6BA7
:10092000856B346B1200030100990401FF0E1A6FEE
:10093000FF0E506F1E0E6B6F866F600E356F0401D9
:10094000FF0E196FFF0E4F6F1E0E6A6F856F600EE0
:10095000346F12000401FF0E1A6FFF0E506F1E0E4F
:100960006B6F866F600E356F0401000E196F010EFC
:100970004F6F010E6A6F856FA00E346F086AE8EC46
:1009800001F01200230E106E0401FF0E1A6FFF0E0D
:10099000506F1E0E6B6F866F700E356FEAEF04F0AE
:1009A000220E106E0401FF0E1A6FFF0E506F1E0E06
:1009B0006B6F866F600E356FEAEF04F0200E106EDD
:1009C0000401FF0E1A6F010E506F200E6B6F866FC1
:1009D000400E356F086A12000400078469EC02F0CB
:1009E0000400030101AFC6D0085001E0CBDF0301D2
:1009F00004000401FF0E196F020E4F6F010E6A6FA3
:100A0000856F400E346F03010139070B02E083EF5D
:100A100005F00401006B1B6B366B516B6C6B016B4B
:100A20001C6B376B526B6D6B026B1D6B386B536BB2
:100A30006E6B036B1E6B396B546B6F6B046B1F6BB0
:100A40003A6B556B706B056B206B3B6B566B716B28
:100A5000066B216B3C6B576B726B076B226B3D6BAC
:100A6000586B736B086B236B3E6B596B746B096B24
:100A7000246B3F6B5A6B756B0A6B256B406B5B6B22
:100A8000766B0B6B266B416B5C6B776B0C6B276B20
:100A9000426B5D6B786B0D6B286B436B5E6B796B98
:100AA0000E6B296B446B5F6B7A6B0F6B2A6B456B1C
:100AB000606B7B6B106B2B6B466B616B7C6B116B94
:100AC0002C6B476B626B7D6B126B2D6B486B636B92
:100AD0007E6B136B2E6B496B646B7F6B146B2F6B90
:100AE0004A6B656B806B156B306B4B6B666B816B08
:100AF000166B316B4C6B676B826B176B326B4D6B8C
:100B0000686B836B1200096EE82C03D0010E086E2F
:100B10001200E82C03D0020E086E1200E82C03D05D
:100B2000040E086E1200E82C03D0050E086E1200A9
:100B3000E82C02D0D0EF04F0E82C02D0D0EF04F083
:100B4000E82C03D0090E086E1200010E106E04018D
:100B5000FF0E196FFF0E4F6F1E0E6A6F856F600ECE
:100B6000346F0401000E1A6F506B6B6B866B356B24
:100B7000086A12000400085001E1120001C30AF0E3
:100B8000E82C12D0C0EC0BF0086A14BCDEEF04F0C5
:100B900014BE08D00ABC03D0E86AACEF0BF0E868DA
:100BA000ACEF0BF0DEEF04F0E82C09D0C0EC0BF05A
:100BB00014BCDEEF04F00ABC148C082A1200E82CE6
:100BC0001ED014BE07D0D89014BCD8800A34086A4E
:100BD000ACEF0BF0020E106E0401FF0E196FFF0E4A
:100BE0004F6F1E0E6A6F856F600E346F0401000E2A
:100BF0001A6F506B6B6B866B356B086A1200E82CB2
:100C000011D0C0EC0BF014BCDEEF04F00ABC148C65
:100C1000390E0B6E550E0C6E060E086E0D6A000E28
:100C20000E6E1200E82C0AD0C0EC0BF014BCDEEF04
:100C300004F00ABC148C070E086E1200E82C23EF97
:100C400009F004000A500C6217EF09F00E5002E0A0
:100C5000BCEF06F0086A05EE00F014503F0BEF24DD
:100C6000E828300802E2DEEF04F0EF280D6417EF09
:100C700009F014BC37D0EF28E8280D62DEEF04F04D
:100C8000086A14AE15D0030E106E0401FF0E196F22
:100C9000FF0E4F6F1E0E6A6F856F600E346F04017A
:100CA000000E1A6F506B6B6B866B356B086A120007
:100CB000040005EE00F014EE00F024EE1BF01450DA
:100CC0003F0BE126D926EECF1BF01B2A1BC01DF0DF
:100CD000DE6AEECFE7FFE74601E0E780012A1B2E40
:100CE000F7D712001B6A1C6A1B2A070E1C26EF2866
:100CF0001C5CFAE3EF28E8281C6EE8281B240D5C36
:100D000002E017EF09F01C50E926560EEF62DEEF05
:100D100004F01C50CDDF0400550EEE62DEEF04F04F
:100D200014EE00F014503F0BE126EFACE790012ADF
:100D30001D4E20D0EFAAE790012A1D4E1BD0EFA830
:100D4000E790012A1D4E16D0EFA6E790012A1D4E0E
:100D500011D0EFA4E790012A1D4E0CD0EFA2E7902E
:100D6000012A1D4E07D0EFA0E790012A1D4E02D0A8
:100D7000E92ADBD7086A1200E82E11D0030E0D5CB9
:100D800002E217EF09F002E0DEEF04F005EE02F0F8
:100D9000ED503A0802E0DEEF04F0086A1200E82E97
:100DA0002CD0010E0D5C02E217EF09F002E0DEEF3D
:100DB00004F005EE00F00B0EEF5C02E3DEEF04F052
:100DC000F29EF29C000EAA6E010EA96EA69EA69C33
:100DD000A684EFCFA8FFA198550EA76EAA0EA76E06
:100DE000A682A1A8FED70400A198A694F28EF28C48
:100DF000EF5002EC02F0086A1200E82E30D0010E2B
:100E00000D5C02E217EF09F002E0DEEF04F005EE00
:100E100000F0240EEF62DEEF04F080EF01F0700EC0
:100E2000106E0401FF0E196FFF0E4F6F1E0E6A6FDA
:100E3000856F600E346F0401FF0E1A6FFF0E506F46
:100E40001E0E6B6F866F600E356F0401000E186FFB
:100E50004E6B696B846B336B086A1200FFD7E82E08
:100E60003FD0020E0D5C02E217EF09F002E0DEEF68
:100E700004F005EE01F0500EED62DEEF04F0EFCF6E
:100E800005F00FB0058E046A0FB20480F29EF29C4A
:100E9000000EAA6E030EA96EA69EA69CA68404C090
:100EA000A8FFA198550EA76EAA0EA76EA682A1A8AC
:100EB000FED70400A198000EAA6E040EA96E05C00C
:100EC000A8FFA198550EA76EAA0EA76EA682A1A88C
:100ED000FED70400A198A694F28EF28C086A120044
:100EE000E82E2FD0020E0D5C02E217EF09F002E0AF
:100EF000DEEF04F005EE01F0410EED62DEEF04F0EE
:100F0000490EEF62DEEF04F00F500F0B036EF29EFE
:100F1000F29C000EAA6E020EA96EA69EA69CA68446
:100F200003C0A8FFA198550EA76EAA0EA76EA682B1
:100F3000A1A8FED70400A198A694F28EF28C086AAC
:100F40001200E82E32D0010E0D5C02E217EF09F01C
:100F500002E0DEEF04F005EE00F05A0EEF62DEEF85
:100F600004F0086A06B812008A8E0401FF0E186F9A
:100F7000FF0E4E6F1E0E696F846F700E336F04018B
:100F8000FF0E196FFF0E4F6F1E0E6A6F856F700E8A
:100F9000346F0401FF0E1A6FFF0E506F1E0E6B6F41
:100FA000866F700E356F06861200E82E2CD0010E6B
:100FB0000D5C02E217EF09F002E0DEEF04F005EE4F
:100FC00000F05A0EEF62DEEF04F0086A8A9E040118
:100FD000000E186F010E4E6F010E696F846FA00E28
:100FE000336F0401000E196F4F6B6A6B856B346BA6
:100FF0000401000E1A6F506B6B6B866B356B069697
:1010000019681A681200E82E10D0010E0D5C02E279
:1010100017EF09F002E0DEEF04F005EE00F0580EE5
:10102000EF62DEEF04F020EF10F0E82EB0D0010EFA
:101030000D5C02E217EF09F002E0DEEF04F005EECE
:1010400000F0240EEF62DEEF04F00F0E106E0401CC
:10105000FF0E196FFF0E4F6F1E0E6A6F856F600EC9
:10106000346F0401000E1A6F506B6B6B866B356B1F
:10107000086A12000350F0093AEC02F01F0E3AEC35
:1010800002F0300E3AEC02F0000E3AEC02F0E86AA0
:101090003AEC02F0E86A06B8E88406B6E8823AEC70
:1010A00002F0E86A07B6E88404B0E88205BEE8808A
:1010B0003AEC02F00550E89E3AEC02F0E86A3AECAD
:1010C00002F0E86A3AEC02F0E86A3AEC02F0E86A08
:1010D0003AEC02F0100E106E0401FF0E196FFF0EB5
:1010E0004F6F1E0E6A6F856F600E346F0401000E25
:1010F0001A6F506B6B6B866B356B086A12003AEC9B
:1011000002F0E86A3AEC02F0000E3AEC02F0000E4F
:101110003AEC02F0000E3AEC02F0000E3AEC02F06B
:10112000010E3AEC02F0000E3AEC02F0000E3AEC3E
:1011300002F0000E3AEC02F0020E3AEC02F0000E61
:101140003AEC02F0000E3AEC02F0000E3AEC02F03B
:10115000030E3AEC02F0000E3AEC02F0000E3AEC0C
:1011600002F0000E3AEC02F01050106A3AEC02F075
:10117000E86A3AEC02F0E86A3AEC02F0E86A3AEC23
:1011800002F0330E3AEC02F00684086A1200E82EF0
:101190000CD0040E0D5C02E217EF09F002E0DEEF66
:1011A00004F005EE00F0D0EF04F0E82E10D0010EB0
:1011B0000D5C02E217EF09F002E0DEEF04F005EE4D
:1011C00000F0430EEF62DEEF04F0D0EF04F0E82E03
:1011D00018D00D5002E117EF09F005EE00F0EF28EE
:1011E000E828E8280D5C02E217EF09F002E0DEEFE4
:1011F00004F00D04E926440EEF62DEEF04F0D0EFB8
:1012000004F0050E106E0401FF0E196FFF0E4F6FF4
:101210001E0E6A6F856F600E346F0401000E1A6F28
:10122000506B6B6B866B356B086A120012000D50A9
:101230000B64DEEF04F005EE00F00D50E9260AC065
:10124000EFFF0D2A1200E82C04D00A280F6E082A9E
:101250001200E82C2ED00A2A14BE16D004EE1BF081
:1012600014503F0BE926EF6A14BCEF8E14ACEF8CE0
:101270001B0EE9260FC0EFFFE9260AC0EFFFE926A3
:101280000AC0EFFF086A1200060E106E0401FF0E7E
:10129000196FFF0E4F6F1E0E6A6F856F600E346FF1
:1012A0000401000E1A6F506B6B6B866B356B086A0E
:1012B0001200E82CFCD00ABC9DD00ABA58D00A50C3
:1012C0000AE1020E0B6E5A0E0C6E060E086E0D6AC7
:1012D000060E0E6E1200E82C0AD0020E0B6E5A0E8D
:1012E0000C6E060E086E0D6A070E0E6E1200E82CCC
:1012F0000AD0020E0B6E590E0C6E060E086E0D6AA9
:10130000080E0E6E1200E82C0AD0020E0B6E540E60
:101310000C6E060E086E0D6A090E0E6E1200E82C99
:1013200003D00E0E086E1200E82C03D00F0E086ECC
:101330001200E82C0AD0050E0B6E3C0E0C6E060E49
:10134000086E0D6A0A0E0E6E1200E82C03D0100E05
:10135000086E1200E82CDEEF04F0020E0B6E410E58
:101360000C6E060E086E0D6A0B0E0E6E12001F0E2E
:101370000A1405E10AC009F00A0E086E1200E82CF2
:1013800003D00C0E086E1200E82C18D00401000ED9
:10139000186F4E6B696B846B336B0401000E196F11
:1013A0004F6B6A6B856B346B0401FF0E1A6F506BC9
:1013B0006B6B866B356B899A20EF10F0E82C05D0AB
:1013C0000AC009F00A0E086E1200070E106E040122
:1013D000FF0E196FFF0E4F6F1E0E6A6F856F600E46
:1013E000346F0401000E1A6F506B6B6B866B356B9C
:1013F000086A120006B804D0210E106EEAEF04F05D
:101400000AAA3DD00AA847D00F0E0A140DE106988B
:101410000401000E186F010E4E6F010E696F846F8C
:10142000A00E336F086A1200E82C0AD0040E0B6E6F
:101430003D0E0C6E060E086E0D6A010E0E6E120049
:10144000E82C0AD0020E0B6E260E0C6E060E086EED
:101450000D6A020E0E6E1200E82C0AD0020E0B6E00
:10146000720E0C6E060E086E0D6A030E0E6E1200E2
:10147000E82C03D0078607EF0AF0DEEF04F00AC07D
:101480000FF0030E0B6E4F0E0C6E060E086E0D6AFB
:10149000040E0E6E12000AC00FF0030E0B6E440E07
:1014A0000C6E060E086E0D6A050E0E6E1200E82C0C
:1014B00007D0098E082A0AC00FF00F2A898A120065
:1014C000E82C3AD00F662FD0730E0A6217D009A00D
:1014D00012D010503AEC02F0106AE86A04B0E882C8
:1014E00005BEE8803AEC02F00550E89E3AEC02F0C6
:1014F000330E3AEC02F00684086A12000A0E106EEF
:101500000401FF0E196FFF0E4F6F1E0E6A6F856F7D
:10151000600E346F0401000E1A6F506B6B6B866B9C
:10152000356B086A12000A5009AE02D0E88E099E97
:101530003AEC02F00F061200E82C04D00AC00FF0BB
:10154000082A1200E82CDDD0070E0F1408E1040170
:10155000000E196F4F6B6A6B856B346B3DD0E82CB6
:1015600008D00401FF0E196F4F6B6A6B856B346BEB
:1015700033D0E82C0BD00401000E196F010E4F6F11
:10158000010E6A6F856FA00E346F26D0E82C0BD049
:101590000401000E196F040E4F6F010E6A6F856F04
:1015A000A00E346F19D0E82C0BD00401FF0E196F78
:1015B000FF0E4F6F1E0E6A6F856F700E346F0CD06A
:1015C000E82C0AD00401FF0E196FFF0E4F6F1E0E9C
:1015D0006A6F856F600E346F380E0F14E840E84074
:1015E000E84008E10401000E186F4E6B696B846BD4
:1015F000336B3DD0E82C08D00401FF0E186F4E6B02
:10160000696B846B336B33D0E82C0BD00401000E74
:10161000186F010E4E6F010E696F846FA00E336F4D
:1016200026D0E82C0BD00401000E186F040E4E6F6C
:10163000010E696F846FA00E336F19D0E82C0BD0A8
:101640000401FF0E186FFF0E4E6F1E0E696F846F40
:10165000700E336F0CD0E82C0AD00401FF0E186F07
:10166000FF0E4E6F1E0E696F846F600E336F070E94
:101670000A1408E10401000E1A6F506B6B6B866B45
:10168000356B3DD0E82C08D00401FF0E1A6F506B6B
:101690006B6B866B356B33D0E82C0BD00401000EDE
:1016A0001A6F010E506F010E6B6F866FA00E356FB3
:1016B00026D0E82C0BD00401000E1A6F040E506FD8
:1016C000010E6B6F866FA00E356F19D0E82C0BD012
:1016D0000401FF0E1A6FFF0E506F1E0E6B6F866FA8
:1016E000700E356F0CD0E82C0AD00401FF0E1A6F73
:1016F000FF0E506F1E0E6B6F866F600E356F086A9F
:101700001200E82C0CD00AC00FF0830E0B6E730E83
:101710000C6E060E086E0D6A0C0E0E6E1200E82C92
:1017200002D0D0EF04F0E82C02D0D0EF04F00E0E7F
:10173000106E0401FF0E196FFF0E4F6F1E0E6A6FC1
:10174000856F600E346F0401000E1A6F506B6B6B67
:10175000866B356B086A12000400149E149C1E6E82
:1017600004EE00F01450E9261EC0EFFF1B0EE92620
:10177000EF6AE926EF6AE926EF6AE926EF6A1200C6
:1017800004003F0E0A14146E170E14641200148C19
:10179000148E120004000401069A135053E00063F3
:1017A00001D08B98016301D08B96026301D08B9A94
:1017B000036301D08B94046301D08B90056301D047
:1017C0008C9A066301D08C9C076301D08A920863CF
:1017D00001D08998096301D08A940A6301D089965F
:1017E0000B6301D08A960C6301D089940D6301D0FC
:1017F0008A980E6301D089920F6301D08A9A106390
:1018000001D08990116301D08C9E126301D08C9815
:10181000136301D08B92146301D08C94156301D0B3
:101820008C92166301D08C96176301D08C9018634C
:1018300001D08D80196301D08D821A6301D08D840F
:101840001306120004010788001D02E1079803D067
:101850008B88006707981BAF0DD06C2F1AD051C42E
:101860006CF43651002715E300691B9F1BAB11D0A8
:101870001B8D0FD01BAD0DD06C2F0BD051C46CF451
:101880003651005F06E2006B1B9D1BBB1B8F1BB913
:101890006C69011D02E1079803D08B8601670798E8
:1018A0001CAF0DD06D2F1AD052C46DF437510127E3
:1018B00015E301691C9F1CAB11D01C8D0FD01CAD12
:1018C0000DD06D2F0BD052C46DF43751015F06E27D
:1018D000016B1C9D1CBB1C8F1CB96D69021D02E1B4
:1018E000079803D08B8A026707981DAF0DD06E2F23
:1018F0001AD053C46EF43851022715E302691D9FB4
:101900001DAB11D01D8D0FD01DAD0DD06E2F0BD086
:1019100053C46EF43851025F06E2026B1D9D1DBB7D
:101920001D8F1DB96E69031D02E1079803D08B84DA
:10193000036707981EAF0DD06F2F1AD054C46FF4F1
:101940003951032715E303691E9F1EAB11D01E8D6D
:101950000FD01EAD0DD06F2F0BD054C46FF4395182
:10196000035F06E2036B1E9D1EBB1E8F1EB96F69CF
:10197000041D02E1079803D08B80046707981FAF0E
:101980000DD0702F1AD055C470F43A51042715E3C6
:1019900004691F9F1FAB11D01F8D0FD01FAD0DD03D
:1019A000702F0BD055C470F43A51045F06E2046BFB
:1019B0001F9D1FBB1F8F1FB97069051D02E107988E
:1019C00003D08C8A0567079820AF0DD0712F1AD0ED
:1019D00056C471F43B51052715E30569209F20ABE0
:1019E00011D0208D0FD020AD0DD0712F0BD056C44B
:1019F00071F43B51055F06E2056B209D20BB208FF3
:101A000020B97169061D02E1079803D08C8C066726
:101A1000079821AF0DD0722F1AD057C472F43C51E1
:101A2000062715E30669219F21AB11D0218D0FD028
:101A300021AD0DD0722F0BD057C472F43C51065F0C
:101A400006E2066B219D21BB218F21B97269071D1A
:101A500002E1079803D08A820767079822AF0DD06A
:101A6000732F1AD058C473F43D51072715E3076943
:101A7000229F22AB11D0228D0FD022AD0DD0732F1B
:101A80000BD058C473F43D51075F06E2076B229DEB
:101A900022BB228F22B97369081D02E1079803D087
:101AA00089880867079823AF0DD0742F1AD059C4BE
:101AB00074F43E51082715E30869239F23AB11D026
:101AC000238D0FD023AD0DD0742F0BD059C474F4D7
:101AD0003E51085F06E2086B239D23BB238F23B989
:101AE0007469091D02E1079803D08A840967079881
:101AF00024AF0DD0752F1AD05AC475F43F51092761
:101B000015E30969249F24AB11D0248D0FD024AD97
:101B10000DD0752F0BD05AC475F43F51095F06E202
:101B2000096B249D24BB248F24B975690A1D02E129
:101B3000079803D089860A67079825AF0DD0762FBE
:101B40001AD05BC476F440510A2715E30A69259F31
:101B500025AB11D0258D0FD025AD0DD0762F0BD014
:101B60005BC476F440510A5F06E20A6B259D25BBF3
:101B7000258F25B976690B1D02E1079803D08A8667
:101B80000B67079826AF0DD0772F1AD05CC477F477
:101B900041510B2715E30B69269F26AB11D0268DEB
:101BA0000FD026AD0DD0772F0BD05CC477F4415108
:101BB0000B5F06E20B6B269D26BB268F26B9776945
:101BC0000C1D02E1079803D089840C67079827AFA2
:101BD0000DD0782F1AD05DC478F442510C2715E34C
:101BE0000C69279F27AB11D0278D0FD027AD0DD0C3
:101BF000782F0BD05DC478F442510C5F06E20C6B79
:101C0000279D27BB278F27B978690D1D02E107980B
:101C100003D08A880D67079828AF0DD0792F1AD086
:101C20005EC479F443510D2715E30D69289F28AB55
:101C300011D0288D0FD028AD0DD0792F0BD05EC4D8
:101C400079F443510D5F06E20D6B289D28BB288F68
:101C500028B979690E1D02E1079803D089820E67C1
:101C6000079829AF0DD07A2F1AD05FC47AF4445167
:101C70000E2715E30E69299F29AB11D0298D0FD0AE
:101C800029AD0DD07A2F0BD05FC47AF444510E5F8A
:101C900006E20E6B299D29BB298F29B97A690F1D90
:101CA00002E1079803D08A8A0F6707982AAF0DD000
:101CB0007B2F1AD060C47BF445510F2715E30F69C1
:101CC0002A9F2AAB11D02A8D0FD02AAD0DD07B2FA1
:101CD0000BD060C47BF445510F5F06E20F6B2A9D69
:101CE0002ABB2A8F2AB97B69101D02E1079803D00D
:101CF0008980106707982BAF0DD07C2F1AD061C454
:101D00007CF44651102715E310692B9F2BAB11D0A3
:101D10002B8D0FD02BAD0DD07C2F0BD061C47CF45C
:101D20004651105F06E2106B2B9D2BBB2B8F2BB9FE
:101D30007C69111D02E1079803D08C8E116707980A
:101D40002CAF0DD07D2F1AD062C47DF447511127DE
:101D500015E311692C9F2CAB11D02C8D0FD02CAD1D
:101D60000DD07D2F0BD062C47DF44751115F06E288
:101D7000116B2C9D2CBB2C8F2CB97D69121D02E19F
:101D8000079803D08C88126707982DAF0DD07E2F4F
:101D90001AD063C47EF44851122715E312692D9FAF
:101DA0002DAB11D02D8D0FD02DAD0DD07E2F0BD0A2
:101DB00063C47EF44851125F06E2126B2D9D2DBB69
:101DC0002D8F2DB97E69131D02E1079803D08B82F8
:101DD000136707982EAF0DD07F2F1AD064C47FF4FD
:101DE0004951132715E313692E9F2EAB11D02E8D69
:101DF0000FD02EAD0DD07F2F0BD064C47FF449518E
:101E0000135F06E2136B2E9D2EBB2E8F2EB97F69BA
:101E1000141D02E1079803D08C84146707982FAF34
:101E20000DD0802F1AD065C480F44A51142715E3D1
:101E300014692F9F2FAB11D02F8D0FD02FAD0DD048
:101E4000802F0BD065C480F44A51145F06E2146BF6
:101E50002F9D2FBB2F8F2FB98069151D02E1079889
:101E600003D08C821567079830AF0DD0812F1AD020
:101E700066C481F44B51152715E31569309F30ABCB
:101E800011D0308D0FD030AD0DD0812F0BD066C466
:101E900081F44B51155F06E2156B309D30BB308FDE
:101EA00030B98169161D02E1079803D08C86166748
:101EB000079831AF0DD0822F1AD067C482F44C51ED
:101EC000162715E31669319F31AB11D0318D0FD034
:101ED00031AD0DD0822F0BD067C482F44C51165F08
:101EE00006E2166B319D31BB318F31B98269171D06
:101EF00002E1079803D08C801767079832AF0DD0A6
:101F0000832F1AD068C483F44D51172715E317693E
:101F1000329F32AB11D0328D0FD032AD0DD0832F26
:101F20000BD068C483F44D51175F06E2176B329DE6
:101F300032BB328F32B98369181D01E101D08D9017
:101F400033AF0DD0842F1AD069C484F44E511827B2
:101F500015E31869339F33AB11D0338D0FD033ADF8
:101F60000DD0842F0BD069C484F44E51185F06E263
:101F7000186B339D33BB338F33B98469191D01E16D
:101F800001D08D9234AF0DD0852F1AD06AC485F45C
:101F90004F51192715E31969349F34AB11D0348D93
:101FA0000FD034AD0DD0852F0BD06AC485F44F51BE
:101FB000195F06E2196B349D34BB348F34B98569DF
:101FC0001A1D01E101D08D9435AF0DD0862F1AD0A6
:101FD0006BC486F450511A2715E31A69359F35AB47
:101FE00011D0358D0FD035AD0DD0862F0BD06BC4F1
:101FF00086F450511A5F06E21A6B359D35BB358F5A
:1020000035B98669069E07A809D01A2E12001A68EB
:10201000192E120006A6B2EC07F0120006B6E6EC86
:1020200007F019681A6812009EBAAE50ABA4FCD72C
:10203000AE509EAAFED7ABB4FCD7AE50FF0BF4E176
:1020400009EC05F0F29EF29C8D848D908D92730EBA
:10205000D36ED180040003008D84BAEC01F08D941E
:02206000F9D7AE
:020000040001F9
:10400000FF06000002000000000000000000004267
:105000000F0BE846F9CF09F3F926300C310C320CBE
:10501000330C340C350C360C370C380C390C410C75
:10502000420C430C440C450C460C0F0BE846F9CFE0
:1050300009F3F926820C420C200C100C080C040C0D
:10504000020C010C000C000C000C020C020C020CF7
:10505000020C020C0F0BE846F9CF09F3F926340CC9
:10506000190C8C0C450C220C100C070C030CAC0C0E
:0E507000550C270C070C070C070C070C070C3F
:020000040030CA
:0100010006F8
:0100020019E4
:010003001DDF
:01000500807A
:010006008178
:010008003FB8
:01000900C036
:01000A003FB6
:01000B00E014
:01000C003FB4
:01000D0040B2
:0200000400F00A
:10000000FF060000020000000000000000000042A7
:00000001FF
