:020000040000FA
:0600000004009AEF00F07D
:020006000000F8
:0600080004001FEF03F0ED
:0600180004000AEF03F0F2
:02001E000400DC
:10002000400ED36E9F0ED06E100EF26EB00EF16EBB
:10003000000EF06E000E9D6E000EA06E000EA36E00
:10004000000E9F6E000EA26E000EA56E9E6AA16A43
:10005000A46A3C0EC26E0F0EC16EC06AB56A1F0E56
:10006000806EBE0E816E3F6E826E8368846AC00EA3
:10007000926E410E936EC00E946E956A966A100E43
:10008000D56ED76AD66A880ECD6ECF6ACE6A080E54
:10009000CA6ECC6ACB6A800EB16EB36AB26AD26A9B
:1000A000200E6E6EBD6ABA6AB46A010ED16E12007D
:100100008D8433D98D8031D98D942FD98D902DD96F
:1001100012008D842AD98D8028D98D8226D9898A8A
:1001200024D98D9422D98D9020D98D921ED9899A67
:100130001CD912000400FC6A0FEC00F089EC00F0FE
:10014000C1EC01F08D840400AA6AA96AA69EA69C4F
:10015000A694A680FF0EA862D3D00F0EA96EA6802B
:10016000420EA862CDD00400A1988D948D82A694F1
:10017000A69EA69CAA6A010EA96EA680A850FDECB8
:1001800001F0A92AA680A8CF03F0A92AA680A8CFAB
:1001900004F0A92AA680A8CF05F0A96A8D809F98AF
:1001A0009F9A0400066A076A086A800E156E166A2E
:1001B00019681A680401006B1C6B386B546B706B08
:1001C000016B1D6B396B556B716B026B1E6B3A6B60
:1001D000566B726B036B1F6B3B6B576B736B046BD4
:1001E000206B3C6B586B746B056B216B3D6B596BD3
:1001F000756B066B226B3E6B5A6B766B076B236BD2
:100200003F6B5B6B776B086B246B406B5C6B786B45
:10021000096B256B416B5D6B796B0A6B266B426BCF
:100220005E6B7A6B0B6B276B436B5F6B7B6B0C6B43
:10023000286B446B606B7C6B0D6B296B456B616B42
:100240007D6B0E6B2A6B466B626B7E6B0F6B2B6B41
:10025000476B636B7F6B106B2C6B486B646B806BB5
:10026000116B2D6B496B656B816B126B2E6B4A6B3F
:10027000666B826B136B2F6B4B6B676B836B146BB3
:10028000306B4C6B686B846B156B316B4D6B696BB2
:10029000856B166B326B4E6B6A6B866B176B336BB1
:1002A0004F6B6B6B876B186B346B506B6C6B886B25
:1002B000196B356B516B6D6B896B1A6B366B526BAF
:1002C0006E6B8A6B1B6B376B536B6F6B8B6BF28830
:1002D0009F0ECB6ECC6A9F829D82CA849D8AF28ECD
:1002E000F28C8D920401186B0401000E186F010E40
:1002F000506F010E6C6F886FA00E346F00EF04F02A
:100300000400F29EF29C000EAA6E000EA96EA69E3C
:10031000A69CA684010EF86E400EF76E000EF66ED7
:10032000100E1B6E0900F5CFA8FF8D82A198550E07
:10033000A76EAA0EA76EA682A1A8FED70400A19858
:100340008D921B2EEFD7A694F28EF28C100E1B6EA0
:10035000898A8D808D828D8408D8899A8D908D921E
:100360008D9403D81B2EF4D7FF000400080E1E6ED8
:100370001C681D681D2EFED71C2EFBD71E2EF8D71D
:02038000120069
:0E03820004000301948E949C060EFDEC01F025
:100390000101040001EE00F0EE6AE966FDD70201FA
:1003A000040002EE00F0EE6AE966FDD70301006B7F
:1003B000036B046B056B066B900EAB6E240EAC6E7C
:1003C000080EB86E12000301086B9DAA02D09D9A18
:1003D0000881056B066B0097009308B19D8A120097
:1003E0000301086B9DA802D09D980881036B046BE4
:1003F0000095009108B19D88120003010400086F68
:1004000015ECA8F0B06E08512AECA8F0AF6E1200FF
:100410000301026F0400030102AF05D04D0E1AD88C
:100420002D0E18D8029F7F0E026304D05E0E12D8E4
:100430003F0E026F1B0E026302D0240E026F02AD4C
:1004400002BB03D05E0E06D8028D025103D8120003
:100450000301025104000301076F00A110D00351F2
:1004600004630DD0FAD70301025104000301076FA2
:1004700000A105D00351046302D00085120004C31B
:10048000E1FF010EE26E07C3E7FF0081042B9D88A8
:10049000120004000D0EDEDF0A0EDCDF120002D8AF
:1004A000015112000400030100B302D0016B1200DD
:1004B00005C3E1FF020EE26EE7CF01F3052B055104
:1004C000066301D00093120002D80151120003010B
:1004D000040000A3FDD7E6D70301026F0400030167
:1004E00002C308F3083900ECA8F02AEC02F0085126
:1004F00000ECA8F02AEC02F0120003010400200E28
:100500000C6F126B136B146B156B166BEACF0EF33B
:10051000E9CF0FF303EE12F0050E0D6F0400330E5A
:10052000EF26EFB6F00BEFBE0F0BEE5E0D2FF6D7FA
:100530001A3719371837173716371537143713374F
:1005400012370C2FE7D70EC3EAFF0FC3E9FF1200E3
:1005500004000301EACF0EF3E9CF0FF3E2CF10F36B
:10056000E1CF11F303EE16F013EE1BF0050E0D6F45
:10057000EF500F0B300FE56EED380F0B300FE56EBF
:100580000D2FF6D70EC3EAFF0FC3E9FF10C3E2FF3A
:1005900011C3E1FF12000400030100B102D09D98D5
:1005A0001200E2CF0AF3E1CF0BF303C3E1FF010E28
:1005B000E26EE7CFADFF032B0351046301D000913E
:1005C0000AC3E2FF0BC3E1FF120004000301ABB456
:1005D0001BD8ABB21BD800A306D00551066303D0CD
:1005E0000087AE501200E2CF0AF3E1CF0BF306C34F
:1005F000E1FF020EE26EAECFE7FF0083062B0AC3D7
:10060000E2FF0BC3E1FF1200008B12000089AB98E0
:04061000AB881200A1
:0C061400026ED8CF00F0E0CF01F09EA8ED
:1006200003D0CBEC02F09E989EAA03D0E5EC02F03A
:100630009E9A01C0E0FF025000C0D8FF1000F2A255
:1006400010D0F292068C078C04C011F005C012F095
:10065000151C05E0156605D01666160602D0164A6A
:1006600016689EA213D081BC03D0154A156802D02B
:100670001566150606AC07D0122E07D0116607D0F6
:10068000069C068E136806BE068A9E92110011060D
:040690001268FBD71A
:10080000040006BA45EC0DF0030100BB2CD903012E
:1008100000B93DD9030100B751D9030100A306D0A7
:1008200006B002D076D902D052EC02F006B4A7D8B6
:1008300006B0D1D806A838D006A232D015669ED010
:1008400006920680780E176E1868166A0401000E6C
:100850001B6F536B6F6B8B6B376B0401000E186F44
:10086000506B6C6B886B346B0401000E196F516B0D
:100870006D6B896B356B0401000E1A6F526B6E6BDA
:100880008A6B366BF00E35EC02F0210E35EC02F07F
:10089000000E35EC02F0000E35EC02F059D96ED0A6
:1008A000161C6CE106826AD006A231D0166666D0AC
:1008B000069207B663D006880401FF0E1B6F020E76
:1008C000536F010E6F6F8B6F400E376F0401FF0E79
:1008D000196F020E516F010E6D6F896F400E356FEB
:1008E0000401FF0E1A6F020E526F010E6E6F8A6FB7
:1008F000400E366FF00E35EC02F0210E35EC02F0B2
:10090000280E35EC02F0000E35EC02F037D0161C44
:1009100035E106820401FF0E1B6FFF0E536F1E0EA2
:100920006F6F8B6F600E376F0401FF0E186FFF0E35
:10093000506F1E0E6C6F886F600E346F0401FF0ED7
:10094000196FFF0E516F1E0E6D6F896F600E356F40
:100950000401FF0E1A6FFF0E526F1E0E6E6F8A6F2C
:10096000600E366FF00E35EC02F0210E35EC02F021
:100970002D0E35EC02F0050E35EC02F041D70301E7
:10098000110E106E0401FF0E1B6FFF0E536F1E0E33
:100990006F6F8B6F600E376F0401FF0E196FFF0EC4
:1009A000516F1E0E6D6F896F600E356F0401000E62
:1009B0001A6F526B6E6B8A6B366BF00E35EC02F071
:1009C000210E35EC02F0380E35EC02F0050E35EC58
:1009D00002F0086A12000400151C02E1078A15D013
:1009E000156613D007AA11D0079A077E1768F00E74
:1009F00035EC02F0210E35EC02F03F0E35EC02F042
:100A0000010E07AE020E35EC02F007AE07AC120085
:100A1000079C172E12009CD8182A300E1860186AEE
:100A20003F0E18140A6E0A8C83D904011A6B196BD5
:100A3000186B1B6B18B41A6918B6196918B81869BD
:100A400018BA1B69F00E35EC02F0210E35EC02F0FD
:100A5000E86A18B2E88618B0E88035EC02F0020EB9
:100A600035EC02F012000301009B0401FF0E1A6F27
:100A7000FF0E526F1E0E6E6F8A6F600E366F04018E
:100A8000FF0E196F516B6D6B896B356B1200030193
:100A900000990401FF0E1A6FFF0E526F1E0E6E6F4B
:100AA0008A6F600E366F0401FF0E196FFF0E516FD3
:100AB0001E0E6D6F896F600E356F12000401FF0E00
:100AC0001A6FFF0E526F1E0E6E6F8A6F600E366FBA
:100AD0000401000E196F010E516F010E6D6F896FC9
:100AE000A00E356F086AE3EC01F01200230E106EC1
:100AF00080EF05F0220E106E80EF05F0200E106ED4
:100B00000401FF0E1A6F526B6E6B8A6B366B086AAC
:100B10001200040064EC02F00400030101AF00D1F4
:100B2000085001E0E3DF0301040001510F0B0362F1
:100B300012000401FF0E1B6F020E536F010E6F6F48
:100B40008B6F400E376F0139070B02E043EF06F061
:100B50000401006B1C6B386B546B706B016B1D6B6D
:100B6000396B556B716B026B1E6B3A6B566B726B0C
:100B7000036B1F6B3B6B576B736B046B206B3C6B96
:100B8000586B746B056B216B3D6B596B756B066B0A
:100B9000226B3E6B5A6B766B076B236B3F6B5B6B09
:100BA000776B086B246B406B5C6B786B096B256B08
:100BB000416B5D6B796B0A6B266B426B5E6B7A6B7C
:100BC0000B6B276B436B5F6B7B6B0C6B286B446B06
:100BD000606B7C6B0D6B296B456B616B7D6B0E6B7A
:100BE0002A6B466B626B7E6B0F6B2B6B476B636B79
:100BF0007F6B106B2C6B486B646B806B116B2D6B78
:100C0000496B656B816B126B2E6B4A6B666B826BEB
:100C1000136B2F6B4B6B676B836B146B306B4C6B75
:100C2000686B846B156B316B4D6B696B856B166BE9
:100C3000326B4E6B6A6B866B176B336B4F6B6B6BE8
:100C4000876B186B346B506B6C6B886B196B356BE7
:100C5000516B6D6B896B1A6B366B526B6E6B8A6B5B
:100C60001B6B376B536B6F6B8B6B800E35EC02F02D
:100C70000401FF0E196F020E516F010E6D6F896F27
:100C8000400E356F1200096EE82C03D0010E086E7D
:100C90001200E82C03D0020E086E1200E82C03D0DC
:100CA000040E086E1200E82C03D0050E086E120028
:100CB000E82C02D07AEF05F0E82C02D07AEF05F0AC
:100CC000E82C03D0090E086E1200010E106E04010C
:100CD000FF0E1B6FFF0E536F1E0E6F6F8B6F600E3C
:100CE000376F0401FF0E196FFF0E516F1E0E6D6FEF
:100CF000896F600E356F0401000E1A6F526B6E6BB8
:100D00008A6B366BF00E35EC02F0210E35EC02F0FA
:100D1000280E35EC02F0000E35EC02F0086A1200E5
:100D20000400085001E1120001C30AF0E82C23D0AE
:100D300038EC0DF014BC7EEF05F014BE09D00ABCEF
:100D4000086A03D0E86A24EF0DF0E86824EF0DF09C
:100D5000900E35EC02F014503F0B0ABCE88C35ECD9
:100D600002F00401FF0E196F020E516F010E6D6F3C
:100D7000896F400E356FE82C09D038EC0DF014BCAB
:100D80007EEF05F00ABC148C082A1200E82C20D053
:100D900014BE08D0D89014BCD8800A34086A0A500F
:100DA00024EF0DF0A00E35EC02F0149E145035EC3B
:100DB00002F00A5035EC02F0086A0401FF0E196FC8
:100DC000020E516F010E6D6F896F400E356F12006C
:100DD000E82C11D038EC0DF014BC7EEF05F00ABC05
:100DE000148C390E0B6E550E0C6E060E086E0D6AC5
:100DF000000E0E6E1200E82C0AD038EC0DF014BC78
:100E00007EEF05F00ABC148C070E086E1200E82C69
:100E10000DEF0BF004000A500C6201EF0BF00E50C6
:100E200002E083EF08F0086A05EE00F014503F0B73
:100E3000EF24E828300801E27EEF05F0EF280D648A
:100E400001EF0BF0EF2A14BC4BD0EF280D627EEFC0
:100E500005F014AE12D00400B00E35EC02F01450C0
:100E600035EC02F005EE00F0EE5035EC02F00D2E00
:100E7000FBD7550E35EC02F01200040005EE00F031
:100E800014EE00F024EE1CF014503F0BE126D9269E
:100E900018081E6EEECF1BF01BC01DF0DE6AEECFF1
:100EA000E7FFE74601E0E780012A1E4E03D01B2E34
:100EB000F5D712001B4E1200B00E35EC02F0E86AB6
:100EC00014BCE88C35EC02F01B0435EC02F0EE505B
:100ED00035EC02F01B2EFBD7550E35EC02F012005C
:100EE0001B6A1C6A1B2A070E1C26EF501C5CFAE3C7
:100EF000EF281C6E1B240D5C01E255EF08F0EF2873
:100F0000E926560EEF627EEF05F01C501B240D62A1
:100F10007EEF05F0B2DF04000F6A0F8E560EEE6210
:100F2000C7D014EE00F014503F0BE12618081E6ED7
:100F30000FBE0CD01B421BAE05D00F5035EC02F09B
:100F40000F6A1B421B50EFBC0F1202D0EFBCE680B1
:100F50000FAE05D01E2E03D00F6A800E1B6E1D4EE5
:100F600098D00FBE0CD01B421BAE05D00F5035ECF5
:100F700002F00F6A1B421B50EFBA0F1202D0EFBAF9
:100F8000E6800FAE05D01E2E03D00F6A800E1B6EBA
:100F90001D4E7FD00FBE0CD01B421BAE05D00F5094
:100FA00035EC02F00F6A1B421B50EFB80F1202D053
:100FB000EFB8E6800FAE05D01E2E03D00F6A800E6C
:100FC0001B6E1D4E66D00FBE0CD01B421BAE05D053
:100FD0000F5035EC02F00F6A1B421B50EFB60F1298
:100FE00002D0EFB6E6800FAE05D01E2E03D00F6AFA
:100FF000800E1B6E1D4E4DD00FBE0CD01B421BAE83
:1010000005D00F5035EC02F00F6A1B421B50EFB4B5
:101010000F1202D0EFB4E6800FAE05D01E2E03D023
:101020000F6A800E1B6E1D4E34D00FBE0CD01B42BB
:101030001BAE05D00F5035EC02F00F6A1B421B505F
:10104000EFB20F1202D0EFB2E6800FAE05D01E2E27
:1010500003D00F6A800E1B6E1D4E1BD00FBE0CD02E
:101060001B421BAE05D00F5035EC02F00F6A1B423D
:101070001B50EFB00F1202D0EFB0E6800FAE05D0DC
:101080001E2E03D00F6A800E1B6E1D4E02D0E92A61
:101090004FD70FBE08D01BBE03D00F5035EC02F067
:1010A000550E35EC02F0086A1200EF0601EF0BF066
:1010B000040E106E0401FF0E1B6FFF0E536F1E0E09
:1010C0006F6F8B6F600E376F0401FF0E196FFF0E8D
:1010D000516F1E0E6D6F896F600E356F0401000E2B
:1010E0001A6F526B6E6B8A6B366BF00E35EC02F03A
:1010F000210E35EC02F0380E35EC02F0010E35EC25
:1011000002F0086A1200E82E12D0030E0D5C01E214
:1011100001EF0BF001E07EEF05F005EE02F0ED507F
:101120003F0B3A0801E07EEF05F0086A1200E82E56
:101130002CD0010E0D5C01E201EF0BF001E07EEF1F
:1011400005F005EE00F00B0EEF5C01E37EEF05F01D
:10115000F29EF29C000EAA6E010EA96EA69EA69C9F
:10116000A684EFCFA8FFA198550EA76EAA0EA76E72
:10117000A682A1A8FED70400A198A694F28EF28CB4
:10118000EF50FDEC01F0086A1200E82E46D0010E87
:101190000D5C01E201EF0BF001E07EEF05F005EEE2
:1011A00000F0240EEF627EEF05F080EF01F0700E8C
:1011B000106E0401FF0E1B6FFF0E536F1E0E6F6F3C
:1011C0008B6F600E376F0401FF0E196FFF0E516FAA
:1011D0001E0E6D6F896F600E356F0401FF0E1A6F62
:1011E000FF0E526F1E0E6E6F8A6F600E366F040117
:1011F000000E186F506B6C6B886B346BF00E35EC17
:1012000002F0210E35EC02F02D0E35EC02F0050E49
:1012100035EC02F0086A1200FFD7E82E48D0020E23
:101220000D5C01E201EF0BF001E07EEF05F005EE51
:1012300001F0500EED627EEF05F0F00E35EC02F09D
:101240000F5035EC02F0EF5035EC02F0EFCF05F027
:101250000FB0058E046A0FB20482F29EF29C000E5B
:10126000AA6E030EA96EA69EA69CA68404C0A8FF23
:10127000A198550EA76EAA0EA76EA682A1A8FED7AA
:101280000400A198000EAA6E040EA96E05C0A8FF66
:10129000A198550EA76EAA0EA76EA682A1A8FED78A
:1012A0000400A198A694F28EF28C086A1200E82E2F
:1012B0002FD0020E0D5C01E201EF0BF001E07EEF9A
:1012C00005F005EE01F0410EED627EEF05F0490EEE
:1012D000ED627EEF05F0EF500F0B036EF29EF29C75
:1012E000000EAA6E020EA96EA69EA69CA68403C03E
:1012F000A8FFA198550EA76EAA0EA76EA682A1A858
:10130000FED70400A198A694F28EF28C086A12000F
:10131000E82E3CD0010E0D5C01E201EF0BF001E084
:101320007EEF05F005EE00F05A0EEF627EEF05F05D
:10133000086AF00E35EC02F0E86A35EC02F05A0E5D
:1013400035EC02F05A0E35EC02F08A8E0401FF0EE5
:10135000186FFF0E506F1E0E6C6F886F700E346F1B
:101360000401FF0E196FFF0E516F1E0E6D6F896F16
:10137000700E356F0401FF0E1A6FFF0E526F1E0EB6
:101380006E6F8A6F700E366F06861200E82EFED7DB
:10139000010E0D5C01E201EF0BF001E07EEF05F0C4
:1013A00005EE00F05A0EEF627EEF05F0086AF00ECF
:1013B00035EC02F0010E35EC02F05A0E35EC02F07D
:1013C0005A0E35EC02F08A9E0401000E186F010ED1
:1013D000506F010E6C6F886FA00E346F0401000E09
:1013E000196F516B6D6B896B356B0401000E1A6FB1
:1013F000526B6E6B8A6B366B069619681A68120010
:10140000E82E10D0010E0D5C01E201EF0BF001E0BF
:101410007EEF05F005EE00F0580EEF627EEF05F06E
:1014200093EF11F0E82E87D0010E0D5C01E201EF81
:101430000BF001E07EEF05F005EE00F0240EEF6208
:101440007EEF05F0F00E35EC02F0230E35EC02F0E5
:101450001E0E35EC02F00350F009E89E35EC02F068
:101460001F0E35EC02F0300E35EC02F0000E35ECBC
:1014700002F0E86A35EC02F0E86A06B8E88406B6DD
:10148000E88235EC02F0E86A07B6E88404B0E88246
:1014900005BEE88035EC02F00550E89E35EC02F020
:1014A000E86A35EC02F0E86A35EC02F0E86A35ECFF
:1014B00002F0E86A35EC02F0000E35EC02F0E86A62
:1014C00035EC02F0000E35EC02F0000E35EC02F0C7
:1014D000000E35EC02F0000E35EC02F0010E35EC9A
:1014E00002F0000E35EC02F0000E35EC02F0000EBA
:1014F00035EC02F0020E35EC02F0000E35EC02F095
:10150000000E35EC02F0000E35EC02F0030E35EC67
:1015100002F0000E35EC02F0000E35EC02F0000E89
:1015200035EC02F01050106A35EC02F01B0E35EC71
:1015300002F0086A1200E82E0CD0040E0D5C01E2E5
:1015400001EF0BF001E07EEF05F005EE00F07AEF21
:1015500005F0E82E10D0010E0D5C01E201EF0BF05A
:1015600001E07EEF05F005EE00F0430EEF627EEF46
:1015700005F07AEF05F0E82E18D00D5001E101EFEB
:101580000BF005EE00F0EF28E828E8280D5C01E2FA
:1015900001EF0BF001E07EEF05F00D04E926440EAB
:1015A000EF627EEF05F07AEF05F0050E106E040194
:1015B000FF0E1B6FFF0E536F1E0E6F6F8B6F600E53
:1015C000376F0401FF0E196FFF0E516F1E0E6D6F06
:1015D000896F600E356F0401000E1A6F526B6E6BCF
:1015E0008A6B366BF00E35EC02F0210E35EC02F012
:1015F000280E35EC02F0000E35EC02F0086A1200FD
:1016000012000D500B647EEF05F005EE00F00D505A
:10161000E9260AC0EFFF0D281200E82C04D00A28A2
:101620000F6E082A1200E82C52D00A2A14BE16D0D7
:1016300004EE1CF014503F0BE926EF6A14BCEF8E49
:1016400014ACEF8C1C0EE9260FC0EFFFE9260AC090
:10165000EFFFE9260AC0EFFF086A1200C00E35EC62
:1016600002F01450149E35EC02F00F0435EC02F039
:101670000A0435EC02F01200060E106E0401FF0E93
:101680001B6FFF0E536F1E0E6F6F8B6F600E376FE9
:101690000401FF0E196FFF0E516F1E0E6D6F896FE3
:1016A000600E356F0401000E1A6F526B6E6B8A6B01
:1016B000366BF00E35EC02F0210E35EC02F0380EF0
:1016C00035EC02F0010E35EC02F0086A1200E82C4D
:1016D000C6D00ABC5CD00ABA58D00A500AE1020E41
:1016E0000B6E5A0E0C6E060E086E0D6A060E0E6E0E
:1016F0001200E82C0AD0020E0B6E5A0E0C6E060E6B
:10170000086E0D6A070E0E6E1200E82C0AD0020E4B
:101710000B6E590E0C6E060E086E0D6A080E0E6EDC
:101720001200E82C0AD0020E0B6E540E0C6E060E40
:10173000086E0D6A090E0E6E1200E82C03D00E0E14
:10174000086E1200E82C03D00F0E086E1200E82C71
:101750000AD0050E0B6E3C0E0C6E060E086E0D6A5E
:101760000A0E0E6E1200E82C03D0100E086E120046
:10177000E82C7EEF05F0020E0B6E410E0C6E060E8D
:10178000086E0D6A0B0E0E6E12007EEF05F006A8B5
:10179000210E106E80EF05F00AAA49D00AA853D096
:1017A0000F0E0A1419E106980401000E186F010EBD
:1017B000506F010E6C6F886FA00E346FF00E35EC19
:1017C00002F0210E35EC02F0170E35EC02F0070E98
:1017D00035EC02F0086A1200E82C0AD0040E0B6EF9
:1017E0003D0E0C6E060E086E0D6A010E0E6E120096
:1017F000E82C0AD0020E0B6E260E0C6E060E086E3A
:101800000D6A020E0E6E1200E82C0AD0020E0B6E4C
:10181000720E0C6E060E086E0D6A030E0E6E12002E
:10182000E82C03D00786D3EF0BF07EEF05F00AC05B
:101830000FF0030E0B6E4F0E0C6E060E086E0D6A47
:10184000040E0E6E12000AC00FF0030E0B6E440E53
:101850000C6E060E086E0D6A050E0E6E1200E82C58
:101860002BD0080E106E0401FF0E1B6FFF0E536F7E
:101870001E0E6F6F8B6F600E376F0401FF0E196FB6
:10188000FF0E516F1E0E6D6F896F600E356F040174
:10189000000E1A6F526B6E6B8A6B366BF00E35EC66
:1018A00002F0210E35EC02F0280E35EC02F0000EAD
:1018B00035EC02F0086A1200E82C2BD00B0E106EEB
:1018C0000401FF0E1B6FFF0E536F1E0E6F6F8B6FA9
:1018D000600E376F0401FF0E196FFF0E516F1E0E61
:1018E0006D6F896F600E356F0401000E1A6F526BB9
:1018F0006E6B8A6B366BF00E35EC02F0210E35EC18
:1019000002F0280E35EC02F0000E35EC02F0086A09
:101910001200E82C2BD00C0E106E0401FF0E1B6F72
:10192000FF0E536F1E0E6F6F8B6F600E376F0401CB
:10193000FF0E196FFF0E516F1E0E6D6F896F600ED7
:10194000356F0401000E1A6F526B6E6B8A6B366B2B
:10195000F00E35EC02F0210E35EC02F0280E35ECDD
:1019600002F0000E35EC02F0086A1200E82C2BD0D1
:101970000D0E106E0401FF0E1B6FFF0E536F1E0E37
:101980006F6F8B6F600E376F0401FF0E196FFF0EC4
:10199000516F1E0E6D6F896F600E356F0401000E62
:1019A0001A6F526B6E6B8A6B366BF00E35EC02F071
:1019B000210E35EC02F0280E35EC02F0000E35EC6D
:1019C00002F0086A1200E82C0CD00AC00FF0830E57
:1019D0000B6E730E0C6E060E086E0D6A0C0E0E6EFC
:1019E0001200E82C02D07AEF05F0E82C02D07AEF52
:1019F00005F00E0E106E0401FF0E1B6FFF0E536FED
:101A00001E0E6F6F8B6F600E376F0401FF0E196F24
:101A1000FF0E516F1E0E6D6F896F600E356F0401E2
:101A2000000E1A6F526B6E6B8A6B366BF00E35ECD4
:101A300002F0210E35EC02F0280E35EC02F0000E1B
:101A400035EC02F0086A12000400149E149C1E6E0D
:101A500004EE00F01450E9261EC0EFFF1C0EE9262C
:101A6000EF6AE926EF6AE926EF6AE926EF6A1200D3
:101A700004003F0E0A14146E170E14641200180EA0
:101A8000145E1460148C148E120004000401069A73
:101A9000135056E0006301D08B98016301D08B9600
:101AA000026301D08B9A036301D08B94046301D04D
:101AB0008B90056301D08C9A066301D08C9C0763E0
:101AC00001D08A92086301D08998096301D08A9471
:101AD0000A6301D089960B6301D08A960C6301D00A
:101AE00089940D6301D08A980E6301D089920F63A7
:101AF00001D08A9A106301D08990116301D08C9E25
:101B0000126301D08C98136301D08B92146301D0BF
:101B10008C94156301D08C92166301D08C96176358
:101B200001D08C90186301D08D80196301D08D8213
:101B30001A6301D08D841B6301D0898A13061200B9
:101B40000788001D01E08B88006707981CAF0FD045
:101B5000702F1AD054C470F43851002715E300696F
:101B60001C9F1CAB11D01C8D1CB970690DD01CAD15
:101B70000BD0702F09D054C470F43851005F04E2C8
:101B8000006B1C9D1CBB1C8F011D01E08B86016737
:101B900007981DAF0FD0712F1AD055C471F4395169
:101BA000012715E301691D9F1DAB11D01D8D1DB9C6
:101BB00071690DD01DAD0BD0712F09D055C471F4D2
:101BC0003951015F04E2016B1D9D1DBB1D8F021D7C
:101BD00001E08B8A026707981EAF0FD0722F1AD0D0
:101BE00056C472F43A51022715E302691E9F1EABD8
:101BF00011D01E8D1EB972690DD01EAD0BD0722F83
:101C000009D056C472F43A51025F04E2026B1E9D81
:101C10001EBB1E8F031D01E08B84036707981FAF57
:101C20000FD0732F1AD057C473F43B51032715E319
:101C300003691F9F1FAB11D01F8D1FB973690DD092
:101C40001FAD0BD0732F09D057C473F43B51035F02
:101C500004E2036B1F9D1FBB1F8F041D01E08B80DF
:101C60000467079820AF0FD0742F1AD058C474F4AB
:101C70003C51042715E30469209F20AB11D0208D2F
:101C800020B974690DD020AD0BD0742F09D058C481
:101C900074F43C51045F04E2046B209D20BB208F50
:101CA000051D01E08C8A0567079821AF0FD0752FBD
:101CB0001AD059C475F43D51052715E30569219FD4
:101CC00021AB11D0218D21B975690DD021AD0BD07B
:101CD000752F09D059C475F43D51055F04E2056BB9
:101CE000219D21BB218F061D01E08C8C0667079882
:101CF00022AF0FD0762F1AD05AC476F43E51062761
:101D000015E30669229F22AB11D0228D22B9766994
:101D10000DD022AD0BD0762F09D05AC476F43E51A7
:101D2000065F04E2066B229D22BB228F071D01E0A5
:101D30008A820767079823AF0FD0772F1AD05BC42A
:101D400077F43F51072715E30769239F23AB11D091
:101D5000238D23B977690DD023AD0BD0772F09D010
:101D60005BC477F43F51075F04E2076B239D23BBFD
:101D7000238F081D01E089880867079824AF0FD0DA
:101D8000782F1AD05CC478F44051082715E308690D
:101D9000249F24AB11D0248D24B978690DD024ADB3
:101DA0000BD0782F09D05CC478F44051085F04E26E
:101DB000086B249D24BB248F091D01E08A840967D8
:101DC000079825AF0FD0792F1AD05DC479F441510F
:101DD000092715E30969259F25AB11D0258D25B964
:101DE00079690DD025AD0BD0792F09D05DC479F478
:101DF0004151095F04E2096B259D25BB258F0A1D12
:101E000001E089860A67079826AF0FD07A2F1AD08B
:101E10005EC47AF442510A2715E30A69269F26AB6D
:101E200011D0268D26B97A690DD026AD0BD07A2F28
:101E300009D05EC47AF442510A5F04E20A6B269D1F
:101E400026BB268F0B1D01E08A860B67079827AFFC
:101E50000FD07B2F1AD05FC47BF443510B2715E3BF
:101E60000B69279F27AB11D0278D27B97B690DD030
:101E700027AD0BD07B2F09D05FC47BF443510B5FA0
:101E800004E20B6B279D27BB278F0C1D01E0898483
:101E90000C67079828AF0FD07C2F1AD060C47CF451
:101EA00044510C2715E30C69289F28AB11D0288DCD
:101EB00028B97C690DD028AD0BD07C2F09D060C427
:101EC0007CF444510C5F04E20C6B289D28BB288FE6
:101ED0000D1D01E08A880D67079829AF0FD07D2F6F
:101EE0001AD061C47DF445510D2715E30D69299F72
:101EF00029AB11D0298D29B97D690DD029AD0BD021
:101F00007D2F09D061C47DF445510D5F04E20D6B56
:101F1000299D29BB298F0E1D01E089820E67079834
:101F20002AAF0FD07E2F1AD062C47EF446510E27FE
:101F300015E30E692A9F2AAB11D02A8D2AB97E6932
:101F40000DD02AAD0BD07E2F09D062C47EF446514D
:101F50000E5F04E20E6B2A9D2ABB2A8F0F1D01E043
:101F60008A8A0F6707982BAF0FD07F2F1AD063C4D0
:101F70007FF447510F2715E30F692B9F2BAB11D02F
:101F80002B8D2BB97F690DD02BAD0BD07F2F09D0B6
:101F900063C47FF447510F5F04E20F6B2B9D2BBB93
:101FA0002B8F101D01E08980106707982CAF0FD090
:101FB000802F1AD064C480F44851102715E31069AB
:101FC0002C9F2CAB11D02C8D2CB980690DD02CAD51
:101FD0000BD0802F09D064C480F44851105F04E214
:101FE000106B2C9D2CBB2C8F111D01E08C8E11676A
:101FF00007982DAF0FD0812F1AD065C481F44951B5
:10200000112715E311692D9F2DAB11D02D8D2DB901
:1020100081690DD02DAD0BD0812F09D065C481F41D
:102020004951115F04E2116B2D9D2DBB2D8F121DA7
:1020300001E08C88126707982EAF0FD0822F1AD03C
:1020400066C482F44A51122715E312692E9F2EAB03
:1020500011D02E8D2EB982690DD02EAD0BD0822FCE
:1020600009D066C482F44A51125F04E2126B2E9DBD
:102070002EBB2E8F131D01E08B82136707982FAFA5
:102080000FD0832F1AD067C483F44B51132715E365
:1020900013692F9F2FAB11D02F8D2FB983690DD0CE
:1020A0002FAD0BD0832F09D067C483F44B51135F3E
:1020B00004E2136B2F9D2FBB2F8F141D01E08C8426
:1020C0001467079830AF0FD0842F1AD068C484F4F7
:1020D0004C51142715E31469309F30AB11D0308D6B
:1020E00030B984690DD030AD0BD0842F09D068C4CD
:1020F00084F44C51145F04E2146B309D30BB308F7C
:10210000151D01E08C821567079831AF0FD0852F20
:102110001AD069C485F44D51152715E31569319F0F
:1021200031AB11D0318D31B985690DD031AD0BD0C6
:10213000852F09D069C485F44D51155F04E2156BF4
:10214000319D31BB318F161D01E08C8616670798D3
:1021500032AF0FD0862F1AD06AC486F44E5116279C
:1021600015E31669329F32AB11D0328D32B98669D0
:102170000DD032AD0BD0862F09D06AC486F44E51F3
:10218000165F04E2166B329D32BB328F171D01E0E1
:102190008C801767079833AF0FD0872F1AD06BC486
:1021A00087F44F51172715E31769339F33AB11D0CD
:1021B000338D33B987690DD033AD0BD0872F09D05C
:1021C0006BC487F44F51175F04E2176B339D33BB29
:1021D000338F181D01E08D901867079834AF0FD02A
:1021E000882F1AD06CC488F45051182715E3186949
:1021F000349F34AB11D0348D34B988690DD034ADEF
:102200000BD0882F09D06CC488F45051185F04E2B9
:10221000186B349D34BB348F191D01E08D92196702
:10222000079835AF0FD0892F1AD06DC489F451515A
:10223000192715E31969359F35AB11D0358D35B99F
:1022400089690DD035AD0BD0892F09D06DC489F4C3
:102250005151195F04E2196B359D35BB358F1A1D3D
:1022600001E08D941A67079836AF0FD08A2F1AD0E5
:102270006EC48AF452511A2715E31A69369F36AB99
:1022800011D0368D36B98A690DD036AD0BD08A2F74
:1022900009D06EC48AF452511A5F04E21A6B369D5B
:1022A00036BB368F1B1D01E0899A1B67079837AF35
:1022B0000FD08B2F1AD06FC48BF453511B2715E30B
:1022C0001B69379F37AB11D0378D37B98B690DD06C
:1022D00037AD0BD08B2F09D06FC48BF453511B5FDC
:1022E00004E21B6B379D37BB378F069E07A809D0CA
:1022F0001A2E12001A68192E120006A699EC09F07F
:10230000120006B6D7EC09F019681A6812009EBAD6
:10231000AE50ABA4FCD7AE509EAAFED7ABB4FCD750
:10232000AE50FF0BF4E1A8EC05F00401000E186FAD
:10233000506B6C6B886B346B0401000E196F516B22
:102340006D6B896B356B0401000E1A6F526B6E6BEF
:102350008A6B366B0401000E1B6F536B6F6B8B6BBC
:0A236000376B040003008D74FCD7F6
:020000040001F9
:10400000FF06000002000000000000000000004267
:105000000F0BE846F9CF09F3F926300C310C320CBE
:10501000330C340C350C360C370C380C390C410C75
:10502000420C430C440C450C460C0F0BE846F9CFE0
:1050300009F3F926820C420C200C100C080C040C0D
:10504000020C010C000C000C000C020C020C020CF7
:10505000020C020C0F0BE846F9CF09F3F926340CC9
:10506000190C8C0C450C220C100C070C030CAC0C0E
:0E507000550C270C070C070C070C070C070C3F
:020000040030CA
:0100010006F8
:0100020019E4
:0100030015E7
:01000500807A
:010006008178
:010008003FB8
:01000900C036
:01000A003FB6
:01000B00E014
:01000C003FB4
:01000D0040B2
:0200000400F00A
:10000000FF060000020000000000000000000042A7
:00000001FF
