:020000040000FA
:02000000C22814
:08000800832864008A01470E01
:1000100007398207222A242A262AF12AF12AF12ADC
:10002000F12A282A382B64008A01440807398207FC
:1000300008002D2A462A4B2A622A2B2A2B2A2B2AF1
:10004000382B64008A0147080F398207CD2AE22A3B
:10005000F12AF12AF12AF12AF12AF12AF12AF12AC8
:10006000F12AF12AF12AF12AF12AF12A382B640027
:100070008A0176081F3982073A343A343A343A34DE
:100080003A343B343B343934383439343834393405
:10009000383439343834393438343B343B343A34F6
:1000A0003B343B343B343B34382B382B382B382B08
:1000B000382B382B382B382B382B64008A017608E4
:1000C0001F398207103408342034043401342034BA
:1000D0004034023410340434083408340434103406
:1000E00002342034013480341034023404340234B5
:1000F00008340134382B382B382B382B382B382B3D
:10010000382B382B382BF000030EF1000A08F700CB
:100110008A018312031364008B1CA8288B10441AD5
:10012000C20B9428C8154412C41AC30B9928481648
:10013000C412C419C10B9F284815FF30C1006400C8
:100140004B19CA0BA528CB144B1144173D08C60008
:1001500064008C1CBA288C10441BC60BB4284413B2
:10016000C41748172030C500C41BC50BB928C816D2
:10017000C413C817640077088A00710E8300F00E5C
:10018000700E090064008B138A01831603170C118B
:1001900064008312031385018601870188018901A8
:1001A0008A23AE2383160313C03085008700C13035
:1001B000860000308800890006309F0064008312AA
:1001C00003130530F500073089007B2300308900D8
:1001D0007B23F50BE32809149F01640083120317A6
:1001E0008E018F0100308D00FF308C0083160317C5
:1001F0008C130C158B1355308D00AA308D008C1488
:100200000C1164008C180229831203130D12640070
:10021000831203178E018F0101308D00831603179F
:100220008C130C14831203170C0883120313C000E1
:1002300064008312031702308D00831603178C139A
:100240000C14831203170C0883120313BD006400FF
:100250008312031700308D00722383120313890168
:100260008316031340309900831603139801181561
:100270008312031398019817831603139816831299
:100280000313722301301A23722309147523831276
:100290000313400829230910722309156A238316C2
:1002A00003138117011381128C018C148D01893085
:1002B000920072238312031318168B010B170B166F
:1002C000900109309200910109117523891464008D
:1002D0006A23831203133D0864000C1E6C299900E5
:1002E00055236400831203138C018D018B010B17BE
:1002F0000B1691011215BC14C201C301CA01FF30D3
:10030000C100C401C801CB01C901C501C601C701B3
:10031000C415C8144B145030CE00CF008A23AE232E
:1003200064000730073C031DA1290730073C031D6B
:10033000A1293F303F3C031DA1291F301F3C031959
:10034000A3290330382B8B17640083120313481D35
:10035000AD290130BC064811C814C81DB229BC1013
:10036000C811C8144B1CB629BC14C814481EBB299C
:100370003C114812C8146400CB1CC129B812CB1020
:10038000C8140422CC21BC23A429640083120313C3
:10039000481C0800CC21C529640083120313481CA3
:1003A00008000C1E080083134F0884000008990001
:1003B0004F0A0F395038CF004E02031948103C1530
:1003C0001E30C300C416C81408006400831203134F
:1003D000F500481CF1294F084E02031DF129023097
:1003E000382B640083134E088400750880004E0A81
:1003F0000F395038CE0048140800640083120313EC
:100400008C1E08001A08FD296400831203138C1E39
:1004100008009818FA2A1819042B64001A08C70053
:100420006400C71F2A2A44080739031DF22A0F3027
:1004300047054002031D08003C30CA004B15B816A2
:10044000C81405288A23142B44140800C414080077
:100450004415080013280130382B6400831203135D
:1004600047083F39BE0005233E1BF12ABE1F3C2A28
:100470008001471B8017422A64009030E52147081D
:10048000E521422A6400F830C405080064004708EA
:10049000C90044140800640049083F39BE00052320
:1004A0003E1BF12ABE1F5A2A47081F398000001739
:1004B0008013422A6400A030E5214908E52147085D
:1004C000E521422A6400471F6B2AC71E922A471E55
:1004D000CC2A6400F12A64004B1CEB2AF030E521A1
:1004E0001423C5216400831203178E018F0102308B
:1004F0008D008312031347083F39831203178C00C2
:10050000831603178C130C158B1355308D00AA30EE
:100510008D008C140C1164008C188C2A8312031328
:100520000D12002864004B1CEB2A471C9A2A471E18
:10053000F12A9C2A471AF12A47080F39C0008B1369
:100540008A23BC01AE236400831203178E018F013E
:1005500001308D00831203134008831203178C00AF
:10056000831603178C130C1555308D00AA308D009F
:100570008C140C1164008C18BB2A831203130D1207
:10058000640072230914752383120313400829237E
:10059000091072238B17422A212864004B1CEB2A76
:1005A000F030E5211423C5218B138A23BC01AE232F
:1005B000752389146A238910752309157223630032
:1005C0006400E02A6400F030E52114234B10441E3F
:1005D000BC10C814422A6400F030E5217730E521D0
:1005E000422AC7016400BC14F030C2004416C8148B
:1005F0004222102A64001812752318167830C3009E
:10060000C4163C15C814422AF12A6400831203134D
:100610003F30BE0518303E0203180800BE173E08E2
:100620003F39203E8400080064008312031347080A
:10063000E5210800640083120313BF006B23BF0889
:100640000319080089146F2389106B23BF0B222B19
:100650000800640083120313BF006B23BF08031953
:10066000080009156F2309116B23BF0B312B0800FC
:100670006400831203138B138A23BC01AE23F5009D
:10068000FF30E521750807397838E521C521F51ACD
:10069000B816751A3C14F519BC1464003C15AE2349
:1006A0006E233C11AE236E234D2B64008312031383
:1006B0003C10BC103C11AE23722309153D0E0F39BE
:1006C0001A230911722389143D080F39292389102F
:1006D0007223080064004C30F2007E2B6400263048
:1006E000F2007E2B9830F2007E2B1330F2007E2B2E
:1006F0000A30F2007E2B0530F2007E2B6400FF30C2
:10070000F300FF30F400F40B832BF30B812BF20B7F
:100710007E2B0800640083120313A001A101A20133
:10072000A301A401A501A601A701A801A901AA018D
:10073000AB01AC01AD01AE01AF01B001B101B2013D
:10074000B301B401B501B601B7011F30B8043E30A2
:10075000B9043F30BA04FF30BB04080064008312C0
:10076000031338088500390886003A0887003B08DB
:1007700088003C08890008006400481FD02B4813FB
:100780001830F500F60176080324801FCD2B3720A2
:100790008313840009248005C814F60AF50BC32BC3
:1007A0006400C81EE52BC812C8131830F500F60106
:1007B00076080324801BE22B3720831384005D20FE
:1007C0008004C814F60AF50BD82B6400C81FFE2B52
:1007D000C8131830F500F60176080324001FFB2B20
:1007E0001F3000054502031DFB2B372083138400B7
:1007F00009248005C814F60AF50BEC2B6400C81810
:10080000AE23C810080064001F39203E8400831303
:0808100008005D20FF3A08001A
:02400E007E1919
:06420000FF0000000200B7
:00000001FF
