:020000040000FA
:02000000BD2819
:08000800832864008A01470E01
:1000100007398207B529B729B929402A402A402A39
:10002000402ABB298B2A64008A01440807398207C9
:100030000800C029D529DA29EB29BE29BE29BE2905
:100040008B2A64008A0147080F3982071F2A302A49
:10005000402A402A402A402A402A402A402A402A50
:10006000402A402A402A402A402A402A8B2A6400FB
:100070008A0176081F3982073A343A343A343A34DE
:100080003A343B343B343934383439343834393405
:10009000383439343834393438343B343B343A34F6
:1000A0003B343B343B343B348B2A8B2A8B2A8B2AC0
:1000B0008B2A8B2A8B2A8B2A8B2A64008A0176084A
:1000C0001F398207103408342034043401342034BA
:1000D0004034023410340434083408340434103406
:1000E00002342034013480341034023404340234B5
:1000F000083401348B2A8B2A8B2A8B2A8B2A8B2A51
:100100008B2A8B2A8B2AF000030EF1000A08F700D5
:100110008A018312031364008B1CA3288B10441ADA
:10012000C20B9428C8154412C41AC30B9928481648
:10013000C412C419C10B9F284815FF30C1006400C8
:1001400044173D08C60064008C1CB5288C10441B65
:10015000C60BAF284413C41748172030C500C41B72
:10016000C50BB428C816C413C817640077088A00E2
:10017000710E8300F00E700E090064008B138A016B
:1001800064008312031385018601870188018901B8
:10019000D322F72283160313C03085008700C130B5
:1001A00086000030880089000F309F0064008312B1
:1001B00003130530F50007308900C42200308900A0
:1001C000C422F50BDB28063089009F016400BB22A6
:1001D0008312031389018316031340309900831699
:1001E00003139801181583120313980198178316A7
:1001F0000313981683120313BB2201306D22BB2216
:100200000915B322831603138117011381128C0180
:100210008C148D0189309200BB22831203131816AF
:100220008B010B170B1690010930920091010911F7
:10023000BE22891464008312031364008C1E1D29DE
:100240001A08BD009E226400831203138C018D01E5
:100250008B010B170B1691011215BC14C201C301BF
:10026000FF30C100C401C801CB01C901C501C601ED
:10027000C701C415C8144B145030CE00CF00D32290
:10028000F72264000730073C031D52290730073C62
:10029000031D52293F303F3C031D52291F301F3C94
:1002A0000319542903308B2A8B176400831203131C
:1002B000481D5E290130BC064811C814C81D6329B9
:1002C000BC10C811C8144B1C6729BC14C814481EA4
:1002D0006C293C114812C81464009C217821052324
:1002E0005529640083120313481C080078217129E2
:1002F0006400831203134810080064008312031380
:10030000F500481C89294F084E02031D8929023037
:100310008B2A640083134E088400750880004E0AFF
:100320000F395038CE0048140800640083120313BC
:100330008C1E08001A0895296400831203138C1E72
:1003400008009818492A1819532A64001A08C70087
:100350006400C71FBD2944080739031D412A1E3008
:10036000C300C4163C15C8140528D322692A4414B6
:100370000800C414080044150800132801308B2A13
:1003800064008312031347083F39BE0054223E1B0A
:10039000402ABE1FCF298001471B8017D129640046
:1003A0008B2A6400F830C405080064004708C900BF
:1003B00044140800640049083F39BE0054223E1B23
:1003C000402ABE1FE92947081F3980000017801303
:1003D000D12964008B2A6400471F162AC71E1A2AD7
:1003E000471E1E2A6400C719F8294719062A402A01
:1003F00064008B13D322BC01F72247193C14C718A1
:10040000BC1447183C15F7226400042A6400C71C7A
:100410000E2AF030C2004416BC14C814471CD1295F
:10042000F030C300C4163C15C814D12964004B1C1D
:10043000362A002864004B1C362A8B2A21286400A7
:100440004B1C362A8B13D322BC01F722BE228914FF
:10045000B3228910BE220915BB22630064002E2A34
:1004600064004B10441EBC10C814D1296400BC1495
:100470003C15F030C200C3004416C416C814D1297C
:10048000C7016400BC14F030C2004416C814D12166
:10049000A82964001812BE2218167830C300C416AA
:1004A0003C15C814D129402A6400831203133F303D
:1004B000BE0518303E02031C8B2A6400BE001830B3
:1004C0003E0203183E17BE173E083F39203E840007
:1004D00008006400831203130800640083120313EE
:1004E000BF00B422BF08031908008914B82289107C
:1004F000B422BF0B752A0800640083120313BF00E7
:10050000B422BF08031908000915B8220911B42242
:10051000BF0B842A08006400831203138B13D322B9
:10052000BC01F72264003C15BC143C14F722B7222E
:100530003C11BC103C10F722B722922A64008312AF
:1005400003133C10BC103C11F722BB2209153D0ED1
:100550000F396D220911BB2289143D080F397C2205
:100560008910BB22080064004C30F200C72A6400E6
:100570002630F200C72A9830F200C72A1330F20062
:10058000C72A0A30F200C72A0530F200C72A6400E1
:10059000FF30F300FF30F400F40BCC2AF30BCA2A2F
:1005A000F20BC72A0800640083120313A001A10103
:1005B000A201A301A401A501A601A701A801A90107
:1005C000AA01AB01AC01AD01AE01AF01B001B101B7
:1005D000B201B301B401B501B601B7011F30B804CF
:1005E0003E30B9043F30BA04FF30BB040800640059
:1005F0008312031338088500390886003A088700FB
:100600003B0888003C08890008006400481F192B3B
:1006100048131830F500F60176084C23801F162B7E
:1006200037208313840052238005C814F60AF50B83
:100630000C2B6400C81E2E2BC812C8131830F500EE
:10064000F60176084C23801B2B2B37208313840064
:100650005D208004C814F60AF50B212B6400C81F26
:10066000472BC8131830F500F60176084C23001FFD
:10067000442B1F3000054502031D442B37208313F4
:10068000840052238005C814F60AF50B352B64004C
:10069000C818F722C810080064001F39203E8400E3
:0A06A000831308005D20FF3A0800F4
:02400E00E61FAB
:02401000FC3F73
:00000001FF
